{
	"contracts/InsuranceContract.sol": {
		"InsuranceContract": {
			"abi": [
				{
					"inputs": [],
					"stateMutability": "nonpayable",
					"type": "constructor"
				},
				{
					"anonymous": false,
					"inputs": [
						{
							"indexed": true,
							"internalType": "address",
							"name": "owner",
							"type": "address"
						},
						{
							"indexed": true,
							"internalType": "address",
							"name": "spender",
							"type": "address"
						},
						{
							"indexed": false,
							"internalType": "uint256",
							"name": "value",
							"type": "uint256"
						}
					],
					"name": "Approval",
					"type": "event"
				},
				{
					"anonymous": false,
					"inputs": [
						{
							"indexed": true,
							"internalType": "address",
							"name": "previousOwner",
							"type": "address"
						},
						{
							"indexed": true,
							"internalType": "address",
							"name": "newOwner",
							"type": "address"
						}
					],
					"name": "OwnershipTransferred",
					"type": "event"
				},
				{
					"anonymous": false,
					"inputs": [
						{
							"indexed": true,
							"internalType": "address",
							"name": "from",
							"type": "address"
						},
						{
							"indexed": true,
							"internalType": "address",
							"name": "to",
							"type": "address"
						},
						{
							"indexed": false,
							"internalType": "uint256",
							"name": "value",
							"type": "uint256"
						}
					],
					"name": "Transfer",
					"type": "event"
				},
				{
					"inputs": [
						{
							"internalType": "address",
							"name": "owner",
							"type": "address"
						},
						{
							"internalType": "address",
							"name": "spender",
							"type": "address"
						}
					],
					"name": "allowance",
					"outputs": [
						{
							"internalType": "uint256",
							"name": "",
							"type": "uint256"
						}
					],
					"stateMutability": "view",
					"type": "function"
				},
				{
					"inputs": [
						{
							"internalType": "address",
							"name": "spender",
							"type": "address"
						},
						{
							"internalType": "uint256",
							"name": "amount",
							"type": "uint256"
						}
					],
					"name": "approve",
					"outputs": [
						{
							"internalType": "bool",
							"name": "",
							"type": "bool"
						}
					],
					"stateMutability": "nonpayable",
					"type": "function"
				},
				{
					"inputs": [
						{
							"internalType": "address",
							"name": "account",
							"type": "address"
						}
					],
					"name": "balanceOf",
					"outputs": [
						{
							"internalType": "uint256",
							"name": "",
							"type": "uint256"
						}
					],
					"stateMutability": "view",
					"type": "function"
				},
				{
					"inputs": [],
					"name": "decimals",
					"outputs": [
						{
							"internalType": "uint8",
							"name": "",
							"type": "uint8"
						}
					],
					"stateMutability": "view",
					"type": "function"
				},
				{
					"inputs": [
						{
							"internalType": "address",
							"name": "spender",
							"type": "address"
						},
						{
							"internalType": "uint256",
							"name": "subtractedValue",
							"type": "uint256"
						}
					],
					"name": "decreaseAllowance",
					"outputs": [
						{
							"internalType": "bool",
							"name": "",
							"type": "bool"
						}
					],
					"stateMutability": "nonpayable",
					"type": "function"
				},
				{
					"inputs": [
						{
							"internalType": "address",
							"name": "spender",
							"type": "address"
						},
						{
							"internalType": "uint256",
							"name": "addedValue",
							"type": "uint256"
						}
					],
					"name": "increaseAllowance",
					"outputs": [
						{
							"internalType": "bool",
							"name": "",
							"type": "bool"
						}
					],
					"stateMutability": "nonpayable",
					"type": "function"
				},
				{
					"inputs": [],
					"name": "insuranceAddress",
					"outputs": [
						{
							"internalType": "address",
							"name": "",
							"type": "address"
						}
					],
					"stateMutability": "view",
					"type": "function"
				},
				{
					"inputs": [],
					"name": "name",
					"outputs": [
						{
							"internalType": "string",
							"name": "",
							"type": "string"
						}
					],
					"stateMutability": "view",
					"type": "function"
				},
				{
					"inputs": [],
					"name": "owner",
					"outputs": [
						{
							"internalType": "address",
							"name": "",
							"type": "address"
						}
					],
					"stateMutability": "view",
					"type": "function"
				},
				{
					"inputs": [
						{
							"internalType": "string",
							"name": "newName",
							"type": "string"
						},
						{
							"internalType": "uint256",
							"name": "newAge",
							"type": "uint256"
						}
					],
					"name": "registeCustomer",
					"outputs": [],
					"stateMutability": "nonpayable",
					"type": "function"
				},
				{
					"inputs": [],
					"name": "registeInsurance",
					"outputs": [],
					"stateMutability": "payable",
					"type": "function"
				},
				{
					"inputs": [],
					"name": "registeredCustomer",
					"outputs": [
						{
							"internalType": "uint256",
							"name": "",
							"type": "uint256"
						}
					],
					"stateMutability": "view",
					"type": "function"
				},
				{
					"inputs": [],
					"name": "registeredInsurance",
					"outputs": [
						{
							"internalType": "uint256",
							"name": "",
							"type": "uint256"
						}
					],
					"stateMutability": "view",
					"type": "function"
				},
				{
					"inputs": [],
					"name": "renounceOwnership",
					"outputs": [],
					"stateMutability": "nonpayable",
					"type": "function"
				},
				{
					"inputs": [],
					"name": "symbol",
					"outputs": [
						{
							"internalType": "string",
							"name": "",
							"type": "string"
						}
					],
					"stateMutability": "view",
					"type": "function"
				},
				{
					"inputs": [],
					"name": "totalSupply",
					"outputs": [
						{
							"internalType": "uint256",
							"name": "",
							"type": "uint256"
						}
					],
					"stateMutability": "view",
					"type": "function"
				},
				{
					"inputs": [
						{
							"internalType": "address",
							"name": "to",
							"type": "address"
						},
						{
							"internalType": "uint256",
							"name": "amount",
							"type": "uint256"
						}
					],
					"name": "transfer",
					"outputs": [
						{
							"internalType": "bool",
							"name": "",
							"type": "bool"
						}
					],
					"stateMutability": "nonpayable",
					"type": "function"
				},
				{
					"inputs": [
						{
							"internalType": "address",
							"name": "from",
							"type": "address"
						},
						{
							"internalType": "address",
							"name": "to",
							"type": "address"
						},
						{
							"internalType": "uint256",
							"name": "amount",
							"type": "uint256"
						}
					],
					"name": "transferFrom",
					"outputs": [
						{
							"internalType": "bool",
							"name": "",
							"type": "bool"
						}
					],
					"stateMutability": "nonpayable",
					"type": "function"
				},
				{
					"inputs": [
						{
							"internalType": "address",
							"name": "newOwner",
							"type": "address"
						}
					],
					"name": "transferOwnership",
					"outputs": [],
					"stateMutability": "nonpayable",
					"type": "function"
				},
				{
					"inputs": [
						{
							"internalType": "address",
							"name": "",
							"type": "address"
						}
					],
					"name": "users",
					"outputs": [
						{
							"internalType": "string",
							"name": "userName",
							"type": "string"
						},
						{
							"internalType": "address",
							"name": "userAddress",
							"type": "address"
						},
						{
							"internalType": "uint256",
							"name": "userAge",
							"type": "uint256"
						},
						{
							"internalType": "uint256",
							"name": "startInsurance",
							"type": "uint256"
						},
						{
							"internalType": "uint256",
							"name": "endInsurance",
							"type": "uint256"
						}
					],
					"stateMutability": "view",
					"type": "function"
				}
			],
			"devdoc": {
				"events": {
					"Approval(address,address,uint256)": {
						"details": "Emitted when the allowance of a `spender` for an `owner` is set by a call to {approve}. `value` is the new allowance."
					},
					"Transfer(address,address,uint256)": {
						"details": "Emitted when `value` tokens are moved from one account (`from`) to another (`to`). Note that `value` may be zero."
					}
				},
				"kind": "dev",
				"methods": {
					"allowance(address,address)": {
						"details": "See {IERC20-allowance}."
					},
					"approve(address,uint256)": {
						"details": "See {IERC20-approve}. NOTE: If `amount` is the maximum `uint256`, the allowance is not updated on `transferFrom`. This is semantically equivalent to an infinite approval. Requirements: - `spender` cannot be the zero address."
					},
					"balanceOf(address)": {
						"details": "See {IERC20-balanceOf}."
					},
					"decimals()": {
						"details": "Returns the number of decimals used to get its user representation. For example, if `decimals` equals `2`, a balance of `505` tokens should be displayed to a user as `5.05` (`505 / 10 ** 2`). Tokens usually opt for a value of 18, imitating the relationship between Ether and Wei. This is the default value returned by this function, unless it's overridden. NOTE: This information is only used for _display_ purposes: it in no way affects any of the arithmetic of the contract, including {IERC20-balanceOf} and {IERC20-transfer}."
					},
					"decreaseAllowance(address,uint256)": {
						"details": "Atomically decreases the allowance granted to `spender` by the caller. This is an alternative to {approve} that can be used as a mitigation for problems described in {IERC20-approve}. Emits an {Approval} event indicating the updated allowance. Requirements: - `spender` cannot be the zero address. - `spender` must have allowance for the caller of at least `subtractedValue`."
					},
					"increaseAllowance(address,uint256)": {
						"details": "Atomically increases the allowance granted to `spender` by the caller. This is an alternative to {approve} that can be used as a mitigation for problems described in {IERC20-approve}. Emits an {Approval} event indicating the updated allowance. Requirements: - `spender` cannot be the zero address."
					},
					"name()": {
						"details": "Returns the name of the token."
					},
					"owner()": {
						"details": "Returns the address of the current owner."
					},
					"renounceOwnership()": {
						"details": "Leaves the contract without owner. It will not be possible to call `onlyOwner` functions. Can only be called by the current owner. NOTE: Renouncing ownership will leave the contract without an owner, thereby disabling any functionality that is only available to the owner."
					},
					"symbol()": {
						"details": "Returns the symbol of the token, usually a shorter version of the name."
					},
					"totalSupply()": {
						"details": "See {IERC20-totalSupply}."
					},
					"transfer(address,uint256)": {
						"details": "See {IERC20-transfer}. Requirements: - `to` cannot be the zero address. - the caller must have a balance of at least `amount`."
					},
					"transferFrom(address,address,uint256)": {
						"details": "See {IERC20-transferFrom}. Emits an {Approval} event indicating the updated allowance. This is not required by the EIP. See the note at the beginning of {ERC20}. NOTE: Does not update the allowance if the current allowance is the maximum `uint256`. Requirements: - `from` and `to` cannot be the zero address. - `from` must have a balance of at least `amount`. - the caller must have allowance for ``from``'s tokens of at least `amount`."
					},
					"transferOwnership(address)": {
						"details": "Transfers ownership of the contract to a new account (`newOwner`). Can only be called by the current owner."
					}
				},
				"version": 1
			},
			"evm": {
				"assembly": "    /* \"contracts/InsuranceContract.sol\":168:2016  contract InsuranceContract is ERC20, Ownable {... */\n  mstore(0x40, 0x80)\n    /* \"contracts/InsuranceContract.sol\":253:295  0xd7b5B1e52369F1402Ba350d7f5Dd3D247717c157 */\n  0xd7b5b1e52369f1402ba350d7f5dd3d247717c157\n    /* \"contracts/InsuranceContract.sol\":219:295  address public insuranceAddress = 0xd7b5B1e52369F1402Ba350d7f5Dd3D247717c157 */\n  0x06\n  exp(0x0100, 0x00)\n  dup2\n  sload\n  dup2\n  0xffffffffffffffffffffffffffffffffffffffff\n  mul\n  not\n  and\n  swap1\n  dup4\n  0xffffffffffffffffffffffffffffffffffffffff\n  and\n  mul\n  or\n  swap1\n  sstore\n  pop\n    /* \"contracts/InsuranceContract.sol\":412:463  constructor() ERC20(\"Muhannad Insurance\", \"MIT\") {} */\n  callvalue\n  dup1\n  iszero\n  tag_1\n  jumpi\n  0x00\n  dup1\n  revert\ntag_1:\n  pop\n    /* \"@openzeppelin/contracts/token/ERC20/ERC20.sol\":1980:2093  constructor(string memory name_, string memory symbol_) {... */\n  mload(0x40)\n  dup1\n  0x40\n  add\n  0x40\n  mstore\n  dup1\n  0x12\n  dup2\n  mstore\n  0x20\n  add\n  0x4d7568616e6e616420496e737572616e63650000000000000000000000000000\n  dup2\n  mstore\n  pop\n  mload(0x40)\n  dup1\n  0x40\n  add\n  0x40\n  mstore\n  dup1\n  0x03\n  dup2\n  mstore\n  0x20\n  add\n  0x4d49540000000000000000000000000000000000000000000000000000000000\n  dup2\n  mstore\n  pop\n    /* \"@openzeppelin/contracts/token/ERC20/ERC20.sol\":2054:2059  name_ */\n  dup2\n    /* \"@openzeppelin/contracts/token/ERC20/ERC20.sol\":2046:2051  _name */\n  0x03\n    /* \"@openzeppelin/contracts/token/ERC20/ERC20.sol\":2046:2059  _name = name_ */\n  swap1\n  dup2\n  tag_6\n  swap2\n  swap1\n  tag_7\n  jump\t// in\ntag_6:\n  pop\n    /* \"@openzeppelin/contracts/token/ERC20/ERC20.sol\":2079:2086  symbol_ */\n  dup1\n    /* \"@openzeppelin/contracts/token/ERC20/ERC20.sol\":2069:2076  _symbol */\n  0x04\n    /* \"@openzeppelin/contracts/token/ERC20/ERC20.sol\":2069:2086  _symbol = symbol_ */\n  swap1\n  dup2\n  tag_8\n  swap2\n  swap1\n  tag_7\n  jump\t// in\ntag_8:\n  pop\n    /* \"@openzeppelin/contracts/token/ERC20/ERC20.sol\":1980:2093  constructor(string memory name_, string memory symbol_) {... */\n  pop\n  pop\n    /* \"@openzeppelin/contracts/access/Ownable.sol\":936:968  _transferOwnership(_msgSender()) */\n  tag_10\n    /* \"@openzeppelin/contracts/access/Ownable.sol\":955:967  _msgSender() */\n  tag_11\n    /* \"@openzeppelin/contracts/access/Ownable.sol\":955:965  _msgSender */\n  shl(0x20, tag_12)\n    /* \"@openzeppelin/contracts/access/Ownable.sol\":955:967  _msgSender() */\n  0x20\n  shr\n  jump\t// in\ntag_11:\n    /* \"@openzeppelin/contracts/access/Ownable.sol\":936:954  _transferOwnership */\n  shl(0x20, tag_13)\n    /* \"@openzeppelin/contracts/access/Ownable.sol\":936:968  _transferOwnership(_msgSender()) */\n  0x20\n  shr\n  jump\t// in\ntag_10:\n    /* \"contracts/InsuranceContract.sol\":168:2016  contract InsuranceContract is ERC20, Ownable {... */\n  jump(tag_15)\n    /* \"@openzeppelin/contracts/utils/Context.sol\":640:736  function _msgSender() internal view virtual returns (address) {... */\ntag_12:\n    /* \"@openzeppelin/contracts/utils/Context.sol\":693:700  address */\n  0x00\n    /* \"@openzeppelin/contracts/utils/Context.sol\":719:729  msg.sender */\n  caller\n    /* \"@openzeppelin/contracts/utils/Context.sol\":712:729  return msg.sender */\n  swap1\n  pop\n    /* \"@openzeppelin/contracts/utils/Context.sol\":640:736  function _msgSender() internal view virtual returns (address) {... */\n  swap1\n  jump\t// out\n    /* \"@openzeppelin/contracts/access/Ownable.sol\":2426:2613  function _transferOwnership(address newOwner) internal virtual {... */\ntag_13:\n    /* \"@openzeppelin/contracts/access/Ownable.sol\":2499:2515  address oldOwner */\n  0x00\n    /* \"@openzeppelin/contracts/access/Ownable.sol\":2518:2524  _owner */\n  0x05\n  0x00\n  swap1\n  sload\n  swap1\n  0x0100\n  exp\n  swap1\n  div\n  0xffffffffffffffffffffffffffffffffffffffff\n  and\n    /* \"@openzeppelin/contracts/access/Ownable.sol\":2499:2524  address oldOwner = _owner */\n  swap1\n  pop\n    /* \"@openzeppelin/contracts/access/Ownable.sol\":2543:2551  newOwner */\n  dup2\n    /* \"@openzeppelin/contracts/access/Ownable.sol\":2534:2540  _owner */\n  0x05\n  0x00\n    /* \"@openzeppelin/contracts/access/Ownable.sol\":2534:2551  _owner = newOwner */\n  0x0100\n  exp\n  dup2\n  sload\n  dup2\n  0xffffffffffffffffffffffffffffffffffffffff\n  mul\n  not\n  and\n  swap1\n  dup4\n  0xffffffffffffffffffffffffffffffffffffffff\n  and\n  mul\n  or\n  swap1\n  sstore\n  pop\n    /* \"@openzeppelin/contracts/access/Ownable.sol\":2597:2605  newOwner */\n  dup2\n    /* \"@openzeppelin/contracts/access/Ownable.sol\":2566:2606  OwnershipTransferred(oldOwner, newOwner) */\n  0xffffffffffffffffffffffffffffffffffffffff\n  and\n    /* \"@openzeppelin/contracts/access/Ownable.sol\":2587:2595  oldOwner */\n  dup2\n    /* \"@openzeppelin/contracts/access/Ownable.sol\":2566:2606  OwnershipTransferred(oldOwner, newOwner) */\n  0xffffffffffffffffffffffffffffffffffffffff\n  and\n  0x8be0079c531659141344cd1fd0a4f28419497f9722a3daafe3b4186f6b6457e0\n  mload(0x40)\n  mload(0x40)\n  dup1\n  swap2\n  sub\n  swap1\n  log3\n    /* \"@openzeppelin/contracts/access/Ownable.sol\":2489:2613  {... */\n  pop\n    /* \"@openzeppelin/contracts/access/Ownable.sol\":2426:2613  function _transferOwnership(address newOwner) internal virtual {... */\n  pop\n  jump\t// out\n    /* \"#utility.yul\":7:106   */\ntag_18:\n    /* \"#utility.yul\":59:65   */\n  0x00\n    /* \"#utility.yul\":93:98   */\n  dup2\n    /* \"#utility.yul\":87:99   */\n  mload\n    /* \"#utility.yul\":77:99   */\n  swap1\n  pop\n    /* \"#utility.yul\":7:106   */\n  swap2\n  swap1\n  pop\n  jump\t// out\n    /* \"#utility.yul\":112:292   */\ntag_19:\n    /* \"#utility.yul\":160:237   */\n  0x4e487b7100000000000000000000000000000000000000000000000000000000\n    /* \"#utility.yul\":157:158   */\n  0x00\n    /* \"#utility.yul\":150:238   */\n  mstore\n    /* \"#utility.yul\":257:261   */\n  0x41\n    /* \"#utility.yul\":254:255   */\n  0x04\n    /* \"#utility.yul\":247:262   */\n  mstore\n    /* \"#utility.yul\":281:285   */\n  0x24\n    /* \"#utility.yul\":278:279   */\n  0x00\n    /* \"#utility.yul\":271:286   */\n  revert\n    /* \"#utility.yul\":298:478   */\ntag_20:\n    /* \"#utility.yul\":346:423   */\n  0x4e487b7100000000000000000000000000000000000000000000000000000000\n    /* \"#utility.yul\":343:344   */\n  0x00\n    /* \"#utility.yul\":336:424   */\n  mstore\n    /* \"#utility.yul\":443:447   */\n  0x22\n    /* \"#utility.yul\":440:441   */\n  0x04\n    /* \"#utility.yul\":433:448   */\n  mstore\n    /* \"#utility.yul\":467:471   */\n  0x24\n    /* \"#utility.yul\":464:465   */\n  0x00\n    /* \"#utility.yul\":457:472   */\n  revert\n    /* \"#utility.yul\":484:804   */\ntag_21:\n    /* \"#utility.yul\":528:534   */\n  0x00\n    /* \"#utility.yul\":565:566   */\n  0x02\n    /* \"#utility.yul\":559:563   */\n  dup3\n    /* \"#utility.yul\":555:567   */\n  div\n    /* \"#utility.yul\":545:567   */\n  swap1\n  pop\n    /* \"#utility.yul\":612:613   */\n  0x01\n    /* \"#utility.yul\":606:610   */\n  dup3\n    /* \"#utility.yul\":602:614   */\n  and\n    /* \"#utility.yul\":633:651   */\n  dup1\n    /* \"#utility.yul\":623:704   */\n  tag_43\n  jumpi\n    /* \"#utility.yul\":689:693   */\n  0x7f\n    /* \"#utility.yul\":681:687   */\n  dup3\n    /* \"#utility.yul\":677:694   */\n  and\n    /* \"#utility.yul\":667:694   */\n  swap2\n  pop\n    /* \"#utility.yul\":623:704   */\ntag_43:\n    /* \"#utility.yul\":751:753   */\n  0x20\n    /* \"#utility.yul\":743:749   */\n  dup3\n    /* \"#utility.yul\":740:754   */\n  lt\n    /* \"#utility.yul\":720:738   */\n  dup2\n    /* \"#utility.yul\":717:755   */\n  sub\n    /* \"#utility.yul\":714:798   */\n  tag_44\n  jumpi\n    /* \"#utility.yul\":770:788   */\n  tag_45\n  tag_20\n  jump\t// in\ntag_45:\n    /* \"#utility.yul\":714:798   */\ntag_44:\n    /* \"#utility.yul\":535:804   */\n  pop\n    /* \"#utility.yul\":484:804   */\n  swap2\n  swap1\n  pop\n  jump\t// out\n    /* \"#utility.yul\":810:951   */\ntag_22:\n    /* \"#utility.yul\":859:863   */\n  0x00\n    /* \"#utility.yul\":882:885   */\n  dup2\n    /* \"#utility.yul\":874:885   */\n  swap1\n  pop\n    /* \"#utility.yul\":905:908   */\n  dup2\n    /* \"#utility.yul\":902:903   */\n  0x00\n    /* \"#utility.yul\":895:909   */\n  mstore\n    /* \"#utility.yul\":939:943   */\n  0x20\n    /* \"#utility.yul\":936:937   */\n  0x00\n    /* \"#utility.yul\":926:944   */\n  keccak256\n    /* \"#utility.yul\":918:944   */\n  swap1\n  pop\n    /* \"#utility.yul\":810:951   */\n  swap2\n  swap1\n  pop\n  jump\t// out\n    /* \"#utility.yul\":957:1050   */\ntag_23:\n    /* \"#utility.yul\":994:1000   */\n  0x00\n    /* \"#utility.yul\":1041:1043   */\n  0x20\n    /* \"#utility.yul\":1036:1038   */\n  0x1f\n    /* \"#utility.yul\":1029:1034   */\n  dup4\n    /* \"#utility.yul\":1025:1039   */\n  add\n    /* \"#utility.yul\":1021:1044   */\n  div\n    /* \"#utility.yul\":1011:1044   */\n  swap1\n  pop\n    /* \"#utility.yul\":957:1050   */\n  swap2\n  swap1\n  pop\n  jump\t// out\n    /* \"#utility.yul\":1056:1163   */\ntag_24:\n    /* \"#utility.yul\":1100:1108   */\n  0x00\n    /* \"#utility.yul\":1150:1155   */\n  dup3\n    /* \"#utility.yul\":1144:1148   */\n  dup3\n    /* \"#utility.yul\":1140:1156   */\n  shl\n    /* \"#utility.yul\":1119:1156   */\n  swap1\n  pop\n    /* \"#utility.yul\":1056:1163   */\n  swap3\n  swap2\n  pop\n  pop\n  jump\t// out\n    /* \"#utility.yul\":1169:1562   */\ntag_25:\n    /* \"#utility.yul\":1238:1244   */\n  0x00\n    /* \"#utility.yul\":1288:1289   */\n  0x08\n    /* \"#utility.yul\":1276:1286   */\n  dup4\n    /* \"#utility.yul\":1272:1290   */\n  mul\n    /* \"#utility.yul\":1311:1408   */\n  tag_50\n    /* \"#utility.yul\":1341:1407   */\n  0xffffffffffffffffffffffffffffffffffffffffffffffffffffffffffffffff\n    /* \"#utility.yul\":1330:1339   */\n  dup3\n    /* \"#utility.yul\":1311:1408   */\n  tag_24\n  jump\t// in\ntag_50:\n    /* \"#utility.yul\":1429:1468   */\n  tag_51\n    /* \"#utility.yul\":1459:1467   */\n  dup7\n    /* \"#utility.yul\":1448:1457   */\n  dup4\n    /* \"#utility.yul\":1429:1468   */\n  tag_24\n  jump\t// in\ntag_51:\n    /* \"#utility.yul\":1417:1468   */\n  swap6\n  pop\n    /* \"#utility.yul\":1501:1505   */\n  dup1\n    /* \"#utility.yul\":1497:1506   */\n  not\n    /* \"#utility.yul\":1490:1495   */\n  dup5\n    /* \"#utility.yul\":1486:1507   */\n  and\n    /* \"#utility.yul\":1477:1507   */\n  swap4\n  pop\n    /* \"#utility.yul\":1550:1554   */\n  dup1\n    /* \"#utility.yul\":1540:1548   */\n  dup7\n    /* \"#utility.yul\":1536:1555   */\n  and\n    /* \"#utility.yul\":1529:1534   */\n  dup5\n    /* \"#utility.yul\":1526:1556   */\n  or\n    /* \"#utility.yul\":1516:1556   */\n  swap3\n  pop\n    /* \"#utility.yul\":1245:1562   */\n  pop\n  pop\n    /* \"#utility.yul\":1169:1562   */\n  swap4\n  swap3\n  pop\n  pop\n  pop\n  jump\t// out\n    /* \"#utility.yul\":1568:1645   */\ntag_26:\n    /* \"#utility.yul\":1605:1612   */\n  0x00\n    /* \"#utility.yul\":1634:1639   */\n  dup2\n    /* \"#utility.yul\":1623:1639   */\n  swap1\n  pop\n    /* \"#utility.yul\":1568:1645   */\n  swap2\n  swap1\n  pop\n  jump\t// out\n    /* \"#utility.yul\":1651:1711   */\ntag_27:\n    /* \"#utility.yul\":1679:1682   */\n  0x00\n    /* \"#utility.yul\":1700:1705   */\n  dup2\n    /* \"#utility.yul\":1693:1705   */\n  swap1\n  pop\n    /* \"#utility.yul\":1651:1711   */\n  swap2\n  swap1\n  pop\n  jump\t// out\n    /* \"#utility.yul\":1717:1859   */\ntag_28:\n    /* \"#utility.yul\":1767:1776   */\n  0x00\n    /* \"#utility.yul\":1800:1853   */\n  tag_55\n    /* \"#utility.yul\":1818:1852   */\n  tag_56\n    /* \"#utility.yul\":1827:1851   */\n  tag_57\n    /* \"#utility.yul\":1845:1850   */\n  dup5\n    /* \"#utility.yul\":1827:1851   */\n  tag_26\n  jump\t// in\ntag_57:\n    /* \"#utility.yul\":1818:1852   */\n  tag_27\n  jump\t// in\ntag_56:\n    /* \"#utility.yul\":1800:1853   */\n  tag_26\n  jump\t// in\ntag_55:\n    /* \"#utility.yul\":1787:1853   */\n  swap1\n  pop\n    /* \"#utility.yul\":1717:1859   */\n  swap2\n  swap1\n  pop\n  jump\t// out\n    /* \"#utility.yul\":1865:1940   */\ntag_29:\n    /* \"#utility.yul\":1908:1911   */\n  0x00\n    /* \"#utility.yul\":1929:1934   */\n  dup2\n    /* \"#utility.yul\":1922:1934   */\n  swap1\n  pop\n    /* \"#utility.yul\":1865:1940   */\n  swap2\n  swap1\n  pop\n  jump\t// out\n    /* \"#utility.yul\":1946:2215   */\ntag_30:\n    /* \"#utility.yul\":2056:2095   */\n  tag_60\n    /* \"#utility.yul\":2087:2094   */\n  dup4\n    /* \"#utility.yul\":2056:2095   */\n  tag_28\n  jump\t// in\ntag_60:\n    /* \"#utility.yul\":2117:2208   */\n  tag_61\n    /* \"#utility.yul\":2166:2207   */\n  tag_62\n    /* \"#utility.yul\":2190:2206   */\n  dup3\n    /* \"#utility.yul\":2166:2207   */\n  tag_29\n  jump\t// in\ntag_62:\n    /* \"#utility.yul\":2158:2164   */\n  dup5\n    /* \"#utility.yul\":2151:2155   */\n  dup5\n    /* \"#utility.yul\":2145:2156   */\n  sload\n    /* \"#utility.yul\":2117:2208   */\n  tag_25\n  jump\t// in\ntag_61:\n    /* \"#utility.yul\":2111:2115   */\n  dup3\n    /* \"#utility.yul\":2104:2209   */\n  sstore\n    /* \"#utility.yul\":2022:2215   */\n  pop\n    /* \"#utility.yul\":1946:2215   */\n  pop\n  pop\n  pop\n  jump\t// out\n    /* \"#utility.yul\":2221:2294   */\ntag_31:\n    /* \"#utility.yul\":2266:2269   */\n  0x00\n    /* \"#utility.yul\":2221:2294   */\n  swap1\n  jump\t// out\n    /* \"#utility.yul\":2300:2489   */\ntag_32:\n    /* \"#utility.yul\":2377:2409   */\n  tag_65\n  tag_31\n  jump\t// in\ntag_65:\n    /* \"#utility.yul\":2418:2483   */\n  tag_66\n    /* \"#utility.yul\":2476:2482   */\n  dup2\n    /* \"#utility.yul\":2468:2474   */\n  dup5\n    /* \"#utility.yul\":2462:2466   */\n  dup5\n    /* \"#utility.yul\":2418:2483   */\n  tag_30\n  jump\t// in\ntag_66:\n    /* \"#utility.yul\":2353:2489   */\n  pop\n    /* \"#utility.yul\":2300:2489   */\n  pop\n  pop\n  jump\t// out\n    /* \"#utility.yul\":2495:2681   */\ntag_33:\n    /* \"#utility.yul\":2555:2675   */\ntag_68:\n    /* \"#utility.yul\":2572:2575   */\n  dup2\n    /* \"#utility.yul\":2565:2570   */\n  dup2\n    /* \"#utility.yul\":2562:2576   */\n  lt\n    /* \"#utility.yul\":2555:2675   */\n  iszero\n  tag_70\n  jumpi\n    /* \"#utility.yul\":2626:2665   */\n  tag_71\n    /* \"#utility.yul\":2663:2664   */\n  0x00\n    /* \"#utility.yul\":2656:2661   */\n  dup3\n    /* \"#utility.yul\":2626:2665   */\n  tag_32\n  jump\t// in\ntag_71:\n    /* \"#utility.yul\":2599:2600   */\n  0x01\n    /* \"#utility.yul\":2592:2597   */\n  dup2\n    /* \"#utility.yul\":2588:2601   */\n  add\n    /* \"#utility.yul\":2579:2601   */\n  swap1\n  pop\n    /* \"#utility.yul\":2555:2675   */\n  jump(tag_68)\ntag_70:\n    /* \"#utility.yul\":2495:2681   */\n  pop\n  pop\n  jump\t// out\n    /* \"#utility.yul\":2687:3230   */\ntag_34:\n    /* \"#utility.yul\":2788:2790   */\n  0x1f\n    /* \"#utility.yul\":2783:2786   */\n  dup3\n    /* \"#utility.yul\":2780:2791   */\n  gt\n    /* \"#utility.yul\":2777:3223   */\n  iszero\n  tag_73\n  jumpi\n    /* \"#utility.yul\":2822:2860   */\n  tag_74\n    /* \"#utility.yul\":2854:2859   */\n  dup2\n    /* \"#utility.yul\":2822:2860   */\n  tag_22\n  jump\t// in\ntag_74:\n    /* \"#utility.yul\":2906:2935   */\n  tag_75\n    /* \"#utility.yul\":2924:2934   */\n  dup5\n    /* \"#utility.yul\":2906:2935   */\n  tag_23\n  jump\t// in\ntag_75:\n    /* \"#utility.yul\":2896:2904   */\n  dup2\n    /* \"#utility.yul\":2892:2936   */\n  add\n    /* \"#utility.yul\":3089:3091   */\n  0x20\n    /* \"#utility.yul\":3077:3087   */\n  dup6\n    /* \"#utility.yul\":3074:3092   */\n  lt\n    /* \"#utility.yul\":3071:3120   */\n  iszero\n  tag_76\n  jumpi\n    /* \"#utility.yul\":3110:3118   */\n  dup2\n    /* \"#utility.yul\":3095:3118   */\n  swap1\n  pop\n    /* \"#utility.yul\":3071:3120   */\ntag_76:\n    /* \"#utility.yul\":3133:3213   */\n  tag_77\n    /* \"#utility.yul\":3189:3211   */\n  tag_78\n    /* \"#utility.yul\":3207:3210   */\n  dup6\n    /* \"#utility.yul\":3189:3211   */\n  tag_23\n  jump\t// in\ntag_78:\n    /* \"#utility.yul\":3179:3187   */\n  dup4\n    /* \"#utility.yul\":3175:3212   */\n  add\n    /* \"#utility.yul\":3162:3173   */\n  dup3\n    /* \"#utility.yul\":3133:3213   */\n  tag_33\n  jump\t// in\ntag_77:\n    /* \"#utility.yul\":2792:3223   */\n  pop\n  pop\n    /* \"#utility.yul\":2777:3223   */\ntag_73:\n    /* \"#utility.yul\":2687:3230   */\n  pop\n  pop\n  pop\n  jump\t// out\n    /* \"#utility.yul\":3236:3353   */\ntag_35:\n    /* \"#utility.yul\":3290:3298   */\n  0x00\n    /* \"#utility.yul\":3340:3345   */\n  dup3\n    /* \"#utility.yul\":3334:3338   */\n  dup3\n    /* \"#utility.yul\":3330:3346   */\n  shr\n    /* \"#utility.yul\":3309:3346   */\n  swap1\n  pop\n    /* \"#utility.yul\":3236:3353   */\n  swap3\n  swap2\n  pop\n  pop\n  jump\t// out\n    /* \"#utility.yul\":3359:3528   */\ntag_36:\n    /* \"#utility.yul\":3403:3409   */\n  0x00\n    /* \"#utility.yul\":3436:3487   */\n  tag_81\n    /* \"#utility.yul\":3484:3485   */\n  0x00\n    /* \"#utility.yul\":3480:3486   */\n  not\n    /* \"#utility.yul\":3472:3477   */\n  dup5\n    /* \"#utility.yul\":3469:3470   */\n  0x08\n    /* \"#utility.yul\":3465:3478   */\n  mul\n    /* \"#utility.yul\":3436:3487   */\n  tag_35\n  jump\t// in\ntag_81:\n    /* \"#utility.yul\":3432:3488   */\n  not\n    /* \"#utility.yul\":3517:3521   */\n  dup1\n    /* \"#utility.yul\":3511:3515   */\n  dup4\n    /* \"#utility.yul\":3507:3522   */\n  and\n    /* \"#utility.yul\":3497:3522   */\n  swap2\n  pop\n    /* \"#utility.yul\":3410:3528   */\n  pop\n    /* \"#utility.yul\":3359:3528   */\n  swap3\n  swap2\n  pop\n  pop\n  jump\t// out\n    /* \"#utility.yul\":3533:3828   */\ntag_37:\n    /* \"#utility.yul\":3609:3613   */\n  0x00\n    /* \"#utility.yul\":3755:3784   */\n  tag_83\n    /* \"#utility.yul\":3780:3783   */\n  dup4\n    /* \"#utility.yul\":3774:3778   */\n  dup4\n    /* \"#utility.yul\":3755:3784   */\n  tag_36\n  jump\t// in\ntag_83:\n    /* \"#utility.yul\":3747:3784   */\n  swap2\n  pop\n    /* \"#utility.yul\":3817:3820   */\n  dup3\n    /* \"#utility.yul\":3814:3815   */\n  0x02\n    /* \"#utility.yul\":3810:3821   */\n  mul\n    /* \"#utility.yul\":3804:3808   */\n  dup3\n    /* \"#utility.yul\":3801:3822   */\n  or\n    /* \"#utility.yul\":3793:3822   */\n  swap1\n  pop\n    /* \"#utility.yul\":3533:3828   */\n  swap3\n  swap2\n  pop\n  pop\n  jump\t// out\n    /* \"#utility.yul\":3833:5228   */\ntag_7:\n    /* \"#utility.yul\":3950:3987   */\n  tag_85\n    /* \"#utility.yul\":3983:3986   */\n  dup3\n    /* \"#utility.yul\":3950:3987   */\n  tag_18\n  jump\t// in\ntag_85:\n    /* \"#utility.yul\":4052:4070   */\n  0xffffffffffffffff\n    /* \"#utility.yul\":4044:4050   */\n  dup2\n    /* \"#utility.yul\":4041:4071   */\n  gt\n    /* \"#utility.yul\":4038:4094   */\n  iszero\n  tag_86\n  jumpi\n    /* \"#utility.yul\":4074:4092   */\n  tag_87\n  tag_19\n  jump\t// in\ntag_87:\n    /* \"#utility.yul\":4038:4094   */\ntag_86:\n    /* \"#utility.yul\":4118:4156   */\n  tag_88\n    /* \"#utility.yul\":4150:4154   */\n  dup3\n    /* \"#utility.yul\":4144:4155   */\n  sload\n    /* \"#utility.yul\":4118:4156   */\n  tag_21\n  jump\t// in\ntag_88:\n    /* \"#utility.yul\":4203:4270   */\n  tag_89\n    /* \"#utility.yul\":4263:4269   */\n  dup3\n    /* \"#utility.yul\":4255:4261   */\n  dup3\n    /* \"#utility.yul\":4249:4253   */\n  dup6\n    /* \"#utility.yul\":4203:4270   */\n  tag_34\n  jump\t// in\ntag_89:\n    /* \"#utility.yul\":4297:4298   */\n  0x00\n    /* \"#utility.yul\":4321:4325   */\n  0x20\n    /* \"#utility.yul\":4308:4325   */\n  swap1\n  pop\n    /* \"#utility.yul\":4353:4355   */\n  0x1f\n    /* \"#utility.yul\":4345:4351   */\n  dup4\n    /* \"#utility.yul\":4342:4356   */\n  gt\n    /* \"#utility.yul\":4370:4371   */\n  0x01\n    /* \"#utility.yul\":4365:4983   */\n  dup2\n  eq\n  tag_91\n  jumpi\n    /* \"#utility.yul\":5027:5028   */\n  0x00\n    /* \"#utility.yul\":5044:5050   */\n  dup5\n    /* \"#utility.yul\":5041:5118   */\n  iszero\n  tag_92\n  jumpi\n    /* \"#utility.yul\":5093:5102   */\n  dup3\n    /* \"#utility.yul\":5088:5091   */\n  dup8\n    /* \"#utility.yul\":5084:5103   */\n  add\n    /* \"#utility.yul\":5078:5104   */\n  mload\n    /* \"#utility.yul\":5069:5104   */\n  swap1\n  pop\n    /* \"#utility.yul\":5041:5118   */\ntag_92:\n    /* \"#utility.yul\":5144:5211   */\n  tag_93\n    /* \"#utility.yul\":5204:5210   */\n  dup6\n    /* \"#utility.yul\":5197:5202   */\n  dup3\n    /* \"#utility.yul\":5144:5211   */\n  tag_37\n  jump\t// in\ntag_93:\n    /* \"#utility.yul\":5138:5142   */\n  dup7\n    /* \"#utility.yul\":5131:5212   */\n  sstore\n    /* \"#utility.yul\":5000:5222   */\n  pop\n    /* \"#utility.yul\":4335:5222   */\n  jump(tag_90)\n    /* \"#utility.yul\":4365:4983   */\ntag_91:\n    /* \"#utility.yul\":4417:4421   */\n  0x1f\n    /* \"#utility.yul\":4413:4422   */\n  not\n    /* \"#utility.yul\":4405:4411   */\n  dup5\n    /* \"#utility.yul\":4401:4423   */\n  and\n    /* \"#utility.yul\":4451:4488   */\n  tag_94\n    /* \"#utility.yul\":4483:4487   */\n  dup7\n    /* \"#utility.yul\":4451:4488   */\n  tag_22\n  jump\t// in\ntag_94:\n    /* \"#utility.yul\":4510:4511   */\n  0x00\n    /* \"#utility.yul\":4524:4732   */\ntag_95:\n    /* \"#utility.yul\":4538:4545   */\n  dup3\n    /* \"#utility.yul\":4535:4536   */\n  dup2\n    /* \"#utility.yul\":4532:4546   */\n  lt\n    /* \"#utility.yul\":4524:4732   */\n  iszero\n  tag_97\n  jumpi\n    /* \"#utility.yul\":4617:4626   */\n  dup5\n    /* \"#utility.yul\":4612:4615   */\n  dup10\n    /* \"#utility.yul\":4608:4627   */\n  add\n    /* \"#utility.yul\":4602:4628   */\n  mload\n    /* \"#utility.yul\":4594:4600   */\n  dup3\n    /* \"#utility.yul\":4587:4629   */\n  sstore\n    /* \"#utility.yul\":4668:4669   */\n  0x01\n    /* \"#utility.yul\":4660:4666   */\n  dup3\n    /* \"#utility.yul\":4656:4670   */\n  add\n    /* \"#utility.yul\":4646:4670   */\n  swap2\n  pop\n    /* \"#utility.yul\":4715:4717   */\n  0x20\n    /* \"#utility.yul\":4704:4713   */\n  dup6\n    /* \"#utility.yul\":4700:4718   */\n  add\n    /* \"#utility.yul\":4687:4718   */\n  swap5\n  pop\n    /* \"#utility.yul\":4561:4565   */\n  0x20\n    /* \"#utility.yul\":4558:4559   */\n  dup2\n    /* \"#utility.yul\":4554:4566   */\n  add\n    /* \"#utility.yul\":4549:4566   */\n  swap1\n  pop\n    /* \"#utility.yul\":4524:4732   */\n  jump(tag_95)\ntag_97:\n    /* \"#utility.yul\":4760:4766   */\n  dup7\n    /* \"#utility.yul\":4751:4758   */\n  dup4\n    /* \"#utility.yul\":4748:4767   */\n  lt\n    /* \"#utility.yul\":4745:4924   */\n  iszero\n  tag_98\n  jumpi\n    /* \"#utility.yul\":4818:4827   */\n  dup5\n    /* \"#utility.yul\":4813:4816   */\n  dup10\n    /* \"#utility.yul\":4809:4828   */\n  add\n    /* \"#utility.yul\":4803:4829   */\n  mload\n    /* \"#utility.yul\":4861:4909   */\n  tag_99\n    /* \"#utility.yul\":4903:4907   */\n  0x1f\n    /* \"#utility.yul\":4895:4901   */\n  dup10\n    /* \"#utility.yul\":4891:4908   */\n  and\n    /* \"#utility.yul\":4880:4889   */\n  dup3\n    /* \"#utility.yul\":4861:4909   */\n  tag_36\n  jump\t// in\ntag_99:\n    /* \"#utility.yul\":4853:4859   */\n  dup4\n    /* \"#utility.yul\":4846:4910   */\n  sstore\n    /* \"#utility.yul\":4768:4924   */\n  pop\n    /* \"#utility.yul\":4745:4924   */\ntag_98:\n    /* \"#utility.yul\":4970:4971   */\n  0x01\n    /* \"#utility.yul\":4966:4967   */\n  0x02\n    /* \"#utility.yul\":4958:4964   */\n  dup9\n    /* \"#utility.yul\":4954:4968   */\n  mul\n    /* \"#utility.yul\":4950:4972   */\n  add\n    /* \"#utility.yul\":4944:4948   */\n  dup9\n    /* \"#utility.yul\":4937:4973   */\n  sstore\n    /* \"#utility.yul\":4372:4983   */\n  pop\n  pop\n  pop\n    /* \"#utility.yul\":4335:5222   */\ntag_90:\n  pop\n    /* \"#utility.yul\":3925:5228   */\n  pop\n  pop\n  pop\n    /* \"#utility.yul\":3833:5228   */\n  pop\n  pop\n  jump\t// out\n    /* \"contracts/InsuranceContract.sol\":168:2016  contract InsuranceContract is ERC20, Ownable {... */\ntag_15:\n  dataSize(sub_0)\n  dup1\n  dataOffset(sub_0)\n  0x00\n  codecopy\n  0x00\n  return\nstop\n\nsub_0: assembly {\n        /* \"contracts/InsuranceContract.sol\":168:2016  contract InsuranceContract is ERC20, Ownable {... */\n      mstore(0x40, 0x80)\n      jumpi(tag_1, lt(calldatasize, 0x04))\n      shr(0xe0, calldataload(0x00))\n      dup1\n      0x715018a6\n      gt\n      tag_22\n      jumpi\n      dup1\n      0xa9059cbb\n      gt\n      tag_23\n      jumpi\n      dup1\n      0xa9059cbb\n      eq\n      tag_17\n      jumpi\n      dup1\n      0xcaea5bc5\n      eq\n      tag_18\n      jumpi\n      dup1\n      0xdd62ed3e\n      eq\n      tag_19\n      jumpi\n      dup1\n      0xefd34f25\n      eq\n      tag_20\n      jumpi\n      dup1\n      0xf2fde38b\n      eq\n      tag_21\n      jumpi\n      jump(tag_1)\n    tag_23:\n      dup1\n      0x715018a6\n      eq\n      tag_12\n      jumpi\n      dup1\n      0x8da5cb5b\n      eq\n      tag_13\n      jumpi\n      dup1\n      0x95d89b41\n      eq\n      tag_14\n      jumpi\n      dup1\n      0xa457c2d7\n      eq\n      tag_15\n      jumpi\n      dup1\n      0xa87430ba\n      eq\n      tag_16\n      jumpi\n      jump(tag_1)\n    tag_22:\n      dup1\n      0x2401273c\n      gt\n      tag_24\n      jumpi\n      dup1\n      0x2401273c\n      eq\n      tag_7\n      jumpi\n      dup1\n      0x25942212\n      eq\n      tag_8\n      jumpi\n      dup1\n      0x313ce567\n      eq\n      tag_9\n      jumpi\n      dup1\n      0x39509351\n      eq\n      tag_10\n      jumpi\n      dup1\n      0x70a08231\n      eq\n      tag_11\n      jumpi\n      jump(tag_1)\n    tag_24:\n      dup1\n      0x06fdde03\n      eq\n      tag_2\n      jumpi\n      dup1\n      0x080646ec\n      eq\n      tag_3\n      jumpi\n      dup1\n      0x095ea7b3\n      eq\n      tag_4\n      jumpi\n      dup1\n      0x18160ddd\n      eq\n      tag_5\n      jumpi\n      dup1\n      0x23b872dd\n      eq\n      tag_6\n      jumpi\n    tag_1:\n      0x00\n      dup1\n      revert\n        /* \"@openzeppelin/contracts/token/ERC20/ERC20.sol\":2158:2256  function name() public view virtual override returns (string memory) {... */\n    tag_2:\n      callvalue\n      dup1\n      iszero\n      tag_25\n      jumpi\n      0x00\n      dup1\n      revert\n    tag_25:\n      pop\n      tag_26\n      tag_27\n      jump\t// in\n    tag_26:\n      mload(0x40)\n      tag_28\n      swap2\n      swap1\n      tag_29\n      jump\t// in\n    tag_28:\n      mload(0x40)\n      dup1\n      swap2\n      sub\n      swap1\n      return\n        /* \"contracts/InsuranceContract.sol\":697:1280  function registeCustomer(string memory newName, uint newAge) public onlyOwner{... */\n    tag_3:\n      callvalue\n      dup1\n      iszero\n      tag_30\n      jumpi\n      0x00\n      dup1\n      revert\n    tag_30:\n      pop\n      tag_31\n      0x04\n      dup1\n      calldatasize\n      sub\n      dup2\n      add\n      swap1\n      tag_32\n      swap2\n      swap1\n      tag_33\n      jump\t// in\n    tag_32:\n      tag_34\n      jump\t// in\n    tag_31:\n      stop\n        /* \"@openzeppelin/contracts/token/ERC20/ERC20.sol\":4444:4641  function approve(address spender, uint256 amount) public virtual override returns (bool) {... */\n    tag_4:\n      callvalue\n      dup1\n      iszero\n      tag_35\n      jumpi\n      0x00\n      dup1\n      revert\n    tag_35:\n      pop\n      tag_36\n      0x04\n      dup1\n      calldatasize\n      sub\n      dup2\n      add\n      swap1\n      tag_37\n      swap2\n      swap1\n      tag_38\n      jump\t// in\n    tag_37:\n      tag_39\n      jump\t// in\n    tag_36:\n      mload(0x40)\n      tag_40\n      swap2\n      swap1\n      tag_41\n      jump\t// in\n    tag_40:\n      mload(0x40)\n      dup1\n      swap2\n      sub\n      swap1\n      return\n        /* \"@openzeppelin/contracts/token/ERC20/ERC20.sol\":3255:3361  function totalSupply() public view virtual override returns (uint256) {... */\n    tag_5:\n      callvalue\n      dup1\n      iszero\n      tag_42\n      jumpi\n      0x00\n      dup1\n      revert\n    tag_42:\n      pop\n      tag_43\n      tag_44\n      jump\t// in\n    tag_43:\n      mload(0x40)\n      tag_45\n      swap2\n      swap1\n      tag_46\n      jump\t// in\n    tag_45:\n      mload(0x40)\n      dup1\n      swap2\n      sub\n      swap1\n      return\n        /* \"@openzeppelin/contracts/token/ERC20/ERC20.sol\":5203:5459  function transferFrom(address from, address to, uint256 amount) public virtual override returns (bool) {... */\n    tag_6:\n      callvalue\n      dup1\n      iszero\n      tag_47\n      jumpi\n      0x00\n      dup1\n      revert\n    tag_47:\n      pop\n      tag_48\n      0x04\n      dup1\n      calldatasize\n      sub\n      dup2\n      add\n      swap1\n      tag_49\n      swap2\n      swap1\n      tag_50\n      jump\t// in\n    tag_49:\n      tag_51\n      jump\t// in\n    tag_48:\n      mload(0x40)\n      tag_52\n      swap2\n      swap1\n      tag_41\n      jump\t// in\n    tag_52:\n      mload(0x40)\n      dup1\n      swap2\n      sub\n      swap1\n      return\n        /* \"contracts/InsuranceContract.sol\":219:295  address public insuranceAddress = 0xd7b5B1e52369F1402Ba350d7f5Dd3D247717c157 */\n    tag_7:\n      callvalue\n      dup1\n      iszero\n      tag_53\n      jumpi\n      0x00\n      dup1\n      revert\n    tag_53:\n      pop\n      tag_54\n      tag_55\n      jump\t// in\n    tag_54:\n      mload(0x40)\n      tag_56\n      swap2\n      swap1\n      tag_57\n      jump\t// in\n    tag_56:\n      mload(0x40)\n      dup1\n      swap2\n      sub\n      swap1\n      return\n        /* \"contracts/InsuranceContract.sol\":338:369  uint public registeredInsurance */\n    tag_8:\n      callvalue\n      dup1\n      iszero\n      tag_58\n      jumpi\n      0x00\n      dup1\n      revert\n    tag_58:\n      pop\n      tag_59\n      tag_60\n      jump\t// in\n    tag_59:\n      mload(0x40)\n      tag_61\n      swap2\n      swap1\n      tag_46\n      jump\t// in\n    tag_61:\n      mload(0x40)\n      dup1\n      swap2\n      sub\n      swap1\n      return\n        /* \"@openzeppelin/contracts/token/ERC20/ERC20.sol\":3104:3195  function decimals() public view virtual override returns (uint8) {... */\n    tag_9:\n      callvalue\n      dup1\n      iszero\n      tag_62\n      jumpi\n      0x00\n      dup1\n      revert\n    tag_62:\n      pop\n      tag_63\n      tag_64\n      jump\t// in\n    tag_63:\n      mload(0x40)\n      tag_65\n      swap2\n      swap1\n      tag_66\n      jump\t// in\n    tag_65:\n      mload(0x40)\n      dup1\n      swap2\n      sub\n      swap1\n      return\n        /* \"@openzeppelin/contracts/token/ERC20/ERC20.sol\":5854:6088  function increaseAllowance(address spender, uint256 addedValue) public virtual returns (bool) {... */\n    tag_10:\n      callvalue\n      dup1\n      iszero\n      tag_67\n      jumpi\n      0x00\n      dup1\n      revert\n    tag_67:\n      pop\n      tag_68\n      0x04\n      dup1\n      calldatasize\n      sub\n      dup2\n      add\n      swap1\n      tag_69\n      swap2\n      swap1\n      tag_38\n      jump\t// in\n    tag_69:\n      tag_70\n      jump\t// in\n    tag_68:\n      mload(0x40)\n      tag_71\n      swap2\n      swap1\n      tag_41\n      jump\t// in\n    tag_71:\n      mload(0x40)\n      dup1\n      swap2\n      sub\n      swap1\n      return\n        /* \"@openzeppelin/contracts/token/ERC20/ERC20.sol\":3419:3544  function balanceOf(address account) public view virtual override returns (uint256) {... */\n    tag_11:\n      callvalue\n      dup1\n      iszero\n      tag_72\n      jumpi\n      0x00\n      dup1\n      revert\n    tag_72:\n      pop\n      tag_73\n      0x04\n      dup1\n      calldatasize\n      sub\n      dup2\n      add\n      swap1\n      tag_74\n      swap2\n      swap1\n      tag_75\n      jump\t// in\n    tag_74:\n      tag_76\n      jump\t// in\n    tag_73:\n      mload(0x40)\n      tag_77\n      swap2\n      swap1\n      tag_46\n      jump\t// in\n    tag_77:\n      mload(0x40)\n      dup1\n      swap2\n      sub\n      swap1\n      return\n        /* \"@openzeppelin/contracts/access/Ownable.sol\":1824:1925  function renounceOwnership() public virtual onlyOwner {... */\n    tag_12:\n      callvalue\n      dup1\n      iszero\n      tag_78\n      jumpi\n      0x00\n      dup1\n      revert\n    tag_78:\n      pop\n      tag_79\n      tag_80\n      jump\t// in\n    tag_79:\n      stop\n        /* \"@openzeppelin/contracts/access/Ownable.sol\":1201:1286  function owner() public view virtual returns (address) {... */\n    tag_13:\n      callvalue\n      dup1\n      iszero\n      tag_81\n      jumpi\n      0x00\n      dup1\n      revert\n    tag_81:\n      pop\n      tag_82\n      tag_83\n      jump\t// in\n    tag_82:\n      mload(0x40)\n      tag_84\n      swap2\n      swap1\n      tag_57\n      jump\t// in\n    tag_84:\n      mload(0x40)\n      dup1\n      swap2\n      sub\n      swap1\n      return\n        /* \"@openzeppelin/contracts/token/ERC20/ERC20.sol\":2369:2471  function symbol() public view virtual override returns (string memory) {... */\n    tag_14:\n      callvalue\n      dup1\n      iszero\n      tag_85\n      jumpi\n      0x00\n      dup1\n      revert\n    tag_85:\n      pop\n      tag_86\n      tag_87\n      jump\t// in\n    tag_86:\n      mload(0x40)\n      tag_88\n      swap2\n      swap1\n      tag_29\n      jump\t// in\n    tag_88:\n      mload(0x40)\n      dup1\n      swap2\n      sub\n      swap1\n      return\n        /* \"@openzeppelin/contracts/token/ERC20/ERC20.sol\":6575:7002  function decreaseAllowance(address spender, uint256 subtractedValue) public virtual returns (bool) {... */\n    tag_15:\n      callvalue\n      dup1\n      iszero\n      tag_89\n      jumpi\n      0x00\n      dup1\n      revert\n    tag_89:\n      pop\n      tag_90\n      0x04\n      dup1\n      calldatasize\n      sub\n      dup2\n      add\n      swap1\n      tag_91\n      swap2\n      swap1\n      tag_38\n      jump\t// in\n    tag_91:\n      tag_92\n      jump\t// in\n    tag_90:\n      mload(0x40)\n      tag_93\n      swap2\n      swap1\n      tag_41\n      jump\t// in\n    tag_93:\n      mload(0x40)\n      dup1\n      swap2\n      sub\n      swap1\n      return\n        /* \"contracts/InsuranceContract.sol\":469:506  mapping(address => User) public users */\n    tag_16:\n      callvalue\n      dup1\n      iszero\n      tag_94\n      jumpi\n      0x00\n      dup1\n      revert\n    tag_94:\n      pop\n      tag_95\n      0x04\n      dup1\n      calldatasize\n      sub\n      dup2\n      add\n      swap1\n      tag_96\n      swap2\n      swap1\n      tag_75\n      jump\t// in\n    tag_96:\n      tag_97\n      jump\t// in\n    tag_95:\n      mload(0x40)\n      tag_98\n      swap6\n      swap5\n      swap4\n      swap3\n      swap2\n      swap1\n      tag_99\n      jump\t// in\n    tag_98:\n      mload(0x40)\n      dup1\n      swap2\n      sub\n      swap1\n      return\n        /* \"@openzeppelin/contracts/token/ERC20/ERC20.sol\":3740:3929  function transfer(address to, uint256 amount) public virtual override returns (bool) {... */\n    tag_17:\n      callvalue\n      dup1\n      iszero\n      tag_100\n      jumpi\n      0x00\n      dup1\n      revert\n    tag_100:\n      pop\n      tag_101\n      0x04\n      dup1\n      calldatasize\n      sub\n      dup2\n      add\n      swap1\n      tag_102\n      swap2\n      swap1\n      tag_38\n      jump\t// in\n    tag_102:\n      tag_103\n      jump\t// in\n    tag_101:\n      mload(0x40)\n      tag_104\n      swap2\n      swap1\n      tag_41\n      jump\t// in\n    tag_104:\n      mload(0x40)\n      dup1\n      swap2\n      sub\n      swap1\n      return\n        /* \"contracts/InsuranceContract.sol\":375:405  uint public registeredCustomer */\n    tag_18:\n      callvalue\n      dup1\n      iszero\n      tag_105\n      jumpi\n      0x00\n      dup1\n      revert\n    tag_105:\n      pop\n      tag_106\n      tag_107\n      jump\t// in\n    tag_106:\n      mload(0x40)\n      tag_108\n      swap2\n      swap1\n      tag_46\n      jump\t// in\n    tag_108:\n      mload(0x40)\n      dup1\n      swap2\n      sub\n      swap1\n      return\n        /* \"@openzeppelin/contracts/token/ERC20/ERC20.sol\":3987:4136  function allowance(address owner, address spender) public view virtual override returns (uint256) {... */\n    tag_19:\n      callvalue\n      dup1\n      iszero\n      tag_109\n      jumpi\n      0x00\n      dup1\n      revert\n    tag_109:\n      pop\n      tag_110\n      0x04\n      dup1\n      calldatasize\n      sub\n      dup2\n      add\n      swap1\n      tag_111\n      swap2\n      swap1\n      tag_112\n      jump\t// in\n    tag_111:\n      tag_113\n      jump\t// in\n    tag_110:\n      mload(0x40)\n      tag_114\n      swap2\n      swap1\n      tag_46\n      jump\t// in\n    tag_114:\n      mload(0x40)\n      dup1\n      swap2\n      sub\n      swap1\n      return\n        /* \"contracts/InsuranceContract.sol\":1320:2014  function registeInsurance() public payable {... */\n    tag_20:\n      tag_115\n      tag_116\n      jump\t// in\n    tag_115:\n      stop\n        /* \"@openzeppelin/contracts/access/Ownable.sol\":2074:2272  function transferOwnership(address newOwner) public virtual onlyOwner {... */\n    tag_21:\n      callvalue\n      dup1\n      iszero\n      tag_117\n      jumpi\n      0x00\n      dup1\n      revert\n    tag_117:\n      pop\n      tag_118\n      0x04\n      dup1\n      calldatasize\n      sub\n      dup2\n      add\n      swap1\n      tag_119\n      swap2\n      swap1\n      tag_75\n      jump\t// in\n    tag_119:\n      tag_120\n      jump\t// in\n    tag_118:\n      stop\n        /* \"@openzeppelin/contracts/token/ERC20/ERC20.sol\":2158:2256  function name() public view virtual override returns (string memory) {... */\n    tag_27:\n        /* \"@openzeppelin/contracts/token/ERC20/ERC20.sol\":2212:2225  string memory */\n      0x60\n        /* \"@openzeppelin/contracts/token/ERC20/ERC20.sol\":2244:2249  _name */\n      0x03\n        /* \"@openzeppelin/contracts/token/ERC20/ERC20.sol\":2237:2249  return _name */\n      dup1\n      sload\n      tag_122\n      swap1\n      tag_123\n      jump\t// in\n    tag_122:\n      dup1\n      0x1f\n      add\n      0x20\n      dup1\n      swap2\n      div\n      mul\n      0x20\n      add\n      mload(0x40)\n      swap1\n      dup2\n      add\n      0x40\n      mstore\n      dup1\n      swap3\n      swap2\n      swap1\n      dup2\n      dup2\n      mstore\n      0x20\n      add\n      dup3\n      dup1\n      sload\n      tag_124\n      swap1\n      tag_123\n      jump\t// in\n    tag_124:\n      dup1\n      iszero\n      tag_125\n      jumpi\n      dup1\n      0x1f\n      lt\n      tag_126\n      jumpi\n      0x0100\n      dup1\n      dup4\n      sload\n      div\n      mul\n      dup4\n      mstore\n      swap2\n      0x20\n      add\n      swap2\n      jump(tag_125)\n    tag_126:\n      dup3\n      add\n      swap2\n      swap1\n      0x00\n      mstore\n      keccak256(0x00, 0x20)\n      swap1\n    tag_127:\n      dup2\n      sload\n      dup2\n      mstore\n      swap1\n      0x01\n      add\n      swap1\n      0x20\n      add\n      dup1\n      dup4\n      gt\n      tag_127\n      jumpi\n      dup3\n      swap1\n      sub\n      0x1f\n      and\n      dup3\n      add\n      swap2\n    tag_125:\n      pop\n      pop\n      pop\n      pop\n      pop\n      swap1\n      pop\n        /* \"@openzeppelin/contracts/token/ERC20/ERC20.sol\":2158:2256  function name() public view virtual override returns (string memory) {... */\n      swap1\n      jump\t// out\n        /* \"contracts/InsuranceContract.sol\":697:1280  function registeCustomer(string memory newName, uint newAge) public onlyOwner{... */\n    tag_34:\n        /* \"@openzeppelin/contracts/access/Ownable.sol\":1094:1107  _checkOwner() */\n      tag_129\n        /* \"@openzeppelin/contracts/access/Ownable.sol\":1094:1105  _checkOwner */\n      tag_130\n        /* \"@openzeppelin/contracts/access/Ownable.sol\":1094:1107  _checkOwner() */\n      jump\t// in\n    tag_129:\n        /* \"contracts/InsuranceContract.sol\":838:848  msg.sender */\n      caller\n        /* \"contracts/InsuranceContract.sol\":805:848  users[msg.sender].userAddress != msg.sender */\n      0xffffffffffffffffffffffffffffffffffffffff\n      and\n        /* \"contracts/InsuranceContract.sol\":805:810  users */\n      0x09\n        /* \"contracts/InsuranceContract.sol\":805:822  users[msg.sender] */\n      0x00\n        /* \"contracts/InsuranceContract.sol\":811:821  msg.sender */\n      caller\n        /* \"contracts/InsuranceContract.sol\":805:822  users[msg.sender] */\n      0xffffffffffffffffffffffffffffffffffffffff\n      and\n      0xffffffffffffffffffffffffffffffffffffffff\n      and\n      dup2\n      mstore\n      0x20\n      add\n      swap1\n      dup2\n      mstore\n      0x20\n      add\n      0x00\n      keccak256\n        /* \"contracts/InsuranceContract.sol\":805:834  users[msg.sender].userAddress */\n      0x01\n      add\n      0x00\n      swap1\n      sload\n      swap1\n      0x0100\n      exp\n      swap1\n      div\n      0xffffffffffffffffffffffffffffffffffffffff\n      and\n        /* \"contracts/InsuranceContract.sol\":805:848  users[msg.sender].userAddress != msg.sender */\n      0xffffffffffffffffffffffffffffffffffffffff\n      and\n      sub\n        /* \"contracts/InsuranceContract.sol\":784:895  require(... */\n      tag_132\n      jumpi\n      mload(0x40)\n      0x08c379a000000000000000000000000000000000000000000000000000000000\n      dup2\n      mstore\n      0x04\n      add\n      tag_133\n      swap1\n      tag_134\n      jump\t// in\n    tag_133:\n      mload(0x40)\n      dup1\n      swap2\n      sub\n      swap1\n      revert\n    tag_132:\n        /* \"contracts/InsuranceContract.sol\":936:938  18 */\n      0x12\n        /* \"contracts/InsuranceContract.sol\":926:932  newAge */\n      dup2\n        /* \"contracts/InsuranceContract.sol\":926:938  newAge >= 18 */\n      lt\n      iszero\n        /* \"contracts/InsuranceContract.sol\":905:985  require(... */\n      tag_135\n      jumpi\n      mload(0x40)\n      0x08c379a000000000000000000000000000000000000000000000000000000000\n      dup2\n      mstore\n      0x04\n      add\n      tag_136\n      swap1\n      tag_137\n      jump\t// in\n    tag_136:\n      mload(0x40)\n      dup1\n      swap2\n      sub\n      swap1\n      revert\n    tag_135:\n        /* \"contracts/InsuranceContract.sol\":1052:1053  0 */\n      0x00\n        /* \"contracts/InsuranceContract.sol\":1016:1021  users */\n      0x09\n        /* \"contracts/InsuranceContract.sol\":1016:1033  users[msg.sender] */\n      0x00\n        /* \"contracts/InsuranceContract.sol\":1022:1032  msg.sender */\n      caller\n        /* \"contracts/InsuranceContract.sol\":1016:1033  users[msg.sender] */\n      0xffffffffffffffffffffffffffffffffffffffff\n      and\n      0xffffffffffffffffffffffffffffffffffffffff\n      and\n      dup2\n      mstore\n      0x20\n      add\n      swap1\n      dup2\n      mstore\n      0x20\n      add\n      0x00\n      keccak256\n        /* \"contracts/InsuranceContract.sol\":1016:1048  users[msg.sender].startInsurance */\n      0x03\n      add\n      sload\n        /* \"contracts/InsuranceContract.sol\":1016:1053  users[msg.sender].startInsurance <= 0 */\n      gt\n      iszero\n        /* \"contracts/InsuranceContract.sol\":995:1104  require(... */\n      tag_138\n      jumpi\n      mload(0x40)\n      0x08c379a000000000000000000000000000000000000000000000000000000000\n      dup2\n      mstore\n      0x04\n      add\n      tag_139\n      swap1\n      tag_140\n      jump\t// in\n    tag_139:\n      mload(0x40)\n      dup1\n      swap2\n      sub\n      swap1\n      revert\n    tag_138:\n        /* \"contracts/InsuranceContract.sol\":1134:1243  User(... */\n      mload(0x40)\n      dup1\n      0xa0\n      add\n      0x40\n      mstore\n      dup1\n        /* \"contracts/InsuranceContract.sol\":1152:1159  newName */\n      dup4\n        /* \"contracts/InsuranceContract.sol\":1134:1243  User(... */\n      dup2\n      mstore\n      0x20\n      add\n        /* \"contracts/InsuranceContract.sol\":1173:1183  msg.sender */\n      caller\n        /* \"contracts/InsuranceContract.sol\":1134:1243  User(... */\n      0xffffffffffffffffffffffffffffffffffffffff\n      and\n      dup2\n      mstore\n      0x20\n      add\n        /* \"contracts/InsuranceContract.sol\":1197:1203  newAge */\n      dup3\n        /* \"contracts/InsuranceContract.sol\":1134:1243  User(... */\n      dup2\n      mstore\n      0x20\n      add\n        /* \"contracts/InsuranceContract.sol\":1217:1218  0 */\n      0x00\n        /* \"contracts/InsuranceContract.sol\":1134:1243  User(... */\n      dup2\n      mstore\n      0x20\n      add\n        /* \"contracts/InsuranceContract.sol\":1232:1233  0 */\n      0x00\n        /* \"contracts/InsuranceContract.sol\":1134:1243  User(... */\n      dup2\n      mstore\n      pop\n        /* \"contracts/InsuranceContract.sol\":1114:1119  users */\n      0x09\n        /* \"contracts/InsuranceContract.sol\":1114:1131  users[msg.sender] */\n      0x00\n        /* \"contracts/InsuranceContract.sol\":1120:1130  msg.sender */\n      caller\n        /* \"contracts/InsuranceContract.sol\":1114:1131  users[msg.sender] */\n      0xffffffffffffffffffffffffffffffffffffffff\n      and\n      0xffffffffffffffffffffffffffffffffffffffff\n      and\n      dup2\n      mstore\n      0x20\n      add\n      swap1\n      dup2\n      mstore\n      0x20\n      add\n      0x00\n      keccak256\n        /* \"contracts/InsuranceContract.sol\":1114:1243  users[msg.sender] = User(... */\n      0x00\n      dup3\n      add\n      mload\n      dup2\n      0x00\n      add\n      swap1\n      dup2\n      tag_141\n      swap2\n      swap1\n      tag_142\n      jump\t// in\n    tag_141:\n      pop\n      0x20\n      dup3\n      add\n      mload\n      dup2\n      0x01\n      add\n      exp(0x0100, 0x00)\n      dup2\n      sload\n      dup2\n      0xffffffffffffffffffffffffffffffffffffffff\n      mul\n      not\n      and\n      swap1\n      dup4\n      0xffffffffffffffffffffffffffffffffffffffff\n      and\n      mul\n      or\n      swap1\n      sstore\n      pop\n      0x40\n      dup3\n      add\n      mload\n      dup2\n      0x02\n      add\n      sstore\n      0x60\n      dup3\n      add\n      mload\n      dup2\n      0x03\n      add\n      sstore\n      0x80\n      dup3\n      add\n      mload\n      dup2\n      0x04\n      add\n      sstore\n      swap1\n      pop\n      pop\n        /* \"contracts/InsuranceContract.sol\":1253:1271  registeredCustomer */\n      0x08\n      0x00\n        /* \"contracts/InsuranceContract.sol\":1253:1273  registeredCustomer++ */\n      dup2\n      sload\n      dup1\n      swap3\n      swap2\n      swap1\n      tag_143\n      swap1\n      tag_144\n      jump\t// in\n    tag_143:\n      swap2\n      swap1\n      pop\n      sstore\n      pop\n        /* \"contracts/InsuranceContract.sol\":697:1280  function registeCustomer(string memory newName, uint newAge) public onlyOwner{... */\n      pop\n      pop\n      jump\t// out\n        /* \"@openzeppelin/contracts/token/ERC20/ERC20.sol\":4444:4641  function approve(address spender, uint256 amount) public virtual override returns (bool) {... */\n    tag_39:\n        /* \"@openzeppelin/contracts/token/ERC20/ERC20.sol\":4527:4531  bool */\n      0x00\n        /* \"@openzeppelin/contracts/token/ERC20/ERC20.sol\":4543:4556  address owner */\n      dup1\n        /* \"@openzeppelin/contracts/token/ERC20/ERC20.sol\":4559:4571  _msgSender() */\n      tag_146\n        /* \"@openzeppelin/contracts/token/ERC20/ERC20.sol\":4559:4569  _msgSender */\n      tag_147\n        /* \"@openzeppelin/contracts/token/ERC20/ERC20.sol\":4559:4571  _msgSender() */\n      jump\t// in\n    tag_146:\n        /* \"@openzeppelin/contracts/token/ERC20/ERC20.sol\":4543:4571  address owner = _msgSender() */\n      swap1\n      pop\n        /* \"@openzeppelin/contracts/token/ERC20/ERC20.sol\":4581:4613  _approve(owner, spender, amount) */\n      tag_148\n        /* \"@openzeppelin/contracts/token/ERC20/ERC20.sol\":4590:4595  owner */\n      dup2\n        /* \"@openzeppelin/contracts/token/ERC20/ERC20.sol\":4597:4604  spender */\n      dup6\n        /* \"@openzeppelin/contracts/token/ERC20/ERC20.sol\":4606:4612  amount */\n      dup6\n        /* \"@openzeppelin/contracts/token/ERC20/ERC20.sol\":4581:4589  _approve */\n      tag_149\n        /* \"@openzeppelin/contracts/token/ERC20/ERC20.sol\":4581:4613  _approve(owner, spender, amount) */\n      jump\t// in\n    tag_148:\n        /* \"@openzeppelin/contracts/token/ERC20/ERC20.sol\":4630:4634  true */\n      0x01\n        /* \"@openzeppelin/contracts/token/ERC20/ERC20.sol\":4623:4634  return true */\n      swap2\n      pop\n      pop\n        /* \"@openzeppelin/contracts/token/ERC20/ERC20.sol\":4444:4641  function approve(address spender, uint256 amount) public virtual override returns (bool) {... */\n      swap3\n      swap2\n      pop\n      pop\n      jump\t// out\n        /* \"@openzeppelin/contracts/token/ERC20/ERC20.sol\":3255:3361  function totalSupply() public view virtual override returns (uint256) {... */\n    tag_44:\n        /* \"@openzeppelin/contracts/token/ERC20/ERC20.sol\":3316:3323  uint256 */\n      0x00\n        /* \"@openzeppelin/contracts/token/ERC20/ERC20.sol\":3342:3354  _totalSupply */\n      sload(0x02)\n        /* \"@openzeppelin/contracts/token/ERC20/ERC20.sol\":3335:3354  return _totalSupply */\n      swap1\n      pop\n        /* \"@openzeppelin/contracts/token/ERC20/ERC20.sol\":3255:3361  function totalSupply() public view virtual override returns (uint256) {... */\n      swap1\n      jump\t// out\n        /* \"@openzeppelin/contracts/token/ERC20/ERC20.sol\":5203:5459  function transferFrom(address from, address to, uint256 amount) public virtual override returns (bool) {... */\n    tag_51:\n        /* \"@openzeppelin/contracts/token/ERC20/ERC20.sol\":5300:5304  bool */\n      0x00\n        /* \"@openzeppelin/contracts/token/ERC20/ERC20.sol\":5316:5331  address spender */\n      dup1\n        /* \"@openzeppelin/contracts/token/ERC20/ERC20.sol\":5334:5346  _msgSender() */\n      tag_152\n        /* \"@openzeppelin/contracts/token/ERC20/ERC20.sol\":5334:5344  _msgSender */\n      tag_147\n        /* \"@openzeppelin/contracts/token/ERC20/ERC20.sol\":5334:5346  _msgSender() */\n      jump\t// in\n    tag_152:\n        /* \"@openzeppelin/contracts/token/ERC20/ERC20.sol\":5316:5346  address spender = _msgSender() */\n      swap1\n      pop\n        /* \"@openzeppelin/contracts/token/ERC20/ERC20.sol\":5356:5394  _spendAllowance(from, spender, amount) */\n      tag_153\n        /* \"@openzeppelin/contracts/token/ERC20/ERC20.sol\":5372:5376  from */\n      dup6\n        /* \"@openzeppelin/contracts/token/ERC20/ERC20.sol\":5378:5385  spender */\n      dup3\n        /* \"@openzeppelin/contracts/token/ERC20/ERC20.sol\":5387:5393  amount */\n      dup6\n        /* \"@openzeppelin/contracts/token/ERC20/ERC20.sol\":5356:5371  _spendAllowance */\n      tag_154\n        /* \"@openzeppelin/contracts/token/ERC20/ERC20.sol\":5356:5394  _spendAllowance(from, spender, amount) */\n      jump\t// in\n    tag_153:\n        /* \"@openzeppelin/contracts/token/ERC20/ERC20.sol\":5404:5431  _transfer(from, to, amount) */\n      tag_155\n        /* \"@openzeppelin/contracts/token/ERC20/ERC20.sol\":5414:5418  from */\n      dup6\n        /* \"@openzeppelin/contracts/token/ERC20/ERC20.sol\":5420:5422  to */\n      dup6\n        /* \"@openzeppelin/contracts/token/ERC20/ERC20.sol\":5424:5430  amount */\n      dup6\n        /* \"@openzeppelin/contracts/token/ERC20/ERC20.sol\":5404:5413  _transfer */\n      tag_156\n        /* \"@openzeppelin/contracts/token/ERC20/ERC20.sol\":5404:5431  _transfer(from, to, amount) */\n      jump\t// in\n    tag_155:\n        /* \"@openzeppelin/contracts/token/ERC20/ERC20.sol\":5448:5452  true */\n      0x01\n        /* \"@openzeppelin/contracts/token/ERC20/ERC20.sol\":5441:5452  return true */\n      swap2\n      pop\n      pop\n        /* \"@openzeppelin/contracts/token/ERC20/ERC20.sol\":5203:5459  function transferFrom(address from, address to, uint256 amount) public virtual override returns (bool) {... */\n      swap4\n      swap3\n      pop\n      pop\n      pop\n      jump\t// out\n        /* \"contracts/InsuranceContract.sol\":219:295  address public insuranceAddress = 0xd7b5B1e52369F1402Ba350d7f5Dd3D247717c157 */\n    tag_55:\n      0x06\n      0x00\n      swap1\n      sload\n      swap1\n      0x0100\n      exp\n      swap1\n      div\n      0xffffffffffffffffffffffffffffffffffffffff\n      and\n      dup2\n      jump\t// out\n        /* \"contracts/InsuranceContract.sol\":338:369  uint public registeredInsurance */\n    tag_60:\n      sload(0x07)\n      dup2\n      jump\t// out\n        /* \"@openzeppelin/contracts/token/ERC20/ERC20.sol\":3104:3195  function decimals() public view virtual override returns (uint8) {... */\n    tag_64:\n        /* \"@openzeppelin/contracts/token/ERC20/ERC20.sol\":3162:3167  uint8 */\n      0x00\n        /* \"@openzeppelin/contracts/token/ERC20/ERC20.sol\":3186:3188  18 */\n      0x12\n        /* \"@openzeppelin/contracts/token/ERC20/ERC20.sol\":3179:3188  return 18 */\n      swap1\n      pop\n        /* \"@openzeppelin/contracts/token/ERC20/ERC20.sol\":3104:3195  function decimals() public view virtual override returns (uint8) {... */\n      swap1\n      jump\t// out\n        /* \"@openzeppelin/contracts/token/ERC20/ERC20.sol\":5854:6088  function increaseAllowance(address spender, uint256 addedValue) public virtual returns (bool) {... */\n    tag_70:\n        /* \"@openzeppelin/contracts/token/ERC20/ERC20.sol\":5942:5946  bool */\n      0x00\n        /* \"@openzeppelin/contracts/token/ERC20/ERC20.sol\":5958:5971  address owner */\n      dup1\n        /* \"@openzeppelin/contracts/token/ERC20/ERC20.sol\":5974:5986  _msgSender() */\n      tag_159\n        /* \"@openzeppelin/contracts/token/ERC20/ERC20.sol\":5974:5984  _msgSender */\n      tag_147\n        /* \"@openzeppelin/contracts/token/ERC20/ERC20.sol\":5974:5986  _msgSender() */\n      jump\t// in\n    tag_159:\n        /* \"@openzeppelin/contracts/token/ERC20/ERC20.sol\":5958:5986  address owner = _msgSender() */\n      swap1\n      pop\n        /* \"@openzeppelin/contracts/token/ERC20/ERC20.sol\":5996:6060  _approve(owner, spender, allowance(owner, spender) + addedValue) */\n      tag_160\n        /* \"@openzeppelin/contracts/token/ERC20/ERC20.sol\":6005:6010  owner */\n      dup2\n        /* \"@openzeppelin/contracts/token/ERC20/ERC20.sol\":6012:6019  spender */\n      dup6\n        /* \"@openzeppelin/contracts/token/ERC20/ERC20.sol\":6049:6059  addedValue */\n      dup6\n        /* \"@openzeppelin/contracts/token/ERC20/ERC20.sol\":6021:6046  allowance(owner, spender) */\n      tag_161\n        /* \"@openzeppelin/contracts/token/ERC20/ERC20.sol\":6031:6036  owner */\n      dup6\n        /* \"@openzeppelin/contracts/token/ERC20/ERC20.sol\":6038:6045  spender */\n      dup10\n        /* \"@openzeppelin/contracts/token/ERC20/ERC20.sol\":6021:6030  allowance */\n      tag_113\n        /* \"@openzeppelin/contracts/token/ERC20/ERC20.sol\":6021:6046  allowance(owner, spender) */\n      jump\t// in\n    tag_161:\n        /* \"@openzeppelin/contracts/token/ERC20/ERC20.sol\":6021:6059  allowance(owner, spender) + addedValue */\n      tag_162\n      swap2\n      swap1\n      tag_163\n      jump\t// in\n    tag_162:\n        /* \"@openzeppelin/contracts/token/ERC20/ERC20.sol\":5996:6004  _approve */\n      tag_149\n        /* \"@openzeppelin/contracts/token/ERC20/ERC20.sol\":5996:6060  _approve(owner, spender, allowance(owner, spender) + addedValue) */\n      jump\t// in\n    tag_160:\n        /* \"@openzeppelin/contracts/token/ERC20/ERC20.sol\":6077:6081  true */\n      0x01\n        /* \"@openzeppelin/contracts/token/ERC20/ERC20.sol\":6070:6081  return true */\n      swap2\n      pop\n      pop\n        /* \"@openzeppelin/contracts/token/ERC20/ERC20.sol\":5854:6088  function increaseAllowance(address spender, uint256 addedValue) public virtual returns (bool) {... */\n      swap3\n      swap2\n      pop\n      pop\n      jump\t// out\n        /* \"@openzeppelin/contracts/token/ERC20/ERC20.sol\":3419:3544  function balanceOf(address account) public view virtual override returns (uint256) {... */\n    tag_76:\n        /* \"@openzeppelin/contracts/token/ERC20/ERC20.sol\":3493:3500  uint256 */\n      0x00\n        /* \"@openzeppelin/contracts/token/ERC20/ERC20.sol\":3519:3528  _balances */\n      dup1\n        /* \"@openzeppelin/contracts/token/ERC20/ERC20.sol\":3519:3537  _balances[account] */\n      0x00\n        /* \"@openzeppelin/contracts/token/ERC20/ERC20.sol\":3529:3536  account */\n      dup4\n        /* \"@openzeppelin/contracts/token/ERC20/ERC20.sol\":3519:3537  _balances[account] */\n      0xffffffffffffffffffffffffffffffffffffffff\n      and\n      0xffffffffffffffffffffffffffffffffffffffff\n      and\n      dup2\n      mstore\n      0x20\n      add\n      swap1\n      dup2\n      mstore\n      0x20\n      add\n      0x00\n      keccak256\n      sload\n        /* \"@openzeppelin/contracts/token/ERC20/ERC20.sol\":3512:3537  return _balances[account] */\n      swap1\n      pop\n        /* \"@openzeppelin/contracts/token/ERC20/ERC20.sol\":3419:3544  function balanceOf(address account) public view virtual override returns (uint256) {... */\n      swap2\n      swap1\n      pop\n      jump\t// out\n        /* \"@openzeppelin/contracts/access/Ownable.sol\":1824:1925  function renounceOwnership() public virtual onlyOwner {... */\n    tag_80:\n        /* \"@openzeppelin/contracts/access/Ownable.sol\":1094:1107  _checkOwner() */\n      tag_166\n        /* \"@openzeppelin/contracts/access/Ownable.sol\":1094:1105  _checkOwner */\n      tag_130\n        /* \"@openzeppelin/contracts/access/Ownable.sol\":1094:1107  _checkOwner() */\n      jump\t// in\n    tag_166:\n        /* \"@openzeppelin/contracts/access/Ownable.sol\":1888:1918  _transferOwnership(address(0)) */\n      tag_168\n        /* \"@openzeppelin/contracts/access/Ownable.sol\":1915:1916  0 */\n      0x00\n        /* \"@openzeppelin/contracts/access/Ownable.sol\":1888:1906  _transferOwnership */\n      tag_169\n        /* \"@openzeppelin/contracts/access/Ownable.sol\":1888:1918  _transferOwnership(address(0)) */\n      jump\t// in\n    tag_168:\n        /* \"@openzeppelin/contracts/access/Ownable.sol\":1824:1925  function renounceOwnership() public virtual onlyOwner {... */\n      jump\t// out\n        /* \"@openzeppelin/contracts/access/Ownable.sol\":1201:1286  function owner() public view virtual returns (address) {... */\n    tag_83:\n        /* \"@openzeppelin/contracts/access/Ownable.sol\":1247:1254  address */\n      0x00\n        /* \"@openzeppelin/contracts/access/Ownable.sol\":1273:1279  _owner */\n      0x05\n      0x00\n      swap1\n      sload\n      swap1\n      0x0100\n      exp\n      swap1\n      div\n      0xffffffffffffffffffffffffffffffffffffffff\n      and\n        /* \"@openzeppelin/contracts/access/Ownable.sol\":1266:1279  return _owner */\n      swap1\n      pop\n        /* \"@openzeppelin/contracts/access/Ownable.sol\":1201:1286  function owner() public view virtual returns (address) {... */\n      swap1\n      jump\t// out\n        /* \"@openzeppelin/contracts/token/ERC20/ERC20.sol\":2369:2471  function symbol() public view virtual override returns (string memory) {... */\n    tag_87:\n        /* \"@openzeppelin/contracts/token/ERC20/ERC20.sol\":2425:2438  string memory */\n      0x60\n        /* \"@openzeppelin/contracts/token/ERC20/ERC20.sol\":2457:2464  _symbol */\n      0x04\n        /* \"@openzeppelin/contracts/token/ERC20/ERC20.sol\":2450:2464  return _symbol */\n      dup1\n      sload\n      tag_172\n      swap1\n      tag_123\n      jump\t// in\n    tag_172:\n      dup1\n      0x1f\n      add\n      0x20\n      dup1\n      swap2\n      div\n      mul\n      0x20\n      add\n      mload(0x40)\n      swap1\n      dup2\n      add\n      0x40\n      mstore\n      dup1\n      swap3\n      swap2\n      swap1\n      dup2\n      dup2\n      mstore\n      0x20\n      add\n      dup3\n      dup1\n      sload\n      tag_173\n      swap1\n      tag_123\n      jump\t// in\n    tag_173:\n      dup1\n      iszero\n      tag_174\n      jumpi\n      dup1\n      0x1f\n      lt\n      tag_175\n      jumpi\n      0x0100\n      dup1\n      dup4\n      sload\n      div\n      mul\n      dup4\n      mstore\n      swap2\n      0x20\n      add\n      swap2\n      jump(tag_174)\n    tag_175:\n      dup3\n      add\n      swap2\n      swap1\n      0x00\n      mstore\n      keccak256(0x00, 0x20)\n      swap1\n    tag_176:\n      dup2\n      sload\n      dup2\n      mstore\n      swap1\n      0x01\n      add\n      swap1\n      0x20\n      add\n      dup1\n      dup4\n      gt\n      tag_176\n      jumpi\n      dup3\n      swap1\n      sub\n      0x1f\n      and\n      dup3\n      add\n      swap2\n    tag_174:\n      pop\n      pop\n      pop\n      pop\n      pop\n      swap1\n      pop\n        /* \"@openzeppelin/contracts/token/ERC20/ERC20.sol\":2369:2471  function symbol() public view virtual override returns (string memory) {... */\n      swap1\n      jump\t// out\n        /* \"@openzeppelin/contracts/token/ERC20/ERC20.sol\":6575:7002  function decreaseAllowance(address spender, uint256 subtractedValue) public virtual returns (bool) {... */\n    tag_92:\n        /* \"@openzeppelin/contracts/token/ERC20/ERC20.sol\":6668:6672  bool */\n      0x00\n        /* \"@openzeppelin/contracts/token/ERC20/ERC20.sol\":6684:6697  address owner */\n      dup1\n        /* \"@openzeppelin/contracts/token/ERC20/ERC20.sol\":6700:6712  _msgSender() */\n      tag_178\n        /* \"@openzeppelin/contracts/token/ERC20/ERC20.sol\":6700:6710  _msgSender */\n      tag_147\n        /* \"@openzeppelin/contracts/token/ERC20/ERC20.sol\":6700:6712  _msgSender() */\n      jump\t// in\n    tag_178:\n        /* \"@openzeppelin/contracts/token/ERC20/ERC20.sol\":6684:6712  address owner = _msgSender() */\n      swap1\n      pop\n        /* \"@openzeppelin/contracts/token/ERC20/ERC20.sol\":6722:6746  uint256 currentAllowance */\n      0x00\n        /* \"@openzeppelin/contracts/token/ERC20/ERC20.sol\":6749:6774  allowance(owner, spender) */\n      tag_179\n        /* \"@openzeppelin/contracts/token/ERC20/ERC20.sol\":6759:6764  owner */\n      dup3\n        /* \"@openzeppelin/contracts/token/ERC20/ERC20.sol\":6766:6773  spender */\n      dup7\n        /* \"@openzeppelin/contracts/token/ERC20/ERC20.sol\":6749:6758  allowance */\n      tag_113\n        /* \"@openzeppelin/contracts/token/ERC20/ERC20.sol\":6749:6774  allowance(owner, spender) */\n      jump\t// in\n    tag_179:\n        /* \"@openzeppelin/contracts/token/ERC20/ERC20.sol\":6722:6774  uint256 currentAllowance = allowance(owner, spender) */\n      swap1\n      pop\n        /* \"@openzeppelin/contracts/token/ERC20/ERC20.sol\":6812:6827  subtractedValue */\n      dup4\n        /* \"@openzeppelin/contracts/token/ERC20/ERC20.sol\":6792:6808  currentAllowance */\n      dup2\n        /* \"@openzeppelin/contracts/token/ERC20/ERC20.sol\":6792:6827  currentAllowance >= subtractedValue */\n      lt\n      iszero\n        /* \"@openzeppelin/contracts/token/ERC20/ERC20.sol\":6784:6869  require(currentAllowance >= subtractedValue, \"ERC20: decreased allowance below zero\") */\n      tag_180\n      jumpi\n      mload(0x40)\n      0x08c379a000000000000000000000000000000000000000000000000000000000\n      dup2\n      mstore\n      0x04\n      add\n      tag_181\n      swap1\n      tag_182\n      jump\t// in\n    tag_181:\n      mload(0x40)\n      dup1\n      swap2\n      sub\n      swap1\n      revert\n    tag_180:\n        /* \"@openzeppelin/contracts/token/ERC20/ERC20.sol\":6903:6963  _approve(owner, spender, currentAllowance - subtractedValue) */\n      tag_183\n        /* \"@openzeppelin/contracts/token/ERC20/ERC20.sol\":6912:6917  owner */\n      dup3\n        /* \"@openzeppelin/contracts/token/ERC20/ERC20.sol\":6919:6926  spender */\n      dup7\n        /* \"@openzeppelin/contracts/token/ERC20/ERC20.sol\":6947:6962  subtractedValue */\n      dup7\n        /* \"@openzeppelin/contracts/token/ERC20/ERC20.sol\":6928:6944  currentAllowance */\n      dup5\n        /* \"@openzeppelin/contracts/token/ERC20/ERC20.sol\":6928:6962  currentAllowance - subtractedValue */\n      sub\n        /* \"@openzeppelin/contracts/token/ERC20/ERC20.sol\":6903:6911  _approve */\n      tag_149\n        /* \"@openzeppelin/contracts/token/ERC20/ERC20.sol\":6903:6963  _approve(owner, spender, currentAllowance - subtractedValue) */\n      jump\t// in\n    tag_183:\n        /* \"@openzeppelin/contracts/token/ERC20/ERC20.sol\":6991:6995  true */\n      0x01\n        /* \"@openzeppelin/contracts/token/ERC20/ERC20.sol\":6984:6995  return true */\n      swap3\n      pop\n      pop\n      pop\n        /* \"@openzeppelin/contracts/token/ERC20/ERC20.sol\":6575:7002  function decreaseAllowance(address spender, uint256 subtractedValue) public virtual returns (bool) {... */\n      swap3\n      swap2\n      pop\n      pop\n      jump\t// out\n        /* \"contracts/InsuranceContract.sol\":469:506  mapping(address => User) public users */\n    tag_97:\n      mstore(0x20, 0x09)\n      dup1\n      0x00\n      mstore\n      keccak256(0x00, 0x40)\n      0x00\n      swap2\n      pop\n      swap1\n      pop\n      dup1\n      0x00\n      add\n      dup1\n      sload\n      tag_184\n      swap1\n      tag_123\n      jump\t// in\n    tag_184:\n      dup1\n      0x1f\n      add\n      0x20\n      dup1\n      swap2\n      div\n      mul\n      0x20\n      add\n      mload(0x40)\n      swap1\n      dup2\n      add\n      0x40\n      mstore\n      dup1\n      swap3\n      swap2\n      swap1\n      dup2\n      dup2\n      mstore\n      0x20\n      add\n      dup3\n      dup1\n      sload\n      tag_185\n      swap1\n      tag_123\n      jump\t// in\n    tag_185:\n      dup1\n      iszero\n      tag_186\n      jumpi\n      dup1\n      0x1f\n      lt\n      tag_187\n      jumpi\n      0x0100\n      dup1\n      dup4\n      sload\n      div\n      mul\n      dup4\n      mstore\n      swap2\n      0x20\n      add\n      swap2\n      jump(tag_186)\n    tag_187:\n      dup3\n      add\n      swap2\n      swap1\n      0x00\n      mstore\n      keccak256(0x00, 0x20)\n      swap1\n    tag_188:\n      dup2\n      sload\n      dup2\n      mstore\n      swap1\n      0x01\n      add\n      swap1\n      0x20\n      add\n      dup1\n      dup4\n      gt\n      tag_188\n      jumpi\n      dup3\n      swap1\n      sub\n      0x1f\n      and\n      dup3\n      add\n      swap2\n    tag_186:\n      pop\n      pop\n      pop\n      pop\n      pop\n      swap1\n      dup1\n      0x01\n      add\n      0x00\n      swap1\n      sload\n      swap1\n      0x0100\n      exp\n      swap1\n      div\n      0xffffffffffffffffffffffffffffffffffffffff\n      and\n      swap1\n      dup1\n      0x02\n      add\n      sload\n      swap1\n      dup1\n      0x03\n      add\n      sload\n      swap1\n      dup1\n      0x04\n      add\n      sload\n      swap1\n      pop\n      dup6\n      jump\t// out\n        /* \"@openzeppelin/contracts/token/ERC20/ERC20.sol\":3740:3929  function transfer(address to, uint256 amount) public virtual override returns (bool) {... */\n    tag_103:\n        /* \"@openzeppelin/contracts/token/ERC20/ERC20.sol\":3819:3823  bool */\n      0x00\n        /* \"@openzeppelin/contracts/token/ERC20/ERC20.sol\":3835:3848  address owner */\n      dup1\n        /* \"@openzeppelin/contracts/token/ERC20/ERC20.sol\":3851:3863  _msgSender() */\n      tag_190\n        /* \"@openzeppelin/contracts/token/ERC20/ERC20.sol\":3851:3861  _msgSender */\n      tag_147\n        /* \"@openzeppelin/contracts/token/ERC20/ERC20.sol\":3851:3863  _msgSender() */\n      jump\t// in\n    tag_190:\n        /* \"@openzeppelin/contracts/token/ERC20/ERC20.sol\":3835:3863  address owner = _msgSender() */\n      swap1\n      pop\n        /* \"@openzeppelin/contracts/token/ERC20/ERC20.sol\":3873:3901  _transfer(owner, to, amount) */\n      tag_191\n        /* \"@openzeppelin/contracts/token/ERC20/ERC20.sol\":3883:3888  owner */\n      dup2\n        /* \"@openzeppelin/contracts/token/ERC20/ERC20.sol\":3890:3892  to */\n      dup6\n        /* \"@openzeppelin/contracts/token/ERC20/ERC20.sol\":3894:3900  amount */\n      dup6\n        /* \"@openzeppelin/contracts/token/ERC20/ERC20.sol\":3873:3882  _transfer */\n      tag_156\n        /* \"@openzeppelin/contracts/token/ERC20/ERC20.sol\":3873:3901  _transfer(owner, to, amount) */\n      jump\t// in\n    tag_191:\n        /* \"@openzeppelin/contracts/token/ERC20/ERC20.sol\":3918:3922  true */\n      0x01\n        /* \"@openzeppelin/contracts/token/ERC20/ERC20.sol\":3911:3922  return true */\n      swap2\n      pop\n      pop\n        /* \"@openzeppelin/contracts/token/ERC20/ERC20.sol\":3740:3929  function transfer(address to, uint256 amount) public virtual override returns (bool) {... */\n      swap3\n      swap2\n      pop\n      pop\n      jump\t// out\n        /* \"contracts/InsuranceContract.sol\":375:405  uint public registeredCustomer */\n    tag_107:\n      sload(0x08)\n      dup2\n      jump\t// out\n        /* \"@openzeppelin/contracts/token/ERC20/ERC20.sol\":3987:4136  function allowance(address owner, address spender) public view virtual override returns (uint256) {... */\n    tag_113:\n        /* \"@openzeppelin/contracts/token/ERC20/ERC20.sol\":4076:4083  uint256 */\n      0x00\n        /* \"@openzeppelin/contracts/token/ERC20/ERC20.sol\":4102:4113  _allowances */\n      0x01\n        /* \"@openzeppelin/contracts/token/ERC20/ERC20.sol\":4102:4120  _allowances[owner] */\n      0x00\n        /* \"@openzeppelin/contracts/token/ERC20/ERC20.sol\":4114:4119  owner */\n      dup5\n        /* \"@openzeppelin/contracts/token/ERC20/ERC20.sol\":4102:4120  _allowances[owner] */\n      0xffffffffffffffffffffffffffffffffffffffff\n      and\n      0xffffffffffffffffffffffffffffffffffffffff\n      and\n      dup2\n      mstore\n      0x20\n      add\n      swap1\n      dup2\n      mstore\n      0x20\n      add\n      0x00\n      keccak256\n        /* \"@openzeppelin/contracts/token/ERC20/ERC20.sol\":4102:4129  _allowances[owner][spender] */\n      0x00\n        /* \"@openzeppelin/contracts/token/ERC20/ERC20.sol\":4121:4128  spender */\n      dup4\n        /* \"@openzeppelin/contracts/token/ERC20/ERC20.sol\":4102:4129  _allowances[owner][spender] */\n      0xffffffffffffffffffffffffffffffffffffffff\n      and\n      0xffffffffffffffffffffffffffffffffffffffff\n      and\n      dup2\n      mstore\n      0x20\n      add\n      swap1\n      dup2\n      mstore\n      0x20\n      add\n      0x00\n      keccak256\n      sload\n        /* \"@openzeppelin/contracts/token/ERC20/ERC20.sol\":4095:4129  return _allowances[owner][spender] */\n      swap1\n      pop\n        /* \"@openzeppelin/contracts/token/ERC20/ERC20.sol\":3987:4136  function allowance(address owner, address spender) public view virtual override returns (uint256) {... */\n      swap3\n      swap2\n      pop\n      pop\n      jump\t// out\n        /* \"contracts/InsuranceContract.sol\":1320:2014  function registeInsurance() public payable {... */\n    tag_116:\n        /* \"contracts/InsuranceContract.sol\":1427:1437  msg.sender */\n      caller\n        /* \"contracts/InsuranceContract.sol\":1394:1437  users[msg.sender].userAddress == msg.sender */\n      0xffffffffffffffffffffffffffffffffffffffff\n      and\n        /* \"contracts/InsuranceContract.sol\":1394:1399  users */\n      0x09\n        /* \"contracts/InsuranceContract.sol\":1394:1411  users[msg.sender] */\n      0x00\n        /* \"contracts/InsuranceContract.sol\":1400:1410  msg.sender */\n      caller\n        /* \"contracts/InsuranceContract.sol\":1394:1411  users[msg.sender] */\n      0xffffffffffffffffffffffffffffffffffffffff\n      and\n      0xffffffffffffffffffffffffffffffffffffffff\n      and\n      dup2\n      mstore\n      0x20\n      add\n      swap1\n      dup2\n      mstore\n      0x20\n      add\n      0x00\n      keccak256\n        /* \"contracts/InsuranceContract.sol\":1394:1423  users[msg.sender].userAddress */\n      0x01\n      add\n      0x00\n      swap1\n      sload\n      swap1\n      0x0100\n      exp\n      swap1\n      div\n      0xffffffffffffffffffffffffffffffffffffffff\n      and\n        /* \"contracts/InsuranceContract.sol\":1394:1437  users[msg.sender].userAddress == msg.sender */\n      0xffffffffffffffffffffffffffffffffffffffff\n      and\n      eq\n        /* \"contracts/InsuranceContract.sol\":1373:1485  require(... */\n      tag_194\n      jumpi\n      mload(0x40)\n      0x08c379a000000000000000000000000000000000000000000000000000000000\n      dup2\n      mstore\n      0x04\n      add\n      tag_195\n      swap1\n      tag_196\n      jump\t// in\n    tag_195:\n      mload(0x40)\n      dup1\n      swap2\n      sub\n      swap1\n      revert\n    tag_194:\n        /* \"contracts/InsuranceContract.sol\":1541:1542  0 */\n      0x00\n        /* \"contracts/InsuranceContract.sol\":1516:1537  balanceOf(msg.sender) */\n      tag_197\n        /* \"contracts/InsuranceContract.sol\":1526:1536  msg.sender */\n      caller\n        /* \"contracts/InsuranceContract.sol\":1516:1525  balanceOf */\n      tag_76\n        /* \"contracts/InsuranceContract.sol\":1516:1537  balanceOf(msg.sender) */\n      jump\t// in\n    tag_197:\n        /* \"contracts/InsuranceContract.sol\":1516:1542  balanceOf(msg.sender) >= 0 */\n      lt\n      iszero\n        /* \"contracts/InsuranceContract.sol\":1495:1597  require(... */\n      tag_198\n      jumpi\n      mload(0x40)\n      0x08c379a000000000000000000000000000000000000000000000000000000000\n      dup2\n      mstore\n      0x04\n      add\n      tag_199\n      swap1\n      tag_200\n      jump\t// in\n    tag_199:\n      mload(0x40)\n      dup1\n      swap2\n      sub\n      swap1\n      revert\n    tag_198:\n        /* \"contracts/InsuranceContract.sol\":1661:1676  block.timestamp */\n      timestamp\n        /* \"contracts/InsuranceContract.sol\":1628:1633  users */\n      0x09\n        /* \"contracts/InsuranceContract.sol\":1628:1645  users[msg.sender] */\n      0x00\n        /* \"contracts/InsuranceContract.sol\":1634:1644  msg.sender */\n      caller\n        /* \"contracts/InsuranceContract.sol\":1628:1645  users[msg.sender] */\n      0xffffffffffffffffffffffffffffffffffffffff\n      and\n      0xffffffffffffffffffffffffffffffffffffffff\n      and\n      dup2\n      mstore\n      0x20\n      add\n      swap1\n      dup2\n      mstore\n      0x20\n      add\n      0x00\n      keccak256\n        /* \"contracts/InsuranceContract.sol\":1628:1658  users[msg.sender].endInsurance */\n      0x04\n      add\n      sload\n        /* \"contracts/InsuranceContract.sol\":1628:1676  users[msg.sender].endInsurance < block.timestamp */\n      lt\n        /* \"contracts/InsuranceContract.sol\":1607:1732  require(... */\n      tag_201\n      jumpi\n      mload(0x40)\n      0x08c379a000000000000000000000000000000000000000000000000000000000\n      dup2\n      mstore\n      0x04\n      add\n      tag_202\n      swap1\n      tag_203\n      jump\t// in\n    tag_202:\n      mload(0x40)\n      dup1\n      swap2\n      sub\n      swap1\n      revert\n    tag_201:\n        /* \"contracts/InsuranceContract.sol\":1742:1787  transferFrom(msg.sender, insuranceAddress, 0) */\n      tag_204\n        /* \"contracts/InsuranceContract.sol\":1755:1765  msg.sender */\n      caller\n        /* \"contracts/InsuranceContract.sol\":1767:1783  insuranceAddress */\n      0x06\n      0x00\n      swap1\n      sload\n      swap1\n      0x0100\n      exp\n      swap1\n      div\n      0xffffffffffffffffffffffffffffffffffffffff\n      and\n        /* \"contracts/InsuranceContract.sol\":1785:1786  0 */\n      0x00\n        /* \"contracts/InsuranceContract.sol\":1742:1754  transferFrom */\n      tag_51\n        /* \"contracts/InsuranceContract.sol\":1742:1787  transferFrom(msg.sender, insuranceAddress, 0) */\n      jump\t// in\n    tag_204:\n      pop\n        /* \"contracts/InsuranceContract.sol\":1854:1869  block.timestamp */\n      timestamp\n        /* \"contracts/InsuranceContract.sol\":1819:1824  users */\n      0x09\n        /* \"contracts/InsuranceContract.sol\":1819:1836  users[msg.sender] */\n      0x00\n        /* \"contracts/InsuranceContract.sol\":1825:1835  msg.sender */\n      caller\n        /* \"contracts/InsuranceContract.sol\":1819:1836  users[msg.sender] */\n      0xffffffffffffffffffffffffffffffffffffffff\n      and\n      0xffffffffffffffffffffffffffffffffffffffff\n      and\n      dup2\n      mstore\n      0x20\n      add\n      swap1\n      dup2\n      mstore\n      0x20\n      add\n      0x00\n      keccak256\n        /* \"contracts/InsuranceContract.sol\":1819:1851  users[msg.sender].startInsurance */\n      0x03\n      add\n        /* \"contracts/InsuranceContract.sol\":1819:1869  users[msg.sender].startInsurance = block.timestamp */\n      dup2\n      swap1\n      sstore\n      pop\n        /* \"contracts/InsuranceContract.sol\":1968:1976  31556926 */\n      0x01e1853e\n        /* \"contracts/InsuranceContract.sol\":1950:1965  block.timestamp */\n      timestamp\n        /* \"contracts/InsuranceContract.sol\":1950:1976  block.timestamp + 31556926 */\n      tag_205\n      swap2\n      swap1\n      tag_163\n      jump\t// in\n    tag_205:\n        /* \"contracts/InsuranceContract.sol\":1917:1922  users */\n      0x09\n        /* \"contracts/InsuranceContract.sol\":1917:1934  users[msg.sender] */\n      0x00\n        /* \"contracts/InsuranceContract.sol\":1923:1933  msg.sender */\n      caller\n        /* \"contracts/InsuranceContract.sol\":1917:1934  users[msg.sender] */\n      0xffffffffffffffffffffffffffffffffffffffff\n      and\n      0xffffffffffffffffffffffffffffffffffffffff\n      and\n      dup2\n      mstore\n      0x20\n      add\n      swap1\n      dup2\n      mstore\n      0x20\n      add\n      0x00\n      keccak256\n        /* \"contracts/InsuranceContract.sol\":1917:1947  users[msg.sender].endInsurance */\n      0x04\n      add\n        /* \"contracts/InsuranceContract.sol\":1917:1976  users[msg.sender].endInsurance = block.timestamp + 31556926 */\n      dup2\n      swap1\n      sstore\n      pop\n        /* \"contracts/InsuranceContract.sol\":1986:2005  registeredInsurance */\n      0x07\n      0x00\n        /* \"contracts/InsuranceContract.sol\":1986:2007  registeredInsurance++ */\n      dup2\n      sload\n      dup1\n      swap3\n      swap2\n      swap1\n      tag_206\n      swap1\n      tag_144\n      jump\t// in\n    tag_206:\n      swap2\n      swap1\n      pop\n      sstore\n      pop\n        /* \"contracts/InsuranceContract.sol\":1320:2014  function registeInsurance() public payable {... */\n      jump\t// out\n        /* \"@openzeppelin/contracts/access/Ownable.sol\":2074:2272  function transferOwnership(address newOwner) public virtual onlyOwner {... */\n    tag_120:\n        /* \"@openzeppelin/contracts/access/Ownable.sol\":1094:1107  _checkOwner() */\n      tag_208\n        /* \"@openzeppelin/contracts/access/Ownable.sol\":1094:1105  _checkOwner */\n      tag_130\n        /* \"@openzeppelin/contracts/access/Ownable.sol\":1094:1107  _checkOwner() */\n      jump\t// in\n    tag_208:\n        /* \"@openzeppelin/contracts/access/Ownable.sol\":2182:2183  0 */\n      0x00\n        /* \"@openzeppelin/contracts/access/Ownable.sol\":2162:2184  newOwner != address(0) */\n      0xffffffffffffffffffffffffffffffffffffffff\n      and\n        /* \"@openzeppelin/contracts/access/Ownable.sol\":2162:2170  newOwner */\n      dup2\n        /* \"@openzeppelin/contracts/access/Ownable.sol\":2162:2184  newOwner != address(0) */\n      0xffffffffffffffffffffffffffffffffffffffff\n      and\n      sub\n        /* \"@openzeppelin/contracts/access/Ownable.sol\":2154:2227  require(newOwner != address(0), \"Ownable: new owner is the zero address\") */\n      tag_210\n      jumpi\n      mload(0x40)\n      0x08c379a000000000000000000000000000000000000000000000000000000000\n      dup2\n      mstore\n      0x04\n      add\n      tag_211\n      swap1\n      tag_212\n      jump\t// in\n    tag_211:\n      mload(0x40)\n      dup1\n      swap2\n      sub\n      swap1\n      revert\n    tag_210:\n        /* \"@openzeppelin/contracts/access/Ownable.sol\":2237:2265  _transferOwnership(newOwner) */\n      tag_213\n        /* \"@openzeppelin/contracts/access/Ownable.sol\":2256:2264  newOwner */\n      dup2\n        /* \"@openzeppelin/contracts/access/Ownable.sol\":2237:2255  _transferOwnership */\n      tag_169\n        /* \"@openzeppelin/contracts/access/Ownable.sol\":2237:2265  _transferOwnership(newOwner) */\n      jump\t// in\n    tag_213:\n        /* \"@openzeppelin/contracts/access/Ownable.sol\":2074:2272  function transferOwnership(address newOwner) public virtual onlyOwner {... */\n      pop\n      jump\t// out\n        /* \"@openzeppelin/contracts/access/Ownable.sol\":1359:1489  function _checkOwner() internal view virtual {... */\n    tag_130:\n        /* \"@openzeppelin/contracts/access/Ownable.sol\":1433:1445  _msgSender() */\n      tag_215\n        /* \"@openzeppelin/contracts/access/Ownable.sol\":1433:1443  _msgSender */\n      tag_147\n        /* \"@openzeppelin/contracts/access/Ownable.sol\":1433:1445  _msgSender() */\n      jump\t// in\n    tag_215:\n        /* \"@openzeppelin/contracts/access/Ownable.sol\":1422:1445  owner() == _msgSender() */\n      0xffffffffffffffffffffffffffffffffffffffff\n      and\n        /* \"@openzeppelin/contracts/access/Ownable.sol\":1422:1429  owner() */\n      tag_216\n        /* \"@openzeppelin/contracts/access/Ownable.sol\":1422:1427  owner */\n      tag_83\n        /* \"@openzeppelin/contracts/access/Ownable.sol\":1422:1429  owner() */\n      jump\t// in\n    tag_216:\n        /* \"@openzeppelin/contracts/access/Ownable.sol\":1422:1445  owner() == _msgSender() */\n      0xffffffffffffffffffffffffffffffffffffffff\n      and\n      eq\n        /* \"@openzeppelin/contracts/access/Ownable.sol\":1414:1482  require(owner() == _msgSender(), \"Ownable: caller is not the owner\") */\n      tag_217\n      jumpi\n      mload(0x40)\n      0x08c379a000000000000000000000000000000000000000000000000000000000\n      dup2\n      mstore\n      0x04\n      add\n      tag_218\n      swap1\n      tag_219\n      jump\t// in\n    tag_218:\n      mload(0x40)\n      dup1\n      swap2\n      sub\n      swap1\n      revert\n    tag_217:\n        /* \"@openzeppelin/contracts/access/Ownable.sol\":1359:1489  function _checkOwner() internal view virtual {... */\n      jump\t// out\n        /* \"@openzeppelin/contracts/utils/Context.sol\":640:736  function _msgSender() internal view virtual returns (address) {... */\n    tag_147:\n        /* \"@openzeppelin/contracts/utils/Context.sol\":693:700  address */\n      0x00\n        /* \"@openzeppelin/contracts/utils/Context.sol\":719:729  msg.sender */\n      caller\n        /* \"@openzeppelin/contracts/utils/Context.sol\":712:729  return msg.sender */\n      swap1\n      pop\n        /* \"@openzeppelin/contracts/utils/Context.sol\":640:736  function _msgSender() internal view virtual returns (address) {... */\n      swap1\n      jump\t// out\n        /* \"@openzeppelin/contracts/token/ERC20/ERC20.sol\":10457:10797  function _approve(address owner, address spender, uint256 amount) internal virtual {... */\n    tag_149:\n        /* \"@openzeppelin/contracts/token/ERC20/ERC20.sol\":10575:10576  0 */\n      0x00\n        /* \"@openzeppelin/contracts/token/ERC20/ERC20.sol\":10558:10577  owner != address(0) */\n      0xffffffffffffffffffffffffffffffffffffffff\n      and\n        /* \"@openzeppelin/contracts/token/ERC20/ERC20.sol\":10558:10563  owner */\n      dup4\n        /* \"@openzeppelin/contracts/token/ERC20/ERC20.sol\":10558:10577  owner != address(0) */\n      0xffffffffffffffffffffffffffffffffffffffff\n      and\n      sub\n        /* \"@openzeppelin/contracts/token/ERC20/ERC20.sol\":10550:10618  require(owner != address(0), \"ERC20: approve from the zero address\") */\n      tag_222\n      jumpi\n      mload(0x40)\n      0x08c379a000000000000000000000000000000000000000000000000000000000\n      dup2\n      mstore\n      0x04\n      add\n      tag_223\n      swap1\n      tag_224\n      jump\t// in\n    tag_223:\n      mload(0x40)\n      dup1\n      swap2\n      sub\n      swap1\n      revert\n    tag_222:\n        /* \"@openzeppelin/contracts/token/ERC20/ERC20.sol\":10655:10656  0 */\n      0x00\n        /* \"@openzeppelin/contracts/token/ERC20/ERC20.sol\":10636:10657  spender != address(0) */\n      0xffffffffffffffffffffffffffffffffffffffff\n      and\n        /* \"@openzeppelin/contracts/token/ERC20/ERC20.sol\":10636:10643  spender */\n      dup3\n        /* \"@openzeppelin/contracts/token/ERC20/ERC20.sol\":10636:10657  spender != address(0) */\n      0xffffffffffffffffffffffffffffffffffffffff\n      and\n      sub\n        /* \"@openzeppelin/contracts/token/ERC20/ERC20.sol\":10628:10696  require(spender != address(0), \"ERC20: approve to the zero address\") */\n      tag_225\n      jumpi\n      mload(0x40)\n      0x08c379a000000000000000000000000000000000000000000000000000000000\n      dup2\n      mstore\n      0x04\n      add\n      tag_226\n      swap1\n      tag_227\n      jump\t// in\n    tag_226:\n      mload(0x40)\n      dup1\n      swap2\n      sub\n      swap1\n      revert\n    tag_225:\n        /* \"@openzeppelin/contracts/token/ERC20/ERC20.sol\":10737:10743  amount */\n      dup1\n        /* \"@openzeppelin/contracts/token/ERC20/ERC20.sol\":10707:10718  _allowances */\n      0x01\n        /* \"@openzeppelin/contracts/token/ERC20/ERC20.sol\":10707:10725  _allowances[owner] */\n      0x00\n        /* \"@openzeppelin/contracts/token/ERC20/ERC20.sol\":10719:10724  owner */\n      dup6\n        /* \"@openzeppelin/contracts/token/ERC20/ERC20.sol\":10707:10725  _allowances[owner] */\n      0xffffffffffffffffffffffffffffffffffffffff\n      and\n      0xffffffffffffffffffffffffffffffffffffffff\n      and\n      dup2\n      mstore\n      0x20\n      add\n      swap1\n      dup2\n      mstore\n      0x20\n      add\n      0x00\n      keccak256\n        /* \"@openzeppelin/contracts/token/ERC20/ERC20.sol\":10707:10734  _allowances[owner][spender] */\n      0x00\n        /* \"@openzeppelin/contracts/token/ERC20/ERC20.sol\":10726:10733  spender */\n      dup5\n        /* \"@openzeppelin/contracts/token/ERC20/ERC20.sol\":10707:10734  _allowances[owner][spender] */\n      0xffffffffffffffffffffffffffffffffffffffff\n      and\n      0xffffffffffffffffffffffffffffffffffffffff\n      and\n      dup2\n      mstore\n      0x20\n      add\n      swap1\n      dup2\n      mstore\n      0x20\n      add\n      0x00\n      keccak256\n        /* \"@openzeppelin/contracts/token/ERC20/ERC20.sol\":10707:10743  _allowances[owner][spender] = amount */\n      dup2\n      swap1\n      sstore\n      pop\n        /* \"@openzeppelin/contracts/token/ERC20/ERC20.sol\":10774:10781  spender */\n      dup2\n        /* \"@openzeppelin/contracts/token/ERC20/ERC20.sol\":10758:10790  Approval(owner, spender, amount) */\n      0xffffffffffffffffffffffffffffffffffffffff\n      and\n        /* \"@openzeppelin/contracts/token/ERC20/ERC20.sol\":10767:10772  owner */\n      dup4\n        /* \"@openzeppelin/contracts/token/ERC20/ERC20.sol\":10758:10790  Approval(owner, spender, amount) */\n      0xffffffffffffffffffffffffffffffffffffffff\n      and\n      0x8c5be1e5ebec7d5bd14f71427d1e84f3dd0314c0f7b2291e5b200ac8c7c3b925\n        /* \"@openzeppelin/contracts/token/ERC20/ERC20.sol\":10783:10789  amount */\n      dup4\n        /* \"@openzeppelin/contracts/token/ERC20/ERC20.sol\":10758:10790  Approval(owner, spender, amount) */\n      mload(0x40)\n      tag_228\n      swap2\n      swap1\n      tag_46\n      jump\t// in\n    tag_228:\n      mload(0x40)\n      dup1\n      swap2\n      sub\n      swap1\n      log3\n        /* \"@openzeppelin/contracts/token/ERC20/ERC20.sol\":10457:10797  function _approve(address owner, address spender, uint256 amount) internal virtual {... */\n      pop\n      pop\n      pop\n      jump\t// out\n        /* \"@openzeppelin/contracts/token/ERC20/ERC20.sol\":11078:11489  function _spendAllowance(address owner, address spender, uint256 amount) internal virtual {... */\n    tag_154:\n        /* \"@openzeppelin/contracts/token/ERC20/ERC20.sol\":11178:11202  uint256 currentAllowance */\n      0x00\n        /* \"@openzeppelin/contracts/token/ERC20/ERC20.sol\":11205:11230  allowance(owner, spender) */\n      tag_230\n        /* \"@openzeppelin/contracts/token/ERC20/ERC20.sol\":11215:11220  owner */\n      dup5\n        /* \"@openzeppelin/contracts/token/ERC20/ERC20.sol\":11222:11229  spender */\n      dup5\n        /* \"@openzeppelin/contracts/token/ERC20/ERC20.sol\":11205:11214  allowance */\n      tag_113\n        /* \"@openzeppelin/contracts/token/ERC20/ERC20.sol\":11205:11230  allowance(owner, spender) */\n      jump\t// in\n    tag_230:\n        /* \"@openzeppelin/contracts/token/ERC20/ERC20.sol\":11178:11230  uint256 currentAllowance = allowance(owner, spender) */\n      swap1\n      pop\n        /* \"@openzeppelin/contracts/token/ERC20/ERC20.sol\":11264:11281  type(uint256).max */\n      0xffffffffffffffffffffffffffffffffffffffffffffffffffffffffffffffff\n        /* \"@openzeppelin/contracts/token/ERC20/ERC20.sol\":11244:11260  currentAllowance */\n      dup2\n        /* \"@openzeppelin/contracts/token/ERC20/ERC20.sol\":11244:11281  currentAllowance != type(uint256).max */\n      eq\n        /* \"@openzeppelin/contracts/token/ERC20/ERC20.sol\":11240:11483  if (currentAllowance != type(uint256).max) {... */\n      tag_231\n      jumpi\n        /* \"@openzeppelin/contracts/token/ERC20/ERC20.sol\":11325:11331  amount */\n      dup2\n        /* \"@openzeppelin/contracts/token/ERC20/ERC20.sol\":11305:11321  currentAllowance */\n      dup2\n        /* \"@openzeppelin/contracts/token/ERC20/ERC20.sol\":11305:11331  currentAllowance >= amount */\n      lt\n      iszero\n        /* \"@openzeppelin/contracts/token/ERC20/ERC20.sol\":11297:11365  require(currentAllowance >= amount, \"ERC20: insufficient allowance\") */\n      tag_232\n      jumpi\n      mload(0x40)\n      0x08c379a000000000000000000000000000000000000000000000000000000000\n      dup2\n      mstore\n      0x04\n      add\n      tag_233\n      swap1\n      tag_234\n      jump\t// in\n    tag_233:\n      mload(0x40)\n      dup1\n      swap2\n      sub\n      swap1\n      revert\n    tag_232:\n        /* \"@openzeppelin/contracts/token/ERC20/ERC20.sol\":11407:11458  _approve(owner, spender, currentAllowance - amount) */\n      tag_235\n        /* \"@openzeppelin/contracts/token/ERC20/ERC20.sol\":11416:11421  owner */\n      dup5\n        /* \"@openzeppelin/contracts/token/ERC20/ERC20.sol\":11423:11430  spender */\n      dup5\n        /* \"@openzeppelin/contracts/token/ERC20/ERC20.sol\":11451:11457  amount */\n      dup5\n        /* \"@openzeppelin/contracts/token/ERC20/ERC20.sol\":11432:11448  currentAllowance */\n      dup5\n        /* \"@openzeppelin/contracts/token/ERC20/ERC20.sol\":11432:11457  currentAllowance - amount */\n      sub\n        /* \"@openzeppelin/contracts/token/ERC20/ERC20.sol\":11407:11415  _approve */\n      tag_149\n        /* \"@openzeppelin/contracts/token/ERC20/ERC20.sol\":11407:11458  _approve(owner, spender, currentAllowance - amount) */\n      jump\t// in\n    tag_235:\n        /* \"@openzeppelin/contracts/token/ERC20/ERC20.sol\":11240:11483  if (currentAllowance != type(uint256).max) {... */\n    tag_231:\n        /* \"@openzeppelin/contracts/token/ERC20/ERC20.sol\":11168:11489  {... */\n      pop\n        /* \"@openzeppelin/contracts/token/ERC20/ERC20.sol\":11078:11489  function _spendAllowance(address owner, address spender, uint256 amount) internal virtual {... */\n      pop\n      pop\n      pop\n      jump\t// out\n        /* \"@openzeppelin/contracts/token/ERC20/ERC20.sol\":7456:8244  function _transfer(address from, address to, uint256 amount) internal virtual {... */\n    tag_156:\n        /* \"@openzeppelin/contracts/token/ERC20/ERC20.sol\":7568:7569  0 */\n      0x00\n        /* \"@openzeppelin/contracts/token/ERC20/ERC20.sol\":7552:7570  from != address(0) */\n      0xffffffffffffffffffffffffffffffffffffffff\n      and\n        /* \"@openzeppelin/contracts/token/ERC20/ERC20.sol\":7552:7556  from */\n      dup4\n        /* \"@openzeppelin/contracts/token/ERC20/ERC20.sol\":7552:7570  from != address(0) */\n      0xffffffffffffffffffffffffffffffffffffffff\n      and\n      sub\n        /* \"@openzeppelin/contracts/token/ERC20/ERC20.sol\":7544:7612  require(from != address(0), \"ERC20: transfer from the zero address\") */\n      tag_237\n      jumpi\n      mload(0x40)\n      0x08c379a000000000000000000000000000000000000000000000000000000000\n      dup2\n      mstore\n      0x04\n      add\n      tag_238\n      swap1\n      tag_239\n      jump\t// in\n    tag_238:\n      mload(0x40)\n      dup1\n      swap2\n      sub\n      swap1\n      revert\n    tag_237:\n        /* \"@openzeppelin/contracts/token/ERC20/ERC20.sol\":7644:7645  0 */\n      0x00\n        /* \"@openzeppelin/contracts/token/ERC20/ERC20.sol\":7630:7646  to != address(0) */\n      0xffffffffffffffffffffffffffffffffffffffff\n      and\n        /* \"@openzeppelin/contracts/token/ERC20/ERC20.sol\":7630:7632  to */\n      dup3\n        /* \"@openzeppelin/contracts/token/ERC20/ERC20.sol\":7630:7646  to != address(0) */\n      0xffffffffffffffffffffffffffffffffffffffff\n      and\n      sub\n        /* \"@openzeppelin/contracts/token/ERC20/ERC20.sol\":7622:7686  require(to != address(0), \"ERC20: transfer to the zero address\") */\n      tag_240\n      jumpi\n      mload(0x40)\n      0x08c379a000000000000000000000000000000000000000000000000000000000\n      dup2\n      mstore\n      0x04\n      add\n      tag_241\n      swap1\n      tag_242\n      jump\t// in\n    tag_241:\n      mload(0x40)\n      dup1\n      swap2\n      sub\n      swap1\n      revert\n    tag_240:\n        /* \"@openzeppelin/contracts/token/ERC20/ERC20.sol\":7697:7735  _beforeTokenTransfer(from, to, amount) */\n      tag_243\n        /* \"@openzeppelin/contracts/token/ERC20/ERC20.sol\":7718:7722  from */\n      dup4\n        /* \"@openzeppelin/contracts/token/ERC20/ERC20.sol\":7724:7726  to */\n      dup4\n        /* \"@openzeppelin/contracts/token/ERC20/ERC20.sol\":7728:7734  amount */\n      dup4\n        /* \"@openzeppelin/contracts/token/ERC20/ERC20.sol\":7697:7717  _beforeTokenTransfer */\n      tag_244\n        /* \"@openzeppelin/contracts/token/ERC20/ERC20.sol\":7697:7735  _beforeTokenTransfer(from, to, amount) */\n      jump\t// in\n    tag_243:\n        /* \"@openzeppelin/contracts/token/ERC20/ERC20.sol\":7746:7765  uint256 fromBalance */\n      0x00\n        /* \"@openzeppelin/contracts/token/ERC20/ERC20.sol\":7768:7777  _balances */\n      dup1\n        /* \"@openzeppelin/contracts/token/ERC20/ERC20.sol\":7768:7783  _balances[from] */\n      0x00\n        /* \"@openzeppelin/contracts/token/ERC20/ERC20.sol\":7778:7782  from */\n      dup6\n        /* \"@openzeppelin/contracts/token/ERC20/ERC20.sol\":7768:7783  _balances[from] */\n      0xffffffffffffffffffffffffffffffffffffffff\n      and\n      0xffffffffffffffffffffffffffffffffffffffff\n      and\n      dup2\n      mstore\n      0x20\n      add\n      swap1\n      dup2\n      mstore\n      0x20\n      add\n      0x00\n      keccak256\n      sload\n        /* \"@openzeppelin/contracts/token/ERC20/ERC20.sol\":7746:7783  uint256 fromBalance = _balances[from] */\n      swap1\n      pop\n        /* \"@openzeppelin/contracts/token/ERC20/ERC20.sol\":7816:7822  amount */\n      dup2\n        /* \"@openzeppelin/contracts/token/ERC20/ERC20.sol\":7801:7812  fromBalance */\n      dup2\n        /* \"@openzeppelin/contracts/token/ERC20/ERC20.sol\":7801:7822  fromBalance >= amount */\n      lt\n      iszero\n        /* \"@openzeppelin/contracts/token/ERC20/ERC20.sol\":7793:7865  require(fromBalance >= amount, \"ERC20: transfer amount exceeds balance\") */\n      tag_245\n      jumpi\n      mload(0x40)\n      0x08c379a000000000000000000000000000000000000000000000000000000000\n      dup2\n      mstore\n      0x04\n      add\n      tag_246\n      swap1\n      tag_247\n      jump\t// in\n    tag_246:\n      mload(0x40)\n      dup1\n      swap2\n      sub\n      swap1\n      revert\n    tag_245:\n        /* \"@openzeppelin/contracts/token/ERC20/ERC20.sol\":7931:7937  amount */\n      dup2\n        /* \"@openzeppelin/contracts/token/ERC20/ERC20.sol\":7917:7928  fromBalance */\n      dup2\n        /* \"@openzeppelin/contracts/token/ERC20/ERC20.sol\":7917:7937  fromBalance - amount */\n      sub\n        /* \"@openzeppelin/contracts/token/ERC20/ERC20.sol\":7899:7908  _balances */\n      0x00\n        /* \"@openzeppelin/contracts/token/ERC20/ERC20.sol\":7899:7914  _balances[from] */\n      dup1\n        /* \"@openzeppelin/contracts/token/ERC20/ERC20.sol\":7909:7913  from */\n      dup7\n        /* \"@openzeppelin/contracts/token/ERC20/ERC20.sol\":7899:7914  _balances[from] */\n      0xffffffffffffffffffffffffffffffffffffffff\n      and\n      0xffffffffffffffffffffffffffffffffffffffff\n      and\n      dup2\n      mstore\n      0x20\n      add\n      swap1\n      dup2\n      mstore\n      0x20\n      add\n      0x00\n      keccak256\n        /* \"@openzeppelin/contracts/token/ERC20/ERC20.sol\":7899:7937  _balances[from] = fromBalance - amount */\n      dup2\n      swap1\n      sstore\n      pop\n        /* \"@openzeppelin/contracts/token/ERC20/ERC20.sol\":8131:8137  amount */\n      dup2\n        /* \"@openzeppelin/contracts/token/ERC20/ERC20.sol\":8114:8123  _balances */\n      0x00\n        /* \"@openzeppelin/contracts/token/ERC20/ERC20.sol\":8114:8127  _balances[to] */\n      dup1\n        /* \"@openzeppelin/contracts/token/ERC20/ERC20.sol\":8124:8126  to */\n      dup6\n        /* \"@openzeppelin/contracts/token/ERC20/ERC20.sol\":8114:8127  _balances[to] */\n      0xffffffffffffffffffffffffffffffffffffffff\n      and\n      0xffffffffffffffffffffffffffffffffffffffff\n      and\n      dup2\n      mstore\n      0x20\n      add\n      swap1\n      dup2\n      mstore\n      0x20\n      add\n      0x00\n      keccak256\n      0x00\n        /* \"@openzeppelin/contracts/token/ERC20/ERC20.sol\":8114:8137  _balances[to] += amount */\n      dup3\n      dup3\n      sload\n      add\n      swap3\n      pop\n      pop\n      dup2\n      swap1\n      sstore\n      pop\n        /* \"@openzeppelin/contracts/token/ERC20/ERC20.sol\":8178:8180  to */\n      dup3\n        /* \"@openzeppelin/contracts/token/ERC20/ERC20.sol\":8163:8189  Transfer(from, to, amount) */\n      0xffffffffffffffffffffffffffffffffffffffff\n      and\n        /* \"@openzeppelin/contracts/token/ERC20/ERC20.sol\":8172:8176  from */\n      dup5\n        /* \"@openzeppelin/contracts/token/ERC20/ERC20.sol\":8163:8189  Transfer(from, to, amount) */\n      0xffffffffffffffffffffffffffffffffffffffff\n      and\n      0xddf252ad1be2c89b69c2b068fc378daa952ba7f163c4a11628f55a4df523b3ef\n        /* \"@openzeppelin/contracts/token/ERC20/ERC20.sol\":8182:8188  amount */\n      dup5\n        /* \"@openzeppelin/contracts/token/ERC20/ERC20.sol\":8163:8189  Transfer(from, to, amount) */\n      mload(0x40)\n      tag_248\n      swap2\n      swap1\n      tag_46\n      jump\t// in\n    tag_248:\n      mload(0x40)\n      dup1\n      swap2\n      sub\n      swap1\n      log3\n        /* \"@openzeppelin/contracts/token/ERC20/ERC20.sol\":8200:8237  _afterTokenTransfer(from, to, amount) */\n      tag_249\n        /* \"@openzeppelin/contracts/token/ERC20/ERC20.sol\":8220:8224  from */\n      dup5\n        /* \"@openzeppelin/contracts/token/ERC20/ERC20.sol\":8226:8228  to */\n      dup5\n        /* \"@openzeppelin/contracts/token/ERC20/ERC20.sol\":8230:8236  amount */\n      dup5\n        /* \"@openzeppelin/contracts/token/ERC20/ERC20.sol\":8200:8219  _afterTokenTransfer */\n      tag_250\n        /* \"@openzeppelin/contracts/token/ERC20/ERC20.sol\":8200:8237  _afterTokenTransfer(from, to, amount) */\n      jump\t// in\n    tag_249:\n        /* \"@openzeppelin/contracts/token/ERC20/ERC20.sol\":7534:8244  {... */\n      pop\n        /* \"@openzeppelin/contracts/token/ERC20/ERC20.sol\":7456:8244  function _transfer(address from, address to, uint256 amount) internal virtual {... */\n      pop\n      pop\n      pop\n      jump\t// out\n        /* \"@openzeppelin/contracts/access/Ownable.sol\":2426:2613  function _transferOwnership(address newOwner) internal virtual {... */\n    tag_169:\n        /* \"@openzeppelin/contracts/access/Ownable.sol\":2499:2515  address oldOwner */\n      0x00\n        /* \"@openzeppelin/contracts/access/Ownable.sol\":2518:2524  _owner */\n      0x05\n      0x00\n      swap1\n      sload\n      swap1\n      0x0100\n      exp\n      swap1\n      div\n      0xffffffffffffffffffffffffffffffffffffffff\n      and\n        /* \"@openzeppelin/contracts/access/Ownable.sol\":2499:2524  address oldOwner = _owner */\n      swap1\n      pop\n        /* \"@openzeppelin/contracts/access/Ownable.sol\":2543:2551  newOwner */\n      dup2\n        /* \"@openzeppelin/contracts/access/Ownable.sol\":2534:2540  _owner */\n      0x05\n      0x00\n        /* \"@openzeppelin/contracts/access/Ownable.sol\":2534:2551  _owner = newOwner */\n      0x0100\n      exp\n      dup2\n      sload\n      dup2\n      0xffffffffffffffffffffffffffffffffffffffff\n      mul\n      not\n      and\n      swap1\n      dup4\n      0xffffffffffffffffffffffffffffffffffffffff\n      and\n      mul\n      or\n      swap1\n      sstore\n      pop\n        /* \"@openzeppelin/contracts/access/Ownable.sol\":2597:2605  newOwner */\n      dup2\n        /* \"@openzeppelin/contracts/access/Ownable.sol\":2566:2606  OwnershipTransferred(oldOwner, newOwner) */\n      0xffffffffffffffffffffffffffffffffffffffff\n      and\n        /* \"@openzeppelin/contracts/access/Ownable.sol\":2587:2595  oldOwner */\n      dup2\n        /* \"@openzeppelin/contracts/access/Ownable.sol\":2566:2606  OwnershipTransferred(oldOwner, newOwner) */\n      0xffffffffffffffffffffffffffffffffffffffff\n      and\n      0x8be0079c531659141344cd1fd0a4f28419497f9722a3daafe3b4186f6b6457e0\n      mload(0x40)\n      mload(0x40)\n      dup1\n      swap2\n      sub\n      swap1\n      log3\n        /* \"@openzeppelin/contracts/access/Ownable.sol\":2489:2613  {... */\n      pop\n        /* \"@openzeppelin/contracts/access/Ownable.sol\":2426:2613  function _transferOwnership(address newOwner) internal virtual {... */\n      pop\n      jump\t// out\n        /* \"@openzeppelin/contracts/token/ERC20/ERC20.sol\":12073:12164  function _beforeTokenTransfer(address from, address to, uint256 amount) internal virtual {} */\n    tag_244:\n      pop\n      pop\n      pop\n      jump\t// out\n        /* \"@openzeppelin/contracts/token/ERC20/ERC20.sol\":12752:12842  function _afterTokenTransfer(address from, address to, uint256 amount) internal virtual {} */\n    tag_250:\n      pop\n      pop\n      pop\n      jump\t// out\n        /* \"#utility.yul\":7:106   */\n    tag_254:\n        /* \"#utility.yul\":59:65   */\n      0x00\n        /* \"#utility.yul\":93:98   */\n      dup2\n        /* \"#utility.yul\":87:99   */\n      mload\n        /* \"#utility.yul\":77:99   */\n      swap1\n      pop\n        /* \"#utility.yul\":7:106   */\n      swap2\n      swap1\n      pop\n      jump\t// out\n        /* \"#utility.yul\":112:281   */\n    tag_255:\n        /* \"#utility.yul\":196:207   */\n      0x00\n        /* \"#utility.yul\":230:236   */\n      dup3\n        /* \"#utility.yul\":225:228   */\n      dup3\n        /* \"#utility.yul\":218:237   */\n      mstore\n        /* \"#utility.yul\":270:274   */\n      0x20\n        /* \"#utility.yul\":265:268   */\n      dup3\n        /* \"#utility.yul\":261:275   */\n      add\n        /* \"#utility.yul\":246:275   */\n      swap1\n      pop\n        /* \"#utility.yul\":112:281   */\n      swap3\n      swap2\n      pop\n      pop\n      jump\t// out\n        /* \"#utility.yul\":287:533   */\n    tag_256:\n        /* \"#utility.yul\":368:369   */\n      0x00\n        /* \"#utility.yul\":378:491   */\n    tag_335:\n        /* \"#utility.yul\":392:398   */\n      dup4\n        /* \"#utility.yul\":389:390   */\n      dup2\n        /* \"#utility.yul\":386:399   */\n      lt\n        /* \"#utility.yul\":378:491   */\n      iszero\n      tag_337\n      jumpi\n        /* \"#utility.yul\":477:478   */\n      dup1\n        /* \"#utility.yul\":472:475   */\n      dup3\n        /* \"#utility.yul\":468:479   */\n      add\n        /* \"#utility.yul\":462:480   */\n      mload\n        /* \"#utility.yul\":458:459   */\n      dup2\n        /* \"#utility.yul\":453:456   */\n      dup5\n        /* \"#utility.yul\":449:460   */\n      add\n        /* \"#utility.yul\":442:481   */\n      mstore\n        /* \"#utility.yul\":414:416   */\n      0x20\n        /* \"#utility.yul\":411:412   */\n      dup2\n        /* \"#utility.yul\":407:417   */\n      add\n        /* \"#utility.yul\":402:417   */\n      swap1\n      pop\n        /* \"#utility.yul\":378:491   */\n      jump(tag_335)\n    tag_337:\n        /* \"#utility.yul\":525:526   */\n      0x00\n        /* \"#utility.yul\":516:522   */\n      dup5\n        /* \"#utility.yul\":511:514   */\n      dup5\n        /* \"#utility.yul\":507:523   */\n      add\n        /* \"#utility.yul\":500:527   */\n      mstore\n        /* \"#utility.yul\":349:533   */\n      pop\n        /* \"#utility.yul\":287:533   */\n      pop\n      pop\n      pop\n      jump\t// out\n        /* \"#utility.yul\":539:641   */\n    tag_257:\n        /* \"#utility.yul\":580:586   */\n      0x00\n        /* \"#utility.yul\":631:633   */\n      0x1f\n        /* \"#utility.yul\":627:634   */\n      not\n        /* \"#utility.yul\":622:624   */\n      0x1f\n        /* \"#utility.yul\":615:620   */\n      dup4\n        /* \"#utility.yul\":611:625   */\n      add\n        /* \"#utility.yul\":607:635   */\n      and\n        /* \"#utility.yul\":597:635   */\n      swap1\n      pop\n        /* \"#utility.yul\":539:641   */\n      swap2\n      swap1\n      pop\n      jump\t// out\n        /* \"#utility.yul\":647:1024   */\n    tag_258:\n        /* \"#utility.yul\":735:738   */\n      0x00\n        /* \"#utility.yul\":763:802   */\n      tag_340\n        /* \"#utility.yul\":796:801   */\n      dup3\n        /* \"#utility.yul\":763:802   */\n      tag_254\n      jump\t// in\n    tag_340:\n        /* \"#utility.yul\":818:889   */\n      tag_341\n        /* \"#utility.yul\":882:888   */\n      dup2\n        /* \"#utility.yul\":877:880   */\n      dup6\n        /* \"#utility.yul\":818:889   */\n      tag_255\n      jump\t// in\n    tag_341:\n        /* \"#utility.yul\":811:889   */\n      swap4\n      pop\n        /* \"#utility.yul\":898:963   */\n      tag_342\n        /* \"#utility.yul\":956:962   */\n      dup2\n        /* \"#utility.yul\":951:954   */\n      dup6\n        /* \"#utility.yul\":944:948   */\n      0x20\n        /* \"#utility.yul\":937:942   */\n      dup7\n        /* \"#utility.yul\":933:949   */\n      add\n        /* \"#utility.yul\":898:963   */\n      tag_256\n      jump\t// in\n    tag_342:\n        /* \"#utility.yul\":988:1017   */\n      tag_343\n        /* \"#utility.yul\":1010:1016   */\n      dup2\n        /* \"#utility.yul\":988:1017   */\n      tag_257\n      jump\t// in\n    tag_343:\n        /* \"#utility.yul\":983:986   */\n      dup5\n        /* \"#utility.yul\":979:1018   */\n      add\n        /* \"#utility.yul\":972:1018   */\n      swap2\n      pop\n        /* \"#utility.yul\":739:1024   */\n      pop\n        /* \"#utility.yul\":647:1024   */\n      swap3\n      swap2\n      pop\n      pop\n      jump\t// out\n        /* \"#utility.yul\":1030:1343   */\n    tag_29:\n        /* \"#utility.yul\":1143:1147   */\n      0x00\n        /* \"#utility.yul\":1181:1183   */\n      0x20\n        /* \"#utility.yul\":1170:1179   */\n      dup3\n        /* \"#utility.yul\":1166:1184   */\n      add\n        /* \"#utility.yul\":1158:1184   */\n      swap1\n      pop\n        /* \"#utility.yul\":1230:1239   */\n      dup2\n        /* \"#utility.yul\":1224:1228   */\n      dup2\n        /* \"#utility.yul\":1220:1240   */\n      sub\n        /* \"#utility.yul\":1216:1217   */\n      0x00\n        /* \"#utility.yul\":1205:1214   */\n      dup4\n        /* \"#utility.yul\":1201:1218   */\n      add\n        /* \"#utility.yul\":1194:1241   */\n      mstore\n        /* \"#utility.yul\":1258:1336   */\n      tag_345\n        /* \"#utility.yul\":1331:1335   */\n      dup2\n        /* \"#utility.yul\":1322:1328   */\n      dup5\n        /* \"#utility.yul\":1258:1336   */\n      tag_258\n      jump\t// in\n    tag_345:\n        /* \"#utility.yul\":1250:1336   */\n      swap1\n      pop\n        /* \"#utility.yul\":1030:1343   */\n      swap3\n      swap2\n      pop\n      pop\n      jump\t// out\n        /* \"#utility.yul\":1349:1424   */\n    tag_259:\n        /* \"#utility.yul\":1382:1388   */\n      0x00\n        /* \"#utility.yul\":1415:1417   */\n      0x40\n        /* \"#utility.yul\":1409:1418   */\n      mload\n        /* \"#utility.yul\":1399:1418   */\n      swap1\n      pop\n        /* \"#utility.yul\":1349:1424   */\n      swap1\n      jump\t// out\n        /* \"#utility.yul\":1430:1547   */\n    tag_260:\n        /* \"#utility.yul\":1539:1540   */\n      0x00\n        /* \"#utility.yul\":1536:1537   */\n      dup1\n        /* \"#utility.yul\":1529:1541   */\n      revert\n        /* \"#utility.yul\":1553:1670   */\n    tag_261:\n        /* \"#utility.yul\":1662:1663   */\n      0x00\n        /* \"#utility.yul\":1659:1660   */\n      dup1\n        /* \"#utility.yul\":1652:1664   */\n      revert\n        /* \"#utility.yul\":1676:1793   */\n    tag_262:\n        /* \"#utility.yul\":1785:1786   */\n      0x00\n        /* \"#utility.yul\":1782:1783   */\n      dup1\n        /* \"#utility.yul\":1775:1787   */\n      revert\n        /* \"#utility.yul\":1799:1916   */\n    tag_263:\n        /* \"#utility.yul\":1908:1909   */\n      0x00\n        /* \"#utility.yul\":1905:1906   */\n      dup1\n        /* \"#utility.yul\":1898:1910   */\n      revert\n        /* \"#utility.yul\":1922:2102   */\n    tag_264:\n        /* \"#utility.yul\":1970:2047   */\n      0x4e487b7100000000000000000000000000000000000000000000000000000000\n        /* \"#utility.yul\":1967:1968   */\n      0x00\n        /* \"#utility.yul\":1960:2048   */\n      mstore\n        /* \"#utility.yul\":2067:2071   */\n      0x41\n        /* \"#utility.yul\":2064:2065   */\n      0x04\n        /* \"#utility.yul\":2057:2072   */\n      mstore\n        /* \"#utility.yul\":2091:2095   */\n      0x24\n        /* \"#utility.yul\":2088:2089   */\n      0x00\n        /* \"#utility.yul\":2081:2096   */\n      revert\n        /* \"#utility.yul\":2108:2389   */\n    tag_265:\n        /* \"#utility.yul\":2191:2218   */\n      tag_353\n        /* \"#utility.yul\":2213:2217   */\n      dup3\n        /* \"#utility.yul\":2191:2218   */\n      tag_257\n      jump\t// in\n    tag_353:\n        /* \"#utility.yul\":2183:2189   */\n      dup2\n        /* \"#utility.yul\":2179:2219   */\n      add\n        /* \"#utility.yul\":2321:2327   */\n      dup2\n        /* \"#utility.yul\":2309:2319   */\n      dup2\n        /* \"#utility.yul\":2306:2328   */\n      lt\n        /* \"#utility.yul\":2285:2303   */\n      0xffffffffffffffff\n        /* \"#utility.yul\":2273:2283   */\n      dup3\n        /* \"#utility.yul\":2270:2304   */\n      gt\n        /* \"#utility.yul\":2267:2329   */\n      or\n        /* \"#utility.yul\":2264:2352   */\n      iszero\n      tag_354\n      jumpi\n        /* \"#utility.yul\":2332:2350   */\n      tag_355\n      tag_264\n      jump\t// in\n    tag_355:\n        /* \"#utility.yul\":2264:2352   */\n    tag_354:\n        /* \"#utility.yul\":2372:2382   */\n      dup1\n        /* \"#utility.yul\":2368:2370   */\n      0x40\n        /* \"#utility.yul\":2361:2383   */\n      mstore\n        /* \"#utility.yul\":2151:2389   */\n      pop\n        /* \"#utility.yul\":2108:2389   */\n      pop\n      pop\n      jump\t// out\n        /* \"#utility.yul\":2395:2524   */\n    tag_266:\n        /* \"#utility.yul\":2429:2435   */\n      0x00\n        /* \"#utility.yul\":2456:2476   */\n      tag_357\n      tag_259\n      jump\t// in\n    tag_357:\n        /* \"#utility.yul\":2446:2476   */\n      swap1\n      pop\n        /* \"#utility.yul\":2485:2518   */\n      tag_358\n        /* \"#utility.yul\":2513:2517   */\n      dup3\n        /* \"#utility.yul\":2505:2511   */\n      dup3\n        /* \"#utility.yul\":2485:2518   */\n      tag_265\n      jump\t// in\n    tag_358:\n        /* \"#utility.yul\":2395:2524   */\n      swap2\n      swap1\n      pop\n      jump\t// out\n        /* \"#utility.yul\":2530:2838   */\n    tag_267:\n        /* \"#utility.yul\":2592:2596   */\n      0x00\n        /* \"#utility.yul\":2682:2700   */\n      0xffffffffffffffff\n        /* \"#utility.yul\":2674:2680   */\n      dup3\n        /* \"#utility.yul\":2671:2701   */\n      gt\n        /* \"#utility.yul\":2668:2724   */\n      iszero\n      tag_360\n      jumpi\n        /* \"#utility.yul\":2704:2722   */\n      tag_361\n      tag_264\n      jump\t// in\n    tag_361:\n        /* \"#utility.yul\":2668:2724   */\n    tag_360:\n        /* \"#utility.yul\":2742:2771   */\n      tag_362\n        /* \"#utility.yul\":2764:2770   */\n      dup3\n        /* \"#utility.yul\":2742:2771   */\n      tag_257\n      jump\t// in\n    tag_362:\n        /* \"#utility.yul\":2734:2771   */\n      swap1\n      pop\n        /* \"#utility.yul\":2826:2830   */\n      0x20\n        /* \"#utility.yul\":2820:2824   */\n      dup2\n        /* \"#utility.yul\":2816:2831   */\n      add\n        /* \"#utility.yul\":2808:2831   */\n      swap1\n      pop\n        /* \"#utility.yul\":2530:2838   */\n      swap2\n      swap1\n      pop\n      jump\t// out\n        /* \"#utility.yul\":2844:2990   */\n    tag_268:\n        /* \"#utility.yul\":2941:2947   */\n      dup3\n        /* \"#utility.yul\":2936:2939   */\n      dup2\n        /* \"#utility.yul\":2931:2934   */\n      dup4\n        /* \"#utility.yul\":2918:2948   */\n      calldatacopy\n        /* \"#utility.yul\":2982:2983   */\n      0x00\n        /* \"#utility.yul\":2973:2979   */\n      dup4\n        /* \"#utility.yul\":2968:2971   */\n      dup4\n        /* \"#utility.yul\":2964:2980   */\n      add\n        /* \"#utility.yul\":2957:2984   */\n      mstore\n        /* \"#utility.yul\":2844:2990   */\n      pop\n      pop\n      pop\n      jump\t// out\n        /* \"#utility.yul\":2996:3421   */\n    tag_269:\n        /* \"#utility.yul\":3074:3079   */\n      0x00\n        /* \"#utility.yul\":3099:3165   */\n      tag_365\n        /* \"#utility.yul\":3115:3164   */\n      tag_366\n        /* \"#utility.yul\":3157:3163   */\n      dup5\n        /* \"#utility.yul\":3115:3164   */\n      tag_267\n      jump\t// in\n    tag_366:\n        /* \"#utility.yul\":3099:3165   */\n      tag_266\n      jump\t// in\n    tag_365:\n        /* \"#utility.yul\":3090:3165   */\n      swap1\n      pop\n        /* \"#utility.yul\":3188:3194   */\n      dup3\n        /* \"#utility.yul\":3181:3186   */\n      dup2\n        /* \"#utility.yul\":3174:3195   */\n      mstore\n        /* \"#utility.yul\":3226:3230   */\n      0x20\n        /* \"#utility.yul\":3219:3224   */\n      dup2\n        /* \"#utility.yul\":3215:3231   */\n      add\n        /* \"#utility.yul\":3264:3267   */\n      dup5\n        /* \"#utility.yul\":3255:3261   */\n      dup5\n        /* \"#utility.yul\":3250:3253   */\n      dup5\n        /* \"#utility.yul\":3246:3262   */\n      add\n        /* \"#utility.yul\":3243:3268   */\n      gt\n        /* \"#utility.yul\":3240:3352   */\n      iszero\n      tag_367\n      jumpi\n        /* \"#utility.yul\":3271:3350   */\n      tag_368\n      tag_263\n      jump\t// in\n    tag_368:\n        /* \"#utility.yul\":3240:3352   */\n    tag_367:\n        /* \"#utility.yul\":3361:3415   */\n      tag_369\n        /* \"#utility.yul\":3408:3414   */\n      dup5\n        /* \"#utility.yul\":3403:3406   */\n      dup3\n        /* \"#utility.yul\":3398:3401   */\n      dup6\n        /* \"#utility.yul\":3361:3415   */\n      tag_268\n      jump\t// in\n    tag_369:\n        /* \"#utility.yul\":3080:3421   */\n      pop\n        /* \"#utility.yul\":2996:3421   */\n      swap4\n      swap3\n      pop\n      pop\n      pop\n      jump\t// out\n        /* \"#utility.yul\":3441:3781   */\n    tag_270:\n        /* \"#utility.yul\":3497:3502   */\n      0x00\n        /* \"#utility.yul\":3546:3549   */\n      dup3\n        /* \"#utility.yul\":3539:3543   */\n      0x1f\n        /* \"#utility.yul\":3531:3537   */\n      dup4\n        /* \"#utility.yul\":3527:3544   */\n      add\n        /* \"#utility.yul\":3523:3550   */\n      slt\n        /* \"#utility.yul\":3513:3635   */\n      tag_371\n      jumpi\n        /* \"#utility.yul\":3554:3633   */\n      tag_372\n      tag_262\n      jump\t// in\n    tag_372:\n        /* \"#utility.yul\":3513:3635   */\n    tag_371:\n        /* \"#utility.yul\":3671:3677   */\n      dup2\n        /* \"#utility.yul\":3658:3678   */\n      calldataload\n        /* \"#utility.yul\":3696:3775   */\n      tag_373\n        /* \"#utility.yul\":3771:3774   */\n      dup5\n        /* \"#utility.yul\":3763:3769   */\n      dup3\n        /* \"#utility.yul\":3756:3760   */\n      0x20\n        /* \"#utility.yul\":3748:3754   */\n      dup7\n        /* \"#utility.yul\":3744:3761   */\n      add\n        /* \"#utility.yul\":3696:3775   */\n      tag_269\n      jump\t// in\n    tag_373:\n        /* \"#utility.yul\":3687:3775   */\n      swap2\n      pop\n        /* \"#utility.yul\":3503:3781   */\n      pop\n        /* \"#utility.yul\":3441:3781   */\n      swap3\n      swap2\n      pop\n      pop\n      jump\t// out\n        /* \"#utility.yul\":3787:3864   */\n    tag_271:\n        /* \"#utility.yul\":3824:3831   */\n      0x00\n        /* \"#utility.yul\":3853:3858   */\n      dup2\n        /* \"#utility.yul\":3842:3858   */\n      swap1\n      pop\n        /* \"#utility.yul\":3787:3864   */\n      swap2\n      swap1\n      pop\n      jump\t// out\n        /* \"#utility.yul\":3870:3992   */\n    tag_272:\n        /* \"#utility.yul\":3943:3967   */\n      tag_376\n        /* \"#utility.yul\":3961:3966   */\n      dup2\n        /* \"#utility.yul\":3943:3967   */\n      tag_271\n      jump\t// in\n    tag_376:\n        /* \"#utility.yul\":3936:3941   */\n      dup2\n        /* \"#utility.yul\":3933:3968   */\n      eq\n        /* \"#utility.yul\":3923:3986   */\n      tag_377\n      jumpi\n        /* \"#utility.yul\":3982:3983   */\n      0x00\n        /* \"#utility.yul\":3979:3980   */\n      dup1\n        /* \"#utility.yul\":3972:3984   */\n      revert\n        /* \"#utility.yul\":3923:3986   */\n    tag_377:\n        /* \"#utility.yul\":3870:3992   */\n      pop\n      jump\t// out\n        /* \"#utility.yul\":3998:4137   */\n    tag_273:\n        /* \"#utility.yul\":4044:4049   */\n      0x00\n        /* \"#utility.yul\":4082:4088   */\n      dup2\n        /* \"#utility.yul\":4069:4089   */\n      calldataload\n        /* \"#utility.yul\":4060:4089   */\n      swap1\n      pop\n        /* \"#utility.yul\":4098:4131   */\n      tag_379\n        /* \"#utility.yul\":4125:4130   */\n      dup2\n        /* \"#utility.yul\":4098:4131   */\n      tag_272\n      jump\t// in\n    tag_379:\n        /* \"#utility.yul\":3998:4137   */\n      swap3\n      swap2\n      pop\n      pop\n      jump\t// out\n        /* \"#utility.yul\":4143:4797   */\n    tag_33:\n        /* \"#utility.yul\":4221:4227   */\n      0x00\n        /* \"#utility.yul\":4229:4235   */\n      dup1\n        /* \"#utility.yul\":4278:4280   */\n      0x40\n        /* \"#utility.yul\":4266:4275   */\n      dup4\n        /* \"#utility.yul\":4257:4264   */\n      dup6\n        /* \"#utility.yul\":4253:4276   */\n      sub\n        /* \"#utility.yul\":4249:4281   */\n      slt\n        /* \"#utility.yul\":4246:4365   */\n      iszero\n      tag_381\n      jumpi\n        /* \"#utility.yul\":4284:4363   */\n      tag_382\n      tag_260\n      jump\t// in\n    tag_382:\n        /* \"#utility.yul\":4246:4365   */\n    tag_381:\n        /* \"#utility.yul\":4432:4433   */\n      0x00\n        /* \"#utility.yul\":4421:4430   */\n      dup4\n        /* \"#utility.yul\":4417:4434   */\n      add\n        /* \"#utility.yul\":4404:4435   */\n      calldataload\n        /* \"#utility.yul\":4462:4480   */\n      0xffffffffffffffff\n        /* \"#utility.yul\":4454:4460   */\n      dup2\n        /* \"#utility.yul\":4451:4481   */\n      gt\n        /* \"#utility.yul\":4448:4565   */\n      iszero\n      tag_383\n      jumpi\n        /* \"#utility.yul\":4484:4563   */\n      tag_384\n      tag_261\n      jump\t// in\n    tag_384:\n        /* \"#utility.yul\":4448:4565   */\n    tag_383:\n        /* \"#utility.yul\":4589:4652   */\n      tag_385\n        /* \"#utility.yul\":4644:4651   */\n      dup6\n        /* \"#utility.yul\":4635:4641   */\n      dup3\n        /* \"#utility.yul\":4624:4633   */\n      dup7\n        /* \"#utility.yul\":4620:4642   */\n      add\n        /* \"#utility.yul\":4589:4652   */\n      tag_270\n      jump\t// in\n    tag_385:\n        /* \"#utility.yul\":4579:4652   */\n      swap3\n      pop\n        /* \"#utility.yul\":4375:4662   */\n      pop\n        /* \"#utility.yul\":4701:4703   */\n      0x20\n        /* \"#utility.yul\":4727:4780   */\n      tag_386\n        /* \"#utility.yul\":4772:4779   */\n      dup6\n        /* \"#utility.yul\":4763:4769   */\n      dup3\n        /* \"#utility.yul\":4752:4761   */\n      dup7\n        /* \"#utility.yul\":4748:4770   */\n      add\n        /* \"#utility.yul\":4727:4780   */\n      tag_273\n      jump\t// in\n    tag_386:\n        /* \"#utility.yul\":4717:4780   */\n      swap2\n      pop\n        /* \"#utility.yul\":4672:4790   */\n      pop\n        /* \"#utility.yul\":4143:4797   */\n      swap3\n      pop\n      swap3\n      swap1\n      pop\n      jump\t// out\n        /* \"#utility.yul\":4803:4929   */\n    tag_274:\n        /* \"#utility.yul\":4840:4847   */\n      0x00\n        /* \"#utility.yul\":4880:4922   */\n      0xffffffffffffffffffffffffffffffffffffffff\n        /* \"#utility.yul\":4873:4878   */\n      dup3\n        /* \"#utility.yul\":4869:4923   */\n      and\n        /* \"#utility.yul\":4858:4923   */\n      swap1\n      pop\n        /* \"#utility.yul\":4803:4929   */\n      swap2\n      swap1\n      pop\n      jump\t// out\n        /* \"#utility.yul\":4935:5031   */\n    tag_275:\n        /* \"#utility.yul\":4972:4979   */\n      0x00\n        /* \"#utility.yul\":5001:5025   */\n      tag_389\n        /* \"#utility.yul\":5019:5024   */\n      dup3\n        /* \"#utility.yul\":5001:5025   */\n      tag_274\n      jump\t// in\n    tag_389:\n        /* \"#utility.yul\":4990:5025   */\n      swap1\n      pop\n        /* \"#utility.yul\":4935:5031   */\n      swap2\n      swap1\n      pop\n      jump\t// out\n        /* \"#utility.yul\":5037:5159   */\n    tag_276:\n        /* \"#utility.yul\":5110:5134   */\n      tag_391\n        /* \"#utility.yul\":5128:5133   */\n      dup2\n        /* \"#utility.yul\":5110:5134   */\n      tag_275\n      jump\t// in\n    tag_391:\n        /* \"#utility.yul\":5103:5108   */\n      dup2\n        /* \"#utility.yul\":5100:5135   */\n      eq\n        /* \"#utility.yul\":5090:5153   */\n      tag_392\n      jumpi\n        /* \"#utility.yul\":5149:5150   */\n      0x00\n        /* \"#utility.yul\":5146:5147   */\n      dup1\n        /* \"#utility.yul\":5139:5151   */\n      revert\n        /* \"#utility.yul\":5090:5153   */\n    tag_392:\n        /* \"#utility.yul\":5037:5159   */\n      pop\n      jump\t// out\n        /* \"#utility.yul\":5165:5304   */\n    tag_277:\n        /* \"#utility.yul\":5211:5216   */\n      0x00\n        /* \"#utility.yul\":5249:5255   */\n      dup2\n        /* \"#utility.yul\":5236:5256   */\n      calldataload\n        /* \"#utility.yul\":5227:5256   */\n      swap1\n      pop\n        /* \"#utility.yul\":5265:5298   */\n      tag_394\n        /* \"#utility.yul\":5292:5297   */\n      dup2\n        /* \"#utility.yul\":5265:5298   */\n      tag_276\n      jump\t// in\n    tag_394:\n        /* \"#utility.yul\":5165:5304   */\n      swap3\n      swap2\n      pop\n      pop\n      jump\t// out\n        /* \"#utility.yul\":5310:5784   */\n    tag_38:\n        /* \"#utility.yul\":5378:5384   */\n      0x00\n        /* \"#utility.yul\":5386:5392   */\n      dup1\n        /* \"#utility.yul\":5435:5437   */\n      0x40\n        /* \"#utility.yul\":5423:5432   */\n      dup4\n        /* \"#utility.yul\":5414:5421   */\n      dup6\n        /* \"#utility.yul\":5410:5433   */\n      sub\n        /* \"#utility.yul\":5406:5438   */\n      slt\n        /* \"#utility.yul\":5403:5522   */\n      iszero\n      tag_396\n      jumpi\n        /* \"#utility.yul\":5441:5520   */\n      tag_397\n      tag_260\n      jump\t// in\n    tag_397:\n        /* \"#utility.yul\":5403:5522   */\n    tag_396:\n        /* \"#utility.yul\":5561:5562   */\n      0x00\n        /* \"#utility.yul\":5586:5639   */\n      tag_398\n        /* \"#utility.yul\":5631:5638   */\n      dup6\n        /* \"#utility.yul\":5622:5628   */\n      dup3\n        /* \"#utility.yul\":5611:5620   */\n      dup7\n        /* \"#utility.yul\":5607:5629   */\n      add\n        /* \"#utility.yul\":5586:5639   */\n      tag_277\n      jump\t// in\n    tag_398:\n        /* \"#utility.yul\":5576:5639   */\n      swap3\n      pop\n        /* \"#utility.yul\":5532:5649   */\n      pop\n        /* \"#utility.yul\":5688:5690   */\n      0x20\n        /* \"#utility.yul\":5714:5767   */\n      tag_399\n        /* \"#utility.yul\":5759:5766   */\n      dup6\n        /* \"#utility.yul\":5750:5756   */\n      dup3\n        /* \"#utility.yul\":5739:5748   */\n      dup7\n        /* \"#utility.yul\":5735:5757   */\n      add\n        /* \"#utility.yul\":5714:5767   */\n      tag_273\n      jump\t// in\n    tag_399:\n        /* \"#utility.yul\":5704:5767   */\n      swap2\n      pop\n        /* \"#utility.yul\":5659:5777   */\n      pop\n        /* \"#utility.yul\":5310:5784   */\n      swap3\n      pop\n      swap3\n      swap1\n      pop\n      jump\t// out\n        /* \"#utility.yul\":5790:5880   */\n    tag_278:\n        /* \"#utility.yul\":5824:5831   */\n      0x00\n        /* \"#utility.yul\":5867:5872   */\n      dup2\n        /* \"#utility.yul\":5860:5873   */\n      iszero\n        /* \"#utility.yul\":5853:5874   */\n      iszero\n        /* \"#utility.yul\":5842:5874   */\n      swap1\n      pop\n        /* \"#utility.yul\":5790:5880   */\n      swap2\n      swap1\n      pop\n      jump\t// out\n        /* \"#utility.yul\":5886:5995   */\n    tag_279:\n        /* \"#utility.yul\":5967:5988   */\n      tag_402\n        /* \"#utility.yul\":5982:5987   */\n      dup2\n        /* \"#utility.yul\":5967:5988   */\n      tag_278\n      jump\t// in\n    tag_402:\n        /* \"#utility.yul\":5962:5965   */\n      dup3\n        /* \"#utility.yul\":5955:5989   */\n      mstore\n        /* \"#utility.yul\":5886:5995   */\n      pop\n      pop\n      jump\t// out\n        /* \"#utility.yul\":6001:6211   */\n    tag_41:\n        /* \"#utility.yul\":6088:6092   */\n      0x00\n        /* \"#utility.yul\":6126:6128   */\n      0x20\n        /* \"#utility.yul\":6115:6124   */\n      dup3\n        /* \"#utility.yul\":6111:6129   */\n      add\n        /* \"#utility.yul\":6103:6129   */\n      swap1\n      pop\n        /* \"#utility.yul\":6139:6204   */\n      tag_404\n        /* \"#utility.yul\":6201:6202   */\n      0x00\n        /* \"#utility.yul\":6190:6199   */\n      dup4\n        /* \"#utility.yul\":6186:6203   */\n      add\n        /* \"#utility.yul\":6177:6183   */\n      dup5\n        /* \"#utility.yul\":6139:6204   */\n      tag_279\n      jump\t// in\n    tag_404:\n        /* \"#utility.yul\":6001:6211   */\n      swap3\n      swap2\n      pop\n      pop\n      jump\t// out\n        /* \"#utility.yul\":6217:6335   */\n    tag_280:\n        /* \"#utility.yul\":6304:6328   */\n      tag_406\n        /* \"#utility.yul\":6322:6327   */\n      dup2\n        /* \"#utility.yul\":6304:6328   */\n      tag_271\n      jump\t// in\n    tag_406:\n        /* \"#utility.yul\":6299:6302   */\n      dup3\n        /* \"#utility.yul\":6292:6329   */\n      mstore\n        /* \"#utility.yul\":6217:6335   */\n      pop\n      pop\n      jump\t// out\n        /* \"#utility.yul\":6341:6563   */\n    tag_46:\n        /* \"#utility.yul\":6434:6438   */\n      0x00\n        /* \"#utility.yul\":6472:6474   */\n      0x20\n        /* \"#utility.yul\":6461:6470   */\n      dup3\n        /* \"#utility.yul\":6457:6475   */\n      add\n        /* \"#utility.yul\":6449:6475   */\n      swap1\n      pop\n        /* \"#utility.yul\":6485:6556   */\n      tag_408\n        /* \"#utility.yul\":6553:6554   */\n      0x00\n        /* \"#utility.yul\":6542:6551   */\n      dup4\n        /* \"#utility.yul\":6538:6555   */\n      add\n        /* \"#utility.yul\":6529:6535   */\n      dup5\n        /* \"#utility.yul\":6485:6556   */\n      tag_280\n      jump\t// in\n    tag_408:\n        /* \"#utility.yul\":6341:6563   */\n      swap3\n      swap2\n      pop\n      pop\n      jump\t// out\n        /* \"#utility.yul\":6569:7188   */\n    tag_50:\n        /* \"#utility.yul\":6646:6652   */\n      0x00\n        /* \"#utility.yul\":6654:6660   */\n      dup1\n        /* \"#utility.yul\":6662:6668   */\n      0x00\n        /* \"#utility.yul\":6711:6713   */\n      0x60\n        /* \"#utility.yul\":6699:6708   */\n      dup5\n        /* \"#utility.yul\":6690:6697   */\n      dup7\n        /* \"#utility.yul\":6686:6709   */\n      sub\n        /* \"#utility.yul\":6682:6714   */\n      slt\n        /* \"#utility.yul\":6679:6798   */\n      iszero\n      tag_410\n      jumpi\n        /* \"#utility.yul\":6717:6796   */\n      tag_411\n      tag_260\n      jump\t// in\n    tag_411:\n        /* \"#utility.yul\":6679:6798   */\n    tag_410:\n        /* \"#utility.yul\":6837:6838   */\n      0x00\n        /* \"#utility.yul\":6862:6915   */\n      tag_412\n        /* \"#utility.yul\":6907:6914   */\n      dup7\n        /* \"#utility.yul\":6898:6904   */\n      dup3\n        /* \"#utility.yul\":6887:6896   */\n      dup8\n        /* \"#utility.yul\":6883:6905   */\n      add\n        /* \"#utility.yul\":6862:6915   */\n      tag_277\n      jump\t// in\n    tag_412:\n        /* \"#utility.yul\":6852:6915   */\n      swap4\n      pop\n        /* \"#utility.yul\":6808:6925   */\n      pop\n        /* \"#utility.yul\":6964:6966   */\n      0x20\n        /* \"#utility.yul\":6990:7043   */\n      tag_413\n        /* \"#utility.yul\":7035:7042   */\n      dup7\n        /* \"#utility.yul\":7026:7032   */\n      dup3\n        /* \"#utility.yul\":7015:7024   */\n      dup8\n        /* \"#utility.yul\":7011:7033   */\n      add\n        /* \"#utility.yul\":6990:7043   */\n      tag_277\n      jump\t// in\n    tag_413:\n        /* \"#utility.yul\":6980:7043   */\n      swap3\n      pop\n        /* \"#utility.yul\":6935:7053   */\n      pop\n        /* \"#utility.yul\":7092:7094   */\n      0x40\n        /* \"#utility.yul\":7118:7171   */\n      tag_414\n        /* \"#utility.yul\":7163:7170   */\n      dup7\n        /* \"#utility.yul\":7154:7160   */\n      dup3\n        /* \"#utility.yul\":7143:7152   */\n      dup8\n        /* \"#utility.yul\":7139:7161   */\n      add\n        /* \"#utility.yul\":7118:7171   */\n      tag_273\n      jump\t// in\n    tag_414:\n        /* \"#utility.yul\":7108:7171   */\n      swap2\n      pop\n        /* \"#utility.yul\":7063:7181   */\n      pop\n        /* \"#utility.yul\":6569:7188   */\n      swap3\n      pop\n      swap3\n      pop\n      swap3\n      jump\t// out\n        /* \"#utility.yul\":7194:7312   */\n    tag_281:\n        /* \"#utility.yul\":7281:7305   */\n      tag_416\n        /* \"#utility.yul\":7299:7304   */\n      dup2\n        /* \"#utility.yul\":7281:7305   */\n      tag_275\n      jump\t// in\n    tag_416:\n        /* \"#utility.yul\":7276:7279   */\n      dup3\n        /* \"#utility.yul\":7269:7306   */\n      mstore\n        /* \"#utility.yul\":7194:7312   */\n      pop\n      pop\n      jump\t// out\n        /* \"#utility.yul\":7318:7540   */\n    tag_57:\n        /* \"#utility.yul\":7411:7415   */\n      0x00\n        /* \"#utility.yul\":7449:7451   */\n      0x20\n        /* \"#utility.yul\":7438:7447   */\n      dup3\n        /* \"#utility.yul\":7434:7452   */\n      add\n        /* \"#utility.yul\":7426:7452   */\n      swap1\n      pop\n        /* \"#utility.yul\":7462:7533   */\n      tag_418\n        /* \"#utility.yul\":7530:7531   */\n      0x00\n        /* \"#utility.yul\":7519:7528   */\n      dup4\n        /* \"#utility.yul\":7515:7532   */\n      add\n        /* \"#utility.yul\":7506:7512   */\n      dup5\n        /* \"#utility.yul\":7462:7533   */\n      tag_281\n      jump\t// in\n    tag_418:\n        /* \"#utility.yul\":7318:7540   */\n      swap3\n      swap2\n      pop\n      pop\n      jump\t// out\n        /* \"#utility.yul\":7546:7632   */\n    tag_282:\n        /* \"#utility.yul\":7581:7588   */\n      0x00\n        /* \"#utility.yul\":7621:7625   */\n      0xff\n        /* \"#utility.yul\":7614:7619   */\n      dup3\n        /* \"#utility.yul\":7610:7626   */\n      and\n        /* \"#utility.yul\":7599:7626   */\n      swap1\n      pop\n        /* \"#utility.yul\":7546:7632   */\n      swap2\n      swap1\n      pop\n      jump\t// out\n        /* \"#utility.yul\":7638:7750   */\n    tag_283:\n        /* \"#utility.yul\":7721:7743   */\n      tag_421\n        /* \"#utility.yul\":7737:7742   */\n      dup2\n        /* \"#utility.yul\":7721:7743   */\n      tag_282\n      jump\t// in\n    tag_421:\n        /* \"#utility.yul\":7716:7719   */\n      dup3\n        /* \"#utility.yul\":7709:7744   */\n      mstore\n        /* \"#utility.yul\":7638:7750   */\n      pop\n      pop\n      jump\t// out\n        /* \"#utility.yul\":7756:7970   */\n    tag_66:\n        /* \"#utility.yul\":7845:7849   */\n      0x00\n        /* \"#utility.yul\":7883:7885   */\n      0x20\n        /* \"#utility.yul\":7872:7881   */\n      dup3\n        /* \"#utility.yul\":7868:7886   */\n      add\n        /* \"#utility.yul\":7860:7886   */\n      swap1\n      pop\n        /* \"#utility.yul\":7896:7963   */\n      tag_423\n        /* \"#utility.yul\":7960:7961   */\n      0x00\n        /* \"#utility.yul\":7949:7958   */\n      dup4\n        /* \"#utility.yul\":7945:7962   */\n      add\n        /* \"#utility.yul\":7936:7942   */\n      dup5\n        /* \"#utility.yul\":7896:7963   */\n      tag_283\n      jump\t// in\n    tag_423:\n        /* \"#utility.yul\":7756:7970   */\n      swap3\n      swap2\n      pop\n      pop\n      jump\t// out\n        /* \"#utility.yul\":7976:8305   */\n    tag_75:\n        /* \"#utility.yul\":8035:8041   */\n      0x00\n        /* \"#utility.yul\":8084:8086   */\n      0x20\n        /* \"#utility.yul\":8072:8081   */\n      dup3\n        /* \"#utility.yul\":8063:8070   */\n      dup5\n        /* \"#utility.yul\":8059:8082   */\n      sub\n        /* \"#utility.yul\":8055:8087   */\n      slt\n        /* \"#utility.yul\":8052:8171   */\n      iszero\n      tag_425\n      jumpi\n        /* \"#utility.yul\":8090:8169   */\n      tag_426\n      tag_260\n      jump\t// in\n    tag_426:\n        /* \"#utility.yul\":8052:8171   */\n    tag_425:\n        /* \"#utility.yul\":8210:8211   */\n      0x00\n        /* \"#utility.yul\":8235:8288   */\n      tag_427\n        /* \"#utility.yul\":8280:8287   */\n      dup5\n        /* \"#utility.yul\":8271:8277   */\n      dup3\n        /* \"#utility.yul\":8260:8269   */\n      dup6\n        /* \"#utility.yul\":8256:8278   */\n      add\n        /* \"#utility.yul\":8235:8288   */\n      tag_277\n      jump\t// in\n    tag_427:\n        /* \"#utility.yul\":8225:8288   */\n      swap2\n      pop\n        /* \"#utility.yul\":8181:8298   */\n      pop\n        /* \"#utility.yul\":7976:8305   */\n      swap3\n      swap2\n      pop\n      pop\n      jump\t// out\n        /* \"#utility.yul\":8311:9066   */\n    tag_99:\n        /* \"#utility.yul\":8536:8540   */\n      0x00\n        /* \"#utility.yul\":8574:8577   */\n      0xa0\n        /* \"#utility.yul\":8563:8572   */\n      dup3\n        /* \"#utility.yul\":8559:8578   */\n      add\n        /* \"#utility.yul\":8551:8578   */\n      swap1\n      pop\n        /* \"#utility.yul\":8624:8633   */\n      dup2\n        /* \"#utility.yul\":8618:8622   */\n      dup2\n        /* \"#utility.yul\":8614:8634   */\n      sub\n        /* \"#utility.yul\":8610:8611   */\n      0x00\n        /* \"#utility.yul\":8599:8608   */\n      dup4\n        /* \"#utility.yul\":8595:8612   */\n      add\n        /* \"#utility.yul\":8588:8635   */\n      mstore\n        /* \"#utility.yul\":8652:8730   */\n      tag_429\n        /* \"#utility.yul\":8725:8729   */\n      dup2\n        /* \"#utility.yul\":8716:8722   */\n      dup9\n        /* \"#utility.yul\":8652:8730   */\n      tag_258\n      jump\t// in\n    tag_429:\n        /* \"#utility.yul\":8644:8730   */\n      swap1\n      pop\n        /* \"#utility.yul\":8740:8812   */\n      tag_430\n        /* \"#utility.yul\":8808:8810   */\n      0x20\n        /* \"#utility.yul\":8797:8806   */\n      dup4\n        /* \"#utility.yul\":8793:8811   */\n      add\n        /* \"#utility.yul\":8784:8790   */\n      dup8\n        /* \"#utility.yul\":8740:8812   */\n      tag_281\n      jump\t// in\n    tag_430:\n        /* \"#utility.yul\":8822:8894   */\n      tag_431\n        /* \"#utility.yul\":8890:8892   */\n      0x40\n        /* \"#utility.yul\":8879:8888   */\n      dup4\n        /* \"#utility.yul\":8875:8893   */\n      add\n        /* \"#utility.yul\":8866:8872   */\n      dup7\n        /* \"#utility.yul\":8822:8894   */\n      tag_280\n      jump\t// in\n    tag_431:\n        /* \"#utility.yul\":8904:8976   */\n      tag_432\n        /* \"#utility.yul\":8972:8974   */\n      0x60\n        /* \"#utility.yul\":8961:8970   */\n      dup4\n        /* \"#utility.yul\":8957:8975   */\n      add\n        /* \"#utility.yul\":8948:8954   */\n      dup6\n        /* \"#utility.yul\":8904:8976   */\n      tag_280\n      jump\t// in\n    tag_432:\n        /* \"#utility.yul\":8986:9059   */\n      tag_433\n        /* \"#utility.yul\":9054:9057   */\n      0x80\n        /* \"#utility.yul\":9043:9052   */\n      dup4\n        /* \"#utility.yul\":9039:9058   */\n      add\n        /* \"#utility.yul\":9030:9036   */\n      dup5\n        /* \"#utility.yul\":8986:9059   */\n      tag_280\n      jump\t// in\n    tag_433:\n        /* \"#utility.yul\":8311:9066   */\n      swap7\n      swap6\n      pop\n      pop\n      pop\n      pop\n      pop\n      pop\n      jump\t// out\n        /* \"#utility.yul\":9072:9546   */\n    tag_112:\n        /* \"#utility.yul\":9140:9146   */\n      0x00\n        /* \"#utility.yul\":9148:9154   */\n      dup1\n        /* \"#utility.yul\":9197:9199   */\n      0x40\n        /* \"#utility.yul\":9185:9194   */\n      dup4\n        /* \"#utility.yul\":9176:9183   */\n      dup6\n        /* \"#utility.yul\":9172:9195   */\n      sub\n        /* \"#utility.yul\":9168:9200   */\n      slt\n        /* \"#utility.yul\":9165:9284   */\n      iszero\n      tag_435\n      jumpi\n        /* \"#utility.yul\":9203:9282   */\n      tag_436\n      tag_260\n      jump\t// in\n    tag_436:\n        /* \"#utility.yul\":9165:9284   */\n    tag_435:\n        /* \"#utility.yul\":9323:9324   */\n      0x00\n        /* \"#utility.yul\":9348:9401   */\n      tag_437\n        /* \"#utility.yul\":9393:9400   */\n      dup6\n        /* \"#utility.yul\":9384:9390   */\n      dup3\n        /* \"#utility.yul\":9373:9382   */\n      dup7\n        /* \"#utility.yul\":9369:9391   */\n      add\n        /* \"#utility.yul\":9348:9401   */\n      tag_277\n      jump\t// in\n    tag_437:\n        /* \"#utility.yul\":9338:9401   */\n      swap3\n      pop\n        /* \"#utility.yul\":9294:9411   */\n      pop\n        /* \"#utility.yul\":9450:9452   */\n      0x20\n        /* \"#utility.yul\":9476:9529   */\n      tag_438\n        /* \"#utility.yul\":9521:9528   */\n      dup6\n        /* \"#utility.yul\":9512:9518   */\n      dup3\n        /* \"#utility.yul\":9501:9510   */\n      dup7\n        /* \"#utility.yul\":9497:9519   */\n      add\n        /* \"#utility.yul\":9476:9529   */\n      tag_277\n      jump\t// in\n    tag_438:\n        /* \"#utility.yul\":9466:9529   */\n      swap2\n      pop\n        /* \"#utility.yul\":9421:9539   */\n      pop\n        /* \"#utility.yul\":9072:9546   */\n      swap3\n      pop\n      swap3\n      swap1\n      pop\n      jump\t// out\n        /* \"#utility.yul\":9552:9732   */\n    tag_284:\n        /* \"#utility.yul\":9600:9677   */\n      0x4e487b7100000000000000000000000000000000000000000000000000000000\n        /* \"#utility.yul\":9597:9598   */\n      0x00\n        /* \"#utility.yul\":9590:9678   */\n      mstore\n        /* \"#utility.yul\":9697:9701   */\n      0x22\n        /* \"#utility.yul\":9694:9695   */\n      0x04\n        /* \"#utility.yul\":9687:9702   */\n      mstore\n        /* \"#utility.yul\":9721:9725   */\n      0x24\n        /* \"#utility.yul\":9718:9719   */\n      0x00\n        /* \"#utility.yul\":9711:9726   */\n      revert\n        /* \"#utility.yul\":9738:10058   */\n    tag_123:\n        /* \"#utility.yul\":9782:9788   */\n      0x00\n        /* \"#utility.yul\":9819:9820   */\n      0x02\n        /* \"#utility.yul\":9813:9817   */\n      dup3\n        /* \"#utility.yul\":9809:9821   */\n      div\n        /* \"#utility.yul\":9799:9821   */\n      swap1\n      pop\n        /* \"#utility.yul\":9866:9867   */\n      0x01\n        /* \"#utility.yul\":9860:9864   */\n      dup3\n        /* \"#utility.yul\":9856:9868   */\n      and\n        /* \"#utility.yul\":9887:9905   */\n      dup1\n        /* \"#utility.yul\":9877:9958   */\n      tag_441\n      jumpi\n        /* \"#utility.yul\":9943:9947   */\n      0x7f\n        /* \"#utility.yul\":9935:9941   */\n      dup3\n        /* \"#utility.yul\":9931:9948   */\n      and\n        /* \"#utility.yul\":9921:9948   */\n      swap2\n      pop\n        /* \"#utility.yul\":9877:9958   */\n    tag_441:\n        /* \"#utility.yul\":10005:10007   */\n      0x20\n        /* \"#utility.yul\":9997:10003   */\n      dup3\n        /* \"#utility.yul\":9994:10008   */\n      lt\n        /* \"#utility.yul\":9974:9992   */\n      dup2\n        /* \"#utility.yul\":9971:10009   */\n      sub\n        /* \"#utility.yul\":9968:10052   */\n      tag_442\n      jumpi\n        /* \"#utility.yul\":10024:10042   */\n      tag_443\n      tag_284\n      jump\t// in\n    tag_443:\n        /* \"#utility.yul\":9968:10052   */\n    tag_442:\n        /* \"#utility.yul\":9789:10058   */\n      pop\n        /* \"#utility.yul\":9738:10058   */\n      swap2\n      swap1\n      pop\n      jump\t// out\n        /* \"#utility.yul\":10064:10235   */\n    tag_285:\n        /* \"#utility.yul\":10204:10227   */\n      0x596f752061726520616c72656164792068617665200000000000000000000000\n        /* \"#utility.yul\":10200:10201   */\n      0x00\n        /* \"#utility.yul\":10192:10198   */\n      dup3\n        /* \"#utility.yul\":10188:10202   */\n      add\n        /* \"#utility.yul\":10181:10228   */\n      mstore\n        /* \"#utility.yul\":10064:10235   */\n      pop\n      jump\t// out\n        /* \"#utility.yul\":10241:10607   */\n    tag_286:\n        /* \"#utility.yul\":10383:10386   */\n      0x00\n        /* \"#utility.yul\":10404:10471   */\n      tag_446\n        /* \"#utility.yul\":10468:10470   */\n      0x15\n        /* \"#utility.yul\":10463:10466   */\n      dup4\n        /* \"#utility.yul\":10404:10471   */\n      tag_255\n      jump\t// in\n    tag_446:\n        /* \"#utility.yul\":10397:10471   */\n      swap2\n      pop\n        /* \"#utility.yul\":10480:10573   */\n      tag_447\n        /* \"#utility.yul\":10569:10572   */\n      dup3\n        /* \"#utility.yul\":10480:10573   */\n      tag_285\n      jump\t// in\n    tag_447:\n        /* \"#utility.yul\":10598:10600   */\n      0x20\n        /* \"#utility.yul\":10593:10596   */\n      dup3\n        /* \"#utility.yul\":10589:10601   */\n      add\n        /* \"#utility.yul\":10582:10601   */\n      swap1\n      pop\n        /* \"#utility.yul\":10241:10607   */\n      swap2\n      swap1\n      pop\n      jump\t// out\n        /* \"#utility.yul\":10613:11032   */\n    tag_134:\n        /* \"#utility.yul\":10779:10783   */\n      0x00\n        /* \"#utility.yul\":10817:10819   */\n      0x20\n        /* \"#utility.yul\":10806:10815   */\n      dup3\n        /* \"#utility.yul\":10802:10820   */\n      add\n        /* \"#utility.yul\":10794:10820   */\n      swap1\n      pop\n        /* \"#utility.yul\":10866:10875   */\n      dup2\n        /* \"#utility.yul\":10860:10864   */\n      dup2\n        /* \"#utility.yul\":10856:10876   */\n      sub\n        /* \"#utility.yul\":10852:10853   */\n      0x00\n        /* \"#utility.yul\":10841:10850   */\n      dup4\n        /* \"#utility.yul\":10837:10854   */\n      add\n        /* \"#utility.yul\":10830:10877   */\n      mstore\n        /* \"#utility.yul\":10894:11025   */\n      tag_449\n        /* \"#utility.yul\":11020:11024   */\n      dup2\n        /* \"#utility.yul\":10894:11025   */\n      tag_286\n      jump\t// in\n    tag_449:\n        /* \"#utility.yul\":10886:11025   */\n      swap1\n      pop\n        /* \"#utility.yul\":10613:11032   */\n      swap2\n      swap1\n      pop\n      jump\t// out\n        /* \"#utility.yul\":11038:11209   */\n    tag_287:\n        /* \"#utility.yul\":11178:11201   */\n      0x596f752061726520756e64657220746865206167650000000000000000000000\n        /* \"#utility.yul\":11174:11175   */\n      0x00\n        /* \"#utility.yul\":11166:11172   */\n      dup3\n        /* \"#utility.yul\":11162:11176   */\n      add\n        /* \"#utility.yul\":11155:11202   */\n      mstore\n        /* \"#utility.yul\":11038:11209   */\n      pop\n      jump\t// out\n        /* \"#utility.yul\":11215:11581   */\n    tag_288:\n        /* \"#utility.yul\":11357:11360   */\n      0x00\n        /* \"#utility.yul\":11378:11445   */\n      tag_452\n        /* \"#utility.yul\":11442:11444   */\n      0x15\n        /* \"#utility.yul\":11437:11440   */\n      dup4\n        /* \"#utility.yul\":11378:11445   */\n      tag_255\n      jump\t// in\n    tag_452:\n        /* \"#utility.yul\":11371:11445   */\n      swap2\n      pop\n        /* \"#utility.yul\":11454:11547   */\n      tag_453\n        /* \"#utility.yul\":11543:11546   */\n      dup3\n        /* \"#utility.yul\":11454:11547   */\n      tag_287\n      jump\t// in\n    tag_453:\n        /* \"#utility.yul\":11572:11574   */\n      0x20\n        /* \"#utility.yul\":11567:11570   */\n      dup3\n        /* \"#utility.yul\":11563:11575   */\n      add\n        /* \"#utility.yul\":11556:11575   */\n      swap1\n      pop\n        /* \"#utility.yul\":11215:11581   */\n      swap2\n      swap1\n      pop\n      jump\t// out\n        /* \"#utility.yul\":11587:12006   */\n    tag_137:\n        /* \"#utility.yul\":11753:11757   */\n      0x00\n        /* \"#utility.yul\":11791:11793   */\n      0x20\n        /* \"#utility.yul\":11780:11789   */\n      dup3\n        /* \"#utility.yul\":11776:11794   */\n      add\n        /* \"#utility.yul\":11768:11794   */\n      swap1\n      pop\n        /* \"#utility.yul\":11840:11849   */\n      dup2\n        /* \"#utility.yul\":11834:11838   */\n      dup2\n        /* \"#utility.yul\":11830:11850   */\n      sub\n        /* \"#utility.yul\":11826:11827   */\n      0x00\n        /* \"#utility.yul\":11815:11824   */\n      dup4\n        /* \"#utility.yul\":11811:11828   */\n      add\n        /* \"#utility.yul\":11804:11851   */\n      mstore\n        /* \"#utility.yul\":11868:11999   */\n      tag_455\n        /* \"#utility.yul\":11994:11998   */\n      dup2\n        /* \"#utility.yul\":11868:11999   */\n      tag_288\n      jump\t// in\n    tag_455:\n        /* \"#utility.yul\":11860:11999   */\n      swap1\n      pop\n        /* \"#utility.yul\":11587:12006   */\n      swap2\n      swap1\n      pop\n      jump\t// out\n        /* \"#utility.yul\":12012:12187   */\n    tag_289:\n        /* \"#utility.yul\":12152:12179   */\n      0x596f757220496e737572616e6365206973206578706972656400000000000000\n        /* \"#utility.yul\":12148:12149   */\n      0x00\n        /* \"#utility.yul\":12140:12146   */\n      dup3\n        /* \"#utility.yul\":12136:12150   */\n      add\n        /* \"#utility.yul\":12129:12180   */\n      mstore\n        /* \"#utility.yul\":12012:12187   */\n      pop\n      jump\t// out\n        /* \"#utility.yul\":12193:12559   */\n    tag_290:\n        /* \"#utility.yul\":12335:12338   */\n      0x00\n        /* \"#utility.yul\":12356:12423   */\n      tag_458\n        /* \"#utility.yul\":12420:12422   */\n      0x19\n        /* \"#utility.yul\":12415:12418   */\n      dup4\n        /* \"#utility.yul\":12356:12423   */\n      tag_255\n      jump\t// in\n    tag_458:\n        /* \"#utility.yul\":12349:12423   */\n      swap2\n      pop\n        /* \"#utility.yul\":12432:12525   */\n      tag_459\n        /* \"#utility.yul\":12521:12524   */\n      dup3\n        /* \"#utility.yul\":12432:12525   */\n      tag_289\n      jump\t// in\n    tag_459:\n        /* \"#utility.yul\":12550:12552   */\n      0x20\n        /* \"#utility.yul\":12545:12548   */\n      dup3\n        /* \"#utility.yul\":12541:12553   */\n      add\n        /* \"#utility.yul\":12534:12553   */\n      swap1\n      pop\n        /* \"#utility.yul\":12193:12559   */\n      swap2\n      swap1\n      pop\n      jump\t// out\n        /* \"#utility.yul\":12565:12984   */\n    tag_140:\n        /* \"#utility.yul\":12731:12735   */\n      0x00\n        /* \"#utility.yul\":12769:12771   */\n      0x20\n        /* \"#utility.yul\":12758:12767   */\n      dup3\n        /* \"#utility.yul\":12754:12772   */\n      add\n        /* \"#utility.yul\":12746:12772   */\n      swap1\n      pop\n        /* \"#utility.yul\":12818:12827   */\n      dup2\n        /* \"#utility.yul\":12812:12816   */\n      dup2\n        /* \"#utility.yul\":12808:12828   */\n      sub\n        /* \"#utility.yul\":12804:12805   */\n      0x00\n        /* \"#utility.yul\":12793:12802   */\n      dup4\n        /* \"#utility.yul\":12789:12806   */\n      add\n        /* \"#utility.yul\":12782:12829   */\n      mstore\n        /* \"#utility.yul\":12846:12977   */\n      tag_461\n        /* \"#utility.yul\":12972:12976   */\n      dup2\n        /* \"#utility.yul\":12846:12977   */\n      tag_290\n      jump\t// in\n    tag_461:\n        /* \"#utility.yul\":12838:12977   */\n      swap1\n      pop\n        /* \"#utility.yul\":12565:12984   */\n      swap2\n      swap1\n      pop\n      jump\t// out\n        /* \"#utility.yul\":12990:13131   */\n    tag_291:\n        /* \"#utility.yul\":13039:13043   */\n      0x00\n        /* \"#utility.yul\":13062:13065   */\n      dup2\n        /* \"#utility.yul\":13054:13065   */\n      swap1\n      pop\n        /* \"#utility.yul\":13085:13088   */\n      dup2\n        /* \"#utility.yul\":13082:13083   */\n      0x00\n        /* \"#utility.yul\":13075:13089   */\n      mstore\n        /* \"#utility.yul\":13119:13123   */\n      0x20\n        /* \"#utility.yul\":13116:13117   */\n      0x00\n        /* \"#utility.yul\":13106:13124   */\n      keccak256\n        /* \"#utility.yul\":13098:13124   */\n      swap1\n      pop\n        /* \"#utility.yul\":12990:13131   */\n      swap2\n      swap1\n      pop\n      jump\t// out\n        /* \"#utility.yul\":13137:13230   */\n    tag_292:\n        /* \"#utility.yul\":13174:13180   */\n      0x00\n        /* \"#utility.yul\":13221:13223   */\n      0x20\n        /* \"#utility.yul\":13216:13218   */\n      0x1f\n        /* \"#utility.yul\":13209:13214   */\n      dup4\n        /* \"#utility.yul\":13205:13219   */\n      add\n        /* \"#utility.yul\":13201:13224   */\n      div\n        /* \"#utility.yul\":13191:13224   */\n      swap1\n      pop\n        /* \"#utility.yul\":13137:13230   */\n      swap2\n      swap1\n      pop\n      jump\t// out\n        /* \"#utility.yul\":13236:13343   */\n    tag_293:\n        /* \"#utility.yul\":13280:13288   */\n      0x00\n        /* \"#utility.yul\":13330:13335   */\n      dup3\n        /* \"#utility.yul\":13324:13328   */\n      dup3\n        /* \"#utility.yul\":13320:13336   */\n      shl\n        /* \"#utility.yul\":13299:13336   */\n      swap1\n      pop\n        /* \"#utility.yul\":13236:13343   */\n      swap3\n      swap2\n      pop\n      pop\n      jump\t// out\n        /* \"#utility.yul\":13349:13742   */\n    tag_294:\n        /* \"#utility.yul\":13418:13424   */\n      0x00\n        /* \"#utility.yul\":13468:13469   */\n      0x08\n        /* \"#utility.yul\":13456:13466   */\n      dup4\n        /* \"#utility.yul\":13452:13470   */\n      mul\n        /* \"#utility.yul\":13491:13588   */\n      tag_466\n        /* \"#utility.yul\":13521:13587   */\n      0xffffffffffffffffffffffffffffffffffffffffffffffffffffffffffffffff\n        /* \"#utility.yul\":13510:13519   */\n      dup3\n        /* \"#utility.yul\":13491:13588   */\n      tag_293\n      jump\t// in\n    tag_466:\n        /* \"#utility.yul\":13609:13648   */\n      tag_467\n        /* \"#utility.yul\":13639:13647   */\n      dup7\n        /* \"#utility.yul\":13628:13637   */\n      dup4\n        /* \"#utility.yul\":13609:13648   */\n      tag_293\n      jump\t// in\n    tag_467:\n        /* \"#utility.yul\":13597:13648   */\n      swap6\n      pop\n        /* \"#utility.yul\":13681:13685   */\n      dup1\n        /* \"#utility.yul\":13677:13686   */\n      not\n        /* \"#utility.yul\":13670:13675   */\n      dup5\n        /* \"#utility.yul\":13666:13687   */\n      and\n        /* \"#utility.yul\":13657:13687   */\n      swap4\n      pop\n        /* \"#utility.yul\":13730:13734   */\n      dup1\n        /* \"#utility.yul\":13720:13728   */\n      dup7\n        /* \"#utility.yul\":13716:13735   */\n      and\n        /* \"#utility.yul\":13709:13714   */\n      dup5\n        /* \"#utility.yul\":13706:13736   */\n      or\n        /* \"#utility.yul\":13696:13736   */\n      swap3\n      pop\n        /* \"#utility.yul\":13425:13742   */\n      pop\n      pop\n        /* \"#utility.yul\":13349:13742   */\n      swap4\n      swap3\n      pop\n      pop\n      pop\n      jump\t// out\n        /* \"#utility.yul\":13748:13808   */\n    tag_295:\n        /* \"#utility.yul\":13776:13779   */\n      0x00\n        /* \"#utility.yul\":13797:13802   */\n      dup2\n        /* \"#utility.yul\":13790:13802   */\n      swap1\n      pop\n        /* \"#utility.yul\":13748:13808   */\n      swap2\n      swap1\n      pop\n      jump\t// out\n        /* \"#utility.yul\":13814:13956   */\n    tag_296:\n        /* \"#utility.yul\":13864:13873   */\n      0x00\n        /* \"#utility.yul\":13897:13950   */\n      tag_470\n        /* \"#utility.yul\":13915:13949   */\n      tag_471\n        /* \"#utility.yul\":13924:13948   */\n      tag_472\n        /* \"#utility.yul\":13942:13947   */\n      dup5\n        /* \"#utility.yul\":13924:13948   */\n      tag_271\n      jump\t// in\n    tag_472:\n        /* \"#utility.yul\":13915:13949   */\n      tag_295\n      jump\t// in\n    tag_471:\n        /* \"#utility.yul\":13897:13950   */\n      tag_271\n      jump\t// in\n    tag_470:\n        /* \"#utility.yul\":13884:13950   */\n      swap1\n      pop\n        /* \"#utility.yul\":13814:13956   */\n      swap2\n      swap1\n      pop\n      jump\t// out\n        /* \"#utility.yul\":13962:14037   */\n    tag_297:\n        /* \"#utility.yul\":14005:14008   */\n      0x00\n        /* \"#utility.yul\":14026:14031   */\n      dup2\n        /* \"#utility.yul\":14019:14031   */\n      swap1\n      pop\n        /* \"#utility.yul\":13962:14037   */\n      swap2\n      swap1\n      pop\n      jump\t// out\n        /* \"#utility.yul\":14043:14312   */\n    tag_298:\n        /* \"#utility.yul\":14153:14192   */\n      tag_475\n        /* \"#utility.yul\":14184:14191   */\n      dup4\n        /* \"#utility.yul\":14153:14192   */\n      tag_296\n      jump\t// in\n    tag_475:\n        /* \"#utility.yul\":14214:14305   */\n      tag_476\n        /* \"#utility.yul\":14263:14304   */\n      tag_477\n        /* \"#utility.yul\":14287:14303   */\n      dup3\n        /* \"#utility.yul\":14263:14304   */\n      tag_297\n      jump\t// in\n    tag_477:\n        /* \"#utility.yul\":14255:14261   */\n      dup5\n        /* \"#utility.yul\":14248:14252   */\n      dup5\n        /* \"#utility.yul\":14242:14253   */\n      sload\n        /* \"#utility.yul\":14214:14305   */\n      tag_294\n      jump\t// in\n    tag_476:\n        /* \"#utility.yul\":14208:14212   */\n      dup3\n        /* \"#utility.yul\":14201:14306   */\n      sstore\n        /* \"#utility.yul\":14119:14312   */\n      pop\n        /* \"#utility.yul\":14043:14312   */\n      pop\n      pop\n      pop\n      jump\t// out\n        /* \"#utility.yul\":14318:14391   */\n    tag_299:\n        /* \"#utility.yul\":14363:14366   */\n      0x00\n        /* \"#utility.yul\":14318:14391   */\n      swap1\n      jump\t// out\n        /* \"#utility.yul\":14397:14586   */\n    tag_300:\n        /* \"#utility.yul\":14474:14506   */\n      tag_480\n      tag_299\n      jump\t// in\n    tag_480:\n        /* \"#utility.yul\":14515:14580   */\n      tag_481\n        /* \"#utility.yul\":14573:14579   */\n      dup2\n        /* \"#utility.yul\":14565:14571   */\n      dup5\n        /* \"#utility.yul\":14559:14563   */\n      dup5\n        /* \"#utility.yul\":14515:14580   */\n      tag_298\n      jump\t// in\n    tag_481:\n        /* \"#utility.yul\":14450:14586   */\n      pop\n        /* \"#utility.yul\":14397:14586   */\n      pop\n      pop\n      jump\t// out\n        /* \"#utility.yul\":14592:14778   */\n    tag_301:\n        /* \"#utility.yul\":14652:14772   */\n    tag_483:\n        /* \"#utility.yul\":14669:14672   */\n      dup2\n        /* \"#utility.yul\":14662:14667   */\n      dup2\n        /* \"#utility.yul\":14659:14673   */\n      lt\n        /* \"#utility.yul\":14652:14772   */\n      iszero\n      tag_485\n      jumpi\n        /* \"#utility.yul\":14723:14762   */\n      tag_486\n        /* \"#utility.yul\":14760:14761   */\n      0x00\n        /* \"#utility.yul\":14753:14758   */\n      dup3\n        /* \"#utility.yul\":14723:14762   */\n      tag_300\n      jump\t// in\n    tag_486:\n        /* \"#utility.yul\":14696:14697   */\n      0x01\n        /* \"#utility.yul\":14689:14694   */\n      dup2\n        /* \"#utility.yul\":14685:14698   */\n      add\n        /* \"#utility.yul\":14676:14698   */\n      swap1\n      pop\n        /* \"#utility.yul\":14652:14772   */\n      jump(tag_483)\n    tag_485:\n        /* \"#utility.yul\":14592:14778   */\n      pop\n      pop\n      jump\t// out\n        /* \"#utility.yul\":14784:15327   */\n    tag_302:\n        /* \"#utility.yul\":14885:14887   */\n      0x1f\n        /* \"#utility.yul\":14880:14883   */\n      dup3\n        /* \"#utility.yul\":14877:14888   */\n      gt\n        /* \"#utility.yul\":14874:15320   */\n      iszero\n      tag_488\n      jumpi\n        /* \"#utility.yul\":14919:14957   */\n      tag_489\n        /* \"#utility.yul\":14951:14956   */\n      dup2\n        /* \"#utility.yul\":14919:14957   */\n      tag_291\n      jump\t// in\n    tag_489:\n        /* \"#utility.yul\":15003:15032   */\n      tag_490\n        /* \"#utility.yul\":15021:15031   */\n      dup5\n        /* \"#utility.yul\":15003:15032   */\n      tag_292\n      jump\t// in\n    tag_490:\n        /* \"#utility.yul\":14993:15001   */\n      dup2\n        /* \"#utility.yul\":14989:15033   */\n      add\n        /* \"#utility.yul\":15186:15188   */\n      0x20\n        /* \"#utility.yul\":15174:15184   */\n      dup6\n        /* \"#utility.yul\":15171:15189   */\n      lt\n        /* \"#utility.yul\":15168:15217   */\n      iszero\n      tag_491\n      jumpi\n        /* \"#utility.yul\":15207:15215   */\n      dup2\n        /* \"#utility.yul\":15192:15215   */\n      swap1\n      pop\n        /* \"#utility.yul\":15168:15217   */\n    tag_491:\n        /* \"#utility.yul\":15230:15310   */\n      tag_492\n        /* \"#utility.yul\":15286:15308   */\n      tag_493\n        /* \"#utility.yul\":15304:15307   */\n      dup6\n        /* \"#utility.yul\":15286:15308   */\n      tag_292\n      jump\t// in\n    tag_493:\n        /* \"#utility.yul\":15276:15284   */\n      dup4\n        /* \"#utility.yul\":15272:15309   */\n      add\n        /* \"#utility.yul\":15259:15270   */\n      dup3\n        /* \"#utility.yul\":15230:15310   */\n      tag_301\n      jump\t// in\n    tag_492:\n        /* \"#utility.yul\":14889:15320   */\n      pop\n      pop\n        /* \"#utility.yul\":14874:15320   */\n    tag_488:\n        /* \"#utility.yul\":14784:15327   */\n      pop\n      pop\n      pop\n      jump\t// out\n        /* \"#utility.yul\":15333:15450   */\n    tag_303:\n        /* \"#utility.yul\":15387:15395   */\n      0x00\n        /* \"#utility.yul\":15437:15442   */\n      dup3\n        /* \"#utility.yul\":15431:15435   */\n      dup3\n        /* \"#utility.yul\":15427:15443   */\n      shr\n        /* \"#utility.yul\":15406:15443   */\n      swap1\n      pop\n        /* \"#utility.yul\":15333:15450   */\n      swap3\n      swap2\n      pop\n      pop\n      jump\t// out\n        /* \"#utility.yul\":15456:15625   */\n    tag_304:\n        /* \"#utility.yul\":15500:15506   */\n      0x00\n        /* \"#utility.yul\":15533:15584   */\n      tag_496\n        /* \"#utility.yul\":15581:15582   */\n      0x00\n        /* \"#utility.yul\":15577:15583   */\n      not\n        /* \"#utility.yul\":15569:15574   */\n      dup5\n        /* \"#utility.yul\":15566:15567   */\n      0x08\n        /* \"#utility.yul\":15562:15575   */\n      mul\n        /* \"#utility.yul\":15533:15584   */\n      tag_303\n      jump\t// in\n    tag_496:\n        /* \"#utility.yul\":15529:15585   */\n      not\n        /* \"#utility.yul\":15614:15618   */\n      dup1\n        /* \"#utility.yul\":15608:15612   */\n      dup4\n        /* \"#utility.yul\":15604:15619   */\n      and\n        /* \"#utility.yul\":15594:15619   */\n      swap2\n      pop\n        /* \"#utility.yul\":15507:15625   */\n      pop\n        /* \"#utility.yul\":15456:15625   */\n      swap3\n      swap2\n      pop\n      pop\n      jump\t// out\n        /* \"#utility.yul\":15630:15925   */\n    tag_305:\n        /* \"#utility.yul\":15706:15710   */\n      0x00\n        /* \"#utility.yul\":15852:15881   */\n      tag_498\n        /* \"#utility.yul\":15877:15880   */\n      dup4\n        /* \"#utility.yul\":15871:15875   */\n      dup4\n        /* \"#utility.yul\":15852:15881   */\n      tag_304\n      jump\t// in\n    tag_498:\n        /* \"#utility.yul\":15844:15881   */\n      swap2\n      pop\n        /* \"#utility.yul\":15914:15917   */\n      dup3\n        /* \"#utility.yul\":15911:15912   */\n      0x02\n        /* \"#utility.yul\":15907:15918   */\n      mul\n        /* \"#utility.yul\":15901:15905   */\n      dup3\n        /* \"#utility.yul\":15898:15919   */\n      or\n        /* \"#utility.yul\":15890:15919   */\n      swap1\n      pop\n        /* \"#utility.yul\":15630:15925   */\n      swap3\n      swap2\n      pop\n      pop\n      jump\t// out\n        /* \"#utility.yul\":15930:17325   */\n    tag_142:\n        /* \"#utility.yul\":16047:16084   */\n      tag_500\n        /* \"#utility.yul\":16080:16083   */\n      dup3\n        /* \"#utility.yul\":16047:16084   */\n      tag_254\n      jump\t// in\n    tag_500:\n        /* \"#utility.yul\":16149:16167   */\n      0xffffffffffffffff\n        /* \"#utility.yul\":16141:16147   */\n      dup2\n        /* \"#utility.yul\":16138:16168   */\n      gt\n        /* \"#utility.yul\":16135:16191   */\n      iszero\n      tag_501\n      jumpi\n        /* \"#utility.yul\":16171:16189   */\n      tag_502\n      tag_264\n      jump\t// in\n    tag_502:\n        /* \"#utility.yul\":16135:16191   */\n    tag_501:\n        /* \"#utility.yul\":16215:16253   */\n      tag_503\n        /* \"#utility.yul\":16247:16251   */\n      dup3\n        /* \"#utility.yul\":16241:16252   */\n      sload\n        /* \"#utility.yul\":16215:16253   */\n      tag_123\n      jump\t// in\n    tag_503:\n        /* \"#utility.yul\":16300:16367   */\n      tag_504\n        /* \"#utility.yul\":16360:16366   */\n      dup3\n        /* \"#utility.yul\":16352:16358   */\n      dup3\n        /* \"#utility.yul\":16346:16350   */\n      dup6\n        /* \"#utility.yul\":16300:16367   */\n      tag_302\n      jump\t// in\n    tag_504:\n        /* \"#utility.yul\":16394:16395   */\n      0x00\n        /* \"#utility.yul\":16418:16422   */\n      0x20\n        /* \"#utility.yul\":16405:16422   */\n      swap1\n      pop\n        /* \"#utility.yul\":16450:16452   */\n      0x1f\n        /* \"#utility.yul\":16442:16448   */\n      dup4\n        /* \"#utility.yul\":16439:16453   */\n      gt\n        /* \"#utility.yul\":16467:16468   */\n      0x01\n        /* \"#utility.yul\":16462:17080   */\n      dup2\n      eq\n      tag_506\n      jumpi\n        /* \"#utility.yul\":17124:17125   */\n      0x00\n        /* \"#utility.yul\":17141:17147   */\n      dup5\n        /* \"#utility.yul\":17138:17215   */\n      iszero\n      tag_507\n      jumpi\n        /* \"#utility.yul\":17190:17199   */\n      dup3\n        /* \"#utility.yul\":17185:17188   */\n      dup8\n        /* \"#utility.yul\":17181:17200   */\n      add\n        /* \"#utility.yul\":17175:17201   */\n      mload\n        /* \"#utility.yul\":17166:17201   */\n      swap1\n      pop\n        /* \"#utility.yul\":17138:17215   */\n    tag_507:\n        /* \"#utility.yul\":17241:17308   */\n      tag_508\n        /* \"#utility.yul\":17301:17307   */\n      dup6\n        /* \"#utility.yul\":17294:17299   */\n      dup3\n        /* \"#utility.yul\":17241:17308   */\n      tag_305\n      jump\t// in\n    tag_508:\n        /* \"#utility.yul\":17235:17239   */\n      dup7\n        /* \"#utility.yul\":17228:17309   */\n      sstore\n        /* \"#utility.yul\":17097:17319   */\n      pop\n        /* \"#utility.yul\":16432:17319   */\n      jump(tag_505)\n        /* \"#utility.yul\":16462:17080   */\n    tag_506:\n        /* \"#utility.yul\":16514:16518   */\n      0x1f\n        /* \"#utility.yul\":16510:16519   */\n      not\n        /* \"#utility.yul\":16502:16508   */\n      dup5\n        /* \"#utility.yul\":16498:16520   */\n      and\n        /* \"#utility.yul\":16548:16585   */\n      tag_509\n        /* \"#utility.yul\":16580:16584   */\n      dup7\n        /* \"#utility.yul\":16548:16585   */\n      tag_291\n      jump\t// in\n    tag_509:\n        /* \"#utility.yul\":16607:16608   */\n      0x00\n        /* \"#utility.yul\":16621:16829   */\n    tag_510:\n        /* \"#utility.yul\":16635:16642   */\n      dup3\n        /* \"#utility.yul\":16632:16633   */\n      dup2\n        /* \"#utility.yul\":16629:16643   */\n      lt\n        /* \"#utility.yul\":16621:16829   */\n      iszero\n      tag_512\n      jumpi\n        /* \"#utility.yul\":16714:16723   */\n      dup5\n        /* \"#utility.yul\":16709:16712   */\n      dup10\n        /* \"#utility.yul\":16705:16724   */\n      add\n        /* \"#utility.yul\":16699:16725   */\n      mload\n        /* \"#utility.yul\":16691:16697   */\n      dup3\n        /* \"#utility.yul\":16684:16726   */\n      sstore\n        /* \"#utility.yul\":16765:16766   */\n      0x01\n        /* \"#utility.yul\":16757:16763   */\n      dup3\n        /* \"#utility.yul\":16753:16767   */\n      add\n        /* \"#utility.yul\":16743:16767   */\n      swap2\n      pop\n        /* \"#utility.yul\":16812:16814   */\n      0x20\n        /* \"#utility.yul\":16801:16810   */\n      dup6\n        /* \"#utility.yul\":16797:16815   */\n      add\n        /* \"#utility.yul\":16784:16815   */\n      swap5\n      pop\n        /* \"#utility.yul\":16658:16662   */\n      0x20\n        /* \"#utility.yul\":16655:16656   */\n      dup2\n        /* \"#utility.yul\":16651:16663   */\n      add\n        /* \"#utility.yul\":16646:16663   */\n      swap1\n      pop\n        /* \"#utility.yul\":16621:16829   */\n      jump(tag_510)\n    tag_512:\n        /* \"#utility.yul\":16857:16863   */\n      dup7\n        /* \"#utility.yul\":16848:16855   */\n      dup4\n        /* \"#utility.yul\":16845:16864   */\n      lt\n        /* \"#utility.yul\":16842:17021   */\n      iszero\n      tag_513\n      jumpi\n        /* \"#utility.yul\":16915:16924   */\n      dup5\n        /* \"#utility.yul\":16910:16913   */\n      dup10\n        /* \"#utility.yul\":16906:16925   */\n      add\n        /* \"#utility.yul\":16900:16926   */\n      mload\n        /* \"#utility.yul\":16958:17006   */\n      tag_514\n        /* \"#utility.yul\":17000:17004   */\n      0x1f\n        /* \"#utility.yul\":16992:16998   */\n      dup10\n        /* \"#utility.yul\":16988:17005   */\n      and\n        /* \"#utility.yul\":16977:16986   */\n      dup3\n        /* \"#utility.yul\":16958:17006   */\n      tag_304\n      jump\t// in\n    tag_514:\n        /* \"#utility.yul\":16950:16956   */\n      dup4\n        /* \"#utility.yul\":16943:17007   */\n      sstore\n        /* \"#utility.yul\":16865:17021   */\n      pop\n        /* \"#utility.yul\":16842:17021   */\n    tag_513:\n        /* \"#utility.yul\":17067:17068   */\n      0x01\n        /* \"#utility.yul\":17063:17064   */\n      0x02\n        /* \"#utility.yul\":17055:17061   */\n      dup9\n        /* \"#utility.yul\":17051:17065   */\n      mul\n        /* \"#utility.yul\":17047:17069   */\n      add\n        /* \"#utility.yul\":17041:17045   */\n      dup9\n        /* \"#utility.yul\":17034:17070   */\n      sstore\n        /* \"#utility.yul\":16469:17080   */\n      pop\n      pop\n      pop\n        /* \"#utility.yul\":16432:17319   */\n    tag_505:\n      pop\n        /* \"#utility.yul\":16022:17325   */\n      pop\n      pop\n      pop\n        /* \"#utility.yul\":15930:17325   */\n      pop\n      pop\n      jump\t// out\n        /* \"#utility.yul\":17331:17511   */\n    tag_306:\n        /* \"#utility.yul\":17379:17456   */\n      0x4e487b7100000000000000000000000000000000000000000000000000000000\n        /* \"#utility.yul\":17376:17377   */\n      0x00\n        /* \"#utility.yul\":17369:17457   */\n      mstore\n        /* \"#utility.yul\":17476:17480   */\n      0x11\n        /* \"#utility.yul\":17473:17474   */\n      0x04\n        /* \"#utility.yul\":17466:17481   */\n      mstore\n        /* \"#utility.yul\":17500:17504   */\n      0x24\n        /* \"#utility.yul\":17497:17498   */\n      0x00\n        /* \"#utility.yul\":17490:17505   */\n      revert\n        /* \"#utility.yul\":17517:17750   */\n    tag_144:\n        /* \"#utility.yul\":17556:17559   */\n      0x00\n        /* \"#utility.yul\":17579:17603   */\n      tag_517\n        /* \"#utility.yul\":17597:17602   */\n      dup3\n        /* \"#utility.yul\":17579:17603   */\n      tag_271\n      jump\t// in\n    tag_517:\n        /* \"#utility.yul\":17570:17603   */\n      swap2\n      pop\n        /* \"#utility.yul\":17625:17691   */\n      0xffffffffffffffffffffffffffffffffffffffffffffffffffffffffffffffff\n        /* \"#utility.yul\":17618:17623   */\n      dup3\n        /* \"#utility.yul\":17615:17692   */\n      sub\n        /* \"#utility.yul\":17612:17715   */\n      tag_518\n      jumpi\n        /* \"#utility.yul\":17695:17713   */\n      tag_519\n      tag_306\n      jump\t// in\n    tag_519:\n        /* \"#utility.yul\":17612:17715   */\n    tag_518:\n        /* \"#utility.yul\":17742:17743   */\n      0x01\n        /* \"#utility.yul\":17735:17740   */\n      dup3\n        /* \"#utility.yul\":17731:17744   */\n      add\n        /* \"#utility.yul\":17724:17744   */\n      swap1\n      pop\n        /* \"#utility.yul\":17517:17750   */\n      swap2\n      swap1\n      pop\n      jump\t// out\n        /* \"#utility.yul\":17756:17947   */\n    tag_163:\n        /* \"#utility.yul\":17796:17799   */\n      0x00\n        /* \"#utility.yul\":17815:17835   */\n      tag_521\n        /* \"#utility.yul\":17833:17834   */\n      dup3\n        /* \"#utility.yul\":17815:17835   */\n      tag_271\n      jump\t// in\n    tag_521:\n        /* \"#utility.yul\":17810:17835   */\n      swap2\n      pop\n        /* \"#utility.yul\":17849:17869   */\n      tag_522\n        /* \"#utility.yul\":17867:17868   */\n      dup4\n        /* \"#utility.yul\":17849:17869   */\n      tag_271\n      jump\t// in\n    tag_522:\n        /* \"#utility.yul\":17844:17869   */\n      swap3\n      pop\n        /* \"#utility.yul\":17892:17893   */\n      dup3\n        /* \"#utility.yul\":17889:17890   */\n      dup3\n        /* \"#utility.yul\":17885:17894   */\n      add\n        /* \"#utility.yul\":17878:17894   */\n      swap1\n      pop\n        /* \"#utility.yul\":17913:17916   */\n      dup1\n        /* \"#utility.yul\":17910:17911   */\n      dup3\n        /* \"#utility.yul\":17907:17917   */\n      gt\n        /* \"#utility.yul\":17904:17940   */\n      iszero\n      tag_523\n      jumpi\n        /* \"#utility.yul\":17920:17938   */\n      tag_524\n      tag_306\n      jump\t// in\n    tag_524:\n        /* \"#utility.yul\":17904:17940   */\n    tag_523:\n        /* \"#utility.yul\":17756:17947   */\n      swap3\n      swap2\n      pop\n      pop\n      jump\t// out\n        /* \"#utility.yul\":17953:18177   */\n    tag_307:\n        /* \"#utility.yul\":18093:18127   */\n      0x45524332303a2064656372656173656420616c6c6f77616e63652062656c6f77\n        /* \"#utility.yul\":18089:18090   */\n      0x00\n        /* \"#utility.yul\":18081:18087   */\n      dup3\n        /* \"#utility.yul\":18077:18091   */\n      add\n        /* \"#utility.yul\":18070:18128   */\n      mstore\n        /* \"#utility.yul\":18162:18169   */\n      0x207a65726f000000000000000000000000000000000000000000000000000000\n        /* \"#utility.yul\":18157:18159   */\n      0x20\n        /* \"#utility.yul\":18149:18155   */\n      dup3\n        /* \"#utility.yul\":18145:18160   */\n      add\n        /* \"#utility.yul\":18138:18170   */\n      mstore\n        /* \"#utility.yul\":17953:18177   */\n      pop\n      jump\t// out\n        /* \"#utility.yul\":18183:18549   */\n    tag_308:\n        /* \"#utility.yul\":18325:18328   */\n      0x00\n        /* \"#utility.yul\":18346:18413   */\n      tag_527\n        /* \"#utility.yul\":18410:18412   */\n      0x25\n        /* \"#utility.yul\":18405:18408   */\n      dup4\n        /* \"#utility.yul\":18346:18413   */\n      tag_255\n      jump\t// in\n    tag_527:\n        /* \"#utility.yul\":18339:18413   */\n      swap2\n      pop\n        /* \"#utility.yul\":18422:18515   */\n      tag_528\n        /* \"#utility.yul\":18511:18514   */\n      dup3\n        /* \"#utility.yul\":18422:18515   */\n      tag_307\n      jump\t// in\n    tag_528:\n        /* \"#utility.yul\":18540:18542   */\n      0x40\n        /* \"#utility.yul\":18535:18538   */\n      dup3\n        /* \"#utility.yul\":18531:18543   */\n      add\n        /* \"#utility.yul\":18524:18543   */\n      swap1\n      pop\n        /* \"#utility.yul\":18183:18549   */\n      swap2\n      swap1\n      pop\n      jump\t// out\n        /* \"#utility.yul\":18555:18974   */\n    tag_182:\n        /* \"#utility.yul\":18721:18725   */\n      0x00\n        /* \"#utility.yul\":18759:18761   */\n      0x20\n        /* \"#utility.yul\":18748:18757   */\n      dup3\n        /* \"#utility.yul\":18744:18762   */\n      add\n        /* \"#utility.yul\":18736:18762   */\n      swap1\n      pop\n        /* \"#utility.yul\":18808:18817   */\n      dup2\n        /* \"#utility.yul\":18802:18806   */\n      dup2\n        /* \"#utility.yul\":18798:18818   */\n      sub\n        /* \"#utility.yul\":18794:18795   */\n      0x00\n        /* \"#utility.yul\":18783:18792   */\n      dup4\n        /* \"#utility.yul\":18779:18796   */\n      add\n        /* \"#utility.yul\":18772:18819   */\n      mstore\n        /* \"#utility.yul\":18836:18967   */\n      tag_530\n        /* \"#utility.yul\":18962:18966   */\n      dup2\n        /* \"#utility.yul\":18836:18967   */\n      tag_308\n      jump\t// in\n    tag_530:\n        /* \"#utility.yul\":18828:18967   */\n      swap1\n      pop\n        /* \"#utility.yul\":18555:18974   */\n      swap2\n      swap1\n      pop\n      jump\t// out\n        /* \"#utility.yul\":18980:19152   */\n    tag_309:\n        /* \"#utility.yul\":19120:19144   */\n      0x596f7520617265206e6f74206120637573746f6d657200000000000000000000\n        /* \"#utility.yul\":19116:19117   */\n      0x00\n        /* \"#utility.yul\":19108:19114   */\n      dup3\n        /* \"#utility.yul\":19104:19118   */\n      add\n        /* \"#utility.yul\":19097:19145   */\n      mstore\n        /* \"#utility.yul\":18980:19152   */\n      pop\n      jump\t// out\n        /* \"#utility.yul\":19158:19524   */\n    tag_310:\n        /* \"#utility.yul\":19300:19303   */\n      0x00\n        /* \"#utility.yul\":19321:19388   */\n      tag_533\n        /* \"#utility.yul\":19385:19387   */\n      0x16\n        /* \"#utility.yul\":19380:19383   */\n      dup4\n        /* \"#utility.yul\":19321:19388   */\n      tag_255\n      jump\t// in\n    tag_533:\n        /* \"#utility.yul\":19314:19388   */\n      swap2\n      pop\n        /* \"#utility.yul\":19397:19490   */\n      tag_534\n        /* \"#utility.yul\":19486:19489   */\n      dup3\n        /* \"#utility.yul\":19397:19490   */\n      tag_309\n      jump\t// in\n    tag_534:\n        /* \"#utility.yul\":19515:19517   */\n      0x20\n        /* \"#utility.yul\":19510:19513   */\n      dup3\n        /* \"#utility.yul\":19506:19518   */\n      add\n        /* \"#utility.yul\":19499:19518   */\n      swap1\n      pop\n        /* \"#utility.yul\":19158:19524   */\n      swap2\n      swap1\n      pop\n      jump\t// out\n        /* \"#utility.yul\":19530:19949   */\n    tag_196:\n        /* \"#utility.yul\":19696:19700   */\n      0x00\n        /* \"#utility.yul\":19734:19736   */\n      0x20\n        /* \"#utility.yul\":19723:19732   */\n      dup3\n        /* \"#utility.yul\":19719:19737   */\n      add\n        /* \"#utility.yul\":19711:19737   */\n      swap1\n      pop\n        /* \"#utility.yul\":19783:19792   */\n      dup2\n        /* \"#utility.yul\":19777:19781   */\n      dup2\n        /* \"#utility.yul\":19773:19793   */\n      sub\n        /* \"#utility.yul\":19769:19770   */\n      0x00\n        /* \"#utility.yul\":19758:19767   */\n      dup4\n        /* \"#utility.yul\":19754:19771   */\n      add\n        /* \"#utility.yul\":19747:19794   */\n      mstore\n        /* \"#utility.yul\":19811:19942   */\n      tag_536\n        /* \"#utility.yul\":19937:19941   */\n      dup2\n        /* \"#utility.yul\":19811:19942   */\n      tag_310\n      jump\t// in\n    tag_536:\n        /* \"#utility.yul\":19803:19942   */\n      swap1\n      pop\n        /* \"#utility.yul\":19530:19949   */\n      swap2\n      swap1\n      pop\n      jump\t// out\n        /* \"#utility.yul\":19955:20134   */\n    tag_311:\n        /* \"#utility.yul\":20095:20126   */\n      0x596f7520646f6e277420686176652062616c616e636520656e6f756768000000\n        /* \"#utility.yul\":20091:20092   */\n      0x00\n        /* \"#utility.yul\":20083:20089   */\n      dup3\n        /* \"#utility.yul\":20079:20093   */\n      add\n        /* \"#utility.yul\":20072:20127   */\n      mstore\n        /* \"#utility.yul\":19955:20134   */\n      pop\n      jump\t// out\n        /* \"#utility.yul\":20140:20506   */\n    tag_312:\n        /* \"#utility.yul\":20282:20285   */\n      0x00\n        /* \"#utility.yul\":20303:20370   */\n      tag_539\n        /* \"#utility.yul\":20367:20369   */\n      0x1d\n        /* \"#utility.yul\":20362:20365   */\n      dup4\n        /* \"#utility.yul\":20303:20370   */\n      tag_255\n      jump\t// in\n    tag_539:\n        /* \"#utility.yul\":20296:20370   */\n      swap2\n      pop\n        /* \"#utility.yul\":20379:20472   */\n      tag_540\n        /* \"#utility.yul\":20468:20471   */\n      dup3\n        /* \"#utility.yul\":20379:20472   */\n      tag_311\n      jump\t// in\n    tag_540:\n        /* \"#utility.yul\":20497:20499   */\n      0x20\n        /* \"#utility.yul\":20492:20495   */\n      dup3\n        /* \"#utility.yul\":20488:20500   */\n      add\n        /* \"#utility.yul\":20481:20500   */\n      swap1\n      pop\n        /* \"#utility.yul\":20140:20506   */\n      swap2\n      swap1\n      pop\n      jump\t// out\n        /* \"#utility.yul\":20512:20931   */\n    tag_200:\n        /* \"#utility.yul\":20678:20682   */\n      0x00\n        /* \"#utility.yul\":20716:20718   */\n      0x20\n        /* \"#utility.yul\":20705:20714   */\n      dup3\n        /* \"#utility.yul\":20701:20719   */\n      add\n        /* \"#utility.yul\":20693:20719   */\n      swap1\n      pop\n        /* \"#utility.yul\":20765:20774   */\n      dup2\n        /* \"#utility.yul\":20759:20763   */\n      dup2\n        /* \"#utility.yul\":20755:20775   */\n      sub\n        /* \"#utility.yul\":20751:20752   */\n      0x00\n        /* \"#utility.yul\":20740:20749   */\n      dup4\n        /* \"#utility.yul\":20736:20753   */\n      add\n        /* \"#utility.yul\":20729:20776   */\n      mstore\n        /* \"#utility.yul\":20793:20924   */\n      tag_542\n        /* \"#utility.yul\":20919:20923   */\n      dup2\n        /* \"#utility.yul\":20793:20924   */\n      tag_312\n      jump\t// in\n    tag_542:\n        /* \"#utility.yul\":20785:20924   */\n      swap1\n      pop\n        /* \"#utility.yul\":20512:20931   */\n      swap2\n      swap1\n      pop\n      jump\t// out\n        /* \"#utility.yul\":20937:21117   */\n    tag_313:\n        /* \"#utility.yul\":21077:21109   */\n      0x596f757220496e737572616e6365206973207374696c6c206163746976650000\n        /* \"#utility.yul\":21073:21074   */\n      0x00\n        /* \"#utility.yul\":21065:21071   */\n      dup3\n        /* \"#utility.yul\":21061:21075   */\n      add\n        /* \"#utility.yul\":21054:21110   */\n      mstore\n        /* \"#utility.yul\":20937:21117   */\n      pop\n      jump\t// out\n        /* \"#utility.yul\":21123:21489   */\n    tag_314:\n        /* \"#utility.yul\":21265:21268   */\n      0x00\n        /* \"#utility.yul\":21286:21353   */\n      tag_545\n        /* \"#utility.yul\":21350:21352   */\n      0x1e\n        /* \"#utility.yul\":21345:21348   */\n      dup4\n        /* \"#utility.yul\":21286:21353   */\n      tag_255\n      jump\t// in\n    tag_545:\n        /* \"#utility.yul\":21279:21353   */\n      swap2\n      pop\n        /* \"#utility.yul\":21362:21455   */\n      tag_546\n        /* \"#utility.yul\":21451:21454   */\n      dup3\n        /* \"#utility.yul\":21362:21455   */\n      tag_313\n      jump\t// in\n    tag_546:\n        /* \"#utility.yul\":21480:21482   */\n      0x20\n        /* \"#utility.yul\":21475:21478   */\n      dup3\n        /* \"#utility.yul\":21471:21483   */\n      add\n        /* \"#utility.yul\":21464:21483   */\n      swap1\n      pop\n        /* \"#utility.yul\":21123:21489   */\n      swap2\n      swap1\n      pop\n      jump\t// out\n        /* \"#utility.yul\":21495:21914   */\n    tag_203:\n        /* \"#utility.yul\":21661:21665   */\n      0x00\n        /* \"#utility.yul\":21699:21701   */\n      0x20\n        /* \"#utility.yul\":21688:21697   */\n      dup3\n        /* \"#utility.yul\":21684:21702   */\n      add\n        /* \"#utility.yul\":21676:21702   */\n      swap1\n      pop\n        /* \"#utility.yul\":21748:21757   */\n      dup2\n        /* \"#utility.yul\":21742:21746   */\n      dup2\n        /* \"#utility.yul\":21738:21758   */\n      sub\n        /* \"#utility.yul\":21734:21735   */\n      0x00\n        /* \"#utility.yul\":21723:21732   */\n      dup4\n        /* \"#utility.yul\":21719:21736   */\n      add\n        /* \"#utility.yul\":21712:21759   */\n      mstore\n        /* \"#utility.yul\":21776:21907   */\n      tag_548\n        /* \"#utility.yul\":21902:21906   */\n      dup2\n        /* \"#utility.yul\":21776:21907   */\n      tag_314\n      jump\t// in\n    tag_548:\n        /* \"#utility.yul\":21768:21907   */\n      swap1\n      pop\n        /* \"#utility.yul\":21495:21914   */\n      swap2\n      swap1\n      pop\n      jump\t// out\n        /* \"#utility.yul\":21920:22145   */\n    tag_315:\n        /* \"#utility.yul\":22060:22094   */\n      0x4f776e61626c653a206e6577206f776e657220697320746865207a65726f2061\n        /* \"#utility.yul\":22056:22057   */\n      0x00\n        /* \"#utility.yul\":22048:22054   */\n      dup3\n        /* \"#utility.yul\":22044:22058   */\n      add\n        /* \"#utility.yul\":22037:22095   */\n      mstore\n        /* \"#utility.yul\":22129:22137   */\n      0x6464726573730000000000000000000000000000000000000000000000000000\n        /* \"#utility.yul\":22124:22126   */\n      0x20\n        /* \"#utility.yul\":22116:22122   */\n      dup3\n        /* \"#utility.yul\":22112:22127   */\n      add\n        /* \"#utility.yul\":22105:22138   */\n      mstore\n        /* \"#utility.yul\":21920:22145   */\n      pop\n      jump\t// out\n        /* \"#utility.yul\":22151:22517   */\n    tag_316:\n        /* \"#utility.yul\":22293:22296   */\n      0x00\n        /* \"#utility.yul\":22314:22381   */\n      tag_551\n        /* \"#utility.yul\":22378:22380   */\n      0x26\n        /* \"#utility.yul\":22373:22376   */\n      dup4\n        /* \"#utility.yul\":22314:22381   */\n      tag_255\n      jump\t// in\n    tag_551:\n        /* \"#utility.yul\":22307:22381   */\n      swap2\n      pop\n        /* \"#utility.yul\":22390:22483   */\n      tag_552\n        /* \"#utility.yul\":22479:22482   */\n      dup3\n        /* \"#utility.yul\":22390:22483   */\n      tag_315\n      jump\t// in\n    tag_552:\n        /* \"#utility.yul\":22508:22510   */\n      0x40\n        /* \"#utility.yul\":22503:22506   */\n      dup3\n        /* \"#utility.yul\":22499:22511   */\n      add\n        /* \"#utility.yul\":22492:22511   */\n      swap1\n      pop\n        /* \"#utility.yul\":22151:22517   */\n      swap2\n      swap1\n      pop\n      jump\t// out\n        /* \"#utility.yul\":22523:22942   */\n    tag_212:\n        /* \"#utility.yul\":22689:22693   */\n      0x00\n        /* \"#utility.yul\":22727:22729   */\n      0x20\n        /* \"#utility.yul\":22716:22725   */\n      dup3\n        /* \"#utility.yul\":22712:22730   */\n      add\n        /* \"#utility.yul\":22704:22730   */\n      swap1\n      pop\n        /* \"#utility.yul\":22776:22785   */\n      dup2\n        /* \"#utility.yul\":22770:22774   */\n      dup2\n        /* \"#utility.yul\":22766:22786   */\n      sub\n        /* \"#utility.yul\":22762:22763   */\n      0x00\n        /* \"#utility.yul\":22751:22760   */\n      dup4\n        /* \"#utility.yul\":22747:22764   */\n      add\n        /* \"#utility.yul\":22740:22787   */\n      mstore\n        /* \"#utility.yul\":22804:22935   */\n      tag_554\n        /* \"#utility.yul\":22930:22934   */\n      dup2\n        /* \"#utility.yul\":22804:22935   */\n      tag_316\n      jump\t// in\n    tag_554:\n        /* \"#utility.yul\":22796:22935   */\n      swap1\n      pop\n        /* \"#utility.yul\":22523:22942   */\n      swap2\n      swap1\n      pop\n      jump\t// out\n        /* \"#utility.yul\":22948:23130   */\n    tag_317:\n        /* \"#utility.yul\":23088:23122   */\n      0x4f776e61626c653a2063616c6c6572206973206e6f7420746865206f776e6572\n        /* \"#utility.yul\":23084:23085   */\n      0x00\n        /* \"#utility.yul\":23076:23082   */\n      dup3\n        /* \"#utility.yul\":23072:23086   */\n      add\n        /* \"#utility.yul\":23065:23123   */\n      mstore\n        /* \"#utility.yul\":22948:23130   */\n      pop\n      jump\t// out\n        /* \"#utility.yul\":23136:23502   */\n    tag_318:\n        /* \"#utility.yul\":23278:23281   */\n      0x00\n        /* \"#utility.yul\":23299:23366   */\n      tag_557\n        /* \"#utility.yul\":23363:23365   */\n      0x20\n        /* \"#utility.yul\":23358:23361   */\n      dup4\n        /* \"#utility.yul\":23299:23366   */\n      tag_255\n      jump\t// in\n    tag_557:\n        /* \"#utility.yul\":23292:23366   */\n      swap2\n      pop\n        /* \"#utility.yul\":23375:23468   */\n      tag_558\n        /* \"#utility.yul\":23464:23467   */\n      dup3\n        /* \"#utility.yul\":23375:23468   */\n      tag_317\n      jump\t// in\n    tag_558:\n        /* \"#utility.yul\":23493:23495   */\n      0x20\n        /* \"#utility.yul\":23488:23491   */\n      dup3\n        /* \"#utility.yul\":23484:23496   */\n      add\n        /* \"#utility.yul\":23477:23496   */\n      swap1\n      pop\n        /* \"#utility.yul\":23136:23502   */\n      swap2\n      swap1\n      pop\n      jump\t// out\n        /* \"#utility.yul\":23508:23927   */\n    tag_219:\n        /* \"#utility.yul\":23674:23678   */\n      0x00\n        /* \"#utility.yul\":23712:23714   */\n      0x20\n        /* \"#utility.yul\":23701:23710   */\n      dup3\n        /* \"#utility.yul\":23697:23715   */\n      add\n        /* \"#utility.yul\":23689:23715   */\n      swap1\n      pop\n        /* \"#utility.yul\":23761:23770   */\n      dup2\n        /* \"#utility.yul\":23755:23759   */\n      dup2\n        /* \"#utility.yul\":23751:23771   */\n      sub\n        /* \"#utility.yul\":23747:23748   */\n      0x00\n        /* \"#utility.yul\":23736:23745   */\n      dup4\n        /* \"#utility.yul\":23732:23749   */\n      add\n        /* \"#utility.yul\":23725:23772   */\n      mstore\n        /* \"#utility.yul\":23789:23920   */\n      tag_560\n        /* \"#utility.yul\":23915:23919   */\n      dup2\n        /* \"#utility.yul\":23789:23920   */\n      tag_318\n      jump\t// in\n    tag_560:\n        /* \"#utility.yul\":23781:23920   */\n      swap1\n      pop\n        /* \"#utility.yul\":23508:23927   */\n      swap2\n      swap1\n      pop\n      jump\t// out\n        /* \"#utility.yul\":23933:24156   */\n    tag_319:\n        /* \"#utility.yul\":24073:24107   */\n      0x45524332303a20617070726f76652066726f6d20746865207a65726f20616464\n        /* \"#utility.yul\":24069:24070   */\n      0x00\n        /* \"#utility.yul\":24061:24067   */\n      dup3\n        /* \"#utility.yul\":24057:24071   */\n      add\n        /* \"#utility.yul\":24050:24108   */\n      mstore\n        /* \"#utility.yul\":24142:24148   */\n      0x7265737300000000000000000000000000000000000000000000000000000000\n        /* \"#utility.yul\":24137:24139   */\n      0x20\n        /* \"#utility.yul\":24129:24135   */\n      dup3\n        /* \"#utility.yul\":24125:24140   */\n      add\n        /* \"#utility.yul\":24118:24149   */\n      mstore\n        /* \"#utility.yul\":23933:24156   */\n      pop\n      jump\t// out\n        /* \"#utility.yul\":24162:24528   */\n    tag_320:\n        /* \"#utility.yul\":24304:24307   */\n      0x00\n        /* \"#utility.yul\":24325:24392   */\n      tag_563\n        /* \"#utility.yul\":24389:24391   */\n      0x24\n        /* \"#utility.yul\":24384:24387   */\n      dup4\n        /* \"#utility.yul\":24325:24392   */\n      tag_255\n      jump\t// in\n    tag_563:\n        /* \"#utility.yul\":24318:24392   */\n      swap2\n      pop\n        /* \"#utility.yul\":24401:24494   */\n      tag_564\n        /* \"#utility.yul\":24490:24493   */\n      dup3\n        /* \"#utility.yul\":24401:24494   */\n      tag_319\n      jump\t// in\n    tag_564:\n        /* \"#utility.yul\":24519:24521   */\n      0x40\n        /* \"#utility.yul\":24514:24517   */\n      dup3\n        /* \"#utility.yul\":24510:24522   */\n      add\n        /* \"#utility.yul\":24503:24522   */\n      swap1\n      pop\n        /* \"#utility.yul\":24162:24528   */\n      swap2\n      swap1\n      pop\n      jump\t// out\n        /* \"#utility.yul\":24534:24953   */\n    tag_224:\n        /* \"#utility.yul\":24700:24704   */\n      0x00\n        /* \"#utility.yul\":24738:24740   */\n      0x20\n        /* \"#utility.yul\":24727:24736   */\n      dup3\n        /* \"#utility.yul\":24723:24741   */\n      add\n        /* \"#utility.yul\":24715:24741   */\n      swap1\n      pop\n        /* \"#utility.yul\":24787:24796   */\n      dup2\n        /* \"#utility.yul\":24781:24785   */\n      dup2\n        /* \"#utility.yul\":24777:24797   */\n      sub\n        /* \"#utility.yul\":24773:24774   */\n      0x00\n        /* \"#utility.yul\":24762:24771   */\n      dup4\n        /* \"#utility.yul\":24758:24775   */\n      add\n        /* \"#utility.yul\":24751:24798   */\n      mstore\n        /* \"#utility.yul\":24815:24946   */\n      tag_566\n        /* \"#utility.yul\":24941:24945   */\n      dup2\n        /* \"#utility.yul\":24815:24946   */\n      tag_320\n      jump\t// in\n    tag_566:\n        /* \"#utility.yul\":24807:24946   */\n      swap1\n      pop\n        /* \"#utility.yul\":24534:24953   */\n      swap2\n      swap1\n      pop\n      jump\t// out\n        /* \"#utility.yul\":24959:25180   */\n    tag_321:\n        /* \"#utility.yul\":25099:25133   */\n      0x45524332303a20617070726f766520746f20746865207a65726f206164647265\n        /* \"#utility.yul\":25095:25096   */\n      0x00\n        /* \"#utility.yul\":25087:25093   */\n      dup3\n        /* \"#utility.yul\":25083:25097   */\n      add\n        /* \"#utility.yul\":25076:25134   */\n      mstore\n        /* \"#utility.yul\":25168:25172   */\n      0x7373000000000000000000000000000000000000000000000000000000000000\n        /* \"#utility.yul\":25163:25165   */\n      0x20\n        /* \"#utility.yul\":25155:25161   */\n      dup3\n        /* \"#utility.yul\":25151:25166   */\n      add\n        /* \"#utility.yul\":25144:25173   */\n      mstore\n        /* \"#utility.yul\":24959:25180   */\n      pop\n      jump\t// out\n        /* \"#utility.yul\":25186:25552   */\n    tag_322:\n        /* \"#utility.yul\":25328:25331   */\n      0x00\n        /* \"#utility.yul\":25349:25416   */\n      tag_569\n        /* \"#utility.yul\":25413:25415   */\n      0x22\n        /* \"#utility.yul\":25408:25411   */\n      dup4\n        /* \"#utility.yul\":25349:25416   */\n      tag_255\n      jump\t// in\n    tag_569:\n        /* \"#utility.yul\":25342:25416   */\n      swap2\n      pop\n        /* \"#utility.yul\":25425:25518   */\n      tag_570\n        /* \"#utility.yul\":25514:25517   */\n      dup3\n        /* \"#utility.yul\":25425:25518   */\n      tag_321\n      jump\t// in\n    tag_570:\n        /* \"#utility.yul\":25543:25545   */\n      0x40\n        /* \"#utility.yul\":25538:25541   */\n      dup3\n        /* \"#utility.yul\":25534:25546   */\n      add\n        /* \"#utility.yul\":25527:25546   */\n      swap1\n      pop\n        /* \"#utility.yul\":25186:25552   */\n      swap2\n      swap1\n      pop\n      jump\t// out\n        /* \"#utility.yul\":25558:25977   */\n    tag_227:\n        /* \"#utility.yul\":25724:25728   */\n      0x00\n        /* \"#utility.yul\":25762:25764   */\n      0x20\n        /* \"#utility.yul\":25751:25760   */\n      dup3\n        /* \"#utility.yul\":25747:25765   */\n      add\n        /* \"#utility.yul\":25739:25765   */\n      swap1\n      pop\n        /* \"#utility.yul\":25811:25820   */\n      dup2\n        /* \"#utility.yul\":25805:25809   */\n      dup2\n        /* \"#utility.yul\":25801:25821   */\n      sub\n        /* \"#utility.yul\":25797:25798   */\n      0x00\n        /* \"#utility.yul\":25786:25795   */\n      dup4\n        /* \"#utility.yul\":25782:25799   */\n      add\n        /* \"#utility.yul\":25775:25822   */\n      mstore\n        /* \"#utility.yul\":25839:25970   */\n      tag_572\n        /* \"#utility.yul\":25965:25969   */\n      dup2\n        /* \"#utility.yul\":25839:25970   */\n      tag_322\n      jump\t// in\n    tag_572:\n        /* \"#utility.yul\":25831:25970   */\n      swap1\n      pop\n        /* \"#utility.yul\":25558:25977   */\n      swap2\n      swap1\n      pop\n      jump\t// out\n        /* \"#utility.yul\":25983:26162   */\n    tag_323:\n        /* \"#utility.yul\":26123:26154   */\n      0x45524332303a20696e73756666696369656e7420616c6c6f77616e6365000000\n        /* \"#utility.yul\":26119:26120   */\n      0x00\n        /* \"#utility.yul\":26111:26117   */\n      dup3\n        /* \"#utility.yul\":26107:26121   */\n      add\n        /* \"#utility.yul\":26100:26155   */\n      mstore\n        /* \"#utility.yul\":25983:26162   */\n      pop\n      jump\t// out\n        /* \"#utility.yul\":26168:26534   */\n    tag_324:\n        /* \"#utility.yul\":26310:26313   */\n      0x00\n        /* \"#utility.yul\":26331:26398   */\n      tag_575\n        /* \"#utility.yul\":26395:26397   */\n      0x1d\n        /* \"#utility.yul\":26390:26393   */\n      dup4\n        /* \"#utility.yul\":26331:26398   */\n      tag_255\n      jump\t// in\n    tag_575:\n        /* \"#utility.yul\":26324:26398   */\n      swap2\n      pop\n        /* \"#utility.yul\":26407:26500   */\n      tag_576\n        /* \"#utility.yul\":26496:26499   */\n      dup3\n        /* \"#utility.yul\":26407:26500   */\n      tag_323\n      jump\t// in\n    tag_576:\n        /* \"#utility.yul\":26525:26527   */\n      0x20\n        /* \"#utility.yul\":26520:26523   */\n      dup3\n        /* \"#utility.yul\":26516:26528   */\n      add\n        /* \"#utility.yul\":26509:26528   */\n      swap1\n      pop\n        /* \"#utility.yul\":26168:26534   */\n      swap2\n      swap1\n      pop\n      jump\t// out\n        /* \"#utility.yul\":26540:26959   */\n    tag_234:\n        /* \"#utility.yul\":26706:26710   */\n      0x00\n        /* \"#utility.yul\":26744:26746   */\n      0x20\n        /* \"#utility.yul\":26733:26742   */\n      dup3\n        /* \"#utility.yul\":26729:26747   */\n      add\n        /* \"#utility.yul\":26721:26747   */\n      swap1\n      pop\n        /* \"#utility.yul\":26793:26802   */\n      dup2\n        /* \"#utility.yul\":26787:26791   */\n      dup2\n        /* \"#utility.yul\":26783:26803   */\n      sub\n        /* \"#utility.yul\":26779:26780   */\n      0x00\n        /* \"#utility.yul\":26768:26777   */\n      dup4\n        /* \"#utility.yul\":26764:26781   */\n      add\n        /* \"#utility.yul\":26757:26804   */\n      mstore\n        /* \"#utility.yul\":26821:26952   */\n      tag_578\n        /* \"#utility.yul\":26947:26951   */\n      dup2\n        /* \"#utility.yul\":26821:26952   */\n      tag_324\n      jump\t// in\n    tag_578:\n        /* \"#utility.yul\":26813:26952   */\n      swap1\n      pop\n        /* \"#utility.yul\":26540:26959   */\n      swap2\n      swap1\n      pop\n      jump\t// out\n        /* \"#utility.yul\":26965:27189   */\n    tag_325:\n        /* \"#utility.yul\":27105:27139   */\n      0x45524332303a207472616e736665722066726f6d20746865207a65726f206164\n        /* \"#utility.yul\":27101:27102   */\n      0x00\n        /* \"#utility.yul\":27093:27099   */\n      dup3\n        /* \"#utility.yul\":27089:27103   */\n      add\n        /* \"#utility.yul\":27082:27140   */\n      mstore\n        /* \"#utility.yul\":27174:27181   */\n      0x6472657373000000000000000000000000000000000000000000000000000000\n        /* \"#utility.yul\":27169:27171   */\n      0x20\n        /* \"#utility.yul\":27161:27167   */\n      dup3\n        /* \"#utility.yul\":27157:27172   */\n      add\n        /* \"#utility.yul\":27150:27182   */\n      mstore\n        /* \"#utility.yul\":26965:27189   */\n      pop\n      jump\t// out\n        /* \"#utility.yul\":27195:27561   */\n    tag_326:\n        /* \"#utility.yul\":27337:27340   */\n      0x00\n        /* \"#utility.yul\":27358:27425   */\n      tag_581\n        /* \"#utility.yul\":27422:27424   */\n      0x25\n        /* \"#utility.yul\":27417:27420   */\n      dup4\n        /* \"#utility.yul\":27358:27425   */\n      tag_255\n      jump\t// in\n    tag_581:\n        /* \"#utility.yul\":27351:27425   */\n      swap2\n      pop\n        /* \"#utility.yul\":27434:27527   */\n      tag_582\n        /* \"#utility.yul\":27523:27526   */\n      dup3\n        /* \"#utility.yul\":27434:27527   */\n      tag_325\n      jump\t// in\n    tag_582:\n        /* \"#utility.yul\":27552:27554   */\n      0x40\n        /* \"#utility.yul\":27547:27550   */\n      dup3\n        /* \"#utility.yul\":27543:27555   */\n      add\n        /* \"#utility.yul\":27536:27555   */\n      swap1\n      pop\n        /* \"#utility.yul\":27195:27561   */\n      swap2\n      swap1\n      pop\n      jump\t// out\n        /* \"#utility.yul\":27567:27986   */\n    tag_239:\n        /* \"#utility.yul\":27733:27737   */\n      0x00\n        /* \"#utility.yul\":27771:27773   */\n      0x20\n        /* \"#utility.yul\":27760:27769   */\n      dup3\n        /* \"#utility.yul\":27756:27774   */\n      add\n        /* \"#utility.yul\":27748:27774   */\n      swap1\n      pop\n        /* \"#utility.yul\":27820:27829   */\n      dup2\n        /* \"#utility.yul\":27814:27818   */\n      dup2\n        /* \"#utility.yul\":27810:27830   */\n      sub\n        /* \"#utility.yul\":27806:27807   */\n      0x00\n        /* \"#utility.yul\":27795:27804   */\n      dup4\n        /* \"#utility.yul\":27791:27808   */\n      add\n        /* \"#utility.yul\":27784:27831   */\n      mstore\n        /* \"#utility.yul\":27848:27979   */\n      tag_584\n        /* \"#utility.yul\":27974:27978   */\n      dup2\n        /* \"#utility.yul\":27848:27979   */\n      tag_326\n      jump\t// in\n    tag_584:\n        /* \"#utility.yul\":27840:27979   */\n      swap1\n      pop\n        /* \"#utility.yul\":27567:27986   */\n      swap2\n      swap1\n      pop\n      jump\t// out\n        /* \"#utility.yul\":27992:28214   */\n    tag_327:\n        /* \"#utility.yul\":28132:28166   */\n      0x45524332303a207472616e7366657220746f20746865207a65726f2061646472\n        /* \"#utility.yul\":28128:28129   */\n      0x00\n        /* \"#utility.yul\":28120:28126   */\n      dup3\n        /* \"#utility.yul\":28116:28130   */\n      add\n        /* \"#utility.yul\":28109:28167   */\n      mstore\n        /* \"#utility.yul\":28201:28206   */\n      0x6573730000000000000000000000000000000000000000000000000000000000\n        /* \"#utility.yul\":28196:28198   */\n      0x20\n        /* \"#utility.yul\":28188:28194   */\n      dup3\n        /* \"#utility.yul\":28184:28199   */\n      add\n        /* \"#utility.yul\":28177:28207   */\n      mstore\n        /* \"#utility.yul\":27992:28214   */\n      pop\n      jump\t// out\n        /* \"#utility.yul\":28220:28586   */\n    tag_328:\n        /* \"#utility.yul\":28362:28365   */\n      0x00\n        /* \"#utility.yul\":28383:28450   */\n      tag_587\n        /* \"#utility.yul\":28447:28449   */\n      0x23\n        /* \"#utility.yul\":28442:28445   */\n      dup4\n        /* \"#utility.yul\":28383:28450   */\n      tag_255\n      jump\t// in\n    tag_587:\n        /* \"#utility.yul\":28376:28450   */\n      swap2\n      pop\n        /* \"#utility.yul\":28459:28552   */\n      tag_588\n        /* \"#utility.yul\":28548:28551   */\n      dup3\n        /* \"#utility.yul\":28459:28552   */\n      tag_327\n      jump\t// in\n    tag_588:\n        /* \"#utility.yul\":28577:28579   */\n      0x40\n        /* \"#utility.yul\":28572:28575   */\n      dup3\n        /* \"#utility.yul\":28568:28580   */\n      add\n        /* \"#utility.yul\":28561:28580   */\n      swap1\n      pop\n        /* \"#utility.yul\":28220:28586   */\n      swap2\n      swap1\n      pop\n      jump\t// out\n        /* \"#utility.yul\":28592:29011   */\n    tag_242:\n        /* \"#utility.yul\":28758:28762   */\n      0x00\n        /* \"#utility.yul\":28796:28798   */\n      0x20\n        /* \"#utility.yul\":28785:28794   */\n      dup3\n        /* \"#utility.yul\":28781:28799   */\n      add\n        /* \"#utility.yul\":28773:28799   */\n      swap1\n      pop\n        /* \"#utility.yul\":28845:28854   */\n      dup2\n        /* \"#utility.yul\":28839:28843   */\n      dup2\n        /* \"#utility.yul\":28835:28855   */\n      sub\n        /* \"#utility.yul\":28831:28832   */\n      0x00\n        /* \"#utility.yul\":28820:28829   */\n      dup4\n        /* \"#utility.yul\":28816:28833   */\n      add\n        /* \"#utility.yul\":28809:28856   */\n      mstore\n        /* \"#utility.yul\":28873:29004   */\n      tag_590\n        /* \"#utility.yul\":28999:29003   */\n      dup2\n        /* \"#utility.yul\":28873:29004   */\n      tag_328\n      jump\t// in\n    tag_590:\n        /* \"#utility.yul\":28865:29004   */\n      swap1\n      pop\n        /* \"#utility.yul\":28592:29011   */\n      swap2\n      swap1\n      pop\n      jump\t// out\n        /* \"#utility.yul\":29017:29242   */\n    tag_329:\n        /* \"#utility.yul\":29157:29191   */\n      0x45524332303a207472616e7366657220616d6f756e7420657863656564732062\n        /* \"#utility.yul\":29153:29154   */\n      0x00\n        /* \"#utility.yul\":29145:29151   */\n      dup3\n        /* \"#utility.yul\":29141:29155   */\n      add\n        /* \"#utility.yul\":29134:29192   */\n      mstore\n        /* \"#utility.yul\":29226:29234   */\n      0x616c616e63650000000000000000000000000000000000000000000000000000\n        /* \"#utility.yul\":29221:29223   */\n      0x20\n        /* \"#utility.yul\":29213:29219   */\n      dup3\n        /* \"#utility.yul\":29209:29224   */\n      add\n        /* \"#utility.yul\":29202:29235   */\n      mstore\n        /* \"#utility.yul\":29017:29242   */\n      pop\n      jump\t// out\n        /* \"#utility.yul\":29248:29614   */\n    tag_330:\n        /* \"#utility.yul\":29390:29393   */\n      0x00\n        /* \"#utility.yul\":29411:29478   */\n      tag_593\n        /* \"#utility.yul\":29475:29477   */\n      0x26\n        /* \"#utility.yul\":29470:29473   */\n      dup4\n        /* \"#utility.yul\":29411:29478   */\n      tag_255\n      jump\t// in\n    tag_593:\n        /* \"#utility.yul\":29404:29478   */\n      swap2\n      pop\n        /* \"#utility.yul\":29487:29580   */\n      tag_594\n        /* \"#utility.yul\":29576:29579   */\n      dup3\n        /* \"#utility.yul\":29487:29580   */\n      tag_329\n      jump\t// in\n    tag_594:\n        /* \"#utility.yul\":29605:29607   */\n      0x40\n        /* \"#utility.yul\":29600:29603   */\n      dup3\n        /* \"#utility.yul\":29596:29608   */\n      add\n        /* \"#utility.yul\":29589:29608   */\n      swap1\n      pop\n        /* \"#utility.yul\":29248:29614   */\n      swap2\n      swap1\n      pop\n      jump\t// out\n        /* \"#utility.yul\":29620:30039   */\n    tag_247:\n        /* \"#utility.yul\":29786:29790   */\n      0x00\n        /* \"#utility.yul\":29824:29826   */\n      0x20\n        /* \"#utility.yul\":29813:29822   */\n      dup3\n        /* \"#utility.yul\":29809:29827   */\n      add\n        /* \"#utility.yul\":29801:29827   */\n      swap1\n      pop\n        /* \"#utility.yul\":29873:29882   */\n      dup2\n        /* \"#utility.yul\":29867:29871   */\n      dup2\n        /* \"#utility.yul\":29863:29883   */\n      sub\n        /* \"#utility.yul\":29859:29860   */\n      0x00\n        /* \"#utility.yul\":29848:29857   */\n      dup4\n        /* \"#utility.yul\":29844:29861   */\n      add\n        /* \"#utility.yul\":29837:29884   */\n      mstore\n        /* \"#utility.yul\":29901:30032   */\n      tag_596\n        /* \"#utility.yul\":30027:30031   */\n      dup2\n        /* \"#utility.yul\":29901:30032   */\n      tag_330\n      jump\t// in\n    tag_596:\n        /* \"#utility.yul\":29893:30032   */\n      swap1\n      pop\n        /* \"#utility.yul\":29620:30039   */\n      swap2\n      swap1\n      pop\n      jump\t// out\n\n    auxdata: 0xa26469706673582212204e7a530f61c83208c71eca1786f0cee64064fc06f74945669c534260d4de345164736f6c63430008130033\n}\n",
				"bytecode": {
					"linkReferences": {},
					"object": "608060405273d7b5b1e52369f1402ba350d7f5dd3d247717c157600660006101000a81548173ffffffffffffffffffffffffffffffffffffffff021916908373ffffffffffffffffffffffffffffffffffffffff1602179055503480156200006657600080fd5b506040518060400160405280601281526020017f4d7568616e6e616420496e737572616e636500000000000000000000000000008152506040518060400160405280600381526020017f4d495400000000000000000000000000000000000000000000000000000000008152508160039081620000e4919062000467565b508060049081620000f6919062000467565b505050620001196200010d6200011f60201b60201c565b6200012760201b60201c565b6200054e565b600033905090565b6000600560009054906101000a900473ffffffffffffffffffffffffffffffffffffffff16905081600560006101000a81548173ffffffffffffffffffffffffffffffffffffffff021916908373ffffffffffffffffffffffffffffffffffffffff1602179055508173ffffffffffffffffffffffffffffffffffffffff168173ffffffffffffffffffffffffffffffffffffffff167f8be0079c531659141344cd1fd0a4f28419497f9722a3daafe3b4186f6b6457e060405160405180910390a35050565b600081519050919050565b7f4e487b7100000000000000000000000000000000000000000000000000000000600052604160045260246000fd5b7f4e487b7100000000000000000000000000000000000000000000000000000000600052602260045260246000fd5b600060028204905060018216806200026f57607f821691505b60208210810362000285576200028462000227565b5b50919050565b60008190508160005260206000209050919050565b60006020601f8301049050919050565b600082821b905092915050565b600060088302620002ef7fffffffffffffffffffffffffffffffffffffffffffffffffffffffffffffffff82620002b0565b620002fb8683620002b0565b95508019841693508086168417925050509392505050565b6000819050919050565b6000819050919050565b600062000348620003426200033c8462000313565b6200031d565b62000313565b9050919050565b6000819050919050565b620003648362000327565b6200037c62000373826200034f565b848454620002bd565b825550505050565b600090565b6200039362000384565b620003a081848462000359565b505050565b5b81811015620003c857620003bc60008262000389565b600181019050620003a6565b5050565b601f8211156200041757620003e1816200028b565b620003ec84620002a0565b81016020851015620003fc578190505b620004146200040b85620002a0565b830182620003a5565b50505b505050565b600082821c905092915050565b60006200043c600019846008026200041c565b1980831691505092915050565b600062000457838362000429565b9150826002028217905092915050565b6200047282620001ed565b67ffffffffffffffff8111156200048e576200048d620001f8565b5b6200049a825462000256565b620004a7828285620003cc565b600060209050601f831160018114620004df5760008415620004ca578287015190505b620004d6858262000449565b86555062000546565b601f198416620004ef866200028b565b60005b828110156200051957848901518255600182019150602085019450602081019050620004f2565b8683101562000539578489015162000535601f89168262000429565b8355505b6001600288020188555050505b505050505050565b612559806200055e6000396000f3fe60806040526004361061011f5760003560e01c8063715018a6116100a0578063a9059cbb11610064578063a9059cbb14610403578063caea5bc514610440578063dd62ed3e1461046b578063efd34f25146104a8578063f2fde38b146104b25761011f565b8063715018a6146103185780638da5cb5b1461032f57806395d89b411461035a578063a457c2d714610385578063a87430ba146103c25761011f565b80632401273c116100e75780632401273c1461021d5780632594221214610248578063313ce56714610273578063395093511461029e57806370a08231146102db5761011f565b806306fdde0314610124578063080646ec1461014f578063095ea7b31461017857806318160ddd146101b557806323b872dd146101e0575b600080fd5b34801561013057600080fd5b506101396104db565b60405161014691906115c6565b60405180910390f35b34801561015b57600080fd5b5061017660048036038101906101719190611767565b61056d565b005b34801561018457600080fd5b5061019f600480360381019061019a9190611821565b610827565b6040516101ac919061187c565b60405180910390f35b3480156101c157600080fd5b506101ca61084a565b6040516101d791906118a6565b60405180910390f35b3480156101ec57600080fd5b50610207600480360381019061020291906118c1565b610854565b604051610214919061187c565b60405180910390f35b34801561022957600080fd5b50610232610883565b60405161023f9190611923565b60405180910390f35b34801561025457600080fd5b5061025d6108a9565b60405161026a91906118a6565b60405180910390f35b34801561027f57600080fd5b506102886108af565b604051610295919061195a565b60405180910390f35b3480156102aa57600080fd5b506102c560048036038101906102c09190611821565b6108b8565b6040516102d2919061187c565b60405180910390f35b3480156102e757600080fd5b5061030260048036038101906102fd9190611975565b6108ef565b60405161030f91906118a6565b60405180910390f35b34801561032457600080fd5b5061032d610937565b005b34801561033b57600080fd5b5061034461094b565b6040516103519190611923565b60405180910390f35b34801561036657600080fd5b5061036f610975565b60405161037c91906115c6565b60405180910390f35b34801561039157600080fd5b506103ac60048036038101906103a79190611821565b610a07565b6040516103b9919061187c565b60405180910390f35b3480156103ce57600080fd5b506103e960048036038101906103e49190611975565b610a7e565b6040516103fa9594939291906119a2565b60405180910390f35b34801561040f57600080fd5b5061042a60048036038101906104259190611821565b610b5c565b604051610437919061187c565b60405180910390f35b34801561044c57600080fd5b50610455610b7f565b60405161046291906118a6565b60405180910390f35b34801561047757600080fd5b50610492600480360381019061048d91906119fc565b610b85565b60405161049f91906118a6565b60405180910390f35b6104b0610c0c565b005b3480156104be57600080fd5b506104d960048036038101906104d49190611975565b610e92565b005b6060600380546104ea90611a6b565b80601f016020809104026020016040519081016040528092919081815260200182805461051690611a6b565b80156105635780601f1061053857610100808354040283529160200191610563565b820191906000526020600020905b81548152906001019060200180831161054657829003601f168201915b5050505050905090565b610575610f15565b3373ffffffffffffffffffffffffffffffffffffffff16600960003373ffffffffffffffffffffffffffffffffffffffff1673ffffffffffffffffffffffffffffffffffffffff16815260200190815260200160002060010160009054906101000a900473ffffffffffffffffffffffffffffffffffffffff1673ffffffffffffffffffffffffffffffffffffffff1603610645576040517f08c379a000000000000000000000000000000000000000000000000000000000815260040161063c90611ae8565b60405180910390fd5b6012811015610689576040517f08c379a000000000000000000000000000000000000000000000000000000000815260040161068090611b54565b60405180910390fd5b6000600960003373ffffffffffffffffffffffffffffffffffffffff1673ffffffffffffffffffffffffffffffffffffffff16815260200190815260200160002060030154111561070f576040517f08c379a000000000000000000000000000000000000000000000000000000000815260040161070690611bc0565b60405180910390fd5b6040518060a001604052808381526020013373ffffffffffffffffffffffffffffffffffffffff168152602001828152602001600081526020016000815250600960003373ffffffffffffffffffffffffffffffffffffffff1673ffffffffffffffffffffffffffffffffffffffff16815260200190815260200160002060008201518160000190816107a29190611d8c565b5060208201518160010160006101000a81548173ffffffffffffffffffffffffffffffffffffffff021916908373ffffffffffffffffffffffffffffffffffffffff1602179055506040820151816002015560608201518160030155608082015181600401559050506008600081548092919061081e90611e8d565b91905055505050565b600080610832610f93565b905061083f818585610f9b565b600191505092915050565b6000600254905090565b60008061085f610f93565b905061086c858285611164565b6108778585856111f0565b60019150509392505050565b600660009054906101000a900473ffffffffffffffffffffffffffffffffffffffff1681565b60075481565b60006012905090565b6000806108c3610f93565b90506108e48185856108d58589610b85565b6108df9190611ed5565b610f9b565b600191505092915050565b60008060008373ffffffffffffffffffffffffffffffffffffffff1673ffffffffffffffffffffffffffffffffffffffff168152602001908152602001600020549050919050565b61093f610f15565b6109496000611466565b565b6000600560009054906101000a900473ffffffffffffffffffffffffffffffffffffffff16905090565b60606004805461098490611a6b565b80601f01602080910402602001604051908101604052809291908181526020018280546109b090611a6b565b80156109fd5780601f106109d2576101008083540402835291602001916109fd565b820191906000526020600020905b8154815290600101906020018083116109e057829003601f168201915b5050505050905090565b600080610a12610f93565b90506000610a208286610b85565b905083811015610a65576040517f08c379a0000000000000000000000000000000000000000000000000000000008152600401610a5c90611f7b565b60405180910390fd5b610a728286868403610f9b565b60019250505092915050565b6009602052806000526040600020600091509050806000018054610aa190611a6b565b80601f0160208091040260200160405190810160405280929190818152602001828054610acd90611a6b565b8015610b1a5780601f10610aef57610100808354040283529160200191610b1a565b820191906000526020600020905b815481529060010190602001808311610afd57829003601f168201915b5050505050908060010160009054906101000a900473ffffffffffffffffffffffffffffffffffffffff16908060020154908060030154908060040154905085565b600080610b67610f93565b9050610b748185856111f0565b600191505092915050565b60085481565b6000600160008473ffffffffffffffffffffffffffffffffffffffff1673ffffffffffffffffffffffffffffffffffffffff16815260200190815260200160002060008373ffffffffffffffffffffffffffffffffffffffff1673ffffffffffffffffffffffffffffffffffffffff16815260200190815260200160002054905092915050565b3373ffffffffffffffffffffffffffffffffffffffff16600960003373ffffffffffffffffffffffffffffffffffffffff1673ffffffffffffffffffffffffffffffffffffffff16815260200190815260200160002060010160009054906101000a900473ffffffffffffffffffffffffffffffffffffffff1673ffffffffffffffffffffffffffffffffffffffff1614610cdc576040517f08c379a0000000000000000000000000000000000000000000000000000000008152600401610cd390611fe7565b60405180910390fd5b6000610ce7336108ef565b1015610d28576040517f08c379a0000000000000000000000000000000000000000000000000000000008152600401610d1f90612053565b60405180910390fd5b42600960003373ffffffffffffffffffffffffffffffffffffffff1673ffffffffffffffffffffffffffffffffffffffff1681526020019081526020016000206004015410610dac576040517f08c379a0000000000000000000000000000000000000000000000000000000008152600401610da3906120bf565b60405180910390fd5b610dda33600660009054906101000a900473ffffffffffffffffffffffffffffffffffffffff166000610854565b5042600960003373ffffffffffffffffffffffffffffffffffffffff1673ffffffffffffffffffffffffffffffffffffffff168152602001908152602001600020600301819055506301e1853e42610e329190611ed5565b600960003373ffffffffffffffffffffffffffffffffffffffff1673ffffffffffffffffffffffffffffffffffffffff1681526020019081526020016000206004018190555060076000815480929190610e8b90611e8d565b9190505550565b610e9a610f15565b600073ffffffffffffffffffffffffffffffffffffffff168173ffffffffffffffffffffffffffffffffffffffff1603610f09576040517f08c379a0000000000000000000000000000000000000000000000000000000008152600401610f0090612151565b60405180910390fd5b610f1281611466565b50565b610f1d610f93565b73ffffffffffffffffffffffffffffffffffffffff16610f3b61094b565b73ffffffffffffffffffffffffffffffffffffffff1614610f91576040517f08c379a0000000000000000000000000000000000000000000000000000000008152600401610f88906121bd565b60405180910390fd5b565b600033905090565b600073ffffffffffffffffffffffffffffffffffffffff168373ffffffffffffffffffffffffffffffffffffffff160361100a576040517f08c379a00000000000000000000000000000000000000000000000000000000081526004016110019061224f565b60405180910390fd5b600073ffffffffffffffffffffffffffffffffffffffff168273ffffffffffffffffffffffffffffffffffffffff1603611079576040517f08c379a0000000000000000000000000000000000000000000000000000000008152600401611070906122e1565b60405180910390fd5b80600160008573ffffffffffffffffffffffffffffffffffffffff1673ffffffffffffffffffffffffffffffffffffffff16815260200190815260200160002060008473ffffffffffffffffffffffffffffffffffffffff1673ffffffffffffffffffffffffffffffffffffffff168152602001908152602001600020819055508173ffffffffffffffffffffffffffffffffffffffff168373ffffffffffffffffffffffffffffffffffffffff167f8c5be1e5ebec7d5bd14f71427d1e84f3dd0314c0f7b2291e5b200ac8c7c3b9258360405161115791906118a6565b60405180910390a3505050565b60006111708484610b85565b90507fffffffffffffffffffffffffffffffffffffffffffffffffffffffffffffffff81146111ea57818110156111dc576040517f08c379a00000000000000000000000000000000000000000000000000000000081526004016111d39061234d565b60405180910390fd5b6111e98484848403610f9b565b5b50505050565b600073ffffffffffffffffffffffffffffffffffffffff168373ffffffffffffffffffffffffffffffffffffffff160361125f576040517f08c379a0000000000000000000000000000000000000000000000000000000008152600401611256906123df565b60405180910390fd5b600073ffffffffffffffffffffffffffffffffffffffff168273ffffffffffffffffffffffffffffffffffffffff16036112ce576040517f08c379a00000000000000000000000000000000000000000000000000000000081526004016112c590612471565b60405180910390fd5b6112d983838361152c565b60008060008573ffffffffffffffffffffffffffffffffffffffff1673ffffffffffffffffffffffffffffffffffffffff1681526020019081526020016000205490508181101561135f576040517f08c379a000000000000000000000000000000000000000000000000000000000815260040161135690612503565b60405180910390fd5b8181036000808673ffffffffffffffffffffffffffffffffffffffff1673ffffffffffffffffffffffffffffffffffffffff16815260200190815260200160002081905550816000808573ffffffffffffffffffffffffffffffffffffffff1673ffffffffffffffffffffffffffffffffffffffff168152602001908152602001600020600082825401925050819055508273ffffffffffffffffffffffffffffffffffffffff168473ffffffffffffffffffffffffffffffffffffffff167fddf252ad1be2c89b69c2b068fc378daa952ba7f163c4a11628f55a4df523b3ef8460405161144d91906118a6565b60405180910390a3611460848484611531565b50505050565b6000600560009054906101000a900473ffffffffffffffffffffffffffffffffffffffff16905081600560006101000a81548173ffffffffffffffffffffffffffffffffffffffff021916908373ffffffffffffffffffffffffffffffffffffffff1602179055508173ffffffffffffffffffffffffffffffffffffffff168173ffffffffffffffffffffffffffffffffffffffff167f8be0079c531659141344cd1fd0a4f28419497f9722a3daafe3b4186f6b6457e060405160405180910390a35050565b505050565b505050565b600081519050919050565b600082825260208201905092915050565b60005b83811015611570578082015181840152602081019050611555565b60008484015250505050565b6000601f19601f8301169050919050565b600061159882611536565b6115a28185611541565b93506115b2818560208601611552565b6115bb8161157c565b840191505092915050565b600060208201905081810360008301526115e0818461158d565b905092915050565b6000604051905090565b600080fd5b600080fd5b600080fd5b600080fd5b7f4e487b7100000000000000000000000000000000000000000000000000000000600052604160045260246000fd5b61163e8261157c565b810181811067ffffffffffffffff8211171561165d5761165c611606565b5b80604052505050565b60006116706115e8565b905061167c8282611635565b919050565b600067ffffffffffffffff82111561169c5761169b611606565b5b6116a58261157c565b9050602081019050919050565b82818337600083830152505050565b60006116d46116cf84611681565b611666565b9050828152602081018484840111156116f0576116ef611601565b5b6116fb8482856116b2565b509392505050565b600082601f830112611718576117176115fc565b5b81356117288482602086016116c1565b91505092915050565b6000819050919050565b61174481611731565b811461174f57600080fd5b50565b6000813590506117618161173b565b92915050565b6000806040838503121561177e5761177d6115f2565b5b600083013567ffffffffffffffff81111561179c5761179b6115f7565b5b6117a885828601611703565b92505060206117b985828601611752565b9150509250929050565b600073ffffffffffffffffffffffffffffffffffffffff82169050919050565b60006117ee826117c3565b9050919050565b6117fe816117e3565b811461180957600080fd5b50565b60008135905061181b816117f5565b92915050565b60008060408385031215611838576118376115f2565b5b60006118468582860161180c565b925050602061185785828601611752565b9150509250929050565b60008115159050919050565b61187681611861565b82525050565b6000602082019050611891600083018461186d565b92915050565b6118a081611731565b82525050565b60006020820190506118bb6000830184611897565b92915050565b6000806000606084860312156118da576118d96115f2565b5b60006118e88682870161180c565b93505060206118f98682870161180c565b925050604061190a86828701611752565b9150509250925092565b61191d816117e3565b82525050565b60006020820190506119386000830184611914565b92915050565b600060ff82169050919050565b6119548161193e565b82525050565b600060208201905061196f600083018461194b565b92915050565b60006020828403121561198b5761198a6115f2565b5b60006119998482850161180c565b91505092915050565b600060a08201905081810360008301526119bc818861158d565b90506119cb6020830187611914565b6119d86040830186611897565b6119e56060830185611897565b6119f26080830184611897565b9695505050505050565b60008060408385031215611a1357611a126115f2565b5b6000611a218582860161180c565b9250506020611a328582860161180c565b9150509250929050565b7f4e487b7100000000000000000000000000000000000000000000000000000000600052602260045260246000fd5b60006002820490506001821680611a8357607f821691505b602082108103611a9657611a95611a3c565b5b50919050565b7f596f752061726520616c72656164792068617665200000000000000000000000600082015250565b6000611ad2601583611541565b9150611add82611a9c565b602082019050919050565b60006020820190508181036000830152611b0181611ac5565b9050919050565b7f596f752061726520756e64657220746865206167650000000000000000000000600082015250565b6000611b3e601583611541565b9150611b4982611b08565b602082019050919050565b60006020820190508181036000830152611b6d81611b31565b9050919050565b7f596f757220496e737572616e6365206973206578706972656400000000000000600082015250565b6000611baa601983611541565b9150611bb582611b74565b602082019050919050565b60006020820190508181036000830152611bd981611b9d565b9050919050565b60008190508160005260206000209050919050565b60006020601f8301049050919050565b600082821b905092915050565b600060088302611c427fffffffffffffffffffffffffffffffffffffffffffffffffffffffffffffffff82611c05565b611c4c8683611c05565b95508019841693508086168417925050509392505050565b6000819050919050565b6000611c89611c84611c7f84611731565b611c64565b611731565b9050919050565b6000819050919050565b611ca383611c6e565b611cb7611caf82611c90565b848454611c12565b825550505050565b600090565b611ccc611cbf565b611cd7818484611c9a565b505050565b5b81811015611cfb57611cf0600082611cc4565b600181019050611cdd565b5050565b601f821115611d4057611d1181611be0565b611d1a84611bf5565b81016020851015611d29578190505b611d3d611d3585611bf5565b830182611cdc565b50505b505050565b600082821c905092915050565b6000611d6360001984600802611d45565b1980831691505092915050565b6000611d7c8383611d52565b9150826002028217905092915050565b611d9582611536565b67ffffffffffffffff811115611dae57611dad611606565b5b611db88254611a6b565b611dc3828285611cff565b600060209050601f831160018114611df65760008415611de4578287015190505b611dee8582611d70565b865550611e56565b601f198416611e0486611be0565b60005b82811015611e2c57848901518255600182019150602085019450602081019050611e07565b86831015611e495784890151611e45601f891682611d52565b8355505b6001600288020188555050505b505050505050565b7f4e487b7100000000000000000000000000000000000000000000000000000000600052601160045260246000fd5b6000611e9882611731565b91507fffffffffffffffffffffffffffffffffffffffffffffffffffffffffffffffff8203611eca57611ec9611e5e565b5b600182019050919050565b6000611ee082611731565b9150611eeb83611731565b9250828201905080821115611f0357611f02611e5e565b5b92915050565b7f45524332303a2064656372656173656420616c6c6f77616e63652062656c6f7760008201527f207a65726f000000000000000000000000000000000000000000000000000000602082015250565b6000611f65602583611541565b9150611f7082611f09565b604082019050919050565b60006020820190508181036000830152611f9481611f58565b9050919050565b7f596f7520617265206e6f74206120637573746f6d657200000000000000000000600082015250565b6000611fd1601683611541565b9150611fdc82611f9b565b602082019050919050565b6000602082019050818103600083015261200081611fc4565b9050919050565b7f596f7520646f6e277420686176652062616c616e636520656e6f756768000000600082015250565b600061203d601d83611541565b915061204882612007565b602082019050919050565b6000602082019050818103600083015261206c81612030565b9050919050565b7f596f757220496e737572616e6365206973207374696c6c206163746976650000600082015250565b60006120a9601e83611541565b91506120b482612073565b602082019050919050565b600060208201905081810360008301526120d88161209c565b9050919050565b7f4f776e61626c653a206e6577206f776e657220697320746865207a65726f206160008201527f6464726573730000000000000000000000000000000000000000000000000000602082015250565b600061213b602683611541565b9150612146826120df565b604082019050919050565b6000602082019050818103600083015261216a8161212e565b9050919050565b7f4f776e61626c653a2063616c6c6572206973206e6f7420746865206f776e6572600082015250565b60006121a7602083611541565b91506121b282612171565b602082019050919050565b600060208201905081810360008301526121d68161219a565b9050919050565b7f45524332303a20617070726f76652066726f6d20746865207a65726f2061646460008201527f7265737300000000000000000000000000000000000000000000000000000000602082015250565b6000612239602483611541565b9150612244826121dd565b604082019050919050565b600060208201905081810360008301526122688161222c565b9050919050565b7f45524332303a20617070726f766520746f20746865207a65726f20616464726560008201527f7373000000000000000000000000000000000000000000000000000000000000602082015250565b60006122cb602283611541565b91506122d68261226f565b604082019050919050565b600060208201905081810360008301526122fa816122be565b9050919050565b7f45524332303a20696e73756666696369656e7420616c6c6f77616e6365000000600082015250565b6000612337601d83611541565b915061234282612301565b602082019050919050565b600060208201905081810360008301526123668161232a565b9050919050565b7f45524332303a207472616e736665722066726f6d20746865207a65726f20616460008201527f6472657373000000000000000000000000000000000000000000000000000000602082015250565b60006123c9602583611541565b91506123d48261236d565b604082019050919050565b600060208201905081810360008301526123f8816123bc565b9050919050565b7f45524332303a207472616e7366657220746f20746865207a65726f206164647260008201527f6573730000000000000000000000000000000000000000000000000000000000602082015250565b600061245b602383611541565b9150612466826123ff565b604082019050919050565b6000602082019050818103600083015261248a8161244e565b9050919050565b7f45524332303a207472616e7366657220616d6f756e742065786365656473206260008201527f616c616e63650000000000000000000000000000000000000000000000000000602082015250565b60006124ed602683611541565b91506124f882612491565b604082019050919050565b6000602082019050818103600083015261251c816124e0565b905091905056fea26469706673582212204e7a530f61c83208c71eca1786f0cee64064fc06f74945669c534260d4de345164736f6c63430008130033",
					"opcodes": "PUSH1 0x80 PUSH1 0x40 MSTORE PUSH20 0xD7B5B1E52369F1402BA350D7F5DD3D247717C157 PUSH1 0x6 PUSH1 0x0 PUSH2 0x100 EXP DUP2 SLOAD DUP2 PUSH20 0xFFFFFFFFFFFFFFFFFFFFFFFFFFFFFFFFFFFFFFFF MUL NOT AND SWAP1 DUP4 PUSH20 0xFFFFFFFFFFFFFFFFFFFFFFFFFFFFFFFFFFFFFFFF AND MUL OR SWAP1 SSTORE POP CALLVALUE DUP1 ISZERO PUSH3 0x66 JUMPI PUSH1 0x0 DUP1 REVERT JUMPDEST POP PUSH1 0x40 MLOAD DUP1 PUSH1 0x40 ADD PUSH1 0x40 MSTORE DUP1 PUSH1 0x12 DUP2 MSTORE PUSH1 0x20 ADD PUSH32 0x4D7568616E6E616420496E737572616E63650000000000000000000000000000 DUP2 MSTORE POP PUSH1 0x40 MLOAD DUP1 PUSH1 0x40 ADD PUSH1 0x40 MSTORE DUP1 PUSH1 0x3 DUP2 MSTORE PUSH1 0x20 ADD PUSH32 0x4D49540000000000000000000000000000000000000000000000000000000000 DUP2 MSTORE POP DUP2 PUSH1 0x3 SWAP1 DUP2 PUSH3 0xE4 SWAP2 SWAP1 PUSH3 0x467 JUMP JUMPDEST POP DUP1 PUSH1 0x4 SWAP1 DUP2 PUSH3 0xF6 SWAP2 SWAP1 PUSH3 0x467 JUMP JUMPDEST POP POP POP PUSH3 0x119 PUSH3 0x10D PUSH3 0x11F PUSH1 0x20 SHL PUSH1 0x20 SHR JUMP JUMPDEST PUSH3 0x127 PUSH1 0x20 SHL PUSH1 0x20 SHR JUMP JUMPDEST PUSH3 0x54E JUMP JUMPDEST PUSH1 0x0 CALLER SWAP1 POP SWAP1 JUMP JUMPDEST PUSH1 0x0 PUSH1 0x5 PUSH1 0x0 SWAP1 SLOAD SWAP1 PUSH2 0x100 EXP SWAP1 DIV PUSH20 0xFFFFFFFFFFFFFFFFFFFFFFFFFFFFFFFFFFFFFFFF AND SWAP1 POP DUP2 PUSH1 0x5 PUSH1 0x0 PUSH2 0x100 EXP DUP2 SLOAD DUP2 PUSH20 0xFFFFFFFFFFFFFFFFFFFFFFFFFFFFFFFFFFFFFFFF MUL NOT AND SWAP1 DUP4 PUSH20 0xFFFFFFFFFFFFFFFFFFFFFFFFFFFFFFFFFFFFFFFF AND MUL OR SWAP1 SSTORE POP DUP2 PUSH20 0xFFFFFFFFFFFFFFFFFFFFFFFFFFFFFFFFFFFFFFFF AND DUP2 PUSH20 0xFFFFFFFFFFFFFFFFFFFFFFFFFFFFFFFFFFFFFFFF AND PUSH32 0x8BE0079C531659141344CD1FD0A4F28419497F9722A3DAAFE3B4186F6B6457E0 PUSH1 0x40 MLOAD PUSH1 0x40 MLOAD DUP1 SWAP2 SUB SWAP1 LOG3 POP POP JUMP JUMPDEST PUSH1 0x0 DUP2 MLOAD SWAP1 POP SWAP2 SWAP1 POP JUMP JUMPDEST PUSH32 0x4E487B7100000000000000000000000000000000000000000000000000000000 PUSH1 0x0 MSTORE PUSH1 0x41 PUSH1 0x4 MSTORE PUSH1 0x24 PUSH1 0x0 REVERT JUMPDEST PUSH32 0x4E487B7100000000000000000000000000000000000000000000000000000000 PUSH1 0x0 MSTORE PUSH1 0x22 PUSH1 0x4 MSTORE PUSH1 0x24 PUSH1 0x0 REVERT JUMPDEST PUSH1 0x0 PUSH1 0x2 DUP3 DIV SWAP1 POP PUSH1 0x1 DUP3 AND DUP1 PUSH3 0x26F JUMPI PUSH1 0x7F DUP3 AND SWAP2 POP JUMPDEST PUSH1 0x20 DUP3 LT DUP2 SUB PUSH3 0x285 JUMPI PUSH3 0x284 PUSH3 0x227 JUMP JUMPDEST JUMPDEST POP SWAP2 SWAP1 POP JUMP JUMPDEST PUSH1 0x0 DUP2 SWAP1 POP DUP2 PUSH1 0x0 MSTORE PUSH1 0x20 PUSH1 0x0 KECCAK256 SWAP1 POP SWAP2 SWAP1 POP JUMP JUMPDEST PUSH1 0x0 PUSH1 0x20 PUSH1 0x1F DUP4 ADD DIV SWAP1 POP SWAP2 SWAP1 POP JUMP JUMPDEST PUSH1 0x0 DUP3 DUP3 SHL SWAP1 POP SWAP3 SWAP2 POP POP JUMP JUMPDEST PUSH1 0x0 PUSH1 0x8 DUP4 MUL PUSH3 0x2EF PUSH32 0xFFFFFFFFFFFFFFFFFFFFFFFFFFFFFFFFFFFFFFFFFFFFFFFFFFFFFFFFFFFFFFFF DUP3 PUSH3 0x2B0 JUMP JUMPDEST PUSH3 0x2FB DUP7 DUP4 PUSH3 0x2B0 JUMP JUMPDEST SWAP6 POP DUP1 NOT DUP5 AND SWAP4 POP DUP1 DUP7 AND DUP5 OR SWAP3 POP POP POP SWAP4 SWAP3 POP POP POP JUMP JUMPDEST PUSH1 0x0 DUP2 SWAP1 POP SWAP2 SWAP1 POP JUMP JUMPDEST PUSH1 0x0 DUP2 SWAP1 POP SWAP2 SWAP1 POP JUMP JUMPDEST PUSH1 0x0 PUSH3 0x348 PUSH3 0x342 PUSH3 0x33C DUP5 PUSH3 0x313 JUMP JUMPDEST PUSH3 0x31D JUMP JUMPDEST PUSH3 0x313 JUMP JUMPDEST SWAP1 POP SWAP2 SWAP1 POP JUMP JUMPDEST PUSH1 0x0 DUP2 SWAP1 POP SWAP2 SWAP1 POP JUMP JUMPDEST PUSH3 0x364 DUP4 PUSH3 0x327 JUMP JUMPDEST PUSH3 0x37C PUSH3 0x373 DUP3 PUSH3 0x34F JUMP JUMPDEST DUP5 DUP5 SLOAD PUSH3 0x2BD JUMP JUMPDEST DUP3 SSTORE POP POP POP POP JUMP JUMPDEST PUSH1 0x0 SWAP1 JUMP JUMPDEST PUSH3 0x393 PUSH3 0x384 JUMP JUMPDEST PUSH3 0x3A0 DUP2 DUP5 DUP5 PUSH3 0x359 JUMP JUMPDEST POP POP POP JUMP JUMPDEST JUMPDEST DUP2 DUP2 LT ISZERO PUSH3 0x3C8 JUMPI PUSH3 0x3BC PUSH1 0x0 DUP3 PUSH3 0x389 JUMP JUMPDEST PUSH1 0x1 DUP2 ADD SWAP1 POP PUSH3 0x3A6 JUMP JUMPDEST POP POP JUMP JUMPDEST PUSH1 0x1F DUP3 GT ISZERO PUSH3 0x417 JUMPI PUSH3 0x3E1 DUP2 PUSH3 0x28B JUMP JUMPDEST PUSH3 0x3EC DUP5 PUSH3 0x2A0 JUMP JUMPDEST DUP2 ADD PUSH1 0x20 DUP6 LT ISZERO PUSH3 0x3FC JUMPI DUP2 SWAP1 POP JUMPDEST PUSH3 0x414 PUSH3 0x40B DUP6 PUSH3 0x2A0 JUMP JUMPDEST DUP4 ADD DUP3 PUSH3 0x3A5 JUMP JUMPDEST POP POP JUMPDEST POP POP POP JUMP JUMPDEST PUSH1 0x0 DUP3 DUP3 SHR SWAP1 POP SWAP3 SWAP2 POP POP JUMP JUMPDEST PUSH1 0x0 PUSH3 0x43C PUSH1 0x0 NOT DUP5 PUSH1 0x8 MUL PUSH3 0x41C JUMP JUMPDEST NOT DUP1 DUP4 AND SWAP2 POP POP SWAP3 SWAP2 POP POP JUMP JUMPDEST PUSH1 0x0 PUSH3 0x457 DUP4 DUP4 PUSH3 0x429 JUMP JUMPDEST SWAP2 POP DUP3 PUSH1 0x2 MUL DUP3 OR SWAP1 POP SWAP3 SWAP2 POP POP JUMP JUMPDEST PUSH3 0x472 DUP3 PUSH3 0x1ED JUMP JUMPDEST PUSH8 0xFFFFFFFFFFFFFFFF DUP2 GT ISZERO PUSH3 0x48E JUMPI PUSH3 0x48D PUSH3 0x1F8 JUMP JUMPDEST JUMPDEST PUSH3 0x49A DUP3 SLOAD PUSH3 0x256 JUMP JUMPDEST PUSH3 0x4A7 DUP3 DUP3 DUP6 PUSH3 0x3CC JUMP JUMPDEST PUSH1 0x0 PUSH1 0x20 SWAP1 POP PUSH1 0x1F DUP4 GT PUSH1 0x1 DUP2 EQ PUSH3 0x4DF JUMPI PUSH1 0x0 DUP5 ISZERO PUSH3 0x4CA JUMPI DUP3 DUP8 ADD MLOAD SWAP1 POP JUMPDEST PUSH3 0x4D6 DUP6 DUP3 PUSH3 0x449 JUMP JUMPDEST DUP7 SSTORE POP PUSH3 0x546 JUMP JUMPDEST PUSH1 0x1F NOT DUP5 AND PUSH3 0x4EF DUP7 PUSH3 0x28B JUMP JUMPDEST PUSH1 0x0 JUMPDEST DUP3 DUP2 LT ISZERO PUSH3 0x519 JUMPI DUP5 DUP10 ADD MLOAD DUP3 SSTORE PUSH1 0x1 DUP3 ADD SWAP2 POP PUSH1 0x20 DUP6 ADD SWAP5 POP PUSH1 0x20 DUP2 ADD SWAP1 POP PUSH3 0x4F2 JUMP JUMPDEST DUP7 DUP4 LT ISZERO PUSH3 0x539 JUMPI DUP5 DUP10 ADD MLOAD PUSH3 0x535 PUSH1 0x1F DUP10 AND DUP3 PUSH3 0x429 JUMP JUMPDEST DUP4 SSTORE POP JUMPDEST PUSH1 0x1 PUSH1 0x2 DUP9 MUL ADD DUP9 SSTORE POP POP POP JUMPDEST POP POP POP POP POP POP JUMP JUMPDEST PUSH2 0x2559 DUP1 PUSH3 0x55E PUSH1 0x0 CODECOPY PUSH1 0x0 RETURN INVALID PUSH1 0x80 PUSH1 0x40 MSTORE PUSH1 0x4 CALLDATASIZE LT PUSH2 0x11F JUMPI PUSH1 0x0 CALLDATALOAD PUSH1 0xE0 SHR DUP1 PUSH4 0x715018A6 GT PUSH2 0xA0 JUMPI DUP1 PUSH4 0xA9059CBB GT PUSH2 0x64 JUMPI DUP1 PUSH4 0xA9059CBB EQ PUSH2 0x403 JUMPI DUP1 PUSH4 0xCAEA5BC5 EQ PUSH2 0x440 JUMPI DUP1 PUSH4 0xDD62ED3E EQ PUSH2 0x46B JUMPI DUP1 PUSH4 0xEFD34F25 EQ PUSH2 0x4A8 JUMPI DUP1 PUSH4 0xF2FDE38B EQ PUSH2 0x4B2 JUMPI PUSH2 0x11F JUMP JUMPDEST DUP1 PUSH4 0x715018A6 EQ PUSH2 0x318 JUMPI DUP1 PUSH4 0x8DA5CB5B EQ PUSH2 0x32F JUMPI DUP1 PUSH4 0x95D89B41 EQ PUSH2 0x35A JUMPI DUP1 PUSH4 0xA457C2D7 EQ PUSH2 0x385 JUMPI DUP1 PUSH4 0xA87430BA EQ PUSH2 0x3C2 JUMPI PUSH2 0x11F JUMP JUMPDEST DUP1 PUSH4 0x2401273C GT PUSH2 0xE7 JUMPI DUP1 PUSH4 0x2401273C EQ PUSH2 0x21D JUMPI DUP1 PUSH4 0x25942212 EQ PUSH2 0x248 JUMPI DUP1 PUSH4 0x313CE567 EQ PUSH2 0x273 JUMPI DUP1 PUSH4 0x39509351 EQ PUSH2 0x29E JUMPI DUP1 PUSH4 0x70A08231 EQ PUSH2 0x2DB JUMPI PUSH2 0x11F JUMP JUMPDEST DUP1 PUSH4 0x6FDDE03 EQ PUSH2 0x124 JUMPI DUP1 PUSH4 0x80646EC EQ PUSH2 0x14F JUMPI DUP1 PUSH4 0x95EA7B3 EQ PUSH2 0x178 JUMPI DUP1 PUSH4 0x18160DDD EQ PUSH2 0x1B5 JUMPI DUP1 PUSH4 0x23B872DD EQ PUSH2 0x1E0 JUMPI JUMPDEST PUSH1 0x0 DUP1 REVERT JUMPDEST CALLVALUE DUP1 ISZERO PUSH2 0x130 JUMPI PUSH1 0x0 DUP1 REVERT JUMPDEST POP PUSH2 0x139 PUSH2 0x4DB JUMP JUMPDEST PUSH1 0x40 MLOAD PUSH2 0x146 SWAP2 SWAP1 PUSH2 0x15C6 JUMP JUMPDEST PUSH1 0x40 MLOAD DUP1 SWAP2 SUB SWAP1 RETURN JUMPDEST CALLVALUE DUP1 ISZERO PUSH2 0x15B JUMPI PUSH1 0x0 DUP1 REVERT JUMPDEST POP PUSH2 0x176 PUSH1 0x4 DUP1 CALLDATASIZE SUB DUP2 ADD SWAP1 PUSH2 0x171 SWAP2 SWAP1 PUSH2 0x1767 JUMP JUMPDEST PUSH2 0x56D JUMP JUMPDEST STOP JUMPDEST CALLVALUE DUP1 ISZERO PUSH2 0x184 JUMPI PUSH1 0x0 DUP1 REVERT JUMPDEST POP PUSH2 0x19F PUSH1 0x4 DUP1 CALLDATASIZE SUB DUP2 ADD SWAP1 PUSH2 0x19A SWAP2 SWAP1 PUSH2 0x1821 JUMP JUMPDEST PUSH2 0x827 JUMP JUMPDEST PUSH1 0x40 MLOAD PUSH2 0x1AC SWAP2 SWAP1 PUSH2 0x187C JUMP JUMPDEST PUSH1 0x40 MLOAD DUP1 SWAP2 SUB SWAP1 RETURN JUMPDEST CALLVALUE DUP1 ISZERO PUSH2 0x1C1 JUMPI PUSH1 0x0 DUP1 REVERT JUMPDEST POP PUSH2 0x1CA PUSH2 0x84A JUMP JUMPDEST PUSH1 0x40 MLOAD PUSH2 0x1D7 SWAP2 SWAP1 PUSH2 0x18A6 JUMP JUMPDEST PUSH1 0x40 MLOAD DUP1 SWAP2 SUB SWAP1 RETURN JUMPDEST CALLVALUE DUP1 ISZERO PUSH2 0x1EC JUMPI PUSH1 0x0 DUP1 REVERT JUMPDEST POP PUSH2 0x207 PUSH1 0x4 DUP1 CALLDATASIZE SUB DUP2 ADD SWAP1 PUSH2 0x202 SWAP2 SWAP1 PUSH2 0x18C1 JUMP JUMPDEST PUSH2 0x854 JUMP JUMPDEST PUSH1 0x40 MLOAD PUSH2 0x214 SWAP2 SWAP1 PUSH2 0x187C JUMP JUMPDEST PUSH1 0x40 MLOAD DUP1 SWAP2 SUB SWAP1 RETURN JUMPDEST CALLVALUE DUP1 ISZERO PUSH2 0x229 JUMPI PUSH1 0x0 DUP1 REVERT JUMPDEST POP PUSH2 0x232 PUSH2 0x883 JUMP JUMPDEST PUSH1 0x40 MLOAD PUSH2 0x23F SWAP2 SWAP1 PUSH2 0x1923 JUMP JUMPDEST PUSH1 0x40 MLOAD DUP1 SWAP2 SUB SWAP1 RETURN JUMPDEST CALLVALUE DUP1 ISZERO PUSH2 0x254 JUMPI PUSH1 0x0 DUP1 REVERT JUMPDEST POP PUSH2 0x25D PUSH2 0x8A9 JUMP JUMPDEST PUSH1 0x40 MLOAD PUSH2 0x26A SWAP2 SWAP1 PUSH2 0x18A6 JUMP JUMPDEST PUSH1 0x40 MLOAD DUP1 SWAP2 SUB SWAP1 RETURN JUMPDEST CALLVALUE DUP1 ISZERO PUSH2 0x27F JUMPI PUSH1 0x0 DUP1 REVERT JUMPDEST POP PUSH2 0x288 PUSH2 0x8AF JUMP JUMPDEST PUSH1 0x40 MLOAD PUSH2 0x295 SWAP2 SWAP1 PUSH2 0x195A JUMP JUMPDEST PUSH1 0x40 MLOAD DUP1 SWAP2 SUB SWAP1 RETURN JUMPDEST CALLVALUE DUP1 ISZERO PUSH2 0x2AA JUMPI PUSH1 0x0 DUP1 REVERT JUMPDEST POP PUSH2 0x2C5 PUSH1 0x4 DUP1 CALLDATASIZE SUB DUP2 ADD SWAP1 PUSH2 0x2C0 SWAP2 SWAP1 PUSH2 0x1821 JUMP JUMPDEST PUSH2 0x8B8 JUMP JUMPDEST PUSH1 0x40 MLOAD PUSH2 0x2D2 SWAP2 SWAP1 PUSH2 0x187C JUMP JUMPDEST PUSH1 0x40 MLOAD DUP1 SWAP2 SUB SWAP1 RETURN JUMPDEST CALLVALUE DUP1 ISZERO PUSH2 0x2E7 JUMPI PUSH1 0x0 DUP1 REVERT JUMPDEST POP PUSH2 0x302 PUSH1 0x4 DUP1 CALLDATASIZE SUB DUP2 ADD SWAP1 PUSH2 0x2FD SWAP2 SWAP1 PUSH2 0x1975 JUMP JUMPDEST PUSH2 0x8EF JUMP JUMPDEST PUSH1 0x40 MLOAD PUSH2 0x30F SWAP2 SWAP1 PUSH2 0x18A6 JUMP JUMPDEST PUSH1 0x40 MLOAD DUP1 SWAP2 SUB SWAP1 RETURN JUMPDEST CALLVALUE DUP1 ISZERO PUSH2 0x324 JUMPI PUSH1 0x0 DUP1 REVERT JUMPDEST POP PUSH2 0x32D PUSH2 0x937 JUMP JUMPDEST STOP JUMPDEST CALLVALUE DUP1 ISZERO PUSH2 0x33B JUMPI PUSH1 0x0 DUP1 REVERT JUMPDEST POP PUSH2 0x344 PUSH2 0x94B JUMP JUMPDEST PUSH1 0x40 MLOAD PUSH2 0x351 SWAP2 SWAP1 PUSH2 0x1923 JUMP JUMPDEST PUSH1 0x40 MLOAD DUP1 SWAP2 SUB SWAP1 RETURN JUMPDEST CALLVALUE DUP1 ISZERO PUSH2 0x366 JUMPI PUSH1 0x0 DUP1 REVERT JUMPDEST POP PUSH2 0x36F PUSH2 0x975 JUMP JUMPDEST PUSH1 0x40 MLOAD PUSH2 0x37C SWAP2 SWAP1 PUSH2 0x15C6 JUMP JUMPDEST PUSH1 0x40 MLOAD DUP1 SWAP2 SUB SWAP1 RETURN JUMPDEST CALLVALUE DUP1 ISZERO PUSH2 0x391 JUMPI PUSH1 0x0 DUP1 REVERT JUMPDEST POP PUSH2 0x3AC PUSH1 0x4 DUP1 CALLDATASIZE SUB DUP2 ADD SWAP1 PUSH2 0x3A7 SWAP2 SWAP1 PUSH2 0x1821 JUMP JUMPDEST PUSH2 0xA07 JUMP JUMPDEST PUSH1 0x40 MLOAD PUSH2 0x3B9 SWAP2 SWAP1 PUSH2 0x187C JUMP JUMPDEST PUSH1 0x40 MLOAD DUP1 SWAP2 SUB SWAP1 RETURN JUMPDEST CALLVALUE DUP1 ISZERO PUSH2 0x3CE JUMPI PUSH1 0x0 DUP1 REVERT JUMPDEST POP PUSH2 0x3E9 PUSH1 0x4 DUP1 CALLDATASIZE SUB DUP2 ADD SWAP1 PUSH2 0x3E4 SWAP2 SWAP1 PUSH2 0x1975 JUMP JUMPDEST PUSH2 0xA7E JUMP JUMPDEST PUSH1 0x40 MLOAD PUSH2 0x3FA SWAP6 SWAP5 SWAP4 SWAP3 SWAP2 SWAP1 PUSH2 0x19A2 JUMP JUMPDEST PUSH1 0x40 MLOAD DUP1 SWAP2 SUB SWAP1 RETURN JUMPDEST CALLVALUE DUP1 ISZERO PUSH2 0x40F JUMPI PUSH1 0x0 DUP1 REVERT JUMPDEST POP PUSH2 0x42A PUSH1 0x4 DUP1 CALLDATASIZE SUB DUP2 ADD SWAP1 PUSH2 0x425 SWAP2 SWAP1 PUSH2 0x1821 JUMP JUMPDEST PUSH2 0xB5C JUMP JUMPDEST PUSH1 0x40 MLOAD PUSH2 0x437 SWAP2 SWAP1 PUSH2 0x187C JUMP JUMPDEST PUSH1 0x40 MLOAD DUP1 SWAP2 SUB SWAP1 RETURN JUMPDEST CALLVALUE DUP1 ISZERO PUSH2 0x44C JUMPI PUSH1 0x0 DUP1 REVERT JUMPDEST POP PUSH2 0x455 PUSH2 0xB7F JUMP JUMPDEST PUSH1 0x40 MLOAD PUSH2 0x462 SWAP2 SWAP1 PUSH2 0x18A6 JUMP JUMPDEST PUSH1 0x40 MLOAD DUP1 SWAP2 SUB SWAP1 RETURN JUMPDEST CALLVALUE DUP1 ISZERO PUSH2 0x477 JUMPI PUSH1 0x0 DUP1 REVERT JUMPDEST POP PUSH2 0x492 PUSH1 0x4 DUP1 CALLDATASIZE SUB DUP2 ADD SWAP1 PUSH2 0x48D SWAP2 SWAP1 PUSH2 0x19FC JUMP JUMPDEST PUSH2 0xB85 JUMP JUMPDEST PUSH1 0x40 MLOAD PUSH2 0x49F SWAP2 SWAP1 PUSH2 0x18A6 JUMP JUMPDEST PUSH1 0x40 MLOAD DUP1 SWAP2 SUB SWAP1 RETURN JUMPDEST PUSH2 0x4B0 PUSH2 0xC0C JUMP JUMPDEST STOP JUMPDEST CALLVALUE DUP1 ISZERO PUSH2 0x4BE JUMPI PUSH1 0x0 DUP1 REVERT JUMPDEST POP PUSH2 0x4D9 PUSH1 0x4 DUP1 CALLDATASIZE SUB DUP2 ADD SWAP1 PUSH2 0x4D4 SWAP2 SWAP1 PUSH2 0x1975 JUMP JUMPDEST PUSH2 0xE92 JUMP JUMPDEST STOP JUMPDEST PUSH1 0x60 PUSH1 0x3 DUP1 SLOAD PUSH2 0x4EA SWAP1 PUSH2 0x1A6B JUMP JUMPDEST DUP1 PUSH1 0x1F ADD PUSH1 0x20 DUP1 SWAP2 DIV MUL PUSH1 0x20 ADD PUSH1 0x40 MLOAD SWAP1 DUP2 ADD PUSH1 0x40 MSTORE DUP1 SWAP3 SWAP2 SWAP1 DUP2 DUP2 MSTORE PUSH1 0x20 ADD DUP3 DUP1 SLOAD PUSH2 0x516 SWAP1 PUSH2 0x1A6B JUMP JUMPDEST DUP1 ISZERO PUSH2 0x563 JUMPI DUP1 PUSH1 0x1F LT PUSH2 0x538 JUMPI PUSH2 0x100 DUP1 DUP4 SLOAD DIV MUL DUP4 MSTORE SWAP2 PUSH1 0x20 ADD SWAP2 PUSH2 0x563 JUMP JUMPDEST DUP3 ADD SWAP2 SWAP1 PUSH1 0x0 MSTORE PUSH1 0x20 PUSH1 0x0 KECCAK256 SWAP1 JUMPDEST DUP2 SLOAD DUP2 MSTORE SWAP1 PUSH1 0x1 ADD SWAP1 PUSH1 0x20 ADD DUP1 DUP4 GT PUSH2 0x546 JUMPI DUP3 SWAP1 SUB PUSH1 0x1F AND DUP3 ADD SWAP2 JUMPDEST POP POP POP POP POP SWAP1 POP SWAP1 JUMP JUMPDEST PUSH2 0x575 PUSH2 0xF15 JUMP JUMPDEST CALLER PUSH20 0xFFFFFFFFFFFFFFFFFFFFFFFFFFFFFFFFFFFFFFFF AND PUSH1 0x9 PUSH1 0x0 CALLER PUSH20 0xFFFFFFFFFFFFFFFFFFFFFFFFFFFFFFFFFFFFFFFF AND PUSH20 0xFFFFFFFFFFFFFFFFFFFFFFFFFFFFFFFFFFFFFFFF AND DUP2 MSTORE PUSH1 0x20 ADD SWAP1 DUP2 MSTORE PUSH1 0x20 ADD PUSH1 0x0 KECCAK256 PUSH1 0x1 ADD PUSH1 0x0 SWAP1 SLOAD SWAP1 PUSH2 0x100 EXP SWAP1 DIV PUSH20 0xFFFFFFFFFFFFFFFFFFFFFFFFFFFFFFFFFFFFFFFF AND PUSH20 0xFFFFFFFFFFFFFFFFFFFFFFFFFFFFFFFFFFFFFFFF AND SUB PUSH2 0x645 JUMPI PUSH1 0x40 MLOAD PUSH32 0x8C379A000000000000000000000000000000000000000000000000000000000 DUP2 MSTORE PUSH1 0x4 ADD PUSH2 0x63C SWAP1 PUSH2 0x1AE8 JUMP JUMPDEST PUSH1 0x40 MLOAD DUP1 SWAP2 SUB SWAP1 REVERT JUMPDEST PUSH1 0x12 DUP2 LT ISZERO PUSH2 0x689 JUMPI PUSH1 0x40 MLOAD PUSH32 0x8C379A000000000000000000000000000000000000000000000000000000000 DUP2 MSTORE PUSH1 0x4 ADD PUSH2 0x680 SWAP1 PUSH2 0x1B54 JUMP JUMPDEST PUSH1 0x40 MLOAD DUP1 SWAP2 SUB SWAP1 REVERT JUMPDEST PUSH1 0x0 PUSH1 0x9 PUSH1 0x0 CALLER PUSH20 0xFFFFFFFFFFFFFFFFFFFFFFFFFFFFFFFFFFFFFFFF AND PUSH20 0xFFFFFFFFFFFFFFFFFFFFFFFFFFFFFFFFFFFFFFFF AND DUP2 MSTORE PUSH1 0x20 ADD SWAP1 DUP2 MSTORE PUSH1 0x20 ADD PUSH1 0x0 KECCAK256 PUSH1 0x3 ADD SLOAD GT ISZERO PUSH2 0x70F JUMPI PUSH1 0x40 MLOAD PUSH32 0x8C379A000000000000000000000000000000000000000000000000000000000 DUP2 MSTORE PUSH1 0x4 ADD PUSH2 0x706 SWAP1 PUSH2 0x1BC0 JUMP JUMPDEST PUSH1 0x40 MLOAD DUP1 SWAP2 SUB SWAP1 REVERT JUMPDEST PUSH1 0x40 MLOAD DUP1 PUSH1 0xA0 ADD PUSH1 0x40 MSTORE DUP1 DUP4 DUP2 MSTORE PUSH1 0x20 ADD CALLER PUSH20 0xFFFFFFFFFFFFFFFFFFFFFFFFFFFFFFFFFFFFFFFF AND DUP2 MSTORE PUSH1 0x20 ADD DUP3 DUP2 MSTORE PUSH1 0x20 ADD PUSH1 0x0 DUP2 MSTORE PUSH1 0x20 ADD PUSH1 0x0 DUP2 MSTORE POP PUSH1 0x9 PUSH1 0x0 CALLER PUSH20 0xFFFFFFFFFFFFFFFFFFFFFFFFFFFFFFFFFFFFFFFF AND PUSH20 0xFFFFFFFFFFFFFFFFFFFFFFFFFFFFFFFFFFFFFFFF AND DUP2 MSTORE PUSH1 0x20 ADD SWAP1 DUP2 MSTORE PUSH1 0x20 ADD PUSH1 0x0 KECCAK256 PUSH1 0x0 DUP3 ADD MLOAD DUP2 PUSH1 0x0 ADD SWAP1 DUP2 PUSH2 0x7A2 SWAP2 SWAP1 PUSH2 0x1D8C JUMP JUMPDEST POP PUSH1 0x20 DUP3 ADD MLOAD DUP2 PUSH1 0x1 ADD PUSH1 0x0 PUSH2 0x100 EXP DUP2 SLOAD DUP2 PUSH20 0xFFFFFFFFFFFFFFFFFFFFFFFFFFFFFFFFFFFFFFFF MUL NOT AND SWAP1 DUP4 PUSH20 0xFFFFFFFFFFFFFFFFFFFFFFFFFFFFFFFFFFFFFFFF AND MUL OR SWAP1 SSTORE POP PUSH1 0x40 DUP3 ADD MLOAD DUP2 PUSH1 0x2 ADD SSTORE PUSH1 0x60 DUP3 ADD MLOAD DUP2 PUSH1 0x3 ADD SSTORE PUSH1 0x80 DUP3 ADD MLOAD DUP2 PUSH1 0x4 ADD SSTORE SWAP1 POP POP PUSH1 0x8 PUSH1 0x0 DUP2 SLOAD DUP1 SWAP3 SWAP2 SWAP1 PUSH2 0x81E SWAP1 PUSH2 0x1E8D JUMP JUMPDEST SWAP2 SWAP1 POP SSTORE POP POP POP JUMP JUMPDEST PUSH1 0x0 DUP1 PUSH2 0x832 PUSH2 0xF93 JUMP JUMPDEST SWAP1 POP PUSH2 0x83F DUP2 DUP6 DUP6 PUSH2 0xF9B JUMP JUMPDEST PUSH1 0x1 SWAP2 POP POP SWAP3 SWAP2 POP POP JUMP JUMPDEST PUSH1 0x0 PUSH1 0x2 SLOAD SWAP1 POP SWAP1 JUMP JUMPDEST PUSH1 0x0 DUP1 PUSH2 0x85F PUSH2 0xF93 JUMP JUMPDEST SWAP1 POP PUSH2 0x86C DUP6 DUP3 DUP6 PUSH2 0x1164 JUMP JUMPDEST PUSH2 0x877 DUP6 DUP6 DUP6 PUSH2 0x11F0 JUMP JUMPDEST PUSH1 0x1 SWAP2 POP POP SWAP4 SWAP3 POP POP POP JUMP JUMPDEST PUSH1 0x6 PUSH1 0x0 SWAP1 SLOAD SWAP1 PUSH2 0x100 EXP SWAP1 DIV PUSH20 0xFFFFFFFFFFFFFFFFFFFFFFFFFFFFFFFFFFFFFFFF AND DUP2 JUMP JUMPDEST PUSH1 0x7 SLOAD DUP2 JUMP JUMPDEST PUSH1 0x0 PUSH1 0x12 SWAP1 POP SWAP1 JUMP JUMPDEST PUSH1 0x0 DUP1 PUSH2 0x8C3 PUSH2 0xF93 JUMP JUMPDEST SWAP1 POP PUSH2 0x8E4 DUP2 DUP6 DUP6 PUSH2 0x8D5 DUP6 DUP10 PUSH2 0xB85 JUMP JUMPDEST PUSH2 0x8DF SWAP2 SWAP1 PUSH2 0x1ED5 JUMP JUMPDEST PUSH2 0xF9B JUMP JUMPDEST PUSH1 0x1 SWAP2 POP POP SWAP3 SWAP2 POP POP JUMP JUMPDEST PUSH1 0x0 DUP1 PUSH1 0x0 DUP4 PUSH20 0xFFFFFFFFFFFFFFFFFFFFFFFFFFFFFFFFFFFFFFFF AND PUSH20 0xFFFFFFFFFFFFFFFFFFFFFFFFFFFFFFFFFFFFFFFF AND DUP2 MSTORE PUSH1 0x20 ADD SWAP1 DUP2 MSTORE PUSH1 0x20 ADD PUSH1 0x0 KECCAK256 SLOAD SWAP1 POP SWAP2 SWAP1 POP JUMP JUMPDEST PUSH2 0x93F PUSH2 0xF15 JUMP JUMPDEST PUSH2 0x949 PUSH1 0x0 PUSH2 0x1466 JUMP JUMPDEST JUMP JUMPDEST PUSH1 0x0 PUSH1 0x5 PUSH1 0x0 SWAP1 SLOAD SWAP1 PUSH2 0x100 EXP SWAP1 DIV PUSH20 0xFFFFFFFFFFFFFFFFFFFFFFFFFFFFFFFFFFFFFFFF AND SWAP1 POP SWAP1 JUMP JUMPDEST PUSH1 0x60 PUSH1 0x4 DUP1 SLOAD PUSH2 0x984 SWAP1 PUSH2 0x1A6B JUMP JUMPDEST DUP1 PUSH1 0x1F ADD PUSH1 0x20 DUP1 SWAP2 DIV MUL PUSH1 0x20 ADD PUSH1 0x40 MLOAD SWAP1 DUP2 ADD PUSH1 0x40 MSTORE DUP1 SWAP3 SWAP2 SWAP1 DUP2 DUP2 MSTORE PUSH1 0x20 ADD DUP3 DUP1 SLOAD PUSH2 0x9B0 SWAP1 PUSH2 0x1A6B JUMP JUMPDEST DUP1 ISZERO PUSH2 0x9FD JUMPI DUP1 PUSH1 0x1F LT PUSH2 0x9D2 JUMPI PUSH2 0x100 DUP1 DUP4 SLOAD DIV MUL DUP4 MSTORE SWAP2 PUSH1 0x20 ADD SWAP2 PUSH2 0x9FD JUMP JUMPDEST DUP3 ADD SWAP2 SWAP1 PUSH1 0x0 MSTORE PUSH1 0x20 PUSH1 0x0 KECCAK256 SWAP1 JUMPDEST DUP2 SLOAD DUP2 MSTORE SWAP1 PUSH1 0x1 ADD SWAP1 PUSH1 0x20 ADD DUP1 DUP4 GT PUSH2 0x9E0 JUMPI DUP3 SWAP1 SUB PUSH1 0x1F AND DUP3 ADD SWAP2 JUMPDEST POP POP POP POP POP SWAP1 POP SWAP1 JUMP JUMPDEST PUSH1 0x0 DUP1 PUSH2 0xA12 PUSH2 0xF93 JUMP JUMPDEST SWAP1 POP PUSH1 0x0 PUSH2 0xA20 DUP3 DUP7 PUSH2 0xB85 JUMP JUMPDEST SWAP1 POP DUP4 DUP2 LT ISZERO PUSH2 0xA65 JUMPI PUSH1 0x40 MLOAD PUSH32 0x8C379A000000000000000000000000000000000000000000000000000000000 DUP2 MSTORE PUSH1 0x4 ADD PUSH2 0xA5C SWAP1 PUSH2 0x1F7B JUMP JUMPDEST PUSH1 0x40 MLOAD DUP1 SWAP2 SUB SWAP1 REVERT JUMPDEST PUSH2 0xA72 DUP3 DUP7 DUP7 DUP5 SUB PUSH2 0xF9B JUMP JUMPDEST PUSH1 0x1 SWAP3 POP POP POP SWAP3 SWAP2 POP POP JUMP JUMPDEST PUSH1 0x9 PUSH1 0x20 MSTORE DUP1 PUSH1 0x0 MSTORE PUSH1 0x40 PUSH1 0x0 KECCAK256 PUSH1 0x0 SWAP2 POP SWAP1 POP DUP1 PUSH1 0x0 ADD DUP1 SLOAD PUSH2 0xAA1 SWAP1 PUSH2 0x1A6B JUMP JUMPDEST DUP1 PUSH1 0x1F ADD PUSH1 0x20 DUP1 SWAP2 DIV MUL PUSH1 0x20 ADD PUSH1 0x40 MLOAD SWAP1 DUP2 ADD PUSH1 0x40 MSTORE DUP1 SWAP3 SWAP2 SWAP1 DUP2 DUP2 MSTORE PUSH1 0x20 ADD DUP3 DUP1 SLOAD PUSH2 0xACD SWAP1 PUSH2 0x1A6B JUMP JUMPDEST DUP1 ISZERO PUSH2 0xB1A JUMPI DUP1 PUSH1 0x1F LT PUSH2 0xAEF JUMPI PUSH2 0x100 DUP1 DUP4 SLOAD DIV MUL DUP4 MSTORE SWAP2 PUSH1 0x20 ADD SWAP2 PUSH2 0xB1A JUMP JUMPDEST DUP3 ADD SWAP2 SWAP1 PUSH1 0x0 MSTORE PUSH1 0x20 PUSH1 0x0 KECCAK256 SWAP1 JUMPDEST DUP2 SLOAD DUP2 MSTORE SWAP1 PUSH1 0x1 ADD SWAP1 PUSH1 0x20 ADD DUP1 DUP4 GT PUSH2 0xAFD JUMPI DUP3 SWAP1 SUB PUSH1 0x1F AND DUP3 ADD SWAP2 JUMPDEST POP POP POP POP POP SWAP1 DUP1 PUSH1 0x1 ADD PUSH1 0x0 SWAP1 SLOAD SWAP1 PUSH2 0x100 EXP SWAP1 DIV PUSH20 0xFFFFFFFFFFFFFFFFFFFFFFFFFFFFFFFFFFFFFFFF AND SWAP1 DUP1 PUSH1 0x2 ADD SLOAD SWAP1 DUP1 PUSH1 0x3 ADD SLOAD SWAP1 DUP1 PUSH1 0x4 ADD SLOAD SWAP1 POP DUP6 JUMP JUMPDEST PUSH1 0x0 DUP1 PUSH2 0xB67 PUSH2 0xF93 JUMP JUMPDEST SWAP1 POP PUSH2 0xB74 DUP2 DUP6 DUP6 PUSH2 0x11F0 JUMP JUMPDEST PUSH1 0x1 SWAP2 POP POP SWAP3 SWAP2 POP POP JUMP JUMPDEST PUSH1 0x8 SLOAD DUP2 JUMP JUMPDEST PUSH1 0x0 PUSH1 0x1 PUSH1 0x0 DUP5 PUSH20 0xFFFFFFFFFFFFFFFFFFFFFFFFFFFFFFFFFFFFFFFF AND PUSH20 0xFFFFFFFFFFFFFFFFFFFFFFFFFFFFFFFFFFFFFFFF AND DUP2 MSTORE PUSH1 0x20 ADD SWAP1 DUP2 MSTORE PUSH1 0x20 ADD PUSH1 0x0 KECCAK256 PUSH1 0x0 DUP4 PUSH20 0xFFFFFFFFFFFFFFFFFFFFFFFFFFFFFFFFFFFFFFFF AND PUSH20 0xFFFFFFFFFFFFFFFFFFFFFFFFFFFFFFFFFFFFFFFF AND DUP2 MSTORE PUSH1 0x20 ADD SWAP1 DUP2 MSTORE PUSH1 0x20 ADD PUSH1 0x0 KECCAK256 SLOAD SWAP1 POP SWAP3 SWAP2 POP POP JUMP JUMPDEST CALLER PUSH20 0xFFFFFFFFFFFFFFFFFFFFFFFFFFFFFFFFFFFFFFFF AND PUSH1 0x9 PUSH1 0x0 CALLER PUSH20 0xFFFFFFFFFFFFFFFFFFFFFFFFFFFFFFFFFFFFFFFF AND PUSH20 0xFFFFFFFFFFFFFFFFFFFFFFFFFFFFFFFFFFFFFFFF AND DUP2 MSTORE PUSH1 0x20 ADD SWAP1 DUP2 MSTORE PUSH1 0x20 ADD PUSH1 0x0 KECCAK256 PUSH1 0x1 ADD PUSH1 0x0 SWAP1 SLOAD SWAP1 PUSH2 0x100 EXP SWAP1 DIV PUSH20 0xFFFFFFFFFFFFFFFFFFFFFFFFFFFFFFFFFFFFFFFF AND PUSH20 0xFFFFFFFFFFFFFFFFFFFFFFFFFFFFFFFFFFFFFFFF AND EQ PUSH2 0xCDC JUMPI PUSH1 0x40 MLOAD PUSH32 0x8C379A000000000000000000000000000000000000000000000000000000000 DUP2 MSTORE PUSH1 0x4 ADD PUSH2 0xCD3 SWAP1 PUSH2 0x1FE7 JUMP JUMPDEST PUSH1 0x40 MLOAD DUP1 SWAP2 SUB SWAP1 REVERT JUMPDEST PUSH1 0x0 PUSH2 0xCE7 CALLER PUSH2 0x8EF JUMP JUMPDEST LT ISZERO PUSH2 0xD28 JUMPI PUSH1 0x40 MLOAD PUSH32 0x8C379A000000000000000000000000000000000000000000000000000000000 DUP2 MSTORE PUSH1 0x4 ADD PUSH2 0xD1F SWAP1 PUSH2 0x2053 JUMP JUMPDEST PUSH1 0x40 MLOAD DUP1 SWAP2 SUB SWAP1 REVERT JUMPDEST TIMESTAMP PUSH1 0x9 PUSH1 0x0 CALLER PUSH20 0xFFFFFFFFFFFFFFFFFFFFFFFFFFFFFFFFFFFFFFFF AND PUSH20 0xFFFFFFFFFFFFFFFFFFFFFFFFFFFFFFFFFFFFFFFF AND DUP2 MSTORE PUSH1 0x20 ADD SWAP1 DUP2 MSTORE PUSH1 0x20 ADD PUSH1 0x0 KECCAK256 PUSH1 0x4 ADD SLOAD LT PUSH2 0xDAC JUMPI PUSH1 0x40 MLOAD PUSH32 0x8C379A000000000000000000000000000000000000000000000000000000000 DUP2 MSTORE PUSH1 0x4 ADD PUSH2 0xDA3 SWAP1 PUSH2 0x20BF JUMP JUMPDEST PUSH1 0x40 MLOAD DUP1 SWAP2 SUB SWAP1 REVERT JUMPDEST PUSH2 0xDDA CALLER PUSH1 0x6 PUSH1 0x0 SWAP1 SLOAD SWAP1 PUSH2 0x100 EXP SWAP1 DIV PUSH20 0xFFFFFFFFFFFFFFFFFFFFFFFFFFFFFFFFFFFFFFFF AND PUSH1 0x0 PUSH2 0x854 JUMP JUMPDEST POP TIMESTAMP PUSH1 0x9 PUSH1 0x0 CALLER PUSH20 0xFFFFFFFFFFFFFFFFFFFFFFFFFFFFFFFFFFFFFFFF AND PUSH20 0xFFFFFFFFFFFFFFFFFFFFFFFFFFFFFFFFFFFFFFFF AND DUP2 MSTORE PUSH1 0x20 ADD SWAP1 DUP2 MSTORE PUSH1 0x20 ADD PUSH1 0x0 KECCAK256 PUSH1 0x3 ADD DUP2 SWAP1 SSTORE POP PUSH4 0x1E1853E TIMESTAMP PUSH2 0xE32 SWAP2 SWAP1 PUSH2 0x1ED5 JUMP JUMPDEST PUSH1 0x9 PUSH1 0x0 CALLER PUSH20 0xFFFFFFFFFFFFFFFFFFFFFFFFFFFFFFFFFFFFFFFF AND PUSH20 0xFFFFFFFFFFFFFFFFFFFFFFFFFFFFFFFFFFFFFFFF AND DUP2 MSTORE PUSH1 0x20 ADD SWAP1 DUP2 MSTORE PUSH1 0x20 ADD PUSH1 0x0 KECCAK256 PUSH1 0x4 ADD DUP2 SWAP1 SSTORE POP PUSH1 0x7 PUSH1 0x0 DUP2 SLOAD DUP1 SWAP3 SWAP2 SWAP1 PUSH2 0xE8B SWAP1 PUSH2 0x1E8D JUMP JUMPDEST SWAP2 SWAP1 POP SSTORE POP JUMP JUMPDEST PUSH2 0xE9A PUSH2 0xF15 JUMP JUMPDEST PUSH1 0x0 PUSH20 0xFFFFFFFFFFFFFFFFFFFFFFFFFFFFFFFFFFFFFFFF AND DUP2 PUSH20 0xFFFFFFFFFFFFFFFFFFFFFFFFFFFFFFFFFFFFFFFF AND SUB PUSH2 0xF09 JUMPI PUSH1 0x40 MLOAD PUSH32 0x8C379A000000000000000000000000000000000000000000000000000000000 DUP2 MSTORE PUSH1 0x4 ADD PUSH2 0xF00 SWAP1 PUSH2 0x2151 JUMP JUMPDEST PUSH1 0x40 MLOAD DUP1 SWAP2 SUB SWAP1 REVERT JUMPDEST PUSH2 0xF12 DUP2 PUSH2 0x1466 JUMP JUMPDEST POP JUMP JUMPDEST PUSH2 0xF1D PUSH2 0xF93 JUMP JUMPDEST PUSH20 0xFFFFFFFFFFFFFFFFFFFFFFFFFFFFFFFFFFFFFFFF AND PUSH2 0xF3B PUSH2 0x94B JUMP JUMPDEST PUSH20 0xFFFFFFFFFFFFFFFFFFFFFFFFFFFFFFFFFFFFFFFF AND EQ PUSH2 0xF91 JUMPI PUSH1 0x40 MLOAD PUSH32 0x8C379A000000000000000000000000000000000000000000000000000000000 DUP2 MSTORE PUSH1 0x4 ADD PUSH2 0xF88 SWAP1 PUSH2 0x21BD JUMP JUMPDEST PUSH1 0x40 MLOAD DUP1 SWAP2 SUB SWAP1 REVERT JUMPDEST JUMP JUMPDEST PUSH1 0x0 CALLER SWAP1 POP SWAP1 JUMP JUMPDEST PUSH1 0x0 PUSH20 0xFFFFFFFFFFFFFFFFFFFFFFFFFFFFFFFFFFFFFFFF AND DUP4 PUSH20 0xFFFFFFFFFFFFFFFFFFFFFFFFFFFFFFFFFFFFFFFF AND SUB PUSH2 0x100A JUMPI PUSH1 0x40 MLOAD PUSH32 0x8C379A000000000000000000000000000000000000000000000000000000000 DUP2 MSTORE PUSH1 0x4 ADD PUSH2 0x1001 SWAP1 PUSH2 0x224F JUMP JUMPDEST PUSH1 0x40 MLOAD DUP1 SWAP2 SUB SWAP1 REVERT JUMPDEST PUSH1 0x0 PUSH20 0xFFFFFFFFFFFFFFFFFFFFFFFFFFFFFFFFFFFFFFFF AND DUP3 PUSH20 0xFFFFFFFFFFFFFFFFFFFFFFFFFFFFFFFFFFFFFFFF AND SUB PUSH2 0x1079 JUMPI PUSH1 0x40 MLOAD PUSH32 0x8C379A000000000000000000000000000000000000000000000000000000000 DUP2 MSTORE PUSH1 0x4 ADD PUSH2 0x1070 SWAP1 PUSH2 0x22E1 JUMP JUMPDEST PUSH1 0x40 MLOAD DUP1 SWAP2 SUB SWAP1 REVERT JUMPDEST DUP1 PUSH1 0x1 PUSH1 0x0 DUP6 PUSH20 0xFFFFFFFFFFFFFFFFFFFFFFFFFFFFFFFFFFFFFFFF AND PUSH20 0xFFFFFFFFFFFFFFFFFFFFFFFFFFFFFFFFFFFFFFFF AND DUP2 MSTORE PUSH1 0x20 ADD SWAP1 DUP2 MSTORE PUSH1 0x20 ADD PUSH1 0x0 KECCAK256 PUSH1 0x0 DUP5 PUSH20 0xFFFFFFFFFFFFFFFFFFFFFFFFFFFFFFFFFFFFFFFF AND PUSH20 0xFFFFFFFFFFFFFFFFFFFFFFFFFFFFFFFFFFFFFFFF AND DUP2 MSTORE PUSH1 0x20 ADD SWAP1 DUP2 MSTORE PUSH1 0x20 ADD PUSH1 0x0 KECCAK256 DUP2 SWAP1 SSTORE POP DUP2 PUSH20 0xFFFFFFFFFFFFFFFFFFFFFFFFFFFFFFFFFFFFFFFF AND DUP4 PUSH20 0xFFFFFFFFFFFFFFFFFFFFFFFFFFFFFFFFFFFFFFFF AND PUSH32 0x8C5BE1E5EBEC7D5BD14F71427D1E84F3DD0314C0F7B2291E5B200AC8C7C3B925 DUP4 PUSH1 0x40 MLOAD PUSH2 0x1157 SWAP2 SWAP1 PUSH2 0x18A6 JUMP JUMPDEST PUSH1 0x40 MLOAD DUP1 SWAP2 SUB SWAP1 LOG3 POP POP POP JUMP JUMPDEST PUSH1 0x0 PUSH2 0x1170 DUP5 DUP5 PUSH2 0xB85 JUMP JUMPDEST SWAP1 POP PUSH32 0xFFFFFFFFFFFFFFFFFFFFFFFFFFFFFFFFFFFFFFFFFFFFFFFFFFFFFFFFFFFFFFFF DUP2 EQ PUSH2 0x11EA JUMPI DUP2 DUP2 LT ISZERO PUSH2 0x11DC JUMPI PUSH1 0x40 MLOAD PUSH32 0x8C379A000000000000000000000000000000000000000000000000000000000 DUP2 MSTORE PUSH1 0x4 ADD PUSH2 0x11D3 SWAP1 PUSH2 0x234D JUMP JUMPDEST PUSH1 0x40 MLOAD DUP1 SWAP2 SUB SWAP1 REVERT JUMPDEST PUSH2 0x11E9 DUP5 DUP5 DUP5 DUP5 SUB PUSH2 0xF9B JUMP JUMPDEST JUMPDEST POP POP POP POP JUMP JUMPDEST PUSH1 0x0 PUSH20 0xFFFFFFFFFFFFFFFFFFFFFFFFFFFFFFFFFFFFFFFF AND DUP4 PUSH20 0xFFFFFFFFFFFFFFFFFFFFFFFFFFFFFFFFFFFFFFFF AND SUB PUSH2 0x125F JUMPI PUSH1 0x40 MLOAD PUSH32 0x8C379A000000000000000000000000000000000000000000000000000000000 DUP2 MSTORE PUSH1 0x4 ADD PUSH2 0x1256 SWAP1 PUSH2 0x23DF JUMP JUMPDEST PUSH1 0x40 MLOAD DUP1 SWAP2 SUB SWAP1 REVERT JUMPDEST PUSH1 0x0 PUSH20 0xFFFFFFFFFFFFFFFFFFFFFFFFFFFFFFFFFFFFFFFF AND DUP3 PUSH20 0xFFFFFFFFFFFFFFFFFFFFFFFFFFFFFFFFFFFFFFFF AND SUB PUSH2 0x12CE JUMPI PUSH1 0x40 MLOAD PUSH32 0x8C379A000000000000000000000000000000000000000000000000000000000 DUP2 MSTORE PUSH1 0x4 ADD PUSH2 0x12C5 SWAP1 PUSH2 0x2471 JUMP JUMPDEST PUSH1 0x40 MLOAD DUP1 SWAP2 SUB SWAP1 REVERT JUMPDEST PUSH2 0x12D9 DUP4 DUP4 DUP4 PUSH2 0x152C JUMP JUMPDEST PUSH1 0x0 DUP1 PUSH1 0x0 DUP6 PUSH20 0xFFFFFFFFFFFFFFFFFFFFFFFFFFFFFFFFFFFFFFFF AND PUSH20 0xFFFFFFFFFFFFFFFFFFFFFFFFFFFFFFFFFFFFFFFF AND DUP2 MSTORE PUSH1 0x20 ADD SWAP1 DUP2 MSTORE PUSH1 0x20 ADD PUSH1 0x0 KECCAK256 SLOAD SWAP1 POP DUP2 DUP2 LT ISZERO PUSH2 0x135F JUMPI PUSH1 0x40 MLOAD PUSH32 0x8C379A000000000000000000000000000000000000000000000000000000000 DUP2 MSTORE PUSH1 0x4 ADD PUSH2 0x1356 SWAP1 PUSH2 0x2503 JUMP JUMPDEST PUSH1 0x40 MLOAD DUP1 SWAP2 SUB SWAP1 REVERT JUMPDEST DUP2 DUP2 SUB PUSH1 0x0 DUP1 DUP7 PUSH20 0xFFFFFFFFFFFFFFFFFFFFFFFFFFFFFFFFFFFFFFFF AND PUSH20 0xFFFFFFFFFFFFFFFFFFFFFFFFFFFFFFFFFFFFFFFF AND DUP2 MSTORE PUSH1 0x20 ADD SWAP1 DUP2 MSTORE PUSH1 0x20 ADD PUSH1 0x0 KECCAK256 DUP2 SWAP1 SSTORE POP DUP2 PUSH1 0x0 DUP1 DUP6 PUSH20 0xFFFFFFFFFFFFFFFFFFFFFFFFFFFFFFFFFFFFFFFF AND PUSH20 0xFFFFFFFFFFFFFFFFFFFFFFFFFFFFFFFFFFFFFFFF AND DUP2 MSTORE PUSH1 0x20 ADD SWAP1 DUP2 MSTORE PUSH1 0x20 ADD PUSH1 0x0 KECCAK256 PUSH1 0x0 DUP3 DUP3 SLOAD ADD SWAP3 POP POP DUP2 SWAP1 SSTORE POP DUP3 PUSH20 0xFFFFFFFFFFFFFFFFFFFFFFFFFFFFFFFFFFFFFFFF AND DUP5 PUSH20 0xFFFFFFFFFFFFFFFFFFFFFFFFFFFFFFFFFFFFFFFF AND PUSH32 0xDDF252AD1BE2C89B69C2B068FC378DAA952BA7F163C4A11628F55A4DF523B3EF DUP5 PUSH1 0x40 MLOAD PUSH2 0x144D SWAP2 SWAP1 PUSH2 0x18A6 JUMP JUMPDEST PUSH1 0x40 MLOAD DUP1 SWAP2 SUB SWAP1 LOG3 PUSH2 0x1460 DUP5 DUP5 DUP5 PUSH2 0x1531 JUMP JUMPDEST POP POP POP POP JUMP JUMPDEST PUSH1 0x0 PUSH1 0x5 PUSH1 0x0 SWAP1 SLOAD SWAP1 PUSH2 0x100 EXP SWAP1 DIV PUSH20 0xFFFFFFFFFFFFFFFFFFFFFFFFFFFFFFFFFFFFFFFF AND SWAP1 POP DUP2 PUSH1 0x5 PUSH1 0x0 PUSH2 0x100 EXP DUP2 SLOAD DUP2 PUSH20 0xFFFFFFFFFFFFFFFFFFFFFFFFFFFFFFFFFFFFFFFF MUL NOT AND SWAP1 DUP4 PUSH20 0xFFFFFFFFFFFFFFFFFFFFFFFFFFFFFFFFFFFFFFFF AND MUL OR SWAP1 SSTORE POP DUP2 PUSH20 0xFFFFFFFFFFFFFFFFFFFFFFFFFFFFFFFFFFFFFFFF AND DUP2 PUSH20 0xFFFFFFFFFFFFFFFFFFFFFFFFFFFFFFFFFFFFFFFF AND PUSH32 0x8BE0079C531659141344CD1FD0A4F28419497F9722A3DAAFE3B4186F6B6457E0 PUSH1 0x40 MLOAD PUSH1 0x40 MLOAD DUP1 SWAP2 SUB SWAP1 LOG3 POP POP JUMP JUMPDEST POP POP POP JUMP JUMPDEST POP POP POP JUMP JUMPDEST PUSH1 0x0 DUP2 MLOAD SWAP1 POP SWAP2 SWAP1 POP JUMP JUMPDEST PUSH1 0x0 DUP3 DUP3 MSTORE PUSH1 0x20 DUP3 ADD SWAP1 POP SWAP3 SWAP2 POP POP JUMP JUMPDEST PUSH1 0x0 JUMPDEST DUP4 DUP2 LT ISZERO PUSH2 0x1570 JUMPI DUP1 DUP3 ADD MLOAD DUP2 DUP5 ADD MSTORE PUSH1 0x20 DUP2 ADD SWAP1 POP PUSH2 0x1555 JUMP JUMPDEST PUSH1 0x0 DUP5 DUP5 ADD MSTORE POP POP POP POP JUMP JUMPDEST PUSH1 0x0 PUSH1 0x1F NOT PUSH1 0x1F DUP4 ADD AND SWAP1 POP SWAP2 SWAP1 POP JUMP JUMPDEST PUSH1 0x0 PUSH2 0x1598 DUP3 PUSH2 0x1536 JUMP JUMPDEST PUSH2 0x15A2 DUP2 DUP6 PUSH2 0x1541 JUMP JUMPDEST SWAP4 POP PUSH2 0x15B2 DUP2 DUP6 PUSH1 0x20 DUP7 ADD PUSH2 0x1552 JUMP JUMPDEST PUSH2 0x15BB DUP2 PUSH2 0x157C JUMP JUMPDEST DUP5 ADD SWAP2 POP POP SWAP3 SWAP2 POP POP JUMP JUMPDEST PUSH1 0x0 PUSH1 0x20 DUP3 ADD SWAP1 POP DUP2 DUP2 SUB PUSH1 0x0 DUP4 ADD MSTORE PUSH2 0x15E0 DUP2 DUP5 PUSH2 0x158D JUMP JUMPDEST SWAP1 POP SWAP3 SWAP2 POP POP JUMP JUMPDEST PUSH1 0x0 PUSH1 0x40 MLOAD SWAP1 POP SWAP1 JUMP JUMPDEST PUSH1 0x0 DUP1 REVERT JUMPDEST PUSH1 0x0 DUP1 REVERT JUMPDEST PUSH1 0x0 DUP1 REVERT JUMPDEST PUSH1 0x0 DUP1 REVERT JUMPDEST PUSH32 0x4E487B7100000000000000000000000000000000000000000000000000000000 PUSH1 0x0 MSTORE PUSH1 0x41 PUSH1 0x4 MSTORE PUSH1 0x24 PUSH1 0x0 REVERT JUMPDEST PUSH2 0x163E DUP3 PUSH2 0x157C JUMP JUMPDEST DUP2 ADD DUP2 DUP2 LT PUSH8 0xFFFFFFFFFFFFFFFF DUP3 GT OR ISZERO PUSH2 0x165D JUMPI PUSH2 0x165C PUSH2 0x1606 JUMP JUMPDEST JUMPDEST DUP1 PUSH1 0x40 MSTORE POP POP POP JUMP JUMPDEST PUSH1 0x0 PUSH2 0x1670 PUSH2 0x15E8 JUMP JUMPDEST SWAP1 POP PUSH2 0x167C DUP3 DUP3 PUSH2 0x1635 JUMP JUMPDEST SWAP2 SWAP1 POP JUMP JUMPDEST PUSH1 0x0 PUSH8 0xFFFFFFFFFFFFFFFF DUP3 GT ISZERO PUSH2 0x169C JUMPI PUSH2 0x169B PUSH2 0x1606 JUMP JUMPDEST JUMPDEST PUSH2 0x16A5 DUP3 PUSH2 0x157C JUMP JUMPDEST SWAP1 POP PUSH1 0x20 DUP2 ADD SWAP1 POP SWAP2 SWAP1 POP JUMP JUMPDEST DUP3 DUP2 DUP4 CALLDATACOPY PUSH1 0x0 DUP4 DUP4 ADD MSTORE POP POP POP JUMP JUMPDEST PUSH1 0x0 PUSH2 0x16D4 PUSH2 0x16CF DUP5 PUSH2 0x1681 JUMP JUMPDEST PUSH2 0x1666 JUMP JUMPDEST SWAP1 POP DUP3 DUP2 MSTORE PUSH1 0x20 DUP2 ADD DUP5 DUP5 DUP5 ADD GT ISZERO PUSH2 0x16F0 JUMPI PUSH2 0x16EF PUSH2 0x1601 JUMP JUMPDEST JUMPDEST PUSH2 0x16FB DUP5 DUP3 DUP6 PUSH2 0x16B2 JUMP JUMPDEST POP SWAP4 SWAP3 POP POP POP JUMP JUMPDEST PUSH1 0x0 DUP3 PUSH1 0x1F DUP4 ADD SLT PUSH2 0x1718 JUMPI PUSH2 0x1717 PUSH2 0x15FC JUMP JUMPDEST JUMPDEST DUP2 CALLDATALOAD PUSH2 0x1728 DUP5 DUP3 PUSH1 0x20 DUP7 ADD PUSH2 0x16C1 JUMP JUMPDEST SWAP2 POP POP SWAP3 SWAP2 POP POP JUMP JUMPDEST PUSH1 0x0 DUP2 SWAP1 POP SWAP2 SWAP1 POP JUMP JUMPDEST PUSH2 0x1744 DUP2 PUSH2 0x1731 JUMP JUMPDEST DUP2 EQ PUSH2 0x174F JUMPI PUSH1 0x0 DUP1 REVERT JUMPDEST POP JUMP JUMPDEST PUSH1 0x0 DUP2 CALLDATALOAD SWAP1 POP PUSH2 0x1761 DUP2 PUSH2 0x173B JUMP JUMPDEST SWAP3 SWAP2 POP POP JUMP JUMPDEST PUSH1 0x0 DUP1 PUSH1 0x40 DUP4 DUP6 SUB SLT ISZERO PUSH2 0x177E JUMPI PUSH2 0x177D PUSH2 0x15F2 JUMP JUMPDEST JUMPDEST PUSH1 0x0 DUP4 ADD CALLDATALOAD PUSH8 0xFFFFFFFFFFFFFFFF DUP2 GT ISZERO PUSH2 0x179C JUMPI PUSH2 0x179B PUSH2 0x15F7 JUMP JUMPDEST JUMPDEST PUSH2 0x17A8 DUP6 DUP3 DUP7 ADD PUSH2 0x1703 JUMP JUMPDEST SWAP3 POP POP PUSH1 0x20 PUSH2 0x17B9 DUP6 DUP3 DUP7 ADD PUSH2 0x1752 JUMP JUMPDEST SWAP2 POP POP SWAP3 POP SWAP3 SWAP1 POP JUMP JUMPDEST PUSH1 0x0 PUSH20 0xFFFFFFFFFFFFFFFFFFFFFFFFFFFFFFFFFFFFFFFF DUP3 AND SWAP1 POP SWAP2 SWAP1 POP JUMP JUMPDEST PUSH1 0x0 PUSH2 0x17EE DUP3 PUSH2 0x17C3 JUMP JUMPDEST SWAP1 POP SWAP2 SWAP1 POP JUMP JUMPDEST PUSH2 0x17FE DUP2 PUSH2 0x17E3 JUMP JUMPDEST DUP2 EQ PUSH2 0x1809 JUMPI PUSH1 0x0 DUP1 REVERT JUMPDEST POP JUMP JUMPDEST PUSH1 0x0 DUP2 CALLDATALOAD SWAP1 POP PUSH2 0x181B DUP2 PUSH2 0x17F5 JUMP JUMPDEST SWAP3 SWAP2 POP POP JUMP JUMPDEST PUSH1 0x0 DUP1 PUSH1 0x40 DUP4 DUP6 SUB SLT ISZERO PUSH2 0x1838 JUMPI PUSH2 0x1837 PUSH2 0x15F2 JUMP JUMPDEST JUMPDEST PUSH1 0x0 PUSH2 0x1846 DUP6 DUP3 DUP7 ADD PUSH2 0x180C JUMP JUMPDEST SWAP3 POP POP PUSH1 0x20 PUSH2 0x1857 DUP6 DUP3 DUP7 ADD PUSH2 0x1752 JUMP JUMPDEST SWAP2 POP POP SWAP3 POP SWAP3 SWAP1 POP JUMP JUMPDEST PUSH1 0x0 DUP2 ISZERO ISZERO SWAP1 POP SWAP2 SWAP1 POP JUMP JUMPDEST PUSH2 0x1876 DUP2 PUSH2 0x1861 JUMP JUMPDEST DUP3 MSTORE POP POP JUMP JUMPDEST PUSH1 0x0 PUSH1 0x20 DUP3 ADD SWAP1 POP PUSH2 0x1891 PUSH1 0x0 DUP4 ADD DUP5 PUSH2 0x186D JUMP JUMPDEST SWAP3 SWAP2 POP POP JUMP JUMPDEST PUSH2 0x18A0 DUP2 PUSH2 0x1731 JUMP JUMPDEST DUP3 MSTORE POP POP JUMP JUMPDEST PUSH1 0x0 PUSH1 0x20 DUP3 ADD SWAP1 POP PUSH2 0x18BB PUSH1 0x0 DUP4 ADD DUP5 PUSH2 0x1897 JUMP JUMPDEST SWAP3 SWAP2 POP POP JUMP JUMPDEST PUSH1 0x0 DUP1 PUSH1 0x0 PUSH1 0x60 DUP5 DUP7 SUB SLT ISZERO PUSH2 0x18DA JUMPI PUSH2 0x18D9 PUSH2 0x15F2 JUMP JUMPDEST JUMPDEST PUSH1 0x0 PUSH2 0x18E8 DUP7 DUP3 DUP8 ADD PUSH2 0x180C JUMP JUMPDEST SWAP4 POP POP PUSH1 0x20 PUSH2 0x18F9 DUP7 DUP3 DUP8 ADD PUSH2 0x180C JUMP JUMPDEST SWAP3 POP POP PUSH1 0x40 PUSH2 0x190A DUP7 DUP3 DUP8 ADD PUSH2 0x1752 JUMP JUMPDEST SWAP2 POP POP SWAP3 POP SWAP3 POP SWAP3 JUMP JUMPDEST PUSH2 0x191D DUP2 PUSH2 0x17E3 JUMP JUMPDEST DUP3 MSTORE POP POP JUMP JUMPDEST PUSH1 0x0 PUSH1 0x20 DUP3 ADD SWAP1 POP PUSH2 0x1938 PUSH1 0x0 DUP4 ADD DUP5 PUSH2 0x1914 JUMP JUMPDEST SWAP3 SWAP2 POP POP JUMP JUMPDEST PUSH1 0x0 PUSH1 0xFF DUP3 AND SWAP1 POP SWAP2 SWAP1 POP JUMP JUMPDEST PUSH2 0x1954 DUP2 PUSH2 0x193E JUMP JUMPDEST DUP3 MSTORE POP POP JUMP JUMPDEST PUSH1 0x0 PUSH1 0x20 DUP3 ADD SWAP1 POP PUSH2 0x196F PUSH1 0x0 DUP4 ADD DUP5 PUSH2 0x194B JUMP JUMPDEST SWAP3 SWAP2 POP POP JUMP JUMPDEST PUSH1 0x0 PUSH1 0x20 DUP3 DUP5 SUB SLT ISZERO PUSH2 0x198B JUMPI PUSH2 0x198A PUSH2 0x15F2 JUMP JUMPDEST JUMPDEST PUSH1 0x0 PUSH2 0x1999 DUP5 DUP3 DUP6 ADD PUSH2 0x180C JUMP JUMPDEST SWAP2 POP POP SWAP3 SWAP2 POP POP JUMP JUMPDEST PUSH1 0x0 PUSH1 0xA0 DUP3 ADD SWAP1 POP DUP2 DUP2 SUB PUSH1 0x0 DUP4 ADD MSTORE PUSH2 0x19BC DUP2 DUP9 PUSH2 0x158D JUMP JUMPDEST SWAP1 POP PUSH2 0x19CB PUSH1 0x20 DUP4 ADD DUP8 PUSH2 0x1914 JUMP JUMPDEST PUSH2 0x19D8 PUSH1 0x40 DUP4 ADD DUP7 PUSH2 0x1897 JUMP JUMPDEST PUSH2 0x19E5 PUSH1 0x60 DUP4 ADD DUP6 PUSH2 0x1897 JUMP JUMPDEST PUSH2 0x19F2 PUSH1 0x80 DUP4 ADD DUP5 PUSH2 0x1897 JUMP JUMPDEST SWAP7 SWAP6 POP POP POP POP POP POP JUMP JUMPDEST PUSH1 0x0 DUP1 PUSH1 0x40 DUP4 DUP6 SUB SLT ISZERO PUSH2 0x1A13 JUMPI PUSH2 0x1A12 PUSH2 0x15F2 JUMP JUMPDEST JUMPDEST PUSH1 0x0 PUSH2 0x1A21 DUP6 DUP3 DUP7 ADD PUSH2 0x180C JUMP JUMPDEST SWAP3 POP POP PUSH1 0x20 PUSH2 0x1A32 DUP6 DUP3 DUP7 ADD PUSH2 0x180C JUMP JUMPDEST SWAP2 POP POP SWAP3 POP SWAP3 SWAP1 POP JUMP JUMPDEST PUSH32 0x4E487B7100000000000000000000000000000000000000000000000000000000 PUSH1 0x0 MSTORE PUSH1 0x22 PUSH1 0x4 MSTORE PUSH1 0x24 PUSH1 0x0 REVERT JUMPDEST PUSH1 0x0 PUSH1 0x2 DUP3 DIV SWAP1 POP PUSH1 0x1 DUP3 AND DUP1 PUSH2 0x1A83 JUMPI PUSH1 0x7F DUP3 AND SWAP2 POP JUMPDEST PUSH1 0x20 DUP3 LT DUP2 SUB PUSH2 0x1A96 JUMPI PUSH2 0x1A95 PUSH2 0x1A3C JUMP JUMPDEST JUMPDEST POP SWAP2 SWAP1 POP JUMP JUMPDEST PUSH32 0x596F752061726520616C72656164792068617665200000000000000000000000 PUSH1 0x0 DUP3 ADD MSTORE POP JUMP JUMPDEST PUSH1 0x0 PUSH2 0x1AD2 PUSH1 0x15 DUP4 PUSH2 0x1541 JUMP JUMPDEST SWAP2 POP PUSH2 0x1ADD DUP3 PUSH2 0x1A9C JUMP JUMPDEST PUSH1 0x20 DUP3 ADD SWAP1 POP SWAP2 SWAP1 POP JUMP JUMPDEST PUSH1 0x0 PUSH1 0x20 DUP3 ADD SWAP1 POP DUP2 DUP2 SUB PUSH1 0x0 DUP4 ADD MSTORE PUSH2 0x1B01 DUP2 PUSH2 0x1AC5 JUMP JUMPDEST SWAP1 POP SWAP2 SWAP1 POP JUMP JUMPDEST PUSH32 0x596F752061726520756E64657220746865206167650000000000000000000000 PUSH1 0x0 DUP3 ADD MSTORE POP JUMP JUMPDEST PUSH1 0x0 PUSH2 0x1B3E PUSH1 0x15 DUP4 PUSH2 0x1541 JUMP JUMPDEST SWAP2 POP PUSH2 0x1B49 DUP3 PUSH2 0x1B08 JUMP JUMPDEST PUSH1 0x20 DUP3 ADD SWAP1 POP SWAP2 SWAP1 POP JUMP JUMPDEST PUSH1 0x0 PUSH1 0x20 DUP3 ADD SWAP1 POP DUP2 DUP2 SUB PUSH1 0x0 DUP4 ADD MSTORE PUSH2 0x1B6D DUP2 PUSH2 0x1B31 JUMP JUMPDEST SWAP1 POP SWAP2 SWAP1 POP JUMP JUMPDEST PUSH32 0x596F757220496E737572616E6365206973206578706972656400000000000000 PUSH1 0x0 DUP3 ADD MSTORE POP JUMP JUMPDEST PUSH1 0x0 PUSH2 0x1BAA PUSH1 0x19 DUP4 PUSH2 0x1541 JUMP JUMPDEST SWAP2 POP PUSH2 0x1BB5 DUP3 PUSH2 0x1B74 JUMP JUMPDEST PUSH1 0x20 DUP3 ADD SWAP1 POP SWAP2 SWAP1 POP JUMP JUMPDEST PUSH1 0x0 PUSH1 0x20 DUP3 ADD SWAP1 POP DUP2 DUP2 SUB PUSH1 0x0 DUP4 ADD MSTORE PUSH2 0x1BD9 DUP2 PUSH2 0x1B9D JUMP JUMPDEST SWAP1 POP SWAP2 SWAP1 POP JUMP JUMPDEST PUSH1 0x0 DUP2 SWAP1 POP DUP2 PUSH1 0x0 MSTORE PUSH1 0x20 PUSH1 0x0 KECCAK256 SWAP1 POP SWAP2 SWAP1 POP JUMP JUMPDEST PUSH1 0x0 PUSH1 0x20 PUSH1 0x1F DUP4 ADD DIV SWAP1 POP SWAP2 SWAP1 POP JUMP JUMPDEST PUSH1 0x0 DUP3 DUP3 SHL SWAP1 POP SWAP3 SWAP2 POP POP JUMP JUMPDEST PUSH1 0x0 PUSH1 0x8 DUP4 MUL PUSH2 0x1C42 PUSH32 0xFFFFFFFFFFFFFFFFFFFFFFFFFFFFFFFFFFFFFFFFFFFFFFFFFFFFFFFFFFFFFFFF DUP3 PUSH2 0x1C05 JUMP JUMPDEST PUSH2 0x1C4C DUP7 DUP4 PUSH2 0x1C05 JUMP JUMPDEST SWAP6 POP DUP1 NOT DUP5 AND SWAP4 POP DUP1 DUP7 AND DUP5 OR SWAP3 POP POP POP SWAP4 SWAP3 POP POP POP JUMP JUMPDEST PUSH1 0x0 DUP2 SWAP1 POP SWAP2 SWAP1 POP JUMP JUMPDEST PUSH1 0x0 PUSH2 0x1C89 PUSH2 0x1C84 PUSH2 0x1C7F DUP5 PUSH2 0x1731 JUMP JUMPDEST PUSH2 0x1C64 JUMP JUMPDEST PUSH2 0x1731 JUMP JUMPDEST SWAP1 POP SWAP2 SWAP1 POP JUMP JUMPDEST PUSH1 0x0 DUP2 SWAP1 POP SWAP2 SWAP1 POP JUMP JUMPDEST PUSH2 0x1CA3 DUP4 PUSH2 0x1C6E JUMP JUMPDEST PUSH2 0x1CB7 PUSH2 0x1CAF DUP3 PUSH2 0x1C90 JUMP JUMPDEST DUP5 DUP5 SLOAD PUSH2 0x1C12 JUMP JUMPDEST DUP3 SSTORE POP POP POP POP JUMP JUMPDEST PUSH1 0x0 SWAP1 JUMP JUMPDEST PUSH2 0x1CCC PUSH2 0x1CBF JUMP JUMPDEST PUSH2 0x1CD7 DUP2 DUP5 DUP5 PUSH2 0x1C9A JUMP JUMPDEST POP POP POP JUMP JUMPDEST JUMPDEST DUP2 DUP2 LT ISZERO PUSH2 0x1CFB JUMPI PUSH2 0x1CF0 PUSH1 0x0 DUP3 PUSH2 0x1CC4 JUMP JUMPDEST PUSH1 0x1 DUP2 ADD SWAP1 POP PUSH2 0x1CDD JUMP JUMPDEST POP POP JUMP JUMPDEST PUSH1 0x1F DUP3 GT ISZERO PUSH2 0x1D40 JUMPI PUSH2 0x1D11 DUP2 PUSH2 0x1BE0 JUMP JUMPDEST PUSH2 0x1D1A DUP5 PUSH2 0x1BF5 JUMP JUMPDEST DUP2 ADD PUSH1 0x20 DUP6 LT ISZERO PUSH2 0x1D29 JUMPI DUP2 SWAP1 POP JUMPDEST PUSH2 0x1D3D PUSH2 0x1D35 DUP6 PUSH2 0x1BF5 JUMP JUMPDEST DUP4 ADD DUP3 PUSH2 0x1CDC JUMP JUMPDEST POP POP JUMPDEST POP POP POP JUMP JUMPDEST PUSH1 0x0 DUP3 DUP3 SHR SWAP1 POP SWAP3 SWAP2 POP POP JUMP JUMPDEST PUSH1 0x0 PUSH2 0x1D63 PUSH1 0x0 NOT DUP5 PUSH1 0x8 MUL PUSH2 0x1D45 JUMP JUMPDEST NOT DUP1 DUP4 AND SWAP2 POP POP SWAP3 SWAP2 POP POP JUMP JUMPDEST PUSH1 0x0 PUSH2 0x1D7C DUP4 DUP4 PUSH2 0x1D52 JUMP JUMPDEST SWAP2 POP DUP3 PUSH1 0x2 MUL DUP3 OR SWAP1 POP SWAP3 SWAP2 POP POP JUMP JUMPDEST PUSH2 0x1D95 DUP3 PUSH2 0x1536 JUMP JUMPDEST PUSH8 0xFFFFFFFFFFFFFFFF DUP2 GT ISZERO PUSH2 0x1DAE JUMPI PUSH2 0x1DAD PUSH2 0x1606 JUMP JUMPDEST JUMPDEST PUSH2 0x1DB8 DUP3 SLOAD PUSH2 0x1A6B JUMP JUMPDEST PUSH2 0x1DC3 DUP3 DUP3 DUP6 PUSH2 0x1CFF JUMP JUMPDEST PUSH1 0x0 PUSH1 0x20 SWAP1 POP PUSH1 0x1F DUP4 GT PUSH1 0x1 DUP2 EQ PUSH2 0x1DF6 JUMPI PUSH1 0x0 DUP5 ISZERO PUSH2 0x1DE4 JUMPI DUP3 DUP8 ADD MLOAD SWAP1 POP JUMPDEST PUSH2 0x1DEE DUP6 DUP3 PUSH2 0x1D70 JUMP JUMPDEST DUP7 SSTORE POP PUSH2 0x1E56 JUMP JUMPDEST PUSH1 0x1F NOT DUP5 AND PUSH2 0x1E04 DUP7 PUSH2 0x1BE0 JUMP JUMPDEST PUSH1 0x0 JUMPDEST DUP3 DUP2 LT ISZERO PUSH2 0x1E2C JUMPI DUP5 DUP10 ADD MLOAD DUP3 SSTORE PUSH1 0x1 DUP3 ADD SWAP2 POP PUSH1 0x20 DUP6 ADD SWAP5 POP PUSH1 0x20 DUP2 ADD SWAP1 POP PUSH2 0x1E07 JUMP JUMPDEST DUP7 DUP4 LT ISZERO PUSH2 0x1E49 JUMPI DUP5 DUP10 ADD MLOAD PUSH2 0x1E45 PUSH1 0x1F DUP10 AND DUP3 PUSH2 0x1D52 JUMP JUMPDEST DUP4 SSTORE POP JUMPDEST PUSH1 0x1 PUSH1 0x2 DUP9 MUL ADD DUP9 SSTORE POP POP POP JUMPDEST POP POP POP POP POP POP JUMP JUMPDEST PUSH32 0x4E487B7100000000000000000000000000000000000000000000000000000000 PUSH1 0x0 MSTORE PUSH1 0x11 PUSH1 0x4 MSTORE PUSH1 0x24 PUSH1 0x0 REVERT JUMPDEST PUSH1 0x0 PUSH2 0x1E98 DUP3 PUSH2 0x1731 JUMP JUMPDEST SWAP2 POP PUSH32 0xFFFFFFFFFFFFFFFFFFFFFFFFFFFFFFFFFFFFFFFFFFFFFFFFFFFFFFFFFFFFFFFF DUP3 SUB PUSH2 0x1ECA JUMPI PUSH2 0x1EC9 PUSH2 0x1E5E JUMP JUMPDEST JUMPDEST PUSH1 0x1 DUP3 ADD SWAP1 POP SWAP2 SWAP1 POP JUMP JUMPDEST PUSH1 0x0 PUSH2 0x1EE0 DUP3 PUSH2 0x1731 JUMP JUMPDEST SWAP2 POP PUSH2 0x1EEB DUP4 PUSH2 0x1731 JUMP JUMPDEST SWAP3 POP DUP3 DUP3 ADD SWAP1 POP DUP1 DUP3 GT ISZERO PUSH2 0x1F03 JUMPI PUSH2 0x1F02 PUSH2 0x1E5E JUMP JUMPDEST JUMPDEST SWAP3 SWAP2 POP POP JUMP JUMPDEST PUSH32 0x45524332303A2064656372656173656420616C6C6F77616E63652062656C6F77 PUSH1 0x0 DUP3 ADD MSTORE PUSH32 0x207A65726F000000000000000000000000000000000000000000000000000000 PUSH1 0x20 DUP3 ADD MSTORE POP JUMP JUMPDEST PUSH1 0x0 PUSH2 0x1F65 PUSH1 0x25 DUP4 PUSH2 0x1541 JUMP JUMPDEST SWAP2 POP PUSH2 0x1F70 DUP3 PUSH2 0x1F09 JUMP JUMPDEST PUSH1 0x40 DUP3 ADD SWAP1 POP SWAP2 SWAP1 POP JUMP JUMPDEST PUSH1 0x0 PUSH1 0x20 DUP3 ADD SWAP1 POP DUP2 DUP2 SUB PUSH1 0x0 DUP4 ADD MSTORE PUSH2 0x1F94 DUP2 PUSH2 0x1F58 JUMP JUMPDEST SWAP1 POP SWAP2 SWAP1 POP JUMP JUMPDEST PUSH32 0x596F7520617265206E6F74206120637573746F6D657200000000000000000000 PUSH1 0x0 DUP3 ADD MSTORE POP JUMP JUMPDEST PUSH1 0x0 PUSH2 0x1FD1 PUSH1 0x16 DUP4 PUSH2 0x1541 JUMP JUMPDEST SWAP2 POP PUSH2 0x1FDC DUP3 PUSH2 0x1F9B JUMP JUMPDEST PUSH1 0x20 DUP3 ADD SWAP1 POP SWAP2 SWAP1 POP JUMP JUMPDEST PUSH1 0x0 PUSH1 0x20 DUP3 ADD SWAP1 POP DUP2 DUP2 SUB PUSH1 0x0 DUP4 ADD MSTORE PUSH2 0x2000 DUP2 PUSH2 0x1FC4 JUMP JUMPDEST SWAP1 POP SWAP2 SWAP1 POP JUMP JUMPDEST PUSH32 0x596F7520646F6E277420686176652062616C616E636520656E6F756768000000 PUSH1 0x0 DUP3 ADD MSTORE POP JUMP JUMPDEST PUSH1 0x0 PUSH2 0x203D PUSH1 0x1D DUP4 PUSH2 0x1541 JUMP JUMPDEST SWAP2 POP PUSH2 0x2048 DUP3 PUSH2 0x2007 JUMP JUMPDEST PUSH1 0x20 DUP3 ADD SWAP1 POP SWAP2 SWAP1 POP JUMP JUMPDEST PUSH1 0x0 PUSH1 0x20 DUP3 ADD SWAP1 POP DUP2 DUP2 SUB PUSH1 0x0 DUP4 ADD MSTORE PUSH2 0x206C DUP2 PUSH2 0x2030 JUMP JUMPDEST SWAP1 POP SWAP2 SWAP1 POP JUMP JUMPDEST PUSH32 0x596F757220496E737572616E6365206973207374696C6C206163746976650000 PUSH1 0x0 DUP3 ADD MSTORE POP JUMP JUMPDEST PUSH1 0x0 PUSH2 0x20A9 PUSH1 0x1E DUP4 PUSH2 0x1541 JUMP JUMPDEST SWAP2 POP PUSH2 0x20B4 DUP3 PUSH2 0x2073 JUMP JUMPDEST PUSH1 0x20 DUP3 ADD SWAP1 POP SWAP2 SWAP1 POP JUMP JUMPDEST PUSH1 0x0 PUSH1 0x20 DUP3 ADD SWAP1 POP DUP2 DUP2 SUB PUSH1 0x0 DUP4 ADD MSTORE PUSH2 0x20D8 DUP2 PUSH2 0x209C JUMP JUMPDEST SWAP1 POP SWAP2 SWAP1 POP JUMP JUMPDEST PUSH32 0x4F776E61626C653A206E6577206F776E657220697320746865207A65726F2061 PUSH1 0x0 DUP3 ADD MSTORE PUSH32 0x6464726573730000000000000000000000000000000000000000000000000000 PUSH1 0x20 DUP3 ADD MSTORE POP JUMP JUMPDEST PUSH1 0x0 PUSH2 0x213B PUSH1 0x26 DUP4 PUSH2 0x1541 JUMP JUMPDEST SWAP2 POP PUSH2 0x2146 DUP3 PUSH2 0x20DF JUMP JUMPDEST PUSH1 0x40 DUP3 ADD SWAP1 POP SWAP2 SWAP1 POP JUMP JUMPDEST PUSH1 0x0 PUSH1 0x20 DUP3 ADD SWAP1 POP DUP2 DUP2 SUB PUSH1 0x0 DUP4 ADD MSTORE PUSH2 0x216A DUP2 PUSH2 0x212E JUMP JUMPDEST SWAP1 POP SWAP2 SWAP1 POP JUMP JUMPDEST PUSH32 0x4F776E61626C653A2063616C6C6572206973206E6F7420746865206F776E6572 PUSH1 0x0 DUP3 ADD MSTORE POP JUMP JUMPDEST PUSH1 0x0 PUSH2 0x21A7 PUSH1 0x20 DUP4 PUSH2 0x1541 JUMP JUMPDEST SWAP2 POP PUSH2 0x21B2 DUP3 PUSH2 0x2171 JUMP JUMPDEST PUSH1 0x20 DUP3 ADD SWAP1 POP SWAP2 SWAP1 POP JUMP JUMPDEST PUSH1 0x0 PUSH1 0x20 DUP3 ADD SWAP1 POP DUP2 DUP2 SUB PUSH1 0x0 DUP4 ADD MSTORE PUSH2 0x21D6 DUP2 PUSH2 0x219A JUMP JUMPDEST SWAP1 POP SWAP2 SWAP1 POP JUMP JUMPDEST PUSH32 0x45524332303A20617070726F76652066726F6D20746865207A65726F20616464 PUSH1 0x0 DUP3 ADD MSTORE PUSH32 0x7265737300000000000000000000000000000000000000000000000000000000 PUSH1 0x20 DUP3 ADD MSTORE POP JUMP JUMPDEST PUSH1 0x0 PUSH2 0x2239 PUSH1 0x24 DUP4 PUSH2 0x1541 JUMP JUMPDEST SWAP2 POP PUSH2 0x2244 DUP3 PUSH2 0x21DD JUMP JUMPDEST PUSH1 0x40 DUP3 ADD SWAP1 POP SWAP2 SWAP1 POP JUMP JUMPDEST PUSH1 0x0 PUSH1 0x20 DUP3 ADD SWAP1 POP DUP2 DUP2 SUB PUSH1 0x0 DUP4 ADD MSTORE PUSH2 0x2268 DUP2 PUSH2 0x222C JUMP JUMPDEST SWAP1 POP SWAP2 SWAP1 POP JUMP JUMPDEST PUSH32 0x45524332303A20617070726F766520746F20746865207A65726F206164647265 PUSH1 0x0 DUP3 ADD MSTORE PUSH32 0x7373000000000000000000000000000000000000000000000000000000000000 PUSH1 0x20 DUP3 ADD MSTORE POP JUMP JUMPDEST PUSH1 0x0 PUSH2 0x22CB PUSH1 0x22 DUP4 PUSH2 0x1541 JUMP JUMPDEST SWAP2 POP PUSH2 0x22D6 DUP3 PUSH2 0x226F JUMP JUMPDEST PUSH1 0x40 DUP3 ADD SWAP1 POP SWAP2 SWAP1 POP JUMP JUMPDEST PUSH1 0x0 PUSH1 0x20 DUP3 ADD SWAP1 POP DUP2 DUP2 SUB PUSH1 0x0 DUP4 ADD MSTORE PUSH2 0x22FA DUP2 PUSH2 0x22BE JUMP JUMPDEST SWAP1 POP SWAP2 SWAP1 POP JUMP JUMPDEST PUSH32 0x45524332303A20696E73756666696369656E7420616C6C6F77616E6365000000 PUSH1 0x0 DUP3 ADD MSTORE POP JUMP JUMPDEST PUSH1 0x0 PUSH2 0x2337 PUSH1 0x1D DUP4 PUSH2 0x1541 JUMP JUMPDEST SWAP2 POP PUSH2 0x2342 DUP3 PUSH2 0x2301 JUMP JUMPDEST PUSH1 0x20 DUP3 ADD SWAP1 POP SWAP2 SWAP1 POP JUMP JUMPDEST PUSH1 0x0 PUSH1 0x20 DUP3 ADD SWAP1 POP DUP2 DUP2 SUB PUSH1 0x0 DUP4 ADD MSTORE PUSH2 0x2366 DUP2 PUSH2 0x232A JUMP JUMPDEST SWAP1 POP SWAP2 SWAP1 POP JUMP JUMPDEST PUSH32 0x45524332303A207472616E736665722066726F6D20746865207A65726F206164 PUSH1 0x0 DUP3 ADD MSTORE PUSH32 0x6472657373000000000000000000000000000000000000000000000000000000 PUSH1 0x20 DUP3 ADD MSTORE POP JUMP JUMPDEST PUSH1 0x0 PUSH2 0x23C9 PUSH1 0x25 DUP4 PUSH2 0x1541 JUMP JUMPDEST SWAP2 POP PUSH2 0x23D4 DUP3 PUSH2 0x236D JUMP JUMPDEST PUSH1 0x40 DUP3 ADD SWAP1 POP SWAP2 SWAP1 POP JUMP JUMPDEST PUSH1 0x0 PUSH1 0x20 DUP3 ADD SWAP1 POP DUP2 DUP2 SUB PUSH1 0x0 DUP4 ADD MSTORE PUSH2 0x23F8 DUP2 PUSH2 0x23BC JUMP JUMPDEST SWAP1 POP SWAP2 SWAP1 POP JUMP JUMPDEST PUSH32 0x45524332303A207472616E7366657220746F20746865207A65726F2061646472 PUSH1 0x0 DUP3 ADD MSTORE PUSH32 0x6573730000000000000000000000000000000000000000000000000000000000 PUSH1 0x20 DUP3 ADD MSTORE POP JUMP JUMPDEST PUSH1 0x0 PUSH2 0x245B PUSH1 0x23 DUP4 PUSH2 0x1541 JUMP JUMPDEST SWAP2 POP PUSH2 0x2466 DUP3 PUSH2 0x23FF JUMP JUMPDEST PUSH1 0x40 DUP3 ADD SWAP1 POP SWAP2 SWAP1 POP JUMP JUMPDEST PUSH1 0x0 PUSH1 0x20 DUP3 ADD SWAP1 POP DUP2 DUP2 SUB PUSH1 0x0 DUP4 ADD MSTORE PUSH2 0x248A DUP2 PUSH2 0x244E JUMP JUMPDEST SWAP1 POP SWAP2 SWAP1 POP JUMP JUMPDEST PUSH32 0x45524332303A207472616E7366657220616D6F756E7420657863656564732062 PUSH1 0x0 DUP3 ADD MSTORE PUSH32 0x616C616E63650000000000000000000000000000000000000000000000000000 PUSH1 0x20 DUP3 ADD MSTORE POP JUMP JUMPDEST PUSH1 0x0 PUSH2 0x24ED PUSH1 0x26 DUP4 PUSH2 0x1541 JUMP JUMPDEST SWAP2 POP PUSH2 0x24F8 DUP3 PUSH2 0x2491 JUMP JUMPDEST PUSH1 0x40 DUP3 ADD SWAP1 POP SWAP2 SWAP1 POP JUMP JUMPDEST PUSH1 0x0 PUSH1 0x20 DUP3 ADD SWAP1 POP DUP2 DUP2 SUB PUSH1 0x0 DUP4 ADD MSTORE PUSH2 0x251C DUP2 PUSH2 0x24E0 JUMP JUMPDEST SWAP1 POP SWAP2 SWAP1 POP JUMP INVALID LOG2 PUSH5 0x6970667358 0x22 SLT KECCAK256 0x4E PUSH27 0x530F61C83208C71ECA1786F0CEE64064FC06F74945669C534260D4 0xDE CALLVALUE MLOAD PUSH5 0x736F6C6343 STOP ADDMOD SGT STOP CALLER "
				},
				"gasEstimates": {
					"creation": {
						"codeDepositCost": "1912200",
						"executionCost": "infinite",
						"totalCost": "infinite"
					},
					"external": {
						"allowance(address,address)": "infinite",
						"approve(address,uint256)": "infinite",
						"balanceOf(address)": "2952",
						"decimals()": "410",
						"decreaseAllowance(address,uint256)": "infinite",
						"increaseAllowance(address,uint256)": "infinite",
						"insuranceAddress()": "2537",
						"name()": "infinite",
						"owner()": "2567",
						"registeCustomer(string,uint256)": "infinite",
						"registeInsurance()": "infinite",
						"registeredCustomer()": "2473",
						"registeredInsurance()": "2474",
						"renounceOwnership()": "30421",
						"symbol()": "infinite",
						"totalSupply()": "2527",
						"transfer(address,uint256)": "infinite",
						"transferFrom(address,address,uint256)": "infinite",
						"transferOwnership(address)": "30854",
						"users(address)": "infinite"
					}
				},
				"methodIdentifiers": {
					"allowance(address,address)": "dd62ed3e",
					"approve(address,uint256)": "095ea7b3",
					"balanceOf(address)": "70a08231",
					"decimals()": "313ce567",
					"decreaseAllowance(address,uint256)": "a457c2d7",
					"increaseAllowance(address,uint256)": "39509351",
					"insuranceAddress()": "2401273c",
					"name()": "06fdde03",
					"owner()": "8da5cb5b",
					"registeCustomer(string,uint256)": "080646ec",
					"registeInsurance()": "efd34f25",
					"registeredCustomer()": "caea5bc5",
					"registeredInsurance()": "25942212",
					"renounceOwnership()": "715018a6",
					"symbol()": "95d89b41",
					"totalSupply()": "18160ddd",
					"transfer(address,uint256)": "a9059cbb",
					"transferFrom(address,address,uint256)": "23b872dd",
					"transferOwnership(address)": "f2fde38b",
					"users(address)": "a87430ba"
				}
			},
			"storageLayout": {
				"storage": [
					{
						"astId": 128,
						"contract": "contracts/InsuranceContract.sol:InsuranceContract",
						"label": "_balances",
						"offset": 0,
						"slot": "0",
						"type": "t_mapping(t_address,t_uint256)"
					},
					{
						"astId": 134,
						"contract": "contracts/InsuranceContract.sol:InsuranceContract",
						"label": "_allowances",
						"offset": 0,
						"slot": "1",
						"type": "t_mapping(t_address,t_mapping(t_address,t_uint256))"
					},
					{
						"astId": 136,
						"contract": "contracts/InsuranceContract.sol:InsuranceContract",
						"label": "_totalSupply",
						"offset": 0,
						"slot": "2",
						"type": "t_uint256"
					},
					{
						"astId": 138,
						"contract": "contracts/InsuranceContract.sol:InsuranceContract",
						"label": "_name",
						"offset": 0,
						"slot": "3",
						"type": "t_string_storage"
					},
					{
						"astId": 140,
						"contract": "contracts/InsuranceContract.sol:InsuranceContract",
						"label": "_symbol",
						"offset": 0,
						"slot": "4",
						"type": "t_string_storage"
					},
					{
						"astId": 7,
						"contract": "contracts/InsuranceContract.sol:InsuranceContract",
						"label": "_owner",
						"offset": 0,
						"slot": "5",
						"type": "t_address"
					},
					{
						"astId": 835,
						"contract": "contracts/InsuranceContract.sol:InsuranceContract",
						"label": "insuranceAddress",
						"offset": 0,
						"slot": "6",
						"type": "t_address"
					},
					{
						"astId": 837,
						"contract": "contracts/InsuranceContract.sol:InsuranceContract",
						"label": "registeredInsurance",
						"offset": 0,
						"slot": "7",
						"type": "t_uint256"
					},
					{
						"astId": 839,
						"contract": "contracts/InsuranceContract.sol:InsuranceContract",
						"label": "registeredCustomer",
						"offset": 0,
						"slot": "8",
						"type": "t_uint256"
					},
					{
						"astId": 852,
						"contract": "contracts/InsuranceContract.sol:InsuranceContract",
						"label": "users",
						"offset": 0,
						"slot": "9",
						"type": "t_mapping(t_address,t_struct(User)863_storage)"
					}
				],
				"types": {
					"t_address": {
						"encoding": "inplace",
						"label": "address",
						"numberOfBytes": "20"
					},
					"t_mapping(t_address,t_mapping(t_address,t_uint256))": {
						"encoding": "mapping",
						"key": "t_address",
						"label": "mapping(address => mapping(address => uint256))",
						"numberOfBytes": "32",
						"value": "t_mapping(t_address,t_uint256)"
					},
					"t_mapping(t_address,t_struct(User)863_storage)": {
						"encoding": "mapping",
						"key": "t_address",
						"label": "mapping(address => struct InsuranceContract.User)",
						"numberOfBytes": "32",
						"value": "t_struct(User)863_storage"
					},
					"t_mapping(t_address,t_uint256)": {
						"encoding": "mapping",
						"key": "t_address",
						"label": "mapping(address => uint256)",
						"numberOfBytes": "32",
						"value": "t_uint256"
					},
					"t_string_storage": {
						"encoding": "bytes",
						"label": "string",
						"numberOfBytes": "32"
					},
					"t_struct(User)863_storage": {
						"encoding": "inplace",
						"label": "struct InsuranceContract.User",
						"members": [
							{
								"astId": 854,
								"contract": "contracts/InsuranceContract.sol:InsuranceContract",
								"label": "userName",
								"offset": 0,
								"slot": "0",
								"type": "t_string_storage"
							},
							{
								"astId": 856,
								"contract": "contracts/InsuranceContract.sol:InsuranceContract",
								"label": "userAddress",
								"offset": 0,
								"slot": "1",
								"type": "t_address"
							},
							{
								"astId": 858,
								"contract": "contracts/InsuranceContract.sol:InsuranceContract",
								"label": "userAge",
								"offset": 0,
								"slot": "2",
								"type": "t_uint256"
							},
							{
								"astId": 860,
								"contract": "contracts/InsuranceContract.sol:InsuranceContract",
								"label": "startInsurance",
								"offset": 0,
								"slot": "3",
								"type": "t_uint256"
							},
							{
								"astId": 862,
								"contract": "contracts/InsuranceContract.sol:InsuranceContract",
								"label": "endInsurance",
								"offset": 0,
								"slot": "4",
								"type": "t_uint256"
							}
						],
						"numberOfBytes": "160"
					},
					"t_uint256": {
						"encoding": "inplace",
						"label": "uint256",
						"numberOfBytes": "32"
					}
				}
			},
			"userdoc": {
				"kind": "user",
				"methods": {},
				"version": 1
			}
		}
	}
}