{
	"contracts/InsuranceContract.sol": {
		"InsuranceContract": {
			"abi": [
				{
					"inputs": [],
					"stateMutability": "nonpayable",
					"type": "constructor"
				},
				{
					"anonymous": false,
					"inputs": [
						{
							"indexed": true,
							"internalType": "address",
							"name": "owner",
							"type": "address"
						},
						{
							"indexed": true,
							"internalType": "address",
							"name": "spender",
							"type": "address"
						},
						{
							"indexed": false,
							"internalType": "uint256",
							"name": "value",
							"type": "uint256"
						}
					],
					"name": "Approval",
					"type": "event"
				},
				{
					"anonymous": false,
					"inputs": [
						{
							"indexed": true,
							"internalType": "address",
							"name": "previousOwner",
							"type": "address"
						},
						{
							"indexed": true,
							"internalType": "address",
							"name": "newOwner",
							"type": "address"
						}
					],
					"name": "OwnershipTransferred",
					"type": "event"
				},
				{
					"anonymous": false,
					"inputs": [
						{
							"indexed": true,
							"internalType": "address",
							"name": "from",
							"type": "address"
						},
						{
							"indexed": true,
							"internalType": "address",
							"name": "to",
							"type": "address"
						},
						{
							"indexed": false,
							"internalType": "uint256",
							"name": "value",
							"type": "uint256"
						}
					],
					"name": "Transfer",
					"type": "event"
				},
				{
					"inputs": [
						{
							"internalType": "address",
							"name": "owner",
							"type": "address"
						},
						{
							"internalType": "address",
							"name": "spender",
							"type": "address"
						}
					],
					"name": "allowance",
					"outputs": [
						{
							"internalType": "uint256",
							"name": "",
							"type": "uint256"
						}
					],
					"stateMutability": "view",
					"type": "function"
				},
				{
					"inputs": [
						{
							"internalType": "address",
							"name": "spender",
							"type": "address"
						},
						{
							"internalType": "uint256",
							"name": "amount",
							"type": "uint256"
						}
					],
					"name": "approve",
					"outputs": [
						{
							"internalType": "bool",
							"name": "",
							"type": "bool"
						}
					],
					"stateMutability": "nonpayable",
					"type": "function"
				},
				{
					"inputs": [
						{
							"internalType": "address",
							"name": "account",
							"type": "address"
						}
					],
					"name": "balanceOf",
					"outputs": [
						{
							"internalType": "uint256",
							"name": "",
							"type": "uint256"
						}
					],
					"stateMutability": "view",
					"type": "function"
				},
				{
					"inputs": [],
					"name": "decimals",
					"outputs": [
						{
							"internalType": "uint8",
							"name": "",
							"type": "uint8"
						}
					],
					"stateMutability": "view",
					"type": "function"
				},
				{
					"inputs": [
						{
							"internalType": "address",
							"name": "spender",
							"type": "address"
						},
						{
							"internalType": "uint256",
							"name": "subtractedValue",
							"type": "uint256"
						}
					],
					"name": "decreaseAllowance",
					"outputs": [
						{
							"internalType": "bool",
							"name": "",
							"type": "bool"
						}
					],
					"stateMutability": "nonpayable",
					"type": "function"
				},
				{
					"inputs": [
						{
							"internalType": "address",
							"name": "spender",
							"type": "address"
						},
						{
							"internalType": "uint256",
							"name": "addedValue",
							"type": "uint256"
						}
					],
					"name": "increaseAllowance",
					"outputs": [
						{
							"internalType": "bool",
							"name": "",
							"type": "bool"
						}
					],
					"stateMutability": "nonpayable",
					"type": "function"
				},
				{
					"inputs": [],
					"name": "insuranceAddress",
					"outputs": [
						{
							"internalType": "address",
							"name": "",
							"type": "address"
						}
					],
					"stateMutability": "view",
					"type": "function"
				},
				{
					"inputs": [],
					"name": "name",
					"outputs": [
						{
							"internalType": "string",
							"name": "",
							"type": "string"
						}
					],
					"stateMutability": "view",
					"type": "function"
				},
				{
					"inputs": [],
					"name": "owner",
					"outputs": [
						{
							"internalType": "address",
							"name": "",
							"type": "address"
						}
					],
					"stateMutability": "view",
					"type": "function"
				},
				{
					"inputs": [
						{
							"internalType": "string",
							"name": "newName",
							"type": "string"
						},
						{
							"internalType": "uint256",
							"name": "newAge",
							"type": "uint256"
						}
					],
					"name": "registeCustomer",
					"outputs": [],
					"stateMutability": "payable",
					"type": "function"
				},
				{
					"inputs": [],
					"name": "registeredCustomer",
					"outputs": [
						{
							"internalType": "uint256",
							"name": "",
							"type": "uint256"
						}
					],
					"stateMutability": "view",
					"type": "function"
				},
				{
					"inputs": [],
					"name": "registeredInsurance",
					"outputs": [
						{
							"internalType": "uint256",
							"name": "",
							"type": "uint256"
						}
					],
					"stateMutability": "view",
					"type": "function"
				},
				{
					"inputs": [],
					"name": "renounceOwnership",
					"outputs": [],
					"stateMutability": "nonpayable",
					"type": "function"
				},
				{
					"inputs": [],
					"name": "symbol",
					"outputs": [
						{
							"internalType": "string",
							"name": "",
							"type": "string"
						}
					],
					"stateMutability": "view",
					"type": "function"
				},
				{
					"inputs": [],
					"name": "totalSupply",
					"outputs": [
						{
							"internalType": "uint256",
							"name": "",
							"type": "uint256"
						}
					],
					"stateMutability": "view",
					"type": "function"
				},
				{
					"inputs": [
						{
							"internalType": "address",
							"name": "to",
							"type": "address"
						},
						{
							"internalType": "uint256",
							"name": "amount",
							"type": "uint256"
						}
					],
					"name": "transfer",
					"outputs": [
						{
							"internalType": "bool",
							"name": "",
							"type": "bool"
						}
					],
					"stateMutability": "nonpayable",
					"type": "function"
				},
				{
					"inputs": [
						{
							"internalType": "address",
							"name": "from",
							"type": "address"
						},
						{
							"internalType": "address",
							"name": "to",
							"type": "address"
						},
						{
							"internalType": "uint256",
							"name": "amount",
							"type": "uint256"
						}
					],
					"name": "transferFrom",
					"outputs": [
						{
							"internalType": "bool",
							"name": "",
							"type": "bool"
						}
					],
					"stateMutability": "nonpayable",
					"type": "function"
				},
				{
					"inputs": [
						{
							"internalType": "address",
							"name": "newOwner",
							"type": "address"
						}
					],
					"name": "transferOwnership",
					"outputs": [],
					"stateMutability": "nonpayable",
					"type": "function"
				},
				{
					"inputs": [
						{
							"internalType": "address",
							"name": "",
							"type": "address"
						}
					],
					"name": "users",
					"outputs": [
						{
							"internalType": "string",
							"name": "userName",
							"type": "string"
						},
						{
							"internalType": "address",
							"name": "userAddress",
							"type": "address"
						},
						{
							"internalType": "uint256",
							"name": "userAge",
							"type": "uint256"
						},
						{
							"internalType": "uint256",
							"name": "userBalance",
							"type": "uint256"
						},
						{
							"internalType": "uint256",
							"name": "startInsurance",
							"type": "uint256"
						},
						{
							"internalType": "uint256",
							"name": "endInsurance",
							"type": "uint256"
						}
					],
					"stateMutability": "view",
					"type": "function"
				}
			],
			"devdoc": {
				"events": {
					"Approval(address,address,uint256)": {
						"details": "Emitted when the allowance of a `spender` for an `owner` is set by a call to {approve}. `value` is the new allowance."
					},
					"Transfer(address,address,uint256)": {
						"details": "Emitted when `value` tokens are moved from one account (`from`) to another (`to`). Note that `value` may be zero."
					}
				},
				"kind": "dev",
				"methods": {
					"allowance(address,address)": {
						"details": "See {IERC20-allowance}."
					},
					"approve(address,uint256)": {
						"details": "See {IERC20-approve}. NOTE: If `amount` is the maximum `uint256`, the allowance is not updated on `transferFrom`. This is semantically equivalent to an infinite approval. Requirements: - `spender` cannot be the zero address."
					},
					"balanceOf(address)": {
						"details": "See {IERC20-balanceOf}."
					},
					"decimals()": {
						"details": "Returns the number of decimals used to get its user representation. For example, if `decimals` equals `2`, a balance of `505` tokens should be displayed to a user as `5.05` (`505 / 10 ** 2`). Tokens usually opt for a value of 18, imitating the relationship between Ether and Wei. This is the default value returned by this function, unless it's overridden. NOTE: This information is only used for _display_ purposes: it in no way affects any of the arithmetic of the contract, including {IERC20-balanceOf} and {IERC20-transfer}."
					},
					"decreaseAllowance(address,uint256)": {
						"details": "Atomically decreases the allowance granted to `spender` by the caller. This is an alternative to {approve} that can be used as a mitigation for problems described in {IERC20-approve}. Emits an {Approval} event indicating the updated allowance. Requirements: - `spender` cannot be the zero address. - `spender` must have allowance for the caller of at least `subtractedValue`."
					},
					"increaseAllowance(address,uint256)": {
						"details": "Atomically increases the allowance granted to `spender` by the caller. This is an alternative to {approve} that can be used as a mitigation for problems described in {IERC20-approve}. Emits an {Approval} event indicating the updated allowance. Requirements: - `spender` cannot be the zero address."
					},
					"name()": {
						"details": "Returns the name of the token."
					},
					"owner()": {
						"details": "Returns the address of the current owner."
					},
					"renounceOwnership()": {
						"details": "Leaves the contract without owner. It will not be possible to call `onlyOwner` functions. Can only be called by the current owner. NOTE: Renouncing ownership will leave the contract without an owner, thereby disabling any functionality that is only available to the owner."
					},
					"symbol()": {
						"details": "Returns the symbol of the token, usually a shorter version of the name."
					},
					"totalSupply()": {
						"details": "See {IERC20-totalSupply}."
					},
					"transfer(address,uint256)": {
						"details": "See {IERC20-transfer}. Requirements: - `to` cannot be the zero address. - the caller must have a balance of at least `amount`."
					},
					"transferFrom(address,address,uint256)": {
						"details": "See {IERC20-transferFrom}. Emits an {Approval} event indicating the updated allowance. This is not required by the EIP. See the note at the beginning of {ERC20}. NOTE: Does not update the allowance if the current allowance is the maximum `uint256`. Requirements: - `from` and `to` cannot be the zero address. - `from` must have a balance of at least `amount`. - the caller must have allowance for ``from``'s tokens of at least `amount`."
					},
					"transferOwnership(address)": {
						"details": "Transfers ownership of the contract to a new account (`newOwner`). Can only be called by the current owner."
					}
				},
				"version": 1
			},
			"evm": {
				"assembly": "    /* \"contracts/InsuranceContract.sol\":168:1639  contract InsuranceContract is ERC20, Ownable {... */\n  mstore(0x40, 0x80)\n    /* \"contracts/InsuranceContract.sol\":253:295  0xd7b5B1e52369F1402Ba350d7f5Dd3D247717c157 */\n  0xd7b5b1e52369f1402ba350d7f5dd3d247717c157\n    /* \"contracts/InsuranceContract.sol\":219:295  address public insuranceAddress = 0xd7b5B1e52369F1402Ba350d7f5Dd3D247717c157 */\n  0x06\n  exp(0x0100, 0x00)\n  dup2\n  sload\n  dup2\n  0xffffffffffffffffffffffffffffffffffffffff\n  mul\n  not\n  and\n  swap1\n  dup4\n  0xffffffffffffffffffffffffffffffffffffffff\n  and\n  mul\n  or\n  swap1\n  sstore\n  pop\n    /* \"contracts/InsuranceContract.sol\":458:509  constructor() ERC20(\"Muhannad Insurance\", \"MIT\") {} */\n  callvalue\n  dup1\n  iszero\n  tag_1\n  jumpi\n  0x00\n  dup1\n  revert\ntag_1:\n  pop\n    /* \"@openzeppelin/contracts/token/ERC20/ERC20.sol\":1980:2093  constructor(string memory name_, string memory symbol_) {... */\n  mload(0x40)\n  dup1\n  0x40\n  add\n  0x40\n  mstore\n  dup1\n  0x12\n  dup2\n  mstore\n  0x20\n  add\n  0x4d7568616e6e616420496e737572616e63650000000000000000000000000000\n  dup2\n  mstore\n  pop\n  mload(0x40)\n  dup1\n  0x40\n  add\n  0x40\n  mstore\n  dup1\n  0x03\n  dup2\n  mstore\n  0x20\n  add\n  0x4d49540000000000000000000000000000000000000000000000000000000000\n  dup2\n  mstore\n  pop\n    /* \"@openzeppelin/contracts/token/ERC20/ERC20.sol\":2054:2059  name_ */\n  dup2\n    /* \"@openzeppelin/contracts/token/ERC20/ERC20.sol\":2046:2051  _name */\n  0x03\n    /* \"@openzeppelin/contracts/token/ERC20/ERC20.sol\":2046:2059  _name = name_ */\n  swap1\n  dup2\n  tag_6\n  swap2\n  swap1\n  tag_7\n  jump\t// in\ntag_6:\n  pop\n    /* \"@openzeppelin/contracts/token/ERC20/ERC20.sol\":2079:2086  symbol_ */\n  dup1\n    /* \"@openzeppelin/contracts/token/ERC20/ERC20.sol\":2069:2076  _symbol */\n  0x04\n    /* \"@openzeppelin/contracts/token/ERC20/ERC20.sol\":2069:2086  _symbol = symbol_ */\n  swap1\n  dup2\n  tag_8\n  swap2\n  swap1\n  tag_7\n  jump\t// in\ntag_8:\n  pop\n    /* \"@openzeppelin/contracts/token/ERC20/ERC20.sol\":1980:2093  constructor(string memory name_, string memory symbol_) {... */\n  pop\n  pop\n    /* \"@openzeppelin/contracts/access/Ownable.sol\":936:968  _transferOwnership(_msgSender()) */\n  tag_10\n    /* \"@openzeppelin/contracts/access/Ownable.sol\":955:967  _msgSender() */\n  tag_11\n    /* \"@openzeppelin/contracts/access/Ownable.sol\":955:965  _msgSender */\n  shl(0x20, tag_12)\n    /* \"@openzeppelin/contracts/access/Ownable.sol\":955:967  _msgSender() */\n  0x20\n  shr\n  jump\t// in\ntag_11:\n    /* \"@openzeppelin/contracts/access/Ownable.sol\":936:954  _transferOwnership */\n  shl(0x20, tag_13)\n    /* \"@openzeppelin/contracts/access/Ownable.sol\":936:968  _transferOwnership(_msgSender()) */\n  0x20\n  shr\n  jump\t// in\ntag_10:\n    /* \"contracts/InsuranceContract.sol\":168:1639  contract InsuranceContract is ERC20, Ownable {... */\n  jump(tag_15)\n    /* \"@openzeppelin/contracts/utils/Context.sol\":640:736  function _msgSender() internal view virtual returns (address) {... */\ntag_12:\n    /* \"@openzeppelin/contracts/utils/Context.sol\":693:700  address */\n  0x00\n    /* \"@openzeppelin/contracts/utils/Context.sol\":719:729  msg.sender */\n  caller\n    /* \"@openzeppelin/contracts/utils/Context.sol\":712:729  return msg.sender */\n  swap1\n  pop\n    /* \"@openzeppelin/contracts/utils/Context.sol\":640:736  function _msgSender() internal view virtual returns (address) {... */\n  swap1\n  jump\t// out\n    /* \"@openzeppelin/contracts/access/Ownable.sol\":2426:2613  function _transferOwnership(address newOwner) internal virtual {... */\ntag_13:\n    /* \"@openzeppelin/contracts/access/Ownable.sol\":2499:2515  address oldOwner */\n  0x00\n    /* \"@openzeppelin/contracts/access/Ownable.sol\":2518:2524  _owner */\n  0x05\n  0x00\n  swap1\n  sload\n  swap1\n  0x0100\n  exp\n  swap1\n  div\n  0xffffffffffffffffffffffffffffffffffffffff\n  and\n    /* \"@openzeppelin/contracts/access/Ownable.sol\":2499:2524  address oldOwner = _owner */\n  swap1\n  pop\n    /* \"@openzeppelin/contracts/access/Ownable.sol\":2543:2551  newOwner */\n  dup2\n    /* \"@openzeppelin/contracts/access/Ownable.sol\":2534:2540  _owner */\n  0x05\n  0x00\n    /* \"@openzeppelin/contracts/access/Ownable.sol\":2534:2551  _owner = newOwner */\n  0x0100\n  exp\n  dup2\n  sload\n  dup2\n  0xffffffffffffffffffffffffffffffffffffffff\n  mul\n  not\n  and\n  swap1\n  dup4\n  0xffffffffffffffffffffffffffffffffffffffff\n  and\n  mul\n  or\n  swap1\n  sstore\n  pop\n    /* \"@openzeppelin/contracts/access/Ownable.sol\":2597:2605  newOwner */\n  dup2\n    /* \"@openzeppelin/contracts/access/Ownable.sol\":2566:2606  OwnershipTransferred(oldOwner, newOwner) */\n  0xffffffffffffffffffffffffffffffffffffffff\n  and\n    /* \"@openzeppelin/contracts/access/Ownable.sol\":2587:2595  oldOwner */\n  dup2\n    /* \"@openzeppelin/contracts/access/Ownable.sol\":2566:2606  OwnershipTransferred(oldOwner, newOwner) */\n  0xffffffffffffffffffffffffffffffffffffffff\n  and\n  0x8be0079c531659141344cd1fd0a4f28419497f9722a3daafe3b4186f6b6457e0\n  mload(0x40)\n  mload(0x40)\n  dup1\n  swap2\n  sub\n  swap1\n  log3\n    /* \"@openzeppelin/contracts/access/Ownable.sol\":2489:2613  {... */\n  pop\n    /* \"@openzeppelin/contracts/access/Ownable.sol\":2426:2613  function _transferOwnership(address newOwner) internal virtual {... */\n  pop\n  jump\t// out\n    /* \"#utility.yul\":7:106   */\ntag_18:\n    /* \"#utility.yul\":59:65   */\n  0x00\n    /* \"#utility.yul\":93:98   */\n  dup2\n    /* \"#utility.yul\":87:99   */\n  mload\n    /* \"#utility.yul\":77:99   */\n  swap1\n  pop\n    /* \"#utility.yul\":7:106   */\n  swap2\n  swap1\n  pop\n  jump\t// out\n    /* \"#utility.yul\":112:292   */\ntag_19:\n    /* \"#utility.yul\":160:237   */\n  0x4e487b7100000000000000000000000000000000000000000000000000000000\n    /* \"#utility.yul\":157:158   */\n  0x00\n    /* \"#utility.yul\":150:238   */\n  mstore\n    /* \"#utility.yul\":257:261   */\n  0x41\n    /* \"#utility.yul\":254:255   */\n  0x04\n    /* \"#utility.yul\":247:262   */\n  mstore\n    /* \"#utility.yul\":281:285   */\n  0x24\n    /* \"#utility.yul\":278:279   */\n  0x00\n    /* \"#utility.yul\":271:286   */\n  revert\n    /* \"#utility.yul\":298:478   */\ntag_20:\n    /* \"#utility.yul\":346:423   */\n  0x4e487b7100000000000000000000000000000000000000000000000000000000\n    /* \"#utility.yul\":343:344   */\n  0x00\n    /* \"#utility.yul\":336:424   */\n  mstore\n    /* \"#utility.yul\":443:447   */\n  0x22\n    /* \"#utility.yul\":440:441   */\n  0x04\n    /* \"#utility.yul\":433:448   */\n  mstore\n    /* \"#utility.yul\":467:471   */\n  0x24\n    /* \"#utility.yul\":464:465   */\n  0x00\n    /* \"#utility.yul\":457:472   */\n  revert\n    /* \"#utility.yul\":484:804   */\ntag_21:\n    /* \"#utility.yul\":528:534   */\n  0x00\n    /* \"#utility.yul\":565:566   */\n  0x02\n    /* \"#utility.yul\":559:563   */\n  dup3\n    /* \"#utility.yul\":555:567   */\n  div\n    /* \"#utility.yul\":545:567   */\n  swap1\n  pop\n    /* \"#utility.yul\":612:613   */\n  0x01\n    /* \"#utility.yul\":606:610   */\n  dup3\n    /* \"#utility.yul\":602:614   */\n  and\n    /* \"#utility.yul\":633:651   */\n  dup1\n    /* \"#utility.yul\":623:704   */\n  tag_43\n  jumpi\n    /* \"#utility.yul\":689:693   */\n  0x7f\n    /* \"#utility.yul\":681:687   */\n  dup3\n    /* \"#utility.yul\":677:694   */\n  and\n    /* \"#utility.yul\":667:694   */\n  swap2\n  pop\n    /* \"#utility.yul\":623:704   */\ntag_43:\n    /* \"#utility.yul\":751:753   */\n  0x20\n    /* \"#utility.yul\":743:749   */\n  dup3\n    /* \"#utility.yul\":740:754   */\n  lt\n    /* \"#utility.yul\":720:738   */\n  dup2\n    /* \"#utility.yul\":717:755   */\n  sub\n    /* \"#utility.yul\":714:798   */\n  tag_44\n  jumpi\n    /* \"#utility.yul\":770:788   */\n  tag_45\n  tag_20\n  jump\t// in\ntag_45:\n    /* \"#utility.yul\":714:798   */\ntag_44:\n    /* \"#utility.yul\":535:804   */\n  pop\n    /* \"#utility.yul\":484:804   */\n  swap2\n  swap1\n  pop\n  jump\t// out\n    /* \"#utility.yul\":810:951   */\ntag_22:\n    /* \"#utility.yul\":859:863   */\n  0x00\n    /* \"#utility.yul\":882:885   */\n  dup2\n    /* \"#utility.yul\":874:885   */\n  swap1\n  pop\n    /* \"#utility.yul\":905:908   */\n  dup2\n    /* \"#utility.yul\":902:903   */\n  0x00\n    /* \"#utility.yul\":895:909   */\n  mstore\n    /* \"#utility.yul\":939:943   */\n  0x20\n    /* \"#utility.yul\":936:937   */\n  0x00\n    /* \"#utility.yul\":926:944   */\n  keccak256\n    /* \"#utility.yul\":918:944   */\n  swap1\n  pop\n    /* \"#utility.yul\":810:951   */\n  swap2\n  swap1\n  pop\n  jump\t// out\n    /* \"#utility.yul\":957:1050   */\ntag_23:\n    /* \"#utility.yul\":994:1000   */\n  0x00\n    /* \"#utility.yul\":1041:1043   */\n  0x20\n    /* \"#utility.yul\":1036:1038   */\n  0x1f\n    /* \"#utility.yul\":1029:1034   */\n  dup4\n    /* \"#utility.yul\":1025:1039   */\n  add\n    /* \"#utility.yul\":1021:1044   */\n  div\n    /* \"#utility.yul\":1011:1044   */\n  swap1\n  pop\n    /* \"#utility.yul\":957:1050   */\n  swap2\n  swap1\n  pop\n  jump\t// out\n    /* \"#utility.yul\":1056:1163   */\ntag_24:\n    /* \"#utility.yul\":1100:1108   */\n  0x00\n    /* \"#utility.yul\":1150:1155   */\n  dup3\n    /* \"#utility.yul\":1144:1148   */\n  dup3\n    /* \"#utility.yul\":1140:1156   */\n  shl\n    /* \"#utility.yul\":1119:1156   */\n  swap1\n  pop\n    /* \"#utility.yul\":1056:1163   */\n  swap3\n  swap2\n  pop\n  pop\n  jump\t// out\n    /* \"#utility.yul\":1169:1562   */\ntag_25:\n    /* \"#utility.yul\":1238:1244   */\n  0x00\n    /* \"#utility.yul\":1288:1289   */\n  0x08\n    /* \"#utility.yul\":1276:1286   */\n  dup4\n    /* \"#utility.yul\":1272:1290   */\n  mul\n    /* \"#utility.yul\":1311:1408   */\n  tag_50\n    /* \"#utility.yul\":1341:1407   */\n  0xffffffffffffffffffffffffffffffffffffffffffffffffffffffffffffffff\n    /* \"#utility.yul\":1330:1339   */\n  dup3\n    /* \"#utility.yul\":1311:1408   */\n  tag_24\n  jump\t// in\ntag_50:\n    /* \"#utility.yul\":1429:1468   */\n  tag_51\n    /* \"#utility.yul\":1459:1467   */\n  dup7\n    /* \"#utility.yul\":1448:1457   */\n  dup4\n    /* \"#utility.yul\":1429:1468   */\n  tag_24\n  jump\t// in\ntag_51:\n    /* \"#utility.yul\":1417:1468   */\n  swap6\n  pop\n    /* \"#utility.yul\":1501:1505   */\n  dup1\n    /* \"#utility.yul\":1497:1506   */\n  not\n    /* \"#utility.yul\":1490:1495   */\n  dup5\n    /* \"#utility.yul\":1486:1507   */\n  and\n    /* \"#utility.yul\":1477:1507   */\n  swap4\n  pop\n    /* \"#utility.yul\":1550:1554   */\n  dup1\n    /* \"#utility.yul\":1540:1548   */\n  dup7\n    /* \"#utility.yul\":1536:1555   */\n  and\n    /* \"#utility.yul\":1529:1534   */\n  dup5\n    /* \"#utility.yul\":1526:1556   */\n  or\n    /* \"#utility.yul\":1516:1556   */\n  swap3\n  pop\n    /* \"#utility.yul\":1245:1562   */\n  pop\n  pop\n    /* \"#utility.yul\":1169:1562   */\n  swap4\n  swap3\n  pop\n  pop\n  pop\n  jump\t// out\n    /* \"#utility.yul\":1568:1645   */\ntag_26:\n    /* \"#utility.yul\":1605:1612   */\n  0x00\n    /* \"#utility.yul\":1634:1639   */\n  dup2\n    /* \"#utility.yul\":1623:1639   */\n  swap1\n  pop\n    /* \"#utility.yul\":1568:1645   */\n  swap2\n  swap1\n  pop\n  jump\t// out\n    /* \"#utility.yul\":1651:1711   */\ntag_27:\n    /* \"#utility.yul\":1679:1682   */\n  0x00\n    /* \"#utility.yul\":1700:1705   */\n  dup2\n    /* \"#utility.yul\":1693:1705   */\n  swap1\n  pop\n    /* \"#utility.yul\":1651:1711   */\n  swap2\n  swap1\n  pop\n  jump\t// out\n    /* \"#utility.yul\":1717:1859   */\ntag_28:\n    /* \"#utility.yul\":1767:1776   */\n  0x00\n    /* \"#utility.yul\":1800:1853   */\n  tag_55\n    /* \"#utility.yul\":1818:1852   */\n  tag_56\n    /* \"#utility.yul\":1827:1851   */\n  tag_57\n    /* \"#utility.yul\":1845:1850   */\n  dup5\n    /* \"#utility.yul\":1827:1851   */\n  tag_26\n  jump\t// in\ntag_57:\n    /* \"#utility.yul\":1818:1852   */\n  tag_27\n  jump\t// in\ntag_56:\n    /* \"#utility.yul\":1800:1853   */\n  tag_26\n  jump\t// in\ntag_55:\n    /* \"#utility.yul\":1787:1853   */\n  swap1\n  pop\n    /* \"#utility.yul\":1717:1859   */\n  swap2\n  swap1\n  pop\n  jump\t// out\n    /* \"#utility.yul\":1865:1940   */\ntag_29:\n    /* \"#utility.yul\":1908:1911   */\n  0x00\n    /* \"#utility.yul\":1929:1934   */\n  dup2\n    /* \"#utility.yul\":1922:1934   */\n  swap1\n  pop\n    /* \"#utility.yul\":1865:1940   */\n  swap2\n  swap1\n  pop\n  jump\t// out\n    /* \"#utility.yul\":1946:2215   */\ntag_30:\n    /* \"#utility.yul\":2056:2095   */\n  tag_60\n    /* \"#utility.yul\":2087:2094   */\n  dup4\n    /* \"#utility.yul\":2056:2095   */\n  tag_28\n  jump\t// in\ntag_60:\n    /* \"#utility.yul\":2117:2208   */\n  tag_61\n    /* \"#utility.yul\":2166:2207   */\n  tag_62\n    /* \"#utility.yul\":2190:2206   */\n  dup3\n    /* \"#utility.yul\":2166:2207   */\n  tag_29\n  jump\t// in\ntag_62:\n    /* \"#utility.yul\":2158:2164   */\n  dup5\n    /* \"#utility.yul\":2151:2155   */\n  dup5\n    /* \"#utility.yul\":2145:2156   */\n  sload\n    /* \"#utility.yul\":2117:2208   */\n  tag_25\n  jump\t// in\ntag_61:\n    /* \"#utility.yul\":2111:2115   */\n  dup3\n    /* \"#utility.yul\":2104:2209   */\n  sstore\n    /* \"#utility.yul\":2022:2215   */\n  pop\n    /* \"#utility.yul\":1946:2215   */\n  pop\n  pop\n  pop\n  jump\t// out\n    /* \"#utility.yul\":2221:2294   */\ntag_31:\n    /* \"#utility.yul\":2266:2269   */\n  0x00\n    /* \"#utility.yul\":2221:2294   */\n  swap1\n  jump\t// out\n    /* \"#utility.yul\":2300:2489   */\ntag_32:\n    /* \"#utility.yul\":2377:2409   */\n  tag_65\n  tag_31\n  jump\t// in\ntag_65:\n    /* \"#utility.yul\":2418:2483   */\n  tag_66\n    /* \"#utility.yul\":2476:2482   */\n  dup2\n    /* \"#utility.yul\":2468:2474   */\n  dup5\n    /* \"#utility.yul\":2462:2466   */\n  dup5\n    /* \"#utility.yul\":2418:2483   */\n  tag_30\n  jump\t// in\ntag_66:\n    /* \"#utility.yul\":2353:2489   */\n  pop\n    /* \"#utility.yul\":2300:2489   */\n  pop\n  pop\n  jump\t// out\n    /* \"#utility.yul\":2495:2681   */\ntag_33:\n    /* \"#utility.yul\":2555:2675   */\ntag_68:\n    /* \"#utility.yul\":2572:2575   */\n  dup2\n    /* \"#utility.yul\":2565:2570   */\n  dup2\n    /* \"#utility.yul\":2562:2576   */\n  lt\n    /* \"#utility.yul\":2555:2675   */\n  iszero\n  tag_70\n  jumpi\n    /* \"#utility.yul\":2626:2665   */\n  tag_71\n    /* \"#utility.yul\":2663:2664   */\n  0x00\n    /* \"#utility.yul\":2656:2661   */\n  dup3\n    /* \"#utility.yul\":2626:2665   */\n  tag_32\n  jump\t// in\ntag_71:\n    /* \"#utility.yul\":2599:2600   */\n  0x01\n    /* \"#utility.yul\":2592:2597   */\n  dup2\n    /* \"#utility.yul\":2588:2601   */\n  add\n    /* \"#utility.yul\":2579:2601   */\n  swap1\n  pop\n    /* \"#utility.yul\":2555:2675   */\n  jump(tag_68)\ntag_70:\n    /* \"#utility.yul\":2495:2681   */\n  pop\n  pop\n  jump\t// out\n    /* \"#utility.yul\":2687:3230   */\ntag_34:\n    /* \"#utility.yul\":2788:2790   */\n  0x1f\n    /* \"#utility.yul\":2783:2786   */\n  dup3\n    /* \"#utility.yul\":2780:2791   */\n  gt\n    /* \"#utility.yul\":2777:3223   */\n  iszero\n  tag_73\n  jumpi\n    /* \"#utility.yul\":2822:2860   */\n  tag_74\n    /* \"#utility.yul\":2854:2859   */\n  dup2\n    /* \"#utility.yul\":2822:2860   */\n  tag_22\n  jump\t// in\ntag_74:\n    /* \"#utility.yul\":2906:2935   */\n  tag_75\n    /* \"#utility.yul\":2924:2934   */\n  dup5\n    /* \"#utility.yul\":2906:2935   */\n  tag_23\n  jump\t// in\ntag_75:\n    /* \"#utility.yul\":2896:2904   */\n  dup2\n    /* \"#utility.yul\":2892:2936   */\n  add\n    /* \"#utility.yul\":3089:3091   */\n  0x20\n    /* \"#utility.yul\":3077:3087   */\n  dup6\n    /* \"#utility.yul\":3074:3092   */\n  lt\n    /* \"#utility.yul\":3071:3120   */\n  iszero\n  tag_76\n  jumpi\n    /* \"#utility.yul\":3110:3118   */\n  dup2\n    /* \"#utility.yul\":3095:3118   */\n  swap1\n  pop\n    /* \"#utility.yul\":3071:3120   */\ntag_76:\n    /* \"#utility.yul\":3133:3213   */\n  tag_77\n    /* \"#utility.yul\":3189:3211   */\n  tag_78\n    /* \"#utility.yul\":3207:3210   */\n  dup6\n    /* \"#utility.yul\":3189:3211   */\n  tag_23\n  jump\t// in\ntag_78:\n    /* \"#utility.yul\":3179:3187   */\n  dup4\n    /* \"#utility.yul\":3175:3212   */\n  add\n    /* \"#utility.yul\":3162:3173   */\n  dup3\n    /* \"#utility.yul\":3133:3213   */\n  tag_33\n  jump\t// in\ntag_77:\n    /* \"#utility.yul\":2792:3223   */\n  pop\n  pop\n    /* \"#utility.yul\":2777:3223   */\ntag_73:\n    /* \"#utility.yul\":2687:3230   */\n  pop\n  pop\n  pop\n  jump\t// out\n    /* \"#utility.yul\":3236:3353   */\ntag_35:\n    /* \"#utility.yul\":3290:3298   */\n  0x00\n    /* \"#utility.yul\":3340:3345   */\n  dup3\n    /* \"#utility.yul\":3334:3338   */\n  dup3\n    /* \"#utility.yul\":3330:3346   */\n  shr\n    /* \"#utility.yul\":3309:3346   */\n  swap1\n  pop\n    /* \"#utility.yul\":3236:3353   */\n  swap3\n  swap2\n  pop\n  pop\n  jump\t// out\n    /* \"#utility.yul\":3359:3528   */\ntag_36:\n    /* \"#utility.yul\":3403:3409   */\n  0x00\n    /* \"#utility.yul\":3436:3487   */\n  tag_81\n    /* \"#utility.yul\":3484:3485   */\n  0x00\n    /* \"#utility.yul\":3480:3486   */\n  not\n    /* \"#utility.yul\":3472:3477   */\n  dup5\n    /* \"#utility.yul\":3469:3470   */\n  0x08\n    /* \"#utility.yul\":3465:3478   */\n  mul\n    /* \"#utility.yul\":3436:3487   */\n  tag_35\n  jump\t// in\ntag_81:\n    /* \"#utility.yul\":3432:3488   */\n  not\n    /* \"#utility.yul\":3517:3521   */\n  dup1\n    /* \"#utility.yul\":3511:3515   */\n  dup4\n    /* \"#utility.yul\":3507:3522   */\n  and\n    /* \"#utility.yul\":3497:3522   */\n  swap2\n  pop\n    /* \"#utility.yul\":3410:3528   */\n  pop\n    /* \"#utility.yul\":3359:3528   */\n  swap3\n  swap2\n  pop\n  pop\n  jump\t// out\n    /* \"#utility.yul\":3533:3828   */\ntag_37:\n    /* \"#utility.yul\":3609:3613   */\n  0x00\n    /* \"#utility.yul\":3755:3784   */\n  tag_83\n    /* \"#utility.yul\":3780:3783   */\n  dup4\n    /* \"#utility.yul\":3774:3778   */\n  dup4\n    /* \"#utility.yul\":3755:3784   */\n  tag_36\n  jump\t// in\ntag_83:\n    /* \"#utility.yul\":3747:3784   */\n  swap2\n  pop\n    /* \"#utility.yul\":3817:3820   */\n  dup3\n    /* \"#utility.yul\":3814:3815   */\n  0x02\n    /* \"#utility.yul\":3810:3821   */\n  mul\n    /* \"#utility.yul\":3804:3808   */\n  dup3\n    /* \"#utility.yul\":3801:3822   */\n  or\n    /* \"#utility.yul\":3793:3822   */\n  swap1\n  pop\n    /* \"#utility.yul\":3533:3828   */\n  swap3\n  swap2\n  pop\n  pop\n  jump\t// out\n    /* \"#utility.yul\":3833:5228   */\ntag_7:\n    /* \"#utility.yul\":3950:3987   */\n  tag_85\n    /* \"#utility.yul\":3983:3986   */\n  dup3\n    /* \"#utility.yul\":3950:3987   */\n  tag_18\n  jump\t// in\ntag_85:\n    /* \"#utility.yul\":4052:4070   */\n  0xffffffffffffffff\n    /* \"#utility.yul\":4044:4050   */\n  dup2\n    /* \"#utility.yul\":4041:4071   */\n  gt\n    /* \"#utility.yul\":4038:4094   */\n  iszero\n  tag_86\n  jumpi\n    /* \"#utility.yul\":4074:4092   */\n  tag_87\n  tag_19\n  jump\t// in\ntag_87:\n    /* \"#utility.yul\":4038:4094   */\ntag_86:\n    /* \"#utility.yul\":4118:4156   */\n  tag_88\n    /* \"#utility.yul\":4150:4154   */\n  dup3\n    /* \"#utility.yul\":4144:4155   */\n  sload\n    /* \"#utility.yul\":4118:4156   */\n  tag_21\n  jump\t// in\ntag_88:\n    /* \"#utility.yul\":4203:4270   */\n  tag_89\n    /* \"#utility.yul\":4263:4269   */\n  dup3\n    /* \"#utility.yul\":4255:4261   */\n  dup3\n    /* \"#utility.yul\":4249:4253   */\n  dup6\n    /* \"#utility.yul\":4203:4270   */\n  tag_34\n  jump\t// in\ntag_89:\n    /* \"#utility.yul\":4297:4298   */\n  0x00\n    /* \"#utility.yul\":4321:4325   */\n  0x20\n    /* \"#utility.yul\":4308:4325   */\n  swap1\n  pop\n    /* \"#utility.yul\":4353:4355   */\n  0x1f\n    /* \"#utility.yul\":4345:4351   */\n  dup4\n    /* \"#utility.yul\":4342:4356   */\n  gt\n    /* \"#utility.yul\":4370:4371   */\n  0x01\n    /* \"#utility.yul\":4365:4983   */\n  dup2\n  eq\n  tag_91\n  jumpi\n    /* \"#utility.yul\":5027:5028   */\n  0x00\n    /* \"#utility.yul\":5044:5050   */\n  dup5\n    /* \"#utility.yul\":5041:5118   */\n  iszero\n  tag_92\n  jumpi\n    /* \"#utility.yul\":5093:5102   */\n  dup3\n    /* \"#utility.yul\":5088:5091   */\n  dup8\n    /* \"#utility.yul\":5084:5103   */\n  add\n    /* \"#utility.yul\":5078:5104   */\n  mload\n    /* \"#utility.yul\":5069:5104   */\n  swap1\n  pop\n    /* \"#utility.yul\":5041:5118   */\ntag_92:\n    /* \"#utility.yul\":5144:5211   */\n  tag_93\n    /* \"#utility.yul\":5204:5210   */\n  dup6\n    /* \"#utility.yul\":5197:5202   */\n  dup3\n    /* \"#utility.yul\":5144:5211   */\n  tag_37\n  jump\t// in\ntag_93:\n    /* \"#utility.yul\":5138:5142   */\n  dup7\n    /* \"#utility.yul\":5131:5212   */\n  sstore\n    /* \"#utility.yul\":5000:5222   */\n  pop\n    /* \"#utility.yul\":4335:5222   */\n  jump(tag_90)\n    /* \"#utility.yul\":4365:4983   */\ntag_91:\n    /* \"#utility.yul\":4417:4421   */\n  0x1f\n    /* \"#utility.yul\":4413:4422   */\n  not\n    /* \"#utility.yul\":4405:4411   */\n  dup5\n    /* \"#utility.yul\":4401:4423   */\n  and\n    /* \"#utility.yul\":4451:4488   */\n  tag_94\n    /* \"#utility.yul\":4483:4487   */\n  dup7\n    /* \"#utility.yul\":4451:4488   */\n  tag_22\n  jump\t// in\ntag_94:\n    /* \"#utility.yul\":4510:4511   */\n  0x00\n    /* \"#utility.yul\":4524:4732   */\ntag_95:\n    /* \"#utility.yul\":4538:4545   */\n  dup3\n    /* \"#utility.yul\":4535:4536   */\n  dup2\n    /* \"#utility.yul\":4532:4546   */\n  lt\n    /* \"#utility.yul\":4524:4732   */\n  iszero\n  tag_97\n  jumpi\n    /* \"#utility.yul\":4617:4626   */\n  dup5\n    /* \"#utility.yul\":4612:4615   */\n  dup10\n    /* \"#utility.yul\":4608:4627   */\n  add\n    /* \"#utility.yul\":4602:4628   */\n  mload\n    /* \"#utility.yul\":4594:4600   */\n  dup3\n    /* \"#utility.yul\":4587:4629   */\n  sstore\n    /* \"#utility.yul\":4668:4669   */\n  0x01\n    /* \"#utility.yul\":4660:4666   */\n  dup3\n    /* \"#utility.yul\":4656:4670   */\n  add\n    /* \"#utility.yul\":4646:4670   */\n  swap2\n  pop\n    /* \"#utility.yul\":4715:4717   */\n  0x20\n    /* \"#utility.yul\":4704:4713   */\n  dup6\n    /* \"#utility.yul\":4700:4718   */\n  add\n    /* \"#utility.yul\":4687:4718   */\n  swap5\n  pop\n    /* \"#utility.yul\":4561:4565   */\n  0x20\n    /* \"#utility.yul\":4558:4559   */\n  dup2\n    /* \"#utility.yul\":4554:4566   */\n  add\n    /* \"#utility.yul\":4549:4566   */\n  swap1\n  pop\n    /* \"#utility.yul\":4524:4732   */\n  jump(tag_95)\ntag_97:\n    /* \"#utility.yul\":4760:4766   */\n  dup7\n    /* \"#utility.yul\":4751:4758   */\n  dup4\n    /* \"#utility.yul\":4748:4767   */\n  lt\n    /* \"#utility.yul\":4745:4924   */\n  iszero\n  tag_98\n  jumpi\n    /* \"#utility.yul\":4818:4827   */\n  dup5\n    /* \"#utility.yul\":4813:4816   */\n  dup10\n    /* \"#utility.yul\":4809:4828   */\n  add\n    /* \"#utility.yul\":4803:4829   */\n  mload\n    /* \"#utility.yul\":4861:4909   */\n  tag_99\n    /* \"#utility.yul\":4903:4907   */\n  0x1f\n    /* \"#utility.yul\":4895:4901   */\n  dup10\n    /* \"#utility.yul\":4891:4908   */\n  and\n    /* \"#utility.yul\":4880:4889   */\n  dup3\n    /* \"#utility.yul\":4861:4909   */\n  tag_36\n  jump\t// in\ntag_99:\n    /* \"#utility.yul\":4853:4859   */\n  dup4\n    /* \"#utility.yul\":4846:4910   */\n  sstore\n    /* \"#utility.yul\":4768:4924   */\n  pop\n    /* \"#utility.yul\":4745:4924   */\ntag_98:\n    /* \"#utility.yul\":4970:4971   */\n  0x01\n    /* \"#utility.yul\":4966:4967   */\n  0x02\n    /* \"#utility.yul\":4958:4964   */\n  dup9\n    /* \"#utility.yul\":4954:4968   */\n  mul\n    /* \"#utility.yul\":4950:4972   */\n  add\n    /* \"#utility.yul\":4944:4948   */\n  dup9\n    /* \"#utility.yul\":4937:4973   */\n  sstore\n    /* \"#utility.yul\":4372:4983   */\n  pop\n  pop\n  pop\n    /* \"#utility.yul\":4335:5222   */\ntag_90:\n  pop\n    /* \"#utility.yul\":3925:5228   */\n  pop\n  pop\n  pop\n    /* \"#utility.yul\":3833:5228   */\n  pop\n  pop\n  jump\t// out\n    /* \"contracts/InsuranceContract.sol\":168:1639  contract InsuranceContract is ERC20, Ownable {... */\ntag_15:\n  dataSize(sub_0)\n  dup1\n  dataOffset(sub_0)\n  0x00\n  codecopy\n  0x00\n  return\nstop\n\nsub_0: assembly {\n        /* \"contracts/InsuranceContract.sol\":168:1639  contract InsuranceContract is ERC20, Ownable {... */\n      mstore(0x40, 0x80)\n      jumpi(tag_1, lt(calldatasize, 0x04))\n      shr(0xe0, calldataload(0x00))\n      dup1\n      0x70a08231\n      gt\n      tag_21\n      jumpi\n      dup1\n      0xa87430ba\n      gt\n      tag_22\n      jumpi\n      dup1\n      0xa87430ba\n      eq\n      tag_16\n      jumpi\n      dup1\n      0xa9059cbb\n      eq\n      tag_17\n      jumpi\n      dup1\n      0xcaea5bc5\n      eq\n      tag_18\n      jumpi\n      dup1\n      0xdd62ed3e\n      eq\n      tag_19\n      jumpi\n      dup1\n      0xf2fde38b\n      eq\n      tag_20\n      jumpi\n      jump(tag_1)\n    tag_22:\n      dup1\n      0x70a08231\n      eq\n      tag_11\n      jumpi\n      dup1\n      0x715018a6\n      eq\n      tag_12\n      jumpi\n      dup1\n      0x8da5cb5b\n      eq\n      tag_13\n      jumpi\n      dup1\n      0x95d89b41\n      eq\n      tag_14\n      jumpi\n      dup1\n      0xa457c2d7\n      eq\n      tag_15\n      jumpi\n      jump(tag_1)\n    tag_21:\n      dup1\n      0x23b872dd\n      gt\n      tag_23\n      jumpi\n      dup1\n      0x23b872dd\n      eq\n      tag_6\n      jumpi\n      dup1\n      0x2401273c\n      eq\n      tag_7\n      jumpi\n      dup1\n      0x25942212\n      eq\n      tag_8\n      jumpi\n      dup1\n      0x313ce567\n      eq\n      tag_9\n      jumpi\n      dup1\n      0x39509351\n      eq\n      tag_10\n      jumpi\n      jump(tag_1)\n    tag_23:\n      dup1\n      0x06fdde03\n      eq\n      tag_2\n      jumpi\n      dup1\n      0x080646ec\n      eq\n      tag_3\n      jumpi\n      dup1\n      0x095ea7b3\n      eq\n      tag_4\n      jumpi\n      dup1\n      0x18160ddd\n      eq\n      tag_5\n      jumpi\n    tag_1:\n      0x00\n      dup1\n      revert\n        /* \"@openzeppelin/contracts/token/ERC20/ERC20.sol\":2158:2256  function name() public view virtual override returns (string memory) {... */\n    tag_2:\n      callvalue\n      dup1\n      iszero\n      tag_24\n      jumpi\n      0x00\n      dup1\n      revert\n    tag_24:\n      pop\n      tag_25\n      tag_26\n      jump\t// in\n    tag_25:\n      mload(0x40)\n      tag_27\n      swap2\n      swap1\n      tag_28\n      jump\t// in\n    tag_27:\n      mload(0x40)\n      dup1\n      swap2\n      sub\n      swap1\n      return\n        /* \"contracts/InsuranceContract.sol\":746:1637  function registeCustomer(string memory newName, uint newAge) public payable{... */\n    tag_3:\n      tag_29\n      0x04\n      dup1\n      calldatasize\n      sub\n      dup2\n      add\n      swap1\n      tag_30\n      swap2\n      swap1\n      tag_31\n      jump\t// in\n    tag_30:\n      tag_32\n      jump\t// in\n    tag_29:\n      stop\n        /* \"@openzeppelin/contracts/token/ERC20/ERC20.sol\":4444:4641  function approve(address spender, uint256 amount) public virtual override returns (bool) {... */\n    tag_4:\n      callvalue\n      dup1\n      iszero\n      tag_33\n      jumpi\n      0x00\n      dup1\n      revert\n    tag_33:\n      pop\n      tag_34\n      0x04\n      dup1\n      calldatasize\n      sub\n      dup2\n      add\n      swap1\n      tag_35\n      swap2\n      swap1\n      tag_36\n      jump\t// in\n    tag_35:\n      tag_37\n      jump\t// in\n    tag_34:\n      mload(0x40)\n      tag_38\n      swap2\n      swap1\n      tag_39\n      jump\t// in\n    tag_38:\n      mload(0x40)\n      dup1\n      swap2\n      sub\n      swap1\n      return\n        /* \"@openzeppelin/contracts/token/ERC20/ERC20.sol\":3255:3361  function totalSupply() public view virtual override returns (uint256) {... */\n    tag_5:\n      callvalue\n      dup1\n      iszero\n      tag_40\n      jumpi\n      0x00\n      dup1\n      revert\n    tag_40:\n      pop\n      tag_41\n      tag_42\n      jump\t// in\n    tag_41:\n      mload(0x40)\n      tag_43\n      swap2\n      swap1\n      tag_44\n      jump\t// in\n    tag_43:\n      mload(0x40)\n      dup1\n      swap2\n      sub\n      swap1\n      return\n        /* \"@openzeppelin/contracts/token/ERC20/ERC20.sol\":5203:5459  function transferFrom(address from, address to, uint256 amount) public virtual override returns (bool) {... */\n    tag_6:\n      callvalue\n      dup1\n      iszero\n      tag_45\n      jumpi\n      0x00\n      dup1\n      revert\n    tag_45:\n      pop\n      tag_46\n      0x04\n      dup1\n      calldatasize\n      sub\n      dup2\n      add\n      swap1\n      tag_47\n      swap2\n      swap1\n      tag_48\n      jump\t// in\n    tag_47:\n      tag_49\n      jump\t// in\n    tag_46:\n      mload(0x40)\n      tag_50\n      swap2\n      swap1\n      tag_39\n      jump\t// in\n    tag_50:\n      mload(0x40)\n      dup1\n      swap2\n      sub\n      swap1\n      return\n        /* \"contracts/InsuranceContract.sol\":219:295  address public insuranceAddress = 0xd7b5B1e52369F1402Ba350d7f5Dd3D247717c157 */\n    tag_7:\n      callvalue\n      dup1\n      iszero\n      tag_51\n      jumpi\n      0x00\n      dup1\n      revert\n    tag_51:\n      pop\n      tag_52\n      tag_53\n      jump\t// in\n    tag_52:\n      mload(0x40)\n      tag_54\n      swap2\n      swap1\n      tag_55\n      jump\t// in\n    tag_54:\n      mload(0x40)\n      dup1\n      swap2\n      sub\n      swap1\n      return\n        /* \"contracts/InsuranceContract.sol\":338:369  uint public registeredInsurance */\n    tag_8:\n      callvalue\n      dup1\n      iszero\n      tag_56\n      jumpi\n      0x00\n      dup1\n      revert\n    tag_56:\n      pop\n      tag_57\n      tag_58\n      jump\t// in\n    tag_57:\n      mload(0x40)\n      tag_59\n      swap2\n      swap1\n      tag_44\n      jump\t// in\n    tag_59:\n      mload(0x40)\n      dup1\n      swap2\n      sub\n      swap1\n      return\n        /* \"@openzeppelin/contracts/token/ERC20/ERC20.sol\":3104:3195  function decimals() public view virtual override returns (uint8) {... */\n    tag_9:\n      callvalue\n      dup1\n      iszero\n      tag_60\n      jumpi\n      0x00\n      dup1\n      revert\n    tag_60:\n      pop\n      tag_61\n      tag_62\n      jump\t// in\n    tag_61:\n      mload(0x40)\n      tag_63\n      swap2\n      swap1\n      tag_64\n      jump\t// in\n    tag_63:\n      mload(0x40)\n      dup1\n      swap2\n      sub\n      swap1\n      return\n        /* \"@openzeppelin/contracts/token/ERC20/ERC20.sol\":5854:6088  function increaseAllowance(address spender, uint256 addedValue) public virtual returns (bool) {... */\n    tag_10:\n      callvalue\n      dup1\n      iszero\n      tag_65\n      jumpi\n      0x00\n      dup1\n      revert\n    tag_65:\n      pop\n      tag_66\n      0x04\n      dup1\n      calldatasize\n      sub\n      dup2\n      add\n      swap1\n      tag_67\n      swap2\n      swap1\n      tag_36\n      jump\t// in\n    tag_67:\n      tag_68\n      jump\t// in\n    tag_66:\n      mload(0x40)\n      tag_69\n      swap2\n      swap1\n      tag_39\n      jump\t// in\n    tag_69:\n      mload(0x40)\n      dup1\n      swap2\n      sub\n      swap1\n      return\n        /* \"@openzeppelin/contracts/token/ERC20/ERC20.sol\":3419:3544  function balanceOf(address account) public view virtual override returns (uint256) {... */\n    tag_11:\n      callvalue\n      dup1\n      iszero\n      tag_70\n      jumpi\n      0x00\n      dup1\n      revert\n    tag_70:\n      pop\n      tag_71\n      0x04\n      dup1\n      calldatasize\n      sub\n      dup2\n      add\n      swap1\n      tag_72\n      swap2\n      swap1\n      tag_73\n      jump\t// in\n    tag_72:\n      tag_74\n      jump\t// in\n    tag_71:\n      mload(0x40)\n      tag_75\n      swap2\n      swap1\n      tag_44\n      jump\t// in\n    tag_75:\n      mload(0x40)\n      dup1\n      swap2\n      sub\n      swap1\n      return\n        /* \"@openzeppelin/contracts/access/Ownable.sol\":1824:1925  function renounceOwnership() public virtual onlyOwner {... */\n    tag_12:\n      callvalue\n      dup1\n      iszero\n      tag_76\n      jumpi\n      0x00\n      dup1\n      revert\n    tag_76:\n      pop\n      tag_77\n      tag_78\n      jump\t// in\n    tag_77:\n      stop\n        /* \"@openzeppelin/contracts/access/Ownable.sol\":1201:1286  function owner() public view virtual returns (address) {... */\n    tag_13:\n      callvalue\n      dup1\n      iszero\n      tag_79\n      jumpi\n      0x00\n      dup1\n      revert\n    tag_79:\n      pop\n      tag_80\n      tag_81\n      jump\t// in\n    tag_80:\n      mload(0x40)\n      tag_82\n      swap2\n      swap1\n      tag_55\n      jump\t// in\n    tag_82:\n      mload(0x40)\n      dup1\n      swap2\n      sub\n      swap1\n      return\n        /* \"@openzeppelin/contracts/token/ERC20/ERC20.sol\":2369:2471  function symbol() public view virtual override returns (string memory) {... */\n    tag_14:\n      callvalue\n      dup1\n      iszero\n      tag_83\n      jumpi\n      0x00\n      dup1\n      revert\n    tag_83:\n      pop\n      tag_84\n      tag_85\n      jump\t// in\n    tag_84:\n      mload(0x40)\n      tag_86\n      swap2\n      swap1\n      tag_28\n      jump\t// in\n    tag_86:\n      mload(0x40)\n      dup1\n      swap2\n      sub\n      swap1\n      return\n        /* \"@openzeppelin/contracts/token/ERC20/ERC20.sol\":6575:7002  function decreaseAllowance(address spender, uint256 subtractedValue) public virtual returns (bool) {... */\n    tag_15:\n      callvalue\n      dup1\n      iszero\n      tag_87\n      jumpi\n      0x00\n      dup1\n      revert\n    tag_87:\n      pop\n      tag_88\n      0x04\n      dup1\n      calldatasize\n      sub\n      dup2\n      add\n      swap1\n      tag_89\n      swap2\n      swap1\n      tag_36\n      jump\t// in\n    tag_89:\n      tag_90\n      jump\t// in\n    tag_88:\n      mload(0x40)\n      tag_91\n      swap2\n      swap1\n      tag_39\n      jump\t// in\n    tag_91:\n      mload(0x40)\n      dup1\n      swap2\n      sub\n      swap1\n      return\n        /* \"contracts/InsuranceContract.sol\":515:552  mapping(address => User) public users */\n    tag_16:\n      callvalue\n      dup1\n      iszero\n      tag_92\n      jumpi\n      0x00\n      dup1\n      revert\n    tag_92:\n      pop\n      tag_93\n      0x04\n      dup1\n      calldatasize\n      sub\n      dup2\n      add\n      swap1\n      tag_94\n      swap2\n      swap1\n      tag_73\n      jump\t// in\n    tag_94:\n      tag_95\n      jump\t// in\n    tag_93:\n      mload(0x40)\n      tag_96\n      swap7\n      swap6\n      swap5\n      swap4\n      swap3\n      swap2\n      swap1\n      tag_97\n      jump\t// in\n    tag_96:\n      mload(0x40)\n      dup1\n      swap2\n      sub\n      swap1\n      return\n        /* \"@openzeppelin/contracts/token/ERC20/ERC20.sol\":3740:3929  function transfer(address to, uint256 amount) public virtual override returns (bool) {... */\n    tag_17:\n      callvalue\n      dup1\n      iszero\n      tag_98\n      jumpi\n      0x00\n      dup1\n      revert\n    tag_98:\n      pop\n      tag_99\n      0x04\n      dup1\n      calldatasize\n      sub\n      dup2\n      add\n      swap1\n      tag_100\n      swap2\n      swap1\n      tag_36\n      jump\t// in\n    tag_100:\n      tag_101\n      jump\t// in\n    tag_99:\n      mload(0x40)\n      tag_102\n      swap2\n      swap1\n      tag_39\n      jump\t// in\n    tag_102:\n      mload(0x40)\n      dup1\n      swap2\n      sub\n      swap1\n      return\n        /* \"contracts/InsuranceContract.sol\":398:428  uint public registeredCustomer */\n    tag_18:\n      callvalue\n      dup1\n      iszero\n      tag_103\n      jumpi\n      0x00\n      dup1\n      revert\n    tag_103:\n      pop\n      tag_104\n      tag_105\n      jump\t// in\n    tag_104:\n      mload(0x40)\n      tag_106\n      swap2\n      swap1\n      tag_44\n      jump\t// in\n    tag_106:\n      mload(0x40)\n      dup1\n      swap2\n      sub\n      swap1\n      return\n        /* \"@openzeppelin/contracts/token/ERC20/ERC20.sol\":3987:4136  function allowance(address owner, address spender) public view virtual override returns (uint256) {... */\n    tag_19:\n      callvalue\n      dup1\n      iszero\n      tag_107\n      jumpi\n      0x00\n      dup1\n      revert\n    tag_107:\n      pop\n      tag_108\n      0x04\n      dup1\n      calldatasize\n      sub\n      dup2\n      add\n      swap1\n      tag_109\n      swap2\n      swap1\n      tag_110\n      jump\t// in\n    tag_109:\n      tag_111\n      jump\t// in\n    tag_108:\n      mload(0x40)\n      tag_112\n      swap2\n      swap1\n      tag_44\n      jump\t// in\n    tag_112:\n      mload(0x40)\n      dup1\n      swap2\n      sub\n      swap1\n      return\n        /* \"@openzeppelin/contracts/access/Ownable.sol\":2074:2272  function transferOwnership(address newOwner) public virtual onlyOwner {... */\n    tag_20:\n      callvalue\n      dup1\n      iszero\n      tag_113\n      jumpi\n      0x00\n      dup1\n      revert\n    tag_113:\n      pop\n      tag_114\n      0x04\n      dup1\n      calldatasize\n      sub\n      dup2\n      add\n      swap1\n      tag_115\n      swap2\n      swap1\n      tag_73\n      jump\t// in\n    tag_115:\n      tag_116\n      jump\t// in\n    tag_114:\n      stop\n        /* \"@openzeppelin/contracts/token/ERC20/ERC20.sol\":2158:2256  function name() public view virtual override returns (string memory) {... */\n    tag_26:\n        /* \"@openzeppelin/contracts/token/ERC20/ERC20.sol\":2212:2225  string memory */\n      0x60\n        /* \"@openzeppelin/contracts/token/ERC20/ERC20.sol\":2244:2249  _name */\n      0x03\n        /* \"@openzeppelin/contracts/token/ERC20/ERC20.sol\":2237:2249  return _name */\n      dup1\n      sload\n      tag_118\n      swap1\n      tag_119\n      jump\t// in\n    tag_118:\n      dup1\n      0x1f\n      add\n      0x20\n      dup1\n      swap2\n      div\n      mul\n      0x20\n      add\n      mload(0x40)\n      swap1\n      dup2\n      add\n      0x40\n      mstore\n      dup1\n      swap3\n      swap2\n      swap1\n      dup2\n      dup2\n      mstore\n      0x20\n      add\n      dup3\n      dup1\n      sload\n      tag_120\n      swap1\n      tag_119\n      jump\t// in\n    tag_120:\n      dup1\n      iszero\n      tag_121\n      jumpi\n      dup1\n      0x1f\n      lt\n      tag_122\n      jumpi\n      0x0100\n      dup1\n      dup4\n      sload\n      div\n      mul\n      dup4\n      mstore\n      swap2\n      0x20\n      add\n      swap2\n      jump(tag_121)\n    tag_122:\n      dup3\n      add\n      swap2\n      swap1\n      0x00\n      mstore\n      keccak256(0x00, 0x20)\n      swap1\n    tag_123:\n      dup2\n      sload\n      dup2\n      mstore\n      swap1\n      0x01\n      add\n      swap1\n      0x20\n      add\n      dup1\n      dup4\n      gt\n      tag_123\n      jumpi\n      dup3\n      swap1\n      sub\n      0x1f\n      and\n      dup3\n      add\n      swap2\n    tag_121:\n      pop\n      pop\n      pop\n      pop\n      pop\n      swap1\n      pop\n        /* \"@openzeppelin/contracts/token/ERC20/ERC20.sol\":2158:2256  function name() public view virtual override returns (string memory) {... */\n      swap1\n      jump\t// out\n        /* \"contracts/InsuranceContract.sol\":746:1637  function registeCustomer(string memory newName, uint newAge) public payable{... */\n    tag_32:\n        /* \"contracts/InsuranceContract.sol\":862:864  18 */\n      0x12\n        /* \"contracts/InsuranceContract.sol\":852:858  newAge */\n      dup2\n        /* \"contracts/InsuranceContract.sol\":852:864  newAge >= 18 */\n      lt\n      iszero\n        /* \"contracts/InsuranceContract.sol\":831:911  require(... */\n      tag_125\n      jumpi\n      mload(0x40)\n      0x08c379a000000000000000000000000000000000000000000000000000000000\n      dup2\n      mstore\n      0x04\n      add\n      tag_126\n      swap1\n      tag_127\n      jump\t// in\n    tag_126:\n      mload(0x40)\n      dup1\n      swap2\n      sub\n      swap1\n      revert\n    tag_125:\n        /* \"contracts/InsuranceContract.sol\":1031:1032  0 */\n      0x00\n        /* \"contracts/InsuranceContract.sol\":1006:1027  balanceOf(msg.sender) */\n      tag_128\n        /* \"contracts/InsuranceContract.sol\":1016:1026  msg.sender */\n      caller\n        /* \"contracts/InsuranceContract.sol\":1006:1015  balanceOf */\n      tag_74\n        /* \"contracts/InsuranceContract.sol\":1006:1027  balanceOf(msg.sender) */\n      jump\t// in\n    tag_128:\n        /* \"contracts/InsuranceContract.sol\":1006:1032  balanceOf(msg.sender) <= 0 */\n      gt\n      iszero\n        /* \"contracts/InsuranceContract.sol\":921:1087  require(... */\n      tag_129\n      jumpi\n      mload(0x40)\n      0x08c379a000000000000000000000000000000000000000000000000000000000\n      dup2\n      mstore\n      0x04\n      add\n      tag_130\n      swap1\n      tag_131\n      jump\t// in\n    tag_130:\n      mload(0x40)\n      dup1\n      swap2\n      sub\n      swap1\n      revert\n    tag_129:\n        /* \"contracts/InsuranceContract.sol\":1211:1212  0 */\n      0x00\n        /* \"contracts/InsuranceContract.sol\":1175:1180  users */\n      0x09\n        /* \"contracts/InsuranceContract.sol\":1175:1192  users[msg.sender] */\n      0x00\n        /* \"contracts/InsuranceContract.sol\":1181:1191  msg.sender */\n      caller\n        /* \"contracts/InsuranceContract.sol\":1175:1192  users[msg.sender] */\n      0xffffffffffffffffffffffffffffffffffffffff\n      and\n      0xffffffffffffffffffffffffffffffffffffffff\n      and\n      dup2\n      mstore\n      0x20\n      add\n      swap1\n      dup2\n      mstore\n      0x20\n      add\n      0x00\n      keccak256\n        /* \"contracts/InsuranceContract.sol\":1175:1207  users[msg.sender].startInsurance */\n      0x04\n      add\n      sload\n        /* \"contracts/InsuranceContract.sol\":1175:1212  users[msg.sender].startInsurance <= 0 */\n      gt\n      iszero\n        /* \"contracts/InsuranceContract.sol\":1097:1263  require(... */\n      tag_132\n      jumpi\n      mload(0x40)\n      0x08c379a000000000000000000000000000000000000000000000000000000000\n      dup2\n      mstore\n      0x04\n      add\n      tag_133\n      swap1\n      tag_134\n      jump\t// in\n    tag_133:\n      mload(0x40)\n      dup1\n      swap2\n      sub\n      swap1\n      revert\n    tag_132:\n        /* \"contracts/InsuranceContract.sol\":1273:1288  uint newBalance */\n      0x00\n        /* \"contracts/InsuranceContract.sol\":1291:1312  balanceOf(msg.sender) */\n      tag_135\n        /* \"contracts/InsuranceContract.sol\":1301:1311  msg.sender */\n      caller\n        /* \"contracts/InsuranceContract.sol\":1291:1300  balanceOf */\n      tag_74\n        /* \"contracts/InsuranceContract.sol\":1291:1312  balanceOf(msg.sender) */\n      jump\t// in\n    tag_135:\n        /* \"contracts/InsuranceContract.sol\":1273:1312  uint newBalance = balanceOf(msg.sender) */\n      swap1\n      pop\n        /* \"contracts/InsuranceContract.sol\":1322:1367  transferFrom(msg.sender, insuranceAddress, 0) */\n      tag_136\n        /* \"contracts/InsuranceContract.sol\":1335:1345  msg.sender */\n      caller\n        /* \"contracts/InsuranceContract.sol\":1347:1363  insuranceAddress */\n      0x06\n      0x00\n      swap1\n      sload\n      swap1\n      0x0100\n      exp\n      swap1\n      div\n      0xffffffffffffffffffffffffffffffffffffffff\n      and\n        /* \"contracts/InsuranceContract.sol\":1365:1366  0 */\n      0x00\n        /* \"contracts/InsuranceContract.sol\":1322:1334  transferFrom */\n      tag_49\n        /* \"contracts/InsuranceContract.sol\":1322:1367  transferFrom(msg.sender, insuranceAddress, 0) */\n      jump\t// in\n    tag_136:\n      pop\n        /* \"contracts/InsuranceContract.sol\":1397:1569  User(... */\n      mload(0x40)\n      dup1\n      0xc0\n      add\n      0x40\n      mstore\n      dup1\n        /* \"contracts/InsuranceContract.sol\":1415:1422  newName */\n      dup5\n        /* \"contracts/InsuranceContract.sol\":1397:1569  User(... */\n      dup2\n      mstore\n      0x20\n      add\n        /* \"contracts/InsuranceContract.sol\":1436:1446  msg.sender */\n      caller\n        /* \"contracts/InsuranceContract.sol\":1397:1569  User(... */\n      0xffffffffffffffffffffffffffffffffffffffff\n      and\n      dup2\n      mstore\n      0x20\n      add\n        /* \"contracts/InsuranceContract.sol\":1460:1466  newAge */\n      dup4\n        /* \"contracts/InsuranceContract.sol\":1397:1569  User(... */\n      dup2\n      mstore\n      0x20\n      add\n        /* \"contracts/InsuranceContract.sol\":1480:1490  newBalance */\n      dup3\n        /* \"contracts/InsuranceContract.sol\":1397:1569  User(... */\n      dup2\n      mstore\n      0x20\n      add\n        /* \"contracts/InsuranceContract.sol\":1504:1519  block.timestamp */\n      timestamp\n        /* \"contracts/InsuranceContract.sol\":1397:1569  User(... */\n      dup2\n      mstore\n      0x20\n      add\n        /* \"contracts/InsuranceContract.sol\":1551:1559  31556926 */\n      0x01e1853e\n        /* \"contracts/InsuranceContract.sol\":1533:1548  block.timestamp */\n      timestamp\n        /* \"contracts/InsuranceContract.sol\":1533:1559  block.timestamp + 31556926 */\n      tag_137\n      swap2\n      swap1\n      tag_138\n      jump\t// in\n    tag_137:\n        /* \"contracts/InsuranceContract.sol\":1397:1569  User(... */\n      dup2\n      mstore\n      pop\n        /* \"contracts/InsuranceContract.sol\":1377:1382  users */\n      0x09\n        /* \"contracts/InsuranceContract.sol\":1377:1394  users[msg.sender] */\n      0x00\n        /* \"contracts/InsuranceContract.sol\":1383:1393  msg.sender */\n      caller\n        /* \"contracts/InsuranceContract.sol\":1377:1394  users[msg.sender] */\n      0xffffffffffffffffffffffffffffffffffffffff\n      and\n      0xffffffffffffffffffffffffffffffffffffffff\n      and\n      dup2\n      mstore\n      0x20\n      add\n      swap1\n      dup2\n      mstore\n      0x20\n      add\n      0x00\n      keccak256\n        /* \"contracts/InsuranceContract.sol\":1377:1569  users[msg.sender] = User(... */\n      0x00\n      dup3\n      add\n      mload\n      dup2\n      0x00\n      add\n      swap1\n      dup2\n      tag_139\n      swap2\n      swap1\n      tag_140\n      jump\t// in\n    tag_139:\n      pop\n      0x20\n      dup3\n      add\n      mload\n      dup2\n      0x01\n      add\n      exp(0x0100, 0x00)\n      dup2\n      sload\n      dup2\n      0xffffffffffffffffffffffffffffffffffffffff\n      mul\n      not\n      and\n      swap1\n      dup4\n      0xffffffffffffffffffffffffffffffffffffffff\n      and\n      mul\n      or\n      swap1\n      sstore\n      pop\n      0x40\n      dup3\n      add\n      mload\n      dup2\n      0x02\n      add\n      sstore\n      0x60\n      dup3\n      add\n      mload\n      dup2\n      0x03\n      add\n      sstore\n      0x80\n      dup3\n      add\n      mload\n      dup2\n      0x04\n      add\n      sstore\n      0xa0\n      dup3\n      add\n      mload\n      dup2\n      0x05\n      add\n      sstore\n      swap1\n      pop\n      pop\n        /* \"contracts/InsuranceContract.sol\":1579:1597  registeredCustomer */\n      0x08\n      0x00\n        /* \"contracts/InsuranceContract.sol\":1579:1599  registeredCustomer++ */\n      dup2\n      sload\n      dup1\n      swap3\n      swap2\n      swap1\n      tag_141\n      swap1\n      tag_142\n      jump\t// in\n    tag_141:\n      swap2\n      swap1\n      pop\n      sstore\n      pop\n        /* \"contracts/InsuranceContract.sol\":1609:1628  registeredInsurance */\n      0x07\n      0x00\n        /* \"contracts/InsuranceContract.sol\":1609:1630  registeredInsurance++ */\n      dup2\n      sload\n      dup1\n      swap3\n      swap2\n      swap1\n      tag_143\n      swap1\n      tag_142\n      jump\t// in\n    tag_143:\n      swap2\n      swap1\n      pop\n      sstore\n      pop\n        /* \"contracts/InsuranceContract.sol\":821:1637  {... */\n      pop\n        /* \"contracts/InsuranceContract.sol\":746:1637  function registeCustomer(string memory newName, uint newAge) public payable{... */\n      pop\n      pop\n      jump\t// out\n        /* \"@openzeppelin/contracts/token/ERC20/ERC20.sol\":4444:4641  function approve(address spender, uint256 amount) public virtual override returns (bool) {... */\n    tag_37:\n        /* \"@openzeppelin/contracts/token/ERC20/ERC20.sol\":4527:4531  bool */\n      0x00\n        /* \"@openzeppelin/contracts/token/ERC20/ERC20.sol\":4543:4556  address owner */\n      dup1\n        /* \"@openzeppelin/contracts/token/ERC20/ERC20.sol\":4559:4571  _msgSender() */\n      tag_145\n        /* \"@openzeppelin/contracts/token/ERC20/ERC20.sol\":4559:4569  _msgSender */\n      tag_146\n        /* \"@openzeppelin/contracts/token/ERC20/ERC20.sol\":4559:4571  _msgSender() */\n      jump\t// in\n    tag_145:\n        /* \"@openzeppelin/contracts/token/ERC20/ERC20.sol\":4543:4571  address owner = _msgSender() */\n      swap1\n      pop\n        /* \"@openzeppelin/contracts/token/ERC20/ERC20.sol\":4581:4613  _approve(owner, spender, amount) */\n      tag_147\n        /* \"@openzeppelin/contracts/token/ERC20/ERC20.sol\":4590:4595  owner */\n      dup2\n        /* \"@openzeppelin/contracts/token/ERC20/ERC20.sol\":4597:4604  spender */\n      dup6\n        /* \"@openzeppelin/contracts/token/ERC20/ERC20.sol\":4606:4612  amount */\n      dup6\n        /* \"@openzeppelin/contracts/token/ERC20/ERC20.sol\":4581:4589  _approve */\n      tag_148\n        /* \"@openzeppelin/contracts/token/ERC20/ERC20.sol\":4581:4613  _approve(owner, spender, amount) */\n      jump\t// in\n    tag_147:\n        /* \"@openzeppelin/contracts/token/ERC20/ERC20.sol\":4630:4634  true */\n      0x01\n        /* \"@openzeppelin/contracts/token/ERC20/ERC20.sol\":4623:4634  return true */\n      swap2\n      pop\n      pop\n        /* \"@openzeppelin/contracts/token/ERC20/ERC20.sol\":4444:4641  function approve(address spender, uint256 amount) public virtual override returns (bool) {... */\n      swap3\n      swap2\n      pop\n      pop\n      jump\t// out\n        /* \"@openzeppelin/contracts/token/ERC20/ERC20.sol\":3255:3361  function totalSupply() public view virtual override returns (uint256) {... */\n    tag_42:\n        /* \"@openzeppelin/contracts/token/ERC20/ERC20.sol\":3316:3323  uint256 */\n      0x00\n        /* \"@openzeppelin/contracts/token/ERC20/ERC20.sol\":3342:3354  _totalSupply */\n      sload(0x02)\n        /* \"@openzeppelin/contracts/token/ERC20/ERC20.sol\":3335:3354  return _totalSupply */\n      swap1\n      pop\n        /* \"@openzeppelin/contracts/token/ERC20/ERC20.sol\":3255:3361  function totalSupply() public view virtual override returns (uint256) {... */\n      swap1\n      jump\t// out\n        /* \"@openzeppelin/contracts/token/ERC20/ERC20.sol\":5203:5459  function transferFrom(address from, address to, uint256 amount) public virtual override returns (bool) {... */\n    tag_49:\n        /* \"@openzeppelin/contracts/token/ERC20/ERC20.sol\":5300:5304  bool */\n      0x00\n        /* \"@openzeppelin/contracts/token/ERC20/ERC20.sol\":5316:5331  address spender */\n      dup1\n        /* \"@openzeppelin/contracts/token/ERC20/ERC20.sol\":5334:5346  _msgSender() */\n      tag_151\n        /* \"@openzeppelin/contracts/token/ERC20/ERC20.sol\":5334:5344  _msgSender */\n      tag_146\n        /* \"@openzeppelin/contracts/token/ERC20/ERC20.sol\":5334:5346  _msgSender() */\n      jump\t// in\n    tag_151:\n        /* \"@openzeppelin/contracts/token/ERC20/ERC20.sol\":5316:5346  address spender = _msgSender() */\n      swap1\n      pop\n        /* \"@openzeppelin/contracts/token/ERC20/ERC20.sol\":5356:5394  _spendAllowance(from, spender, amount) */\n      tag_152\n        /* \"@openzeppelin/contracts/token/ERC20/ERC20.sol\":5372:5376  from */\n      dup6\n        /* \"@openzeppelin/contracts/token/ERC20/ERC20.sol\":5378:5385  spender */\n      dup3\n        /* \"@openzeppelin/contracts/token/ERC20/ERC20.sol\":5387:5393  amount */\n      dup6\n        /* \"@openzeppelin/contracts/token/ERC20/ERC20.sol\":5356:5371  _spendAllowance */\n      tag_153\n        /* \"@openzeppelin/contracts/token/ERC20/ERC20.sol\":5356:5394  _spendAllowance(from, spender, amount) */\n      jump\t// in\n    tag_152:\n        /* \"@openzeppelin/contracts/token/ERC20/ERC20.sol\":5404:5431  _transfer(from, to, amount) */\n      tag_154\n        /* \"@openzeppelin/contracts/token/ERC20/ERC20.sol\":5414:5418  from */\n      dup6\n        /* \"@openzeppelin/contracts/token/ERC20/ERC20.sol\":5420:5422  to */\n      dup6\n        /* \"@openzeppelin/contracts/token/ERC20/ERC20.sol\":5424:5430  amount */\n      dup6\n        /* \"@openzeppelin/contracts/token/ERC20/ERC20.sol\":5404:5413  _transfer */\n      tag_155\n        /* \"@openzeppelin/contracts/token/ERC20/ERC20.sol\":5404:5431  _transfer(from, to, amount) */\n      jump\t// in\n    tag_154:\n        /* \"@openzeppelin/contracts/token/ERC20/ERC20.sol\":5448:5452  true */\n      0x01\n        /* \"@openzeppelin/contracts/token/ERC20/ERC20.sol\":5441:5452  return true */\n      swap2\n      pop\n      pop\n        /* \"@openzeppelin/contracts/token/ERC20/ERC20.sol\":5203:5459  function transferFrom(address from, address to, uint256 amount) public virtual override returns (bool) {... */\n      swap4\n      swap3\n      pop\n      pop\n      pop\n      jump\t// out\n        /* \"contracts/InsuranceContract.sol\":219:295  address public insuranceAddress = 0xd7b5B1e52369F1402Ba350d7f5Dd3D247717c157 */\n    tag_53:\n      0x06\n      0x00\n      swap1\n      sload\n      swap1\n      0x0100\n      exp\n      swap1\n      div\n      0xffffffffffffffffffffffffffffffffffffffff\n      and\n      dup2\n      jump\t// out\n        /* \"contracts/InsuranceContract.sol\":338:369  uint public registeredInsurance */\n    tag_58:\n      sload(0x07)\n      dup2\n      jump\t// out\n        /* \"@openzeppelin/contracts/token/ERC20/ERC20.sol\":3104:3195  function decimals() public view virtual override returns (uint8) {... */\n    tag_62:\n        /* \"@openzeppelin/contracts/token/ERC20/ERC20.sol\":3162:3167  uint8 */\n      0x00\n        /* \"@openzeppelin/contracts/token/ERC20/ERC20.sol\":3186:3188  18 */\n      0x12\n        /* \"@openzeppelin/contracts/token/ERC20/ERC20.sol\":3179:3188  return 18 */\n      swap1\n      pop\n        /* \"@openzeppelin/contracts/token/ERC20/ERC20.sol\":3104:3195  function decimals() public view virtual override returns (uint8) {... */\n      swap1\n      jump\t// out\n        /* \"@openzeppelin/contracts/token/ERC20/ERC20.sol\":5854:6088  function increaseAllowance(address spender, uint256 addedValue) public virtual returns (bool) {... */\n    tag_68:\n        /* \"@openzeppelin/contracts/token/ERC20/ERC20.sol\":5942:5946  bool */\n      0x00\n        /* \"@openzeppelin/contracts/token/ERC20/ERC20.sol\":5958:5971  address owner */\n      dup1\n        /* \"@openzeppelin/contracts/token/ERC20/ERC20.sol\":5974:5986  _msgSender() */\n      tag_158\n        /* \"@openzeppelin/contracts/token/ERC20/ERC20.sol\":5974:5984  _msgSender */\n      tag_146\n        /* \"@openzeppelin/contracts/token/ERC20/ERC20.sol\":5974:5986  _msgSender() */\n      jump\t// in\n    tag_158:\n        /* \"@openzeppelin/contracts/token/ERC20/ERC20.sol\":5958:5986  address owner = _msgSender() */\n      swap1\n      pop\n        /* \"@openzeppelin/contracts/token/ERC20/ERC20.sol\":5996:6060  _approve(owner, spender, allowance(owner, spender) + addedValue) */\n      tag_159\n        /* \"@openzeppelin/contracts/token/ERC20/ERC20.sol\":6005:6010  owner */\n      dup2\n        /* \"@openzeppelin/contracts/token/ERC20/ERC20.sol\":6012:6019  spender */\n      dup6\n        /* \"@openzeppelin/contracts/token/ERC20/ERC20.sol\":6049:6059  addedValue */\n      dup6\n        /* \"@openzeppelin/contracts/token/ERC20/ERC20.sol\":6021:6046  allowance(owner, spender) */\n      tag_160\n        /* \"@openzeppelin/contracts/token/ERC20/ERC20.sol\":6031:6036  owner */\n      dup6\n        /* \"@openzeppelin/contracts/token/ERC20/ERC20.sol\":6038:6045  spender */\n      dup10\n        /* \"@openzeppelin/contracts/token/ERC20/ERC20.sol\":6021:6030  allowance */\n      tag_111\n        /* \"@openzeppelin/contracts/token/ERC20/ERC20.sol\":6021:6046  allowance(owner, spender) */\n      jump\t// in\n    tag_160:\n        /* \"@openzeppelin/contracts/token/ERC20/ERC20.sol\":6021:6059  allowance(owner, spender) + addedValue */\n      tag_161\n      swap2\n      swap1\n      tag_138\n      jump\t// in\n    tag_161:\n        /* \"@openzeppelin/contracts/token/ERC20/ERC20.sol\":5996:6004  _approve */\n      tag_148\n        /* \"@openzeppelin/contracts/token/ERC20/ERC20.sol\":5996:6060  _approve(owner, spender, allowance(owner, spender) + addedValue) */\n      jump\t// in\n    tag_159:\n        /* \"@openzeppelin/contracts/token/ERC20/ERC20.sol\":6077:6081  true */\n      0x01\n        /* \"@openzeppelin/contracts/token/ERC20/ERC20.sol\":6070:6081  return true */\n      swap2\n      pop\n      pop\n        /* \"@openzeppelin/contracts/token/ERC20/ERC20.sol\":5854:6088  function increaseAllowance(address spender, uint256 addedValue) public virtual returns (bool) {... */\n      swap3\n      swap2\n      pop\n      pop\n      jump\t// out\n        /* \"@openzeppelin/contracts/token/ERC20/ERC20.sol\":3419:3544  function balanceOf(address account) public view virtual override returns (uint256) {... */\n    tag_74:\n        /* \"@openzeppelin/contracts/token/ERC20/ERC20.sol\":3493:3500  uint256 */\n      0x00\n        /* \"@openzeppelin/contracts/token/ERC20/ERC20.sol\":3519:3528  _balances */\n      dup1\n        /* \"@openzeppelin/contracts/token/ERC20/ERC20.sol\":3519:3537  _balances[account] */\n      0x00\n        /* \"@openzeppelin/contracts/token/ERC20/ERC20.sol\":3529:3536  account */\n      dup4\n        /* \"@openzeppelin/contracts/token/ERC20/ERC20.sol\":3519:3537  _balances[account] */\n      0xffffffffffffffffffffffffffffffffffffffff\n      and\n      0xffffffffffffffffffffffffffffffffffffffff\n      and\n      dup2\n      mstore\n      0x20\n      add\n      swap1\n      dup2\n      mstore\n      0x20\n      add\n      0x00\n      keccak256\n      sload\n        /* \"@openzeppelin/contracts/token/ERC20/ERC20.sol\":3512:3537  return _balances[account] */\n      swap1\n      pop\n        /* \"@openzeppelin/contracts/token/ERC20/ERC20.sol\":3419:3544  function balanceOf(address account) public view virtual override returns (uint256) {... */\n      swap2\n      swap1\n      pop\n      jump\t// out\n        /* \"@openzeppelin/contracts/access/Ownable.sol\":1824:1925  function renounceOwnership() public virtual onlyOwner {... */\n    tag_78:\n        /* \"@openzeppelin/contracts/access/Ownable.sol\":1094:1107  _checkOwner() */\n      tag_164\n        /* \"@openzeppelin/contracts/access/Ownable.sol\":1094:1105  _checkOwner */\n      tag_165\n        /* \"@openzeppelin/contracts/access/Ownable.sol\":1094:1107  _checkOwner() */\n      jump\t// in\n    tag_164:\n        /* \"@openzeppelin/contracts/access/Ownable.sol\":1888:1918  _transferOwnership(address(0)) */\n      tag_167\n        /* \"@openzeppelin/contracts/access/Ownable.sol\":1915:1916  0 */\n      0x00\n        /* \"@openzeppelin/contracts/access/Ownable.sol\":1888:1906  _transferOwnership */\n      tag_168\n        /* \"@openzeppelin/contracts/access/Ownable.sol\":1888:1918  _transferOwnership(address(0)) */\n      jump\t// in\n    tag_167:\n        /* \"@openzeppelin/contracts/access/Ownable.sol\":1824:1925  function renounceOwnership() public virtual onlyOwner {... */\n      jump\t// out\n        /* \"@openzeppelin/contracts/access/Ownable.sol\":1201:1286  function owner() public view virtual returns (address) {... */\n    tag_81:\n        /* \"@openzeppelin/contracts/access/Ownable.sol\":1247:1254  address */\n      0x00\n        /* \"@openzeppelin/contracts/access/Ownable.sol\":1273:1279  _owner */\n      0x05\n      0x00\n      swap1\n      sload\n      swap1\n      0x0100\n      exp\n      swap1\n      div\n      0xffffffffffffffffffffffffffffffffffffffff\n      and\n        /* \"@openzeppelin/contracts/access/Ownable.sol\":1266:1279  return _owner */\n      swap1\n      pop\n        /* \"@openzeppelin/contracts/access/Ownable.sol\":1201:1286  function owner() public view virtual returns (address) {... */\n      swap1\n      jump\t// out\n        /* \"@openzeppelin/contracts/token/ERC20/ERC20.sol\":2369:2471  function symbol() public view virtual override returns (string memory) {... */\n    tag_85:\n        /* \"@openzeppelin/contracts/token/ERC20/ERC20.sol\":2425:2438  string memory */\n      0x60\n        /* \"@openzeppelin/contracts/token/ERC20/ERC20.sol\":2457:2464  _symbol */\n      0x04\n        /* \"@openzeppelin/contracts/token/ERC20/ERC20.sol\":2450:2464  return _symbol */\n      dup1\n      sload\n      tag_171\n      swap1\n      tag_119\n      jump\t// in\n    tag_171:\n      dup1\n      0x1f\n      add\n      0x20\n      dup1\n      swap2\n      div\n      mul\n      0x20\n      add\n      mload(0x40)\n      swap1\n      dup2\n      add\n      0x40\n      mstore\n      dup1\n      swap3\n      swap2\n      swap1\n      dup2\n      dup2\n      mstore\n      0x20\n      add\n      dup3\n      dup1\n      sload\n      tag_172\n      swap1\n      tag_119\n      jump\t// in\n    tag_172:\n      dup1\n      iszero\n      tag_173\n      jumpi\n      dup1\n      0x1f\n      lt\n      tag_174\n      jumpi\n      0x0100\n      dup1\n      dup4\n      sload\n      div\n      mul\n      dup4\n      mstore\n      swap2\n      0x20\n      add\n      swap2\n      jump(tag_173)\n    tag_174:\n      dup3\n      add\n      swap2\n      swap1\n      0x00\n      mstore\n      keccak256(0x00, 0x20)\n      swap1\n    tag_175:\n      dup2\n      sload\n      dup2\n      mstore\n      swap1\n      0x01\n      add\n      swap1\n      0x20\n      add\n      dup1\n      dup4\n      gt\n      tag_175\n      jumpi\n      dup3\n      swap1\n      sub\n      0x1f\n      and\n      dup3\n      add\n      swap2\n    tag_173:\n      pop\n      pop\n      pop\n      pop\n      pop\n      swap1\n      pop\n        /* \"@openzeppelin/contracts/token/ERC20/ERC20.sol\":2369:2471  function symbol() public view virtual override returns (string memory) {... */\n      swap1\n      jump\t// out\n        /* \"@openzeppelin/contracts/token/ERC20/ERC20.sol\":6575:7002  function decreaseAllowance(address spender, uint256 subtractedValue) public virtual returns (bool) {... */\n    tag_90:\n        /* \"@openzeppelin/contracts/token/ERC20/ERC20.sol\":6668:6672  bool */\n      0x00\n        /* \"@openzeppelin/contracts/token/ERC20/ERC20.sol\":6684:6697  address owner */\n      dup1\n        /* \"@openzeppelin/contracts/token/ERC20/ERC20.sol\":6700:6712  _msgSender() */\n      tag_177\n        /* \"@openzeppelin/contracts/token/ERC20/ERC20.sol\":6700:6710  _msgSender */\n      tag_146\n        /* \"@openzeppelin/contracts/token/ERC20/ERC20.sol\":6700:6712  _msgSender() */\n      jump\t// in\n    tag_177:\n        /* \"@openzeppelin/contracts/token/ERC20/ERC20.sol\":6684:6712  address owner = _msgSender() */\n      swap1\n      pop\n        /* \"@openzeppelin/contracts/token/ERC20/ERC20.sol\":6722:6746  uint256 currentAllowance */\n      0x00\n        /* \"@openzeppelin/contracts/token/ERC20/ERC20.sol\":6749:6774  allowance(owner, spender) */\n      tag_178\n        /* \"@openzeppelin/contracts/token/ERC20/ERC20.sol\":6759:6764  owner */\n      dup3\n        /* \"@openzeppelin/contracts/token/ERC20/ERC20.sol\":6766:6773  spender */\n      dup7\n        /* \"@openzeppelin/contracts/token/ERC20/ERC20.sol\":6749:6758  allowance */\n      tag_111\n        /* \"@openzeppelin/contracts/token/ERC20/ERC20.sol\":6749:6774  allowance(owner, spender) */\n      jump\t// in\n    tag_178:\n        /* \"@openzeppelin/contracts/token/ERC20/ERC20.sol\":6722:6774  uint256 currentAllowance = allowance(owner, spender) */\n      swap1\n      pop\n        /* \"@openzeppelin/contracts/token/ERC20/ERC20.sol\":6812:6827  subtractedValue */\n      dup4\n        /* \"@openzeppelin/contracts/token/ERC20/ERC20.sol\":6792:6808  currentAllowance */\n      dup2\n        /* \"@openzeppelin/contracts/token/ERC20/ERC20.sol\":6792:6827  currentAllowance >= subtractedValue */\n      lt\n      iszero\n        /* \"@openzeppelin/contracts/token/ERC20/ERC20.sol\":6784:6869  require(currentAllowance >= subtractedValue, \"ERC20: decreased allowance below zero\") */\n      tag_179\n      jumpi\n      mload(0x40)\n      0x08c379a000000000000000000000000000000000000000000000000000000000\n      dup2\n      mstore\n      0x04\n      add\n      tag_180\n      swap1\n      tag_181\n      jump\t// in\n    tag_180:\n      mload(0x40)\n      dup1\n      swap2\n      sub\n      swap1\n      revert\n    tag_179:\n        /* \"@openzeppelin/contracts/token/ERC20/ERC20.sol\":6903:6963  _approve(owner, spender, currentAllowance - subtractedValue) */\n      tag_182\n        /* \"@openzeppelin/contracts/token/ERC20/ERC20.sol\":6912:6917  owner */\n      dup3\n        /* \"@openzeppelin/contracts/token/ERC20/ERC20.sol\":6919:6926  spender */\n      dup7\n        /* \"@openzeppelin/contracts/token/ERC20/ERC20.sol\":6947:6962  subtractedValue */\n      dup7\n        /* \"@openzeppelin/contracts/token/ERC20/ERC20.sol\":6928:6944  currentAllowance */\n      dup5\n        /* \"@openzeppelin/contracts/token/ERC20/ERC20.sol\":6928:6962  currentAllowance - subtractedValue */\n      sub\n        /* \"@openzeppelin/contracts/token/ERC20/ERC20.sol\":6903:6911  _approve */\n      tag_148\n        /* \"@openzeppelin/contracts/token/ERC20/ERC20.sol\":6903:6963  _approve(owner, spender, currentAllowance - subtractedValue) */\n      jump\t// in\n    tag_182:\n        /* \"@openzeppelin/contracts/token/ERC20/ERC20.sol\":6991:6995  true */\n      0x01\n        /* \"@openzeppelin/contracts/token/ERC20/ERC20.sol\":6984:6995  return true */\n      swap3\n      pop\n      pop\n      pop\n        /* \"@openzeppelin/contracts/token/ERC20/ERC20.sol\":6575:7002  function decreaseAllowance(address spender, uint256 subtractedValue) public virtual returns (bool) {... */\n      swap3\n      swap2\n      pop\n      pop\n      jump\t// out\n        /* \"contracts/InsuranceContract.sol\":515:552  mapping(address => User) public users */\n    tag_95:\n      mstore(0x20, 0x09)\n      dup1\n      0x00\n      mstore\n      keccak256(0x00, 0x40)\n      0x00\n      swap2\n      pop\n      swap1\n      pop\n      dup1\n      0x00\n      add\n      dup1\n      sload\n      tag_183\n      swap1\n      tag_119\n      jump\t// in\n    tag_183:\n      dup1\n      0x1f\n      add\n      0x20\n      dup1\n      swap2\n      div\n      mul\n      0x20\n      add\n      mload(0x40)\n      swap1\n      dup2\n      add\n      0x40\n      mstore\n      dup1\n      swap3\n      swap2\n      swap1\n      dup2\n      dup2\n      mstore\n      0x20\n      add\n      dup3\n      dup1\n      sload\n      tag_184\n      swap1\n      tag_119\n      jump\t// in\n    tag_184:\n      dup1\n      iszero\n      tag_185\n      jumpi\n      dup1\n      0x1f\n      lt\n      tag_186\n      jumpi\n      0x0100\n      dup1\n      dup4\n      sload\n      div\n      mul\n      dup4\n      mstore\n      swap2\n      0x20\n      add\n      swap2\n      jump(tag_185)\n    tag_186:\n      dup3\n      add\n      swap2\n      swap1\n      0x00\n      mstore\n      keccak256(0x00, 0x20)\n      swap1\n    tag_187:\n      dup2\n      sload\n      dup2\n      mstore\n      swap1\n      0x01\n      add\n      swap1\n      0x20\n      add\n      dup1\n      dup4\n      gt\n      tag_187\n      jumpi\n      dup3\n      swap1\n      sub\n      0x1f\n      and\n      dup3\n      add\n      swap2\n    tag_185:\n      pop\n      pop\n      pop\n      pop\n      pop\n      swap1\n      dup1\n      0x01\n      add\n      0x00\n      swap1\n      sload\n      swap1\n      0x0100\n      exp\n      swap1\n      div\n      0xffffffffffffffffffffffffffffffffffffffff\n      and\n      swap1\n      dup1\n      0x02\n      add\n      sload\n      swap1\n      dup1\n      0x03\n      add\n      sload\n      swap1\n      dup1\n      0x04\n      add\n      sload\n      swap1\n      dup1\n      0x05\n      add\n      sload\n      swap1\n      pop\n      dup7\n      jump\t// out\n        /* \"@openzeppelin/contracts/token/ERC20/ERC20.sol\":3740:3929  function transfer(address to, uint256 amount) public virtual override returns (bool) {... */\n    tag_101:\n        /* \"@openzeppelin/contracts/token/ERC20/ERC20.sol\":3819:3823  bool */\n      0x00\n        /* \"@openzeppelin/contracts/token/ERC20/ERC20.sol\":3835:3848  address owner */\n      dup1\n        /* \"@openzeppelin/contracts/token/ERC20/ERC20.sol\":3851:3863  _msgSender() */\n      tag_189\n        /* \"@openzeppelin/contracts/token/ERC20/ERC20.sol\":3851:3861  _msgSender */\n      tag_146\n        /* \"@openzeppelin/contracts/token/ERC20/ERC20.sol\":3851:3863  _msgSender() */\n      jump\t// in\n    tag_189:\n        /* \"@openzeppelin/contracts/token/ERC20/ERC20.sol\":3835:3863  address owner = _msgSender() */\n      swap1\n      pop\n        /* \"@openzeppelin/contracts/token/ERC20/ERC20.sol\":3873:3901  _transfer(owner, to, amount) */\n      tag_190\n        /* \"@openzeppelin/contracts/token/ERC20/ERC20.sol\":3883:3888  owner */\n      dup2\n        /* \"@openzeppelin/contracts/token/ERC20/ERC20.sol\":3890:3892  to */\n      dup6\n        /* \"@openzeppelin/contracts/token/ERC20/ERC20.sol\":3894:3900  amount */\n      dup6\n        /* \"@openzeppelin/contracts/token/ERC20/ERC20.sol\":3873:3882  _transfer */\n      tag_155\n        /* \"@openzeppelin/contracts/token/ERC20/ERC20.sol\":3873:3901  _transfer(owner, to, amount) */\n      jump\t// in\n    tag_190:\n        /* \"@openzeppelin/contracts/token/ERC20/ERC20.sol\":3918:3922  true */\n      0x01\n        /* \"@openzeppelin/contracts/token/ERC20/ERC20.sol\":3911:3922  return true */\n      swap2\n      pop\n      pop\n        /* \"@openzeppelin/contracts/token/ERC20/ERC20.sol\":3740:3929  function transfer(address to, uint256 amount) public virtual override returns (bool) {... */\n      swap3\n      swap2\n      pop\n      pop\n      jump\t// out\n        /* \"contracts/InsuranceContract.sol\":398:428  uint public registeredCustomer */\n    tag_105:\n      sload(0x08)\n      dup2\n      jump\t// out\n        /* \"@openzeppelin/contracts/token/ERC20/ERC20.sol\":3987:4136  function allowance(address owner, address spender) public view virtual override returns (uint256) {... */\n    tag_111:\n        /* \"@openzeppelin/contracts/token/ERC20/ERC20.sol\":4076:4083  uint256 */\n      0x00\n        /* \"@openzeppelin/contracts/token/ERC20/ERC20.sol\":4102:4113  _allowances */\n      0x01\n        /* \"@openzeppelin/contracts/token/ERC20/ERC20.sol\":4102:4120  _allowances[owner] */\n      0x00\n        /* \"@openzeppelin/contracts/token/ERC20/ERC20.sol\":4114:4119  owner */\n      dup5\n        /* \"@openzeppelin/contracts/token/ERC20/ERC20.sol\":4102:4120  _allowances[owner] */\n      0xffffffffffffffffffffffffffffffffffffffff\n      and\n      0xffffffffffffffffffffffffffffffffffffffff\n      and\n      dup2\n      mstore\n      0x20\n      add\n      swap1\n      dup2\n      mstore\n      0x20\n      add\n      0x00\n      keccak256\n        /* \"@openzeppelin/contracts/token/ERC20/ERC20.sol\":4102:4129  _allowances[owner][spender] */\n      0x00\n        /* \"@openzeppelin/contracts/token/ERC20/ERC20.sol\":4121:4128  spender */\n      dup4\n        /* \"@openzeppelin/contracts/token/ERC20/ERC20.sol\":4102:4129  _allowances[owner][spender] */\n      0xffffffffffffffffffffffffffffffffffffffff\n      and\n      0xffffffffffffffffffffffffffffffffffffffff\n      and\n      dup2\n      mstore\n      0x20\n      add\n      swap1\n      dup2\n      mstore\n      0x20\n      add\n      0x00\n      keccak256\n      sload\n        /* \"@openzeppelin/contracts/token/ERC20/ERC20.sol\":4095:4129  return _allowances[owner][spender] */\n      swap1\n      pop\n        /* \"@openzeppelin/contracts/token/ERC20/ERC20.sol\":3987:4136  function allowance(address owner, address spender) public view virtual override returns (uint256) {... */\n      swap3\n      swap2\n      pop\n      pop\n      jump\t// out\n        /* \"@openzeppelin/contracts/access/Ownable.sol\":2074:2272  function transferOwnership(address newOwner) public virtual onlyOwner {... */\n    tag_116:\n        /* \"@openzeppelin/contracts/access/Ownable.sol\":1094:1107  _checkOwner() */\n      tag_193\n        /* \"@openzeppelin/contracts/access/Ownable.sol\":1094:1105  _checkOwner */\n      tag_165\n        /* \"@openzeppelin/contracts/access/Ownable.sol\":1094:1107  _checkOwner() */\n      jump\t// in\n    tag_193:\n        /* \"@openzeppelin/contracts/access/Ownable.sol\":2182:2183  0 */\n      0x00\n        /* \"@openzeppelin/contracts/access/Ownable.sol\":2162:2184  newOwner != address(0) */\n      0xffffffffffffffffffffffffffffffffffffffff\n      and\n        /* \"@openzeppelin/contracts/access/Ownable.sol\":2162:2170  newOwner */\n      dup2\n        /* \"@openzeppelin/contracts/access/Ownable.sol\":2162:2184  newOwner != address(0) */\n      0xffffffffffffffffffffffffffffffffffffffff\n      and\n      sub\n        /* \"@openzeppelin/contracts/access/Ownable.sol\":2154:2227  require(newOwner != address(0), \"Ownable: new owner is the zero address\") */\n      tag_195\n      jumpi\n      mload(0x40)\n      0x08c379a000000000000000000000000000000000000000000000000000000000\n      dup2\n      mstore\n      0x04\n      add\n      tag_196\n      swap1\n      tag_197\n      jump\t// in\n    tag_196:\n      mload(0x40)\n      dup1\n      swap2\n      sub\n      swap1\n      revert\n    tag_195:\n        /* \"@openzeppelin/contracts/access/Ownable.sol\":2237:2265  _transferOwnership(newOwner) */\n      tag_198\n        /* \"@openzeppelin/contracts/access/Ownable.sol\":2256:2264  newOwner */\n      dup2\n        /* \"@openzeppelin/contracts/access/Ownable.sol\":2237:2255  _transferOwnership */\n      tag_168\n        /* \"@openzeppelin/contracts/access/Ownable.sol\":2237:2265  _transferOwnership(newOwner) */\n      jump\t// in\n    tag_198:\n        /* \"@openzeppelin/contracts/access/Ownable.sol\":2074:2272  function transferOwnership(address newOwner) public virtual onlyOwner {... */\n      pop\n      jump\t// out\n        /* \"@openzeppelin/contracts/utils/Context.sol\":640:736  function _msgSender() internal view virtual returns (address) {... */\n    tag_146:\n        /* \"@openzeppelin/contracts/utils/Context.sol\":693:700  address */\n      0x00\n        /* \"@openzeppelin/contracts/utils/Context.sol\":719:729  msg.sender */\n      caller\n        /* \"@openzeppelin/contracts/utils/Context.sol\":712:729  return msg.sender */\n      swap1\n      pop\n        /* \"@openzeppelin/contracts/utils/Context.sol\":640:736  function _msgSender() internal view virtual returns (address) {... */\n      swap1\n      jump\t// out\n        /* \"@openzeppelin/contracts/token/ERC20/ERC20.sol\":10457:10797  function _approve(address owner, address spender, uint256 amount) internal virtual {... */\n    tag_148:\n        /* \"@openzeppelin/contracts/token/ERC20/ERC20.sol\":10575:10576  0 */\n      0x00\n        /* \"@openzeppelin/contracts/token/ERC20/ERC20.sol\":10558:10577  owner != address(0) */\n      0xffffffffffffffffffffffffffffffffffffffff\n      and\n        /* \"@openzeppelin/contracts/token/ERC20/ERC20.sol\":10558:10563  owner */\n      dup4\n        /* \"@openzeppelin/contracts/token/ERC20/ERC20.sol\":10558:10577  owner != address(0) */\n      0xffffffffffffffffffffffffffffffffffffffff\n      and\n      sub\n        /* \"@openzeppelin/contracts/token/ERC20/ERC20.sol\":10550:10618  require(owner != address(0), \"ERC20: approve from the zero address\") */\n      tag_201\n      jumpi\n      mload(0x40)\n      0x08c379a000000000000000000000000000000000000000000000000000000000\n      dup2\n      mstore\n      0x04\n      add\n      tag_202\n      swap1\n      tag_203\n      jump\t// in\n    tag_202:\n      mload(0x40)\n      dup1\n      swap2\n      sub\n      swap1\n      revert\n    tag_201:\n        /* \"@openzeppelin/contracts/token/ERC20/ERC20.sol\":10655:10656  0 */\n      0x00\n        /* \"@openzeppelin/contracts/token/ERC20/ERC20.sol\":10636:10657  spender != address(0) */\n      0xffffffffffffffffffffffffffffffffffffffff\n      and\n        /* \"@openzeppelin/contracts/token/ERC20/ERC20.sol\":10636:10643  spender */\n      dup3\n        /* \"@openzeppelin/contracts/token/ERC20/ERC20.sol\":10636:10657  spender != address(0) */\n      0xffffffffffffffffffffffffffffffffffffffff\n      and\n      sub\n        /* \"@openzeppelin/contracts/token/ERC20/ERC20.sol\":10628:10696  require(spender != address(0), \"ERC20: approve to the zero address\") */\n      tag_204\n      jumpi\n      mload(0x40)\n      0x08c379a000000000000000000000000000000000000000000000000000000000\n      dup2\n      mstore\n      0x04\n      add\n      tag_205\n      swap1\n      tag_206\n      jump\t// in\n    tag_205:\n      mload(0x40)\n      dup1\n      swap2\n      sub\n      swap1\n      revert\n    tag_204:\n        /* \"@openzeppelin/contracts/token/ERC20/ERC20.sol\":10737:10743  amount */\n      dup1\n        /* \"@openzeppelin/contracts/token/ERC20/ERC20.sol\":10707:10718  _allowances */\n      0x01\n        /* \"@openzeppelin/contracts/token/ERC20/ERC20.sol\":10707:10725  _allowances[owner] */\n      0x00\n        /* \"@openzeppelin/contracts/token/ERC20/ERC20.sol\":10719:10724  owner */\n      dup6\n        /* \"@openzeppelin/contracts/token/ERC20/ERC20.sol\":10707:10725  _allowances[owner] */\n      0xffffffffffffffffffffffffffffffffffffffff\n      and\n      0xffffffffffffffffffffffffffffffffffffffff\n      and\n      dup2\n      mstore\n      0x20\n      add\n      swap1\n      dup2\n      mstore\n      0x20\n      add\n      0x00\n      keccak256\n        /* \"@openzeppelin/contracts/token/ERC20/ERC20.sol\":10707:10734  _allowances[owner][spender] */\n      0x00\n        /* \"@openzeppelin/contracts/token/ERC20/ERC20.sol\":10726:10733  spender */\n      dup5\n        /* \"@openzeppelin/contracts/token/ERC20/ERC20.sol\":10707:10734  _allowances[owner][spender] */\n      0xffffffffffffffffffffffffffffffffffffffff\n      and\n      0xffffffffffffffffffffffffffffffffffffffff\n      and\n      dup2\n      mstore\n      0x20\n      add\n      swap1\n      dup2\n      mstore\n      0x20\n      add\n      0x00\n      keccak256\n        /* \"@openzeppelin/contracts/token/ERC20/ERC20.sol\":10707:10743  _allowances[owner][spender] = amount */\n      dup2\n      swap1\n      sstore\n      pop\n        /* \"@openzeppelin/contracts/token/ERC20/ERC20.sol\":10774:10781  spender */\n      dup2\n        /* \"@openzeppelin/contracts/token/ERC20/ERC20.sol\":10758:10790  Approval(owner, spender, amount) */\n      0xffffffffffffffffffffffffffffffffffffffff\n      and\n        /* \"@openzeppelin/contracts/token/ERC20/ERC20.sol\":10767:10772  owner */\n      dup4\n        /* \"@openzeppelin/contracts/token/ERC20/ERC20.sol\":10758:10790  Approval(owner, spender, amount) */\n      0xffffffffffffffffffffffffffffffffffffffff\n      and\n      0x8c5be1e5ebec7d5bd14f71427d1e84f3dd0314c0f7b2291e5b200ac8c7c3b925\n        /* \"@openzeppelin/contracts/token/ERC20/ERC20.sol\":10783:10789  amount */\n      dup4\n        /* \"@openzeppelin/contracts/token/ERC20/ERC20.sol\":10758:10790  Approval(owner, spender, amount) */\n      mload(0x40)\n      tag_207\n      swap2\n      swap1\n      tag_44\n      jump\t// in\n    tag_207:\n      mload(0x40)\n      dup1\n      swap2\n      sub\n      swap1\n      log3\n        /* \"@openzeppelin/contracts/token/ERC20/ERC20.sol\":10457:10797  function _approve(address owner, address spender, uint256 amount) internal virtual {... */\n      pop\n      pop\n      pop\n      jump\t// out\n        /* \"@openzeppelin/contracts/token/ERC20/ERC20.sol\":11078:11489  function _spendAllowance(address owner, address spender, uint256 amount) internal virtual {... */\n    tag_153:\n        /* \"@openzeppelin/contracts/token/ERC20/ERC20.sol\":11178:11202  uint256 currentAllowance */\n      0x00\n        /* \"@openzeppelin/contracts/token/ERC20/ERC20.sol\":11205:11230  allowance(owner, spender) */\n      tag_209\n        /* \"@openzeppelin/contracts/token/ERC20/ERC20.sol\":11215:11220  owner */\n      dup5\n        /* \"@openzeppelin/contracts/token/ERC20/ERC20.sol\":11222:11229  spender */\n      dup5\n        /* \"@openzeppelin/contracts/token/ERC20/ERC20.sol\":11205:11214  allowance */\n      tag_111\n        /* \"@openzeppelin/contracts/token/ERC20/ERC20.sol\":11205:11230  allowance(owner, spender) */\n      jump\t// in\n    tag_209:\n        /* \"@openzeppelin/contracts/token/ERC20/ERC20.sol\":11178:11230  uint256 currentAllowance = allowance(owner, spender) */\n      swap1\n      pop\n        /* \"@openzeppelin/contracts/token/ERC20/ERC20.sol\":11264:11281  type(uint256).max */\n      0xffffffffffffffffffffffffffffffffffffffffffffffffffffffffffffffff\n        /* \"@openzeppelin/contracts/token/ERC20/ERC20.sol\":11244:11260  currentAllowance */\n      dup2\n        /* \"@openzeppelin/contracts/token/ERC20/ERC20.sol\":11244:11281  currentAllowance != type(uint256).max */\n      eq\n        /* \"@openzeppelin/contracts/token/ERC20/ERC20.sol\":11240:11483  if (currentAllowance != type(uint256).max) {... */\n      tag_210\n      jumpi\n        /* \"@openzeppelin/contracts/token/ERC20/ERC20.sol\":11325:11331  amount */\n      dup2\n        /* \"@openzeppelin/contracts/token/ERC20/ERC20.sol\":11305:11321  currentAllowance */\n      dup2\n        /* \"@openzeppelin/contracts/token/ERC20/ERC20.sol\":11305:11331  currentAllowance >= amount */\n      lt\n      iszero\n        /* \"@openzeppelin/contracts/token/ERC20/ERC20.sol\":11297:11365  require(currentAllowance >= amount, \"ERC20: insufficient allowance\") */\n      tag_211\n      jumpi\n      mload(0x40)\n      0x08c379a000000000000000000000000000000000000000000000000000000000\n      dup2\n      mstore\n      0x04\n      add\n      tag_212\n      swap1\n      tag_213\n      jump\t// in\n    tag_212:\n      mload(0x40)\n      dup1\n      swap2\n      sub\n      swap1\n      revert\n    tag_211:\n        /* \"@openzeppelin/contracts/token/ERC20/ERC20.sol\":11407:11458  _approve(owner, spender, currentAllowance - amount) */\n      tag_214\n        /* \"@openzeppelin/contracts/token/ERC20/ERC20.sol\":11416:11421  owner */\n      dup5\n        /* \"@openzeppelin/contracts/token/ERC20/ERC20.sol\":11423:11430  spender */\n      dup5\n        /* \"@openzeppelin/contracts/token/ERC20/ERC20.sol\":11451:11457  amount */\n      dup5\n        /* \"@openzeppelin/contracts/token/ERC20/ERC20.sol\":11432:11448  currentAllowance */\n      dup5\n        /* \"@openzeppelin/contracts/token/ERC20/ERC20.sol\":11432:11457  currentAllowance - amount */\n      sub\n        /* \"@openzeppelin/contracts/token/ERC20/ERC20.sol\":11407:11415  _approve */\n      tag_148\n        /* \"@openzeppelin/contracts/token/ERC20/ERC20.sol\":11407:11458  _approve(owner, spender, currentAllowance - amount) */\n      jump\t// in\n    tag_214:\n        /* \"@openzeppelin/contracts/token/ERC20/ERC20.sol\":11240:11483  if (currentAllowance != type(uint256).max) {... */\n    tag_210:\n        /* \"@openzeppelin/contracts/token/ERC20/ERC20.sol\":11168:11489  {... */\n      pop\n        /* \"@openzeppelin/contracts/token/ERC20/ERC20.sol\":11078:11489  function _spendAllowance(address owner, address spender, uint256 amount) internal virtual {... */\n      pop\n      pop\n      pop\n      jump\t// out\n        /* \"@openzeppelin/contracts/token/ERC20/ERC20.sol\":7456:8244  function _transfer(address from, address to, uint256 amount) internal virtual {... */\n    tag_155:\n        /* \"@openzeppelin/contracts/token/ERC20/ERC20.sol\":7568:7569  0 */\n      0x00\n        /* \"@openzeppelin/contracts/token/ERC20/ERC20.sol\":7552:7570  from != address(0) */\n      0xffffffffffffffffffffffffffffffffffffffff\n      and\n        /* \"@openzeppelin/contracts/token/ERC20/ERC20.sol\":7552:7556  from */\n      dup4\n        /* \"@openzeppelin/contracts/token/ERC20/ERC20.sol\":7552:7570  from != address(0) */\n      0xffffffffffffffffffffffffffffffffffffffff\n      and\n      sub\n        /* \"@openzeppelin/contracts/token/ERC20/ERC20.sol\":7544:7612  require(from != address(0), \"ERC20: transfer from the zero address\") */\n      tag_216\n      jumpi\n      mload(0x40)\n      0x08c379a000000000000000000000000000000000000000000000000000000000\n      dup2\n      mstore\n      0x04\n      add\n      tag_217\n      swap1\n      tag_218\n      jump\t// in\n    tag_217:\n      mload(0x40)\n      dup1\n      swap2\n      sub\n      swap1\n      revert\n    tag_216:\n        /* \"@openzeppelin/contracts/token/ERC20/ERC20.sol\":7644:7645  0 */\n      0x00\n        /* \"@openzeppelin/contracts/token/ERC20/ERC20.sol\":7630:7646  to != address(0) */\n      0xffffffffffffffffffffffffffffffffffffffff\n      and\n        /* \"@openzeppelin/contracts/token/ERC20/ERC20.sol\":7630:7632  to */\n      dup3\n        /* \"@openzeppelin/contracts/token/ERC20/ERC20.sol\":7630:7646  to != address(0) */\n      0xffffffffffffffffffffffffffffffffffffffff\n      and\n      sub\n        /* \"@openzeppelin/contracts/token/ERC20/ERC20.sol\":7622:7686  require(to != address(0), \"ERC20: transfer to the zero address\") */\n      tag_219\n      jumpi\n      mload(0x40)\n      0x08c379a000000000000000000000000000000000000000000000000000000000\n      dup2\n      mstore\n      0x04\n      add\n      tag_220\n      swap1\n      tag_221\n      jump\t// in\n    tag_220:\n      mload(0x40)\n      dup1\n      swap2\n      sub\n      swap1\n      revert\n    tag_219:\n        /* \"@openzeppelin/contracts/token/ERC20/ERC20.sol\":7697:7735  _beforeTokenTransfer(from, to, amount) */\n      tag_222\n        /* \"@openzeppelin/contracts/token/ERC20/ERC20.sol\":7718:7722  from */\n      dup4\n        /* \"@openzeppelin/contracts/token/ERC20/ERC20.sol\":7724:7726  to */\n      dup4\n        /* \"@openzeppelin/contracts/token/ERC20/ERC20.sol\":7728:7734  amount */\n      dup4\n        /* \"@openzeppelin/contracts/token/ERC20/ERC20.sol\":7697:7717  _beforeTokenTransfer */\n      tag_223\n        /* \"@openzeppelin/contracts/token/ERC20/ERC20.sol\":7697:7735  _beforeTokenTransfer(from, to, amount) */\n      jump\t// in\n    tag_222:\n        /* \"@openzeppelin/contracts/token/ERC20/ERC20.sol\":7746:7765  uint256 fromBalance */\n      0x00\n        /* \"@openzeppelin/contracts/token/ERC20/ERC20.sol\":7768:7777  _balances */\n      dup1\n        /* \"@openzeppelin/contracts/token/ERC20/ERC20.sol\":7768:7783  _balances[from] */\n      0x00\n        /* \"@openzeppelin/contracts/token/ERC20/ERC20.sol\":7778:7782  from */\n      dup6\n        /* \"@openzeppelin/contracts/token/ERC20/ERC20.sol\":7768:7783  _balances[from] */\n      0xffffffffffffffffffffffffffffffffffffffff\n      and\n      0xffffffffffffffffffffffffffffffffffffffff\n      and\n      dup2\n      mstore\n      0x20\n      add\n      swap1\n      dup2\n      mstore\n      0x20\n      add\n      0x00\n      keccak256\n      sload\n        /* \"@openzeppelin/contracts/token/ERC20/ERC20.sol\":7746:7783  uint256 fromBalance = _balances[from] */\n      swap1\n      pop\n        /* \"@openzeppelin/contracts/token/ERC20/ERC20.sol\":7816:7822  amount */\n      dup2\n        /* \"@openzeppelin/contracts/token/ERC20/ERC20.sol\":7801:7812  fromBalance */\n      dup2\n        /* \"@openzeppelin/contracts/token/ERC20/ERC20.sol\":7801:7822  fromBalance >= amount */\n      lt\n      iszero\n        /* \"@openzeppelin/contracts/token/ERC20/ERC20.sol\":7793:7865  require(fromBalance >= amount, \"ERC20: transfer amount exceeds balance\") */\n      tag_224\n      jumpi\n      mload(0x40)\n      0x08c379a000000000000000000000000000000000000000000000000000000000\n      dup2\n      mstore\n      0x04\n      add\n      tag_225\n      swap1\n      tag_226\n      jump\t// in\n    tag_225:\n      mload(0x40)\n      dup1\n      swap2\n      sub\n      swap1\n      revert\n    tag_224:\n        /* \"@openzeppelin/contracts/token/ERC20/ERC20.sol\":7931:7937  amount */\n      dup2\n        /* \"@openzeppelin/contracts/token/ERC20/ERC20.sol\":7917:7928  fromBalance */\n      dup2\n        /* \"@openzeppelin/contracts/token/ERC20/ERC20.sol\":7917:7937  fromBalance - amount */\n      sub\n        /* \"@openzeppelin/contracts/token/ERC20/ERC20.sol\":7899:7908  _balances */\n      0x00\n        /* \"@openzeppelin/contracts/token/ERC20/ERC20.sol\":7899:7914  _balances[from] */\n      dup1\n        /* \"@openzeppelin/contracts/token/ERC20/ERC20.sol\":7909:7913  from */\n      dup7\n        /* \"@openzeppelin/contracts/token/ERC20/ERC20.sol\":7899:7914  _balances[from] */\n      0xffffffffffffffffffffffffffffffffffffffff\n      and\n      0xffffffffffffffffffffffffffffffffffffffff\n      and\n      dup2\n      mstore\n      0x20\n      add\n      swap1\n      dup2\n      mstore\n      0x20\n      add\n      0x00\n      keccak256\n        /* \"@openzeppelin/contracts/token/ERC20/ERC20.sol\":7899:7937  _balances[from] = fromBalance - amount */\n      dup2\n      swap1\n      sstore\n      pop\n        /* \"@openzeppelin/contracts/token/ERC20/ERC20.sol\":8131:8137  amount */\n      dup2\n        /* \"@openzeppelin/contracts/token/ERC20/ERC20.sol\":8114:8123  _balances */\n      0x00\n        /* \"@openzeppelin/contracts/token/ERC20/ERC20.sol\":8114:8127  _balances[to] */\n      dup1\n        /* \"@openzeppelin/contracts/token/ERC20/ERC20.sol\":8124:8126  to */\n      dup6\n        /* \"@openzeppelin/contracts/token/ERC20/ERC20.sol\":8114:8127  _balances[to] */\n      0xffffffffffffffffffffffffffffffffffffffff\n      and\n      0xffffffffffffffffffffffffffffffffffffffff\n      and\n      dup2\n      mstore\n      0x20\n      add\n      swap1\n      dup2\n      mstore\n      0x20\n      add\n      0x00\n      keccak256\n      0x00\n        /* \"@openzeppelin/contracts/token/ERC20/ERC20.sol\":8114:8137  _balances[to] += amount */\n      dup3\n      dup3\n      sload\n      add\n      swap3\n      pop\n      pop\n      dup2\n      swap1\n      sstore\n      pop\n        /* \"@openzeppelin/contracts/token/ERC20/ERC20.sol\":8178:8180  to */\n      dup3\n        /* \"@openzeppelin/contracts/token/ERC20/ERC20.sol\":8163:8189  Transfer(from, to, amount) */\n      0xffffffffffffffffffffffffffffffffffffffff\n      and\n        /* \"@openzeppelin/contracts/token/ERC20/ERC20.sol\":8172:8176  from */\n      dup5\n        /* \"@openzeppelin/contracts/token/ERC20/ERC20.sol\":8163:8189  Transfer(from, to, amount) */\n      0xffffffffffffffffffffffffffffffffffffffff\n      and\n      0xddf252ad1be2c89b69c2b068fc378daa952ba7f163c4a11628f55a4df523b3ef\n        /* \"@openzeppelin/contracts/token/ERC20/ERC20.sol\":8182:8188  amount */\n      dup5\n        /* \"@openzeppelin/contracts/token/ERC20/ERC20.sol\":8163:8189  Transfer(from, to, amount) */\n      mload(0x40)\n      tag_227\n      swap2\n      swap1\n      tag_44\n      jump\t// in\n    tag_227:\n      mload(0x40)\n      dup1\n      swap2\n      sub\n      swap1\n      log3\n        /* \"@openzeppelin/contracts/token/ERC20/ERC20.sol\":8200:8237  _afterTokenTransfer(from, to, amount) */\n      tag_228\n        /* \"@openzeppelin/contracts/token/ERC20/ERC20.sol\":8220:8224  from */\n      dup5\n        /* \"@openzeppelin/contracts/token/ERC20/ERC20.sol\":8226:8228  to */\n      dup5\n        /* \"@openzeppelin/contracts/token/ERC20/ERC20.sol\":8230:8236  amount */\n      dup5\n        /* \"@openzeppelin/contracts/token/ERC20/ERC20.sol\":8200:8219  _afterTokenTransfer */\n      tag_229\n        /* \"@openzeppelin/contracts/token/ERC20/ERC20.sol\":8200:8237  _afterTokenTransfer(from, to, amount) */\n      jump\t// in\n    tag_228:\n        /* \"@openzeppelin/contracts/token/ERC20/ERC20.sol\":7534:8244  {... */\n      pop\n        /* \"@openzeppelin/contracts/token/ERC20/ERC20.sol\":7456:8244  function _transfer(address from, address to, uint256 amount) internal virtual {... */\n      pop\n      pop\n      pop\n      jump\t// out\n        /* \"@openzeppelin/contracts/access/Ownable.sol\":1359:1489  function _checkOwner() internal view virtual {... */\n    tag_165:\n        /* \"@openzeppelin/contracts/access/Ownable.sol\":1433:1445  _msgSender() */\n      tag_231\n        /* \"@openzeppelin/contracts/access/Ownable.sol\":1433:1443  _msgSender */\n      tag_146\n        /* \"@openzeppelin/contracts/access/Ownable.sol\":1433:1445  _msgSender() */\n      jump\t// in\n    tag_231:\n        /* \"@openzeppelin/contracts/access/Ownable.sol\":1422:1445  owner() == _msgSender() */\n      0xffffffffffffffffffffffffffffffffffffffff\n      and\n        /* \"@openzeppelin/contracts/access/Ownable.sol\":1422:1429  owner() */\n      tag_232\n        /* \"@openzeppelin/contracts/access/Ownable.sol\":1422:1427  owner */\n      tag_81\n        /* \"@openzeppelin/contracts/access/Ownable.sol\":1422:1429  owner() */\n      jump\t// in\n    tag_232:\n        /* \"@openzeppelin/contracts/access/Ownable.sol\":1422:1445  owner() == _msgSender() */\n      0xffffffffffffffffffffffffffffffffffffffff\n      and\n      eq\n        /* \"@openzeppelin/contracts/access/Ownable.sol\":1414:1482  require(owner() == _msgSender(), \"Ownable: caller is not the owner\") */\n      tag_233\n      jumpi\n      mload(0x40)\n      0x08c379a000000000000000000000000000000000000000000000000000000000\n      dup2\n      mstore\n      0x04\n      add\n      tag_234\n      swap1\n      tag_235\n      jump\t// in\n    tag_234:\n      mload(0x40)\n      dup1\n      swap2\n      sub\n      swap1\n      revert\n    tag_233:\n        /* \"@openzeppelin/contracts/access/Ownable.sol\":1359:1489  function _checkOwner() internal view virtual {... */\n      jump\t// out\n        /* \"@openzeppelin/contracts/access/Ownable.sol\":2426:2613  function _transferOwnership(address newOwner) internal virtual {... */\n    tag_168:\n        /* \"@openzeppelin/contracts/access/Ownable.sol\":2499:2515  address oldOwner */\n      0x00\n        /* \"@openzeppelin/contracts/access/Ownable.sol\":2518:2524  _owner */\n      0x05\n      0x00\n      swap1\n      sload\n      swap1\n      0x0100\n      exp\n      swap1\n      div\n      0xffffffffffffffffffffffffffffffffffffffff\n      and\n        /* \"@openzeppelin/contracts/access/Ownable.sol\":2499:2524  address oldOwner = _owner */\n      swap1\n      pop\n        /* \"@openzeppelin/contracts/access/Ownable.sol\":2543:2551  newOwner */\n      dup2\n        /* \"@openzeppelin/contracts/access/Ownable.sol\":2534:2540  _owner */\n      0x05\n      0x00\n        /* \"@openzeppelin/contracts/access/Ownable.sol\":2534:2551  _owner = newOwner */\n      0x0100\n      exp\n      dup2\n      sload\n      dup2\n      0xffffffffffffffffffffffffffffffffffffffff\n      mul\n      not\n      and\n      swap1\n      dup4\n      0xffffffffffffffffffffffffffffffffffffffff\n      and\n      mul\n      or\n      swap1\n      sstore\n      pop\n        /* \"@openzeppelin/contracts/access/Ownable.sol\":2597:2605  newOwner */\n      dup2\n        /* \"@openzeppelin/contracts/access/Ownable.sol\":2566:2606  OwnershipTransferred(oldOwner, newOwner) */\n      0xffffffffffffffffffffffffffffffffffffffff\n      and\n        /* \"@openzeppelin/contracts/access/Ownable.sol\":2587:2595  oldOwner */\n      dup2\n        /* \"@openzeppelin/contracts/access/Ownable.sol\":2566:2606  OwnershipTransferred(oldOwner, newOwner) */\n      0xffffffffffffffffffffffffffffffffffffffff\n      and\n      0x8be0079c531659141344cd1fd0a4f28419497f9722a3daafe3b4186f6b6457e0\n      mload(0x40)\n      mload(0x40)\n      dup1\n      swap2\n      sub\n      swap1\n      log3\n        /* \"@openzeppelin/contracts/access/Ownable.sol\":2489:2613  {... */\n      pop\n        /* \"@openzeppelin/contracts/access/Ownable.sol\":2426:2613  function _transferOwnership(address newOwner) internal virtual {... */\n      pop\n      jump\t// out\n        /* \"@openzeppelin/contracts/token/ERC20/ERC20.sol\":12073:12164  function _beforeTokenTransfer(address from, address to, uint256 amount) internal virtual {} */\n    tag_223:\n      pop\n      pop\n      pop\n      jump\t// out\n        /* \"@openzeppelin/contracts/token/ERC20/ERC20.sol\":12752:12842  function _afterTokenTransfer(address from, address to, uint256 amount) internal virtual {} */\n    tag_229:\n      pop\n      pop\n      pop\n      jump\t// out\n        /* \"#utility.yul\":7:106   */\n    tag_239:\n        /* \"#utility.yul\":59:65   */\n      0x00\n        /* \"#utility.yul\":93:98   */\n      dup2\n        /* \"#utility.yul\":87:99   */\n      mload\n        /* \"#utility.yul\":77:99   */\n      swap1\n      pop\n        /* \"#utility.yul\":7:106   */\n      swap2\n      swap1\n      pop\n      jump\t// out\n        /* \"#utility.yul\":112:281   */\n    tag_240:\n        /* \"#utility.yul\":196:207   */\n      0x00\n        /* \"#utility.yul\":230:236   */\n      dup3\n        /* \"#utility.yul\":225:228   */\n      dup3\n        /* \"#utility.yul\":218:237   */\n      mstore\n        /* \"#utility.yul\":270:274   */\n      0x20\n        /* \"#utility.yul\":265:268   */\n      dup3\n        /* \"#utility.yul\":261:275   */\n      add\n        /* \"#utility.yul\":246:275   */\n      swap1\n      pop\n        /* \"#utility.yul\":112:281   */\n      swap3\n      swap2\n      pop\n      pop\n      jump\t// out\n        /* \"#utility.yul\":287:533   */\n    tag_241:\n        /* \"#utility.yul\":368:369   */\n      0x00\n        /* \"#utility.yul\":378:491   */\n    tag_314:\n        /* \"#utility.yul\":392:398   */\n      dup4\n        /* \"#utility.yul\":389:390   */\n      dup2\n        /* \"#utility.yul\":386:399   */\n      lt\n        /* \"#utility.yul\":378:491   */\n      iszero\n      tag_316\n      jumpi\n        /* \"#utility.yul\":477:478   */\n      dup1\n        /* \"#utility.yul\":472:475   */\n      dup3\n        /* \"#utility.yul\":468:479   */\n      add\n        /* \"#utility.yul\":462:480   */\n      mload\n        /* \"#utility.yul\":458:459   */\n      dup2\n        /* \"#utility.yul\":453:456   */\n      dup5\n        /* \"#utility.yul\":449:460   */\n      add\n        /* \"#utility.yul\":442:481   */\n      mstore\n        /* \"#utility.yul\":414:416   */\n      0x20\n        /* \"#utility.yul\":411:412   */\n      dup2\n        /* \"#utility.yul\":407:417   */\n      add\n        /* \"#utility.yul\":402:417   */\n      swap1\n      pop\n        /* \"#utility.yul\":378:491   */\n      jump(tag_314)\n    tag_316:\n        /* \"#utility.yul\":525:526   */\n      0x00\n        /* \"#utility.yul\":516:522   */\n      dup5\n        /* \"#utility.yul\":511:514   */\n      dup5\n        /* \"#utility.yul\":507:523   */\n      add\n        /* \"#utility.yul\":500:527   */\n      mstore\n        /* \"#utility.yul\":349:533   */\n      pop\n        /* \"#utility.yul\":287:533   */\n      pop\n      pop\n      pop\n      jump\t// out\n        /* \"#utility.yul\":539:641   */\n    tag_242:\n        /* \"#utility.yul\":580:586   */\n      0x00\n        /* \"#utility.yul\":631:633   */\n      0x1f\n        /* \"#utility.yul\":627:634   */\n      not\n        /* \"#utility.yul\":622:624   */\n      0x1f\n        /* \"#utility.yul\":615:620   */\n      dup4\n        /* \"#utility.yul\":611:625   */\n      add\n        /* \"#utility.yul\":607:635   */\n      and\n        /* \"#utility.yul\":597:635   */\n      swap1\n      pop\n        /* \"#utility.yul\":539:641   */\n      swap2\n      swap1\n      pop\n      jump\t// out\n        /* \"#utility.yul\":647:1024   */\n    tag_243:\n        /* \"#utility.yul\":735:738   */\n      0x00\n        /* \"#utility.yul\":763:802   */\n      tag_319\n        /* \"#utility.yul\":796:801   */\n      dup3\n        /* \"#utility.yul\":763:802   */\n      tag_239\n      jump\t// in\n    tag_319:\n        /* \"#utility.yul\":818:889   */\n      tag_320\n        /* \"#utility.yul\":882:888   */\n      dup2\n        /* \"#utility.yul\":877:880   */\n      dup6\n        /* \"#utility.yul\":818:889   */\n      tag_240\n      jump\t// in\n    tag_320:\n        /* \"#utility.yul\":811:889   */\n      swap4\n      pop\n        /* \"#utility.yul\":898:963   */\n      tag_321\n        /* \"#utility.yul\":956:962   */\n      dup2\n        /* \"#utility.yul\":951:954   */\n      dup6\n        /* \"#utility.yul\":944:948   */\n      0x20\n        /* \"#utility.yul\":937:942   */\n      dup7\n        /* \"#utility.yul\":933:949   */\n      add\n        /* \"#utility.yul\":898:963   */\n      tag_241\n      jump\t// in\n    tag_321:\n        /* \"#utility.yul\":988:1017   */\n      tag_322\n        /* \"#utility.yul\":1010:1016   */\n      dup2\n        /* \"#utility.yul\":988:1017   */\n      tag_242\n      jump\t// in\n    tag_322:\n        /* \"#utility.yul\":983:986   */\n      dup5\n        /* \"#utility.yul\":979:1018   */\n      add\n        /* \"#utility.yul\":972:1018   */\n      swap2\n      pop\n        /* \"#utility.yul\":739:1024   */\n      pop\n        /* \"#utility.yul\":647:1024   */\n      swap3\n      swap2\n      pop\n      pop\n      jump\t// out\n        /* \"#utility.yul\":1030:1343   */\n    tag_28:\n        /* \"#utility.yul\":1143:1147   */\n      0x00\n        /* \"#utility.yul\":1181:1183   */\n      0x20\n        /* \"#utility.yul\":1170:1179   */\n      dup3\n        /* \"#utility.yul\":1166:1184   */\n      add\n        /* \"#utility.yul\":1158:1184   */\n      swap1\n      pop\n        /* \"#utility.yul\":1230:1239   */\n      dup2\n        /* \"#utility.yul\":1224:1228   */\n      dup2\n        /* \"#utility.yul\":1220:1240   */\n      sub\n        /* \"#utility.yul\":1216:1217   */\n      0x00\n        /* \"#utility.yul\":1205:1214   */\n      dup4\n        /* \"#utility.yul\":1201:1218   */\n      add\n        /* \"#utility.yul\":1194:1241   */\n      mstore\n        /* \"#utility.yul\":1258:1336   */\n      tag_324\n        /* \"#utility.yul\":1331:1335   */\n      dup2\n        /* \"#utility.yul\":1322:1328   */\n      dup5\n        /* \"#utility.yul\":1258:1336   */\n      tag_243\n      jump\t// in\n    tag_324:\n        /* \"#utility.yul\":1250:1336   */\n      swap1\n      pop\n        /* \"#utility.yul\":1030:1343   */\n      swap3\n      swap2\n      pop\n      pop\n      jump\t// out\n        /* \"#utility.yul\":1349:1424   */\n    tag_244:\n        /* \"#utility.yul\":1382:1388   */\n      0x00\n        /* \"#utility.yul\":1415:1417   */\n      0x40\n        /* \"#utility.yul\":1409:1418   */\n      mload\n        /* \"#utility.yul\":1399:1418   */\n      swap1\n      pop\n        /* \"#utility.yul\":1349:1424   */\n      swap1\n      jump\t// out\n        /* \"#utility.yul\":1430:1547   */\n    tag_245:\n        /* \"#utility.yul\":1539:1540   */\n      0x00\n        /* \"#utility.yul\":1536:1537   */\n      dup1\n        /* \"#utility.yul\":1529:1541   */\n      revert\n        /* \"#utility.yul\":1553:1670   */\n    tag_246:\n        /* \"#utility.yul\":1662:1663   */\n      0x00\n        /* \"#utility.yul\":1659:1660   */\n      dup1\n        /* \"#utility.yul\":1652:1664   */\n      revert\n        /* \"#utility.yul\":1676:1793   */\n    tag_247:\n        /* \"#utility.yul\":1785:1786   */\n      0x00\n        /* \"#utility.yul\":1782:1783   */\n      dup1\n        /* \"#utility.yul\":1775:1787   */\n      revert\n        /* \"#utility.yul\":1799:1916   */\n    tag_248:\n        /* \"#utility.yul\":1908:1909   */\n      0x00\n        /* \"#utility.yul\":1905:1906   */\n      dup1\n        /* \"#utility.yul\":1898:1910   */\n      revert\n        /* \"#utility.yul\":1922:2102   */\n    tag_249:\n        /* \"#utility.yul\":1970:2047   */\n      0x4e487b7100000000000000000000000000000000000000000000000000000000\n        /* \"#utility.yul\":1967:1968   */\n      0x00\n        /* \"#utility.yul\":1960:2048   */\n      mstore\n        /* \"#utility.yul\":2067:2071   */\n      0x41\n        /* \"#utility.yul\":2064:2065   */\n      0x04\n        /* \"#utility.yul\":2057:2072   */\n      mstore\n        /* \"#utility.yul\":2091:2095   */\n      0x24\n        /* \"#utility.yul\":2088:2089   */\n      0x00\n        /* \"#utility.yul\":2081:2096   */\n      revert\n        /* \"#utility.yul\":2108:2389   */\n    tag_250:\n        /* \"#utility.yul\":2191:2218   */\n      tag_332\n        /* \"#utility.yul\":2213:2217   */\n      dup3\n        /* \"#utility.yul\":2191:2218   */\n      tag_242\n      jump\t// in\n    tag_332:\n        /* \"#utility.yul\":2183:2189   */\n      dup2\n        /* \"#utility.yul\":2179:2219   */\n      add\n        /* \"#utility.yul\":2321:2327   */\n      dup2\n        /* \"#utility.yul\":2309:2319   */\n      dup2\n        /* \"#utility.yul\":2306:2328   */\n      lt\n        /* \"#utility.yul\":2285:2303   */\n      0xffffffffffffffff\n        /* \"#utility.yul\":2273:2283   */\n      dup3\n        /* \"#utility.yul\":2270:2304   */\n      gt\n        /* \"#utility.yul\":2267:2329   */\n      or\n        /* \"#utility.yul\":2264:2352   */\n      iszero\n      tag_333\n      jumpi\n        /* \"#utility.yul\":2332:2350   */\n      tag_334\n      tag_249\n      jump\t// in\n    tag_334:\n        /* \"#utility.yul\":2264:2352   */\n    tag_333:\n        /* \"#utility.yul\":2372:2382   */\n      dup1\n        /* \"#utility.yul\":2368:2370   */\n      0x40\n        /* \"#utility.yul\":2361:2383   */\n      mstore\n        /* \"#utility.yul\":2151:2389   */\n      pop\n        /* \"#utility.yul\":2108:2389   */\n      pop\n      pop\n      jump\t// out\n        /* \"#utility.yul\":2395:2524   */\n    tag_251:\n        /* \"#utility.yul\":2429:2435   */\n      0x00\n        /* \"#utility.yul\":2456:2476   */\n      tag_336\n      tag_244\n      jump\t// in\n    tag_336:\n        /* \"#utility.yul\":2446:2476   */\n      swap1\n      pop\n        /* \"#utility.yul\":2485:2518   */\n      tag_337\n        /* \"#utility.yul\":2513:2517   */\n      dup3\n        /* \"#utility.yul\":2505:2511   */\n      dup3\n        /* \"#utility.yul\":2485:2518   */\n      tag_250\n      jump\t// in\n    tag_337:\n        /* \"#utility.yul\":2395:2524   */\n      swap2\n      swap1\n      pop\n      jump\t// out\n        /* \"#utility.yul\":2530:2838   */\n    tag_252:\n        /* \"#utility.yul\":2592:2596   */\n      0x00\n        /* \"#utility.yul\":2682:2700   */\n      0xffffffffffffffff\n        /* \"#utility.yul\":2674:2680   */\n      dup3\n        /* \"#utility.yul\":2671:2701   */\n      gt\n        /* \"#utility.yul\":2668:2724   */\n      iszero\n      tag_339\n      jumpi\n        /* \"#utility.yul\":2704:2722   */\n      tag_340\n      tag_249\n      jump\t// in\n    tag_340:\n        /* \"#utility.yul\":2668:2724   */\n    tag_339:\n        /* \"#utility.yul\":2742:2771   */\n      tag_341\n        /* \"#utility.yul\":2764:2770   */\n      dup3\n        /* \"#utility.yul\":2742:2771   */\n      tag_242\n      jump\t// in\n    tag_341:\n        /* \"#utility.yul\":2734:2771   */\n      swap1\n      pop\n        /* \"#utility.yul\":2826:2830   */\n      0x20\n        /* \"#utility.yul\":2820:2824   */\n      dup2\n        /* \"#utility.yul\":2816:2831   */\n      add\n        /* \"#utility.yul\":2808:2831   */\n      swap1\n      pop\n        /* \"#utility.yul\":2530:2838   */\n      swap2\n      swap1\n      pop\n      jump\t// out\n        /* \"#utility.yul\":2844:2990   */\n    tag_253:\n        /* \"#utility.yul\":2941:2947   */\n      dup3\n        /* \"#utility.yul\":2936:2939   */\n      dup2\n        /* \"#utility.yul\":2931:2934   */\n      dup4\n        /* \"#utility.yul\":2918:2948   */\n      calldatacopy\n        /* \"#utility.yul\":2982:2983   */\n      0x00\n        /* \"#utility.yul\":2973:2979   */\n      dup4\n        /* \"#utility.yul\":2968:2971   */\n      dup4\n        /* \"#utility.yul\":2964:2980   */\n      add\n        /* \"#utility.yul\":2957:2984   */\n      mstore\n        /* \"#utility.yul\":2844:2990   */\n      pop\n      pop\n      pop\n      jump\t// out\n        /* \"#utility.yul\":2996:3421   */\n    tag_254:\n        /* \"#utility.yul\":3074:3079   */\n      0x00\n        /* \"#utility.yul\":3099:3165   */\n      tag_344\n        /* \"#utility.yul\":3115:3164   */\n      tag_345\n        /* \"#utility.yul\":3157:3163   */\n      dup5\n        /* \"#utility.yul\":3115:3164   */\n      tag_252\n      jump\t// in\n    tag_345:\n        /* \"#utility.yul\":3099:3165   */\n      tag_251\n      jump\t// in\n    tag_344:\n        /* \"#utility.yul\":3090:3165   */\n      swap1\n      pop\n        /* \"#utility.yul\":3188:3194   */\n      dup3\n        /* \"#utility.yul\":3181:3186   */\n      dup2\n        /* \"#utility.yul\":3174:3195   */\n      mstore\n        /* \"#utility.yul\":3226:3230   */\n      0x20\n        /* \"#utility.yul\":3219:3224   */\n      dup2\n        /* \"#utility.yul\":3215:3231   */\n      add\n        /* \"#utility.yul\":3264:3267   */\n      dup5\n        /* \"#utility.yul\":3255:3261   */\n      dup5\n        /* \"#utility.yul\":3250:3253   */\n      dup5\n        /* \"#utility.yul\":3246:3262   */\n      add\n        /* \"#utility.yul\":3243:3268   */\n      gt\n        /* \"#utility.yul\":3240:3352   */\n      iszero\n      tag_346\n      jumpi\n        /* \"#utility.yul\":3271:3350   */\n      tag_347\n      tag_248\n      jump\t// in\n    tag_347:\n        /* \"#utility.yul\":3240:3352   */\n    tag_346:\n        /* \"#utility.yul\":3361:3415   */\n      tag_348\n        /* \"#utility.yul\":3408:3414   */\n      dup5\n        /* \"#utility.yul\":3403:3406   */\n      dup3\n        /* \"#utility.yul\":3398:3401   */\n      dup6\n        /* \"#utility.yul\":3361:3415   */\n      tag_253\n      jump\t// in\n    tag_348:\n        /* \"#utility.yul\":3080:3421   */\n      pop\n        /* \"#utility.yul\":2996:3421   */\n      swap4\n      swap3\n      pop\n      pop\n      pop\n      jump\t// out\n        /* \"#utility.yul\":3441:3781   */\n    tag_255:\n        /* \"#utility.yul\":3497:3502   */\n      0x00\n        /* \"#utility.yul\":3546:3549   */\n      dup3\n        /* \"#utility.yul\":3539:3543   */\n      0x1f\n        /* \"#utility.yul\":3531:3537   */\n      dup4\n        /* \"#utility.yul\":3527:3544   */\n      add\n        /* \"#utility.yul\":3523:3550   */\n      slt\n        /* \"#utility.yul\":3513:3635   */\n      tag_350\n      jumpi\n        /* \"#utility.yul\":3554:3633   */\n      tag_351\n      tag_247\n      jump\t// in\n    tag_351:\n        /* \"#utility.yul\":3513:3635   */\n    tag_350:\n        /* \"#utility.yul\":3671:3677   */\n      dup2\n        /* \"#utility.yul\":3658:3678   */\n      calldataload\n        /* \"#utility.yul\":3696:3775   */\n      tag_352\n        /* \"#utility.yul\":3771:3774   */\n      dup5\n        /* \"#utility.yul\":3763:3769   */\n      dup3\n        /* \"#utility.yul\":3756:3760   */\n      0x20\n        /* \"#utility.yul\":3748:3754   */\n      dup7\n        /* \"#utility.yul\":3744:3761   */\n      add\n        /* \"#utility.yul\":3696:3775   */\n      tag_254\n      jump\t// in\n    tag_352:\n        /* \"#utility.yul\":3687:3775   */\n      swap2\n      pop\n        /* \"#utility.yul\":3503:3781   */\n      pop\n        /* \"#utility.yul\":3441:3781   */\n      swap3\n      swap2\n      pop\n      pop\n      jump\t// out\n        /* \"#utility.yul\":3787:3864   */\n    tag_256:\n        /* \"#utility.yul\":3824:3831   */\n      0x00\n        /* \"#utility.yul\":3853:3858   */\n      dup2\n        /* \"#utility.yul\":3842:3858   */\n      swap1\n      pop\n        /* \"#utility.yul\":3787:3864   */\n      swap2\n      swap1\n      pop\n      jump\t// out\n        /* \"#utility.yul\":3870:3992   */\n    tag_257:\n        /* \"#utility.yul\":3943:3967   */\n      tag_355\n        /* \"#utility.yul\":3961:3966   */\n      dup2\n        /* \"#utility.yul\":3943:3967   */\n      tag_256\n      jump\t// in\n    tag_355:\n        /* \"#utility.yul\":3936:3941   */\n      dup2\n        /* \"#utility.yul\":3933:3968   */\n      eq\n        /* \"#utility.yul\":3923:3986   */\n      tag_356\n      jumpi\n        /* \"#utility.yul\":3982:3983   */\n      0x00\n        /* \"#utility.yul\":3979:3980   */\n      dup1\n        /* \"#utility.yul\":3972:3984   */\n      revert\n        /* \"#utility.yul\":3923:3986   */\n    tag_356:\n        /* \"#utility.yul\":3870:3992   */\n      pop\n      jump\t// out\n        /* \"#utility.yul\":3998:4137   */\n    tag_258:\n        /* \"#utility.yul\":4044:4049   */\n      0x00\n        /* \"#utility.yul\":4082:4088   */\n      dup2\n        /* \"#utility.yul\":4069:4089   */\n      calldataload\n        /* \"#utility.yul\":4060:4089   */\n      swap1\n      pop\n        /* \"#utility.yul\":4098:4131   */\n      tag_358\n        /* \"#utility.yul\":4125:4130   */\n      dup2\n        /* \"#utility.yul\":4098:4131   */\n      tag_257\n      jump\t// in\n    tag_358:\n        /* \"#utility.yul\":3998:4137   */\n      swap3\n      swap2\n      pop\n      pop\n      jump\t// out\n        /* \"#utility.yul\":4143:4797   */\n    tag_31:\n        /* \"#utility.yul\":4221:4227   */\n      0x00\n        /* \"#utility.yul\":4229:4235   */\n      dup1\n        /* \"#utility.yul\":4278:4280   */\n      0x40\n        /* \"#utility.yul\":4266:4275   */\n      dup4\n        /* \"#utility.yul\":4257:4264   */\n      dup6\n        /* \"#utility.yul\":4253:4276   */\n      sub\n        /* \"#utility.yul\":4249:4281   */\n      slt\n        /* \"#utility.yul\":4246:4365   */\n      iszero\n      tag_360\n      jumpi\n        /* \"#utility.yul\":4284:4363   */\n      tag_361\n      tag_245\n      jump\t// in\n    tag_361:\n        /* \"#utility.yul\":4246:4365   */\n    tag_360:\n        /* \"#utility.yul\":4432:4433   */\n      0x00\n        /* \"#utility.yul\":4421:4430   */\n      dup4\n        /* \"#utility.yul\":4417:4434   */\n      add\n        /* \"#utility.yul\":4404:4435   */\n      calldataload\n        /* \"#utility.yul\":4462:4480   */\n      0xffffffffffffffff\n        /* \"#utility.yul\":4454:4460   */\n      dup2\n        /* \"#utility.yul\":4451:4481   */\n      gt\n        /* \"#utility.yul\":4448:4565   */\n      iszero\n      tag_362\n      jumpi\n        /* \"#utility.yul\":4484:4563   */\n      tag_363\n      tag_246\n      jump\t// in\n    tag_363:\n        /* \"#utility.yul\":4448:4565   */\n    tag_362:\n        /* \"#utility.yul\":4589:4652   */\n      tag_364\n        /* \"#utility.yul\":4644:4651   */\n      dup6\n        /* \"#utility.yul\":4635:4641   */\n      dup3\n        /* \"#utility.yul\":4624:4633   */\n      dup7\n        /* \"#utility.yul\":4620:4642   */\n      add\n        /* \"#utility.yul\":4589:4652   */\n      tag_255\n      jump\t// in\n    tag_364:\n        /* \"#utility.yul\":4579:4652   */\n      swap3\n      pop\n        /* \"#utility.yul\":4375:4662   */\n      pop\n        /* \"#utility.yul\":4701:4703   */\n      0x20\n        /* \"#utility.yul\":4727:4780   */\n      tag_365\n        /* \"#utility.yul\":4772:4779   */\n      dup6\n        /* \"#utility.yul\":4763:4769   */\n      dup3\n        /* \"#utility.yul\":4752:4761   */\n      dup7\n        /* \"#utility.yul\":4748:4770   */\n      add\n        /* \"#utility.yul\":4727:4780   */\n      tag_258\n      jump\t// in\n    tag_365:\n        /* \"#utility.yul\":4717:4780   */\n      swap2\n      pop\n        /* \"#utility.yul\":4672:4790   */\n      pop\n        /* \"#utility.yul\":4143:4797   */\n      swap3\n      pop\n      swap3\n      swap1\n      pop\n      jump\t// out\n        /* \"#utility.yul\":4803:4929   */\n    tag_259:\n        /* \"#utility.yul\":4840:4847   */\n      0x00\n        /* \"#utility.yul\":4880:4922   */\n      0xffffffffffffffffffffffffffffffffffffffff\n        /* \"#utility.yul\":4873:4878   */\n      dup3\n        /* \"#utility.yul\":4869:4923   */\n      and\n        /* \"#utility.yul\":4858:4923   */\n      swap1\n      pop\n        /* \"#utility.yul\":4803:4929   */\n      swap2\n      swap1\n      pop\n      jump\t// out\n        /* \"#utility.yul\":4935:5031   */\n    tag_260:\n        /* \"#utility.yul\":4972:4979   */\n      0x00\n        /* \"#utility.yul\":5001:5025   */\n      tag_368\n        /* \"#utility.yul\":5019:5024   */\n      dup3\n        /* \"#utility.yul\":5001:5025   */\n      tag_259\n      jump\t// in\n    tag_368:\n        /* \"#utility.yul\":4990:5025   */\n      swap1\n      pop\n        /* \"#utility.yul\":4935:5031   */\n      swap2\n      swap1\n      pop\n      jump\t// out\n        /* \"#utility.yul\":5037:5159   */\n    tag_261:\n        /* \"#utility.yul\":5110:5134   */\n      tag_370\n        /* \"#utility.yul\":5128:5133   */\n      dup2\n        /* \"#utility.yul\":5110:5134   */\n      tag_260\n      jump\t// in\n    tag_370:\n        /* \"#utility.yul\":5103:5108   */\n      dup2\n        /* \"#utility.yul\":5100:5135   */\n      eq\n        /* \"#utility.yul\":5090:5153   */\n      tag_371\n      jumpi\n        /* \"#utility.yul\":5149:5150   */\n      0x00\n        /* \"#utility.yul\":5146:5147   */\n      dup1\n        /* \"#utility.yul\":5139:5151   */\n      revert\n        /* \"#utility.yul\":5090:5153   */\n    tag_371:\n        /* \"#utility.yul\":5037:5159   */\n      pop\n      jump\t// out\n        /* \"#utility.yul\":5165:5304   */\n    tag_262:\n        /* \"#utility.yul\":5211:5216   */\n      0x00\n        /* \"#utility.yul\":5249:5255   */\n      dup2\n        /* \"#utility.yul\":5236:5256   */\n      calldataload\n        /* \"#utility.yul\":5227:5256   */\n      swap1\n      pop\n        /* \"#utility.yul\":5265:5298   */\n      tag_373\n        /* \"#utility.yul\":5292:5297   */\n      dup2\n        /* \"#utility.yul\":5265:5298   */\n      tag_261\n      jump\t// in\n    tag_373:\n        /* \"#utility.yul\":5165:5304   */\n      swap3\n      swap2\n      pop\n      pop\n      jump\t// out\n        /* \"#utility.yul\":5310:5784   */\n    tag_36:\n        /* \"#utility.yul\":5378:5384   */\n      0x00\n        /* \"#utility.yul\":5386:5392   */\n      dup1\n        /* \"#utility.yul\":5435:5437   */\n      0x40\n        /* \"#utility.yul\":5423:5432   */\n      dup4\n        /* \"#utility.yul\":5414:5421   */\n      dup6\n        /* \"#utility.yul\":5410:5433   */\n      sub\n        /* \"#utility.yul\":5406:5438   */\n      slt\n        /* \"#utility.yul\":5403:5522   */\n      iszero\n      tag_375\n      jumpi\n        /* \"#utility.yul\":5441:5520   */\n      tag_376\n      tag_245\n      jump\t// in\n    tag_376:\n        /* \"#utility.yul\":5403:5522   */\n    tag_375:\n        /* \"#utility.yul\":5561:5562   */\n      0x00\n        /* \"#utility.yul\":5586:5639   */\n      tag_377\n        /* \"#utility.yul\":5631:5638   */\n      dup6\n        /* \"#utility.yul\":5622:5628   */\n      dup3\n        /* \"#utility.yul\":5611:5620   */\n      dup7\n        /* \"#utility.yul\":5607:5629   */\n      add\n        /* \"#utility.yul\":5586:5639   */\n      tag_262\n      jump\t// in\n    tag_377:\n        /* \"#utility.yul\":5576:5639   */\n      swap3\n      pop\n        /* \"#utility.yul\":5532:5649   */\n      pop\n        /* \"#utility.yul\":5688:5690   */\n      0x20\n        /* \"#utility.yul\":5714:5767   */\n      tag_378\n        /* \"#utility.yul\":5759:5766   */\n      dup6\n        /* \"#utility.yul\":5750:5756   */\n      dup3\n        /* \"#utility.yul\":5739:5748   */\n      dup7\n        /* \"#utility.yul\":5735:5757   */\n      add\n        /* \"#utility.yul\":5714:5767   */\n      tag_258\n      jump\t// in\n    tag_378:\n        /* \"#utility.yul\":5704:5767   */\n      swap2\n      pop\n        /* \"#utility.yul\":5659:5777   */\n      pop\n        /* \"#utility.yul\":5310:5784   */\n      swap3\n      pop\n      swap3\n      swap1\n      pop\n      jump\t// out\n        /* \"#utility.yul\":5790:5880   */\n    tag_263:\n        /* \"#utility.yul\":5824:5831   */\n      0x00\n        /* \"#utility.yul\":5867:5872   */\n      dup2\n        /* \"#utility.yul\":5860:5873   */\n      iszero\n        /* \"#utility.yul\":5853:5874   */\n      iszero\n        /* \"#utility.yul\":5842:5874   */\n      swap1\n      pop\n        /* \"#utility.yul\":5790:5880   */\n      swap2\n      swap1\n      pop\n      jump\t// out\n        /* \"#utility.yul\":5886:5995   */\n    tag_264:\n        /* \"#utility.yul\":5967:5988   */\n      tag_381\n        /* \"#utility.yul\":5982:5987   */\n      dup2\n        /* \"#utility.yul\":5967:5988   */\n      tag_263\n      jump\t// in\n    tag_381:\n        /* \"#utility.yul\":5962:5965   */\n      dup3\n        /* \"#utility.yul\":5955:5989   */\n      mstore\n        /* \"#utility.yul\":5886:5995   */\n      pop\n      pop\n      jump\t// out\n        /* \"#utility.yul\":6001:6211   */\n    tag_39:\n        /* \"#utility.yul\":6088:6092   */\n      0x00\n        /* \"#utility.yul\":6126:6128   */\n      0x20\n        /* \"#utility.yul\":6115:6124   */\n      dup3\n        /* \"#utility.yul\":6111:6129   */\n      add\n        /* \"#utility.yul\":6103:6129   */\n      swap1\n      pop\n        /* \"#utility.yul\":6139:6204   */\n      tag_383\n        /* \"#utility.yul\":6201:6202   */\n      0x00\n        /* \"#utility.yul\":6190:6199   */\n      dup4\n        /* \"#utility.yul\":6186:6203   */\n      add\n        /* \"#utility.yul\":6177:6183   */\n      dup5\n        /* \"#utility.yul\":6139:6204   */\n      tag_264\n      jump\t// in\n    tag_383:\n        /* \"#utility.yul\":6001:6211   */\n      swap3\n      swap2\n      pop\n      pop\n      jump\t// out\n        /* \"#utility.yul\":6217:6335   */\n    tag_265:\n        /* \"#utility.yul\":6304:6328   */\n      tag_385\n        /* \"#utility.yul\":6322:6327   */\n      dup2\n        /* \"#utility.yul\":6304:6328   */\n      tag_256\n      jump\t// in\n    tag_385:\n        /* \"#utility.yul\":6299:6302   */\n      dup3\n        /* \"#utility.yul\":6292:6329   */\n      mstore\n        /* \"#utility.yul\":6217:6335   */\n      pop\n      pop\n      jump\t// out\n        /* \"#utility.yul\":6341:6563   */\n    tag_44:\n        /* \"#utility.yul\":6434:6438   */\n      0x00\n        /* \"#utility.yul\":6472:6474   */\n      0x20\n        /* \"#utility.yul\":6461:6470   */\n      dup3\n        /* \"#utility.yul\":6457:6475   */\n      add\n        /* \"#utility.yul\":6449:6475   */\n      swap1\n      pop\n        /* \"#utility.yul\":6485:6556   */\n      tag_387\n        /* \"#utility.yul\":6553:6554   */\n      0x00\n        /* \"#utility.yul\":6542:6551   */\n      dup4\n        /* \"#utility.yul\":6538:6555   */\n      add\n        /* \"#utility.yul\":6529:6535   */\n      dup5\n        /* \"#utility.yul\":6485:6556   */\n      tag_265\n      jump\t// in\n    tag_387:\n        /* \"#utility.yul\":6341:6563   */\n      swap3\n      swap2\n      pop\n      pop\n      jump\t// out\n        /* \"#utility.yul\":6569:7188   */\n    tag_48:\n        /* \"#utility.yul\":6646:6652   */\n      0x00\n        /* \"#utility.yul\":6654:6660   */\n      dup1\n        /* \"#utility.yul\":6662:6668   */\n      0x00\n        /* \"#utility.yul\":6711:6713   */\n      0x60\n        /* \"#utility.yul\":6699:6708   */\n      dup5\n        /* \"#utility.yul\":6690:6697   */\n      dup7\n        /* \"#utility.yul\":6686:6709   */\n      sub\n        /* \"#utility.yul\":6682:6714   */\n      slt\n        /* \"#utility.yul\":6679:6798   */\n      iszero\n      tag_389\n      jumpi\n        /* \"#utility.yul\":6717:6796   */\n      tag_390\n      tag_245\n      jump\t// in\n    tag_390:\n        /* \"#utility.yul\":6679:6798   */\n    tag_389:\n        /* \"#utility.yul\":6837:6838   */\n      0x00\n        /* \"#utility.yul\":6862:6915   */\n      tag_391\n        /* \"#utility.yul\":6907:6914   */\n      dup7\n        /* \"#utility.yul\":6898:6904   */\n      dup3\n        /* \"#utility.yul\":6887:6896   */\n      dup8\n        /* \"#utility.yul\":6883:6905   */\n      add\n        /* \"#utility.yul\":6862:6915   */\n      tag_262\n      jump\t// in\n    tag_391:\n        /* \"#utility.yul\":6852:6915   */\n      swap4\n      pop\n        /* \"#utility.yul\":6808:6925   */\n      pop\n        /* \"#utility.yul\":6964:6966   */\n      0x20\n        /* \"#utility.yul\":6990:7043   */\n      tag_392\n        /* \"#utility.yul\":7035:7042   */\n      dup7\n        /* \"#utility.yul\":7026:7032   */\n      dup3\n        /* \"#utility.yul\":7015:7024   */\n      dup8\n        /* \"#utility.yul\":7011:7033   */\n      add\n        /* \"#utility.yul\":6990:7043   */\n      tag_262\n      jump\t// in\n    tag_392:\n        /* \"#utility.yul\":6980:7043   */\n      swap3\n      pop\n        /* \"#utility.yul\":6935:7053   */\n      pop\n        /* \"#utility.yul\":7092:7094   */\n      0x40\n        /* \"#utility.yul\":7118:7171   */\n      tag_393\n        /* \"#utility.yul\":7163:7170   */\n      dup7\n        /* \"#utility.yul\":7154:7160   */\n      dup3\n        /* \"#utility.yul\":7143:7152   */\n      dup8\n        /* \"#utility.yul\":7139:7161   */\n      add\n        /* \"#utility.yul\":7118:7171   */\n      tag_258\n      jump\t// in\n    tag_393:\n        /* \"#utility.yul\":7108:7171   */\n      swap2\n      pop\n        /* \"#utility.yul\":7063:7181   */\n      pop\n        /* \"#utility.yul\":6569:7188   */\n      swap3\n      pop\n      swap3\n      pop\n      swap3\n      jump\t// out\n        /* \"#utility.yul\":7194:7312   */\n    tag_266:\n        /* \"#utility.yul\":7281:7305   */\n      tag_395\n        /* \"#utility.yul\":7299:7304   */\n      dup2\n        /* \"#utility.yul\":7281:7305   */\n      tag_260\n      jump\t// in\n    tag_395:\n        /* \"#utility.yul\":7276:7279   */\n      dup3\n        /* \"#utility.yul\":7269:7306   */\n      mstore\n        /* \"#utility.yul\":7194:7312   */\n      pop\n      pop\n      jump\t// out\n        /* \"#utility.yul\":7318:7540   */\n    tag_55:\n        /* \"#utility.yul\":7411:7415   */\n      0x00\n        /* \"#utility.yul\":7449:7451   */\n      0x20\n        /* \"#utility.yul\":7438:7447   */\n      dup3\n        /* \"#utility.yul\":7434:7452   */\n      add\n        /* \"#utility.yul\":7426:7452   */\n      swap1\n      pop\n        /* \"#utility.yul\":7462:7533   */\n      tag_397\n        /* \"#utility.yul\":7530:7531   */\n      0x00\n        /* \"#utility.yul\":7519:7528   */\n      dup4\n        /* \"#utility.yul\":7515:7532   */\n      add\n        /* \"#utility.yul\":7506:7512   */\n      dup5\n        /* \"#utility.yul\":7462:7533   */\n      tag_266\n      jump\t// in\n    tag_397:\n        /* \"#utility.yul\":7318:7540   */\n      swap3\n      swap2\n      pop\n      pop\n      jump\t// out\n        /* \"#utility.yul\":7546:7632   */\n    tag_267:\n        /* \"#utility.yul\":7581:7588   */\n      0x00\n        /* \"#utility.yul\":7621:7625   */\n      0xff\n        /* \"#utility.yul\":7614:7619   */\n      dup3\n        /* \"#utility.yul\":7610:7626   */\n      and\n        /* \"#utility.yul\":7599:7626   */\n      swap1\n      pop\n        /* \"#utility.yul\":7546:7632   */\n      swap2\n      swap1\n      pop\n      jump\t// out\n        /* \"#utility.yul\":7638:7750   */\n    tag_268:\n        /* \"#utility.yul\":7721:7743   */\n      tag_400\n        /* \"#utility.yul\":7737:7742   */\n      dup2\n        /* \"#utility.yul\":7721:7743   */\n      tag_267\n      jump\t// in\n    tag_400:\n        /* \"#utility.yul\":7716:7719   */\n      dup3\n        /* \"#utility.yul\":7709:7744   */\n      mstore\n        /* \"#utility.yul\":7638:7750   */\n      pop\n      pop\n      jump\t// out\n        /* \"#utility.yul\":7756:7970   */\n    tag_64:\n        /* \"#utility.yul\":7845:7849   */\n      0x00\n        /* \"#utility.yul\":7883:7885   */\n      0x20\n        /* \"#utility.yul\":7872:7881   */\n      dup3\n        /* \"#utility.yul\":7868:7886   */\n      add\n        /* \"#utility.yul\":7860:7886   */\n      swap1\n      pop\n        /* \"#utility.yul\":7896:7963   */\n      tag_402\n        /* \"#utility.yul\":7960:7961   */\n      0x00\n        /* \"#utility.yul\":7949:7958   */\n      dup4\n        /* \"#utility.yul\":7945:7962   */\n      add\n        /* \"#utility.yul\":7936:7942   */\n      dup5\n        /* \"#utility.yul\":7896:7963   */\n      tag_268\n      jump\t// in\n    tag_402:\n        /* \"#utility.yul\":7756:7970   */\n      swap3\n      swap2\n      pop\n      pop\n      jump\t// out\n        /* \"#utility.yul\":7976:8305   */\n    tag_73:\n        /* \"#utility.yul\":8035:8041   */\n      0x00\n        /* \"#utility.yul\":8084:8086   */\n      0x20\n        /* \"#utility.yul\":8072:8081   */\n      dup3\n        /* \"#utility.yul\":8063:8070   */\n      dup5\n        /* \"#utility.yul\":8059:8082   */\n      sub\n        /* \"#utility.yul\":8055:8087   */\n      slt\n        /* \"#utility.yul\":8052:8171   */\n      iszero\n      tag_404\n      jumpi\n        /* \"#utility.yul\":8090:8169   */\n      tag_405\n      tag_245\n      jump\t// in\n    tag_405:\n        /* \"#utility.yul\":8052:8171   */\n    tag_404:\n        /* \"#utility.yul\":8210:8211   */\n      0x00\n        /* \"#utility.yul\":8235:8288   */\n      tag_406\n        /* \"#utility.yul\":8280:8287   */\n      dup5\n        /* \"#utility.yul\":8271:8277   */\n      dup3\n        /* \"#utility.yul\":8260:8269   */\n      dup6\n        /* \"#utility.yul\":8256:8278   */\n      add\n        /* \"#utility.yul\":8235:8288   */\n      tag_262\n      jump\t// in\n    tag_406:\n        /* \"#utility.yul\":8225:8288   */\n      swap2\n      pop\n        /* \"#utility.yul\":8181:8298   */\n      pop\n        /* \"#utility.yul\":7976:8305   */\n      swap3\n      swap2\n      pop\n      pop\n      jump\t// out\n        /* \"#utility.yul\":8311:9177   */\n    tag_97:\n        /* \"#utility.yul\":8564:8568   */\n      0x00\n        /* \"#utility.yul\":8602:8605   */\n      0xc0\n        /* \"#utility.yul\":8591:8600   */\n      dup3\n        /* \"#utility.yul\":8587:8606   */\n      add\n        /* \"#utility.yul\":8579:8606   */\n      swap1\n      pop\n        /* \"#utility.yul\":8652:8661   */\n      dup2\n        /* \"#utility.yul\":8646:8650   */\n      dup2\n        /* \"#utility.yul\":8642:8662   */\n      sub\n        /* \"#utility.yul\":8638:8639   */\n      0x00\n        /* \"#utility.yul\":8627:8636   */\n      dup4\n        /* \"#utility.yul\":8623:8640   */\n      add\n        /* \"#utility.yul\":8616:8663   */\n      mstore\n        /* \"#utility.yul\":8680:8758   */\n      tag_408\n        /* \"#utility.yul\":8753:8757   */\n      dup2\n        /* \"#utility.yul\":8744:8750   */\n      dup10\n        /* \"#utility.yul\":8680:8758   */\n      tag_243\n      jump\t// in\n    tag_408:\n        /* \"#utility.yul\":8672:8758   */\n      swap1\n      pop\n        /* \"#utility.yul\":8768:8840   */\n      tag_409\n        /* \"#utility.yul\":8836:8838   */\n      0x20\n        /* \"#utility.yul\":8825:8834   */\n      dup4\n        /* \"#utility.yul\":8821:8839   */\n      add\n        /* \"#utility.yul\":8812:8818   */\n      dup9\n        /* \"#utility.yul\":8768:8840   */\n      tag_266\n      jump\t// in\n    tag_409:\n        /* \"#utility.yul\":8850:8922   */\n      tag_410\n        /* \"#utility.yul\":8918:8920   */\n      0x40\n        /* \"#utility.yul\":8907:8916   */\n      dup4\n        /* \"#utility.yul\":8903:8921   */\n      add\n        /* \"#utility.yul\":8894:8900   */\n      dup8\n        /* \"#utility.yul\":8850:8922   */\n      tag_265\n      jump\t// in\n    tag_410:\n        /* \"#utility.yul\":8932:9004   */\n      tag_411\n        /* \"#utility.yul\":9000:9002   */\n      0x60\n        /* \"#utility.yul\":8989:8998   */\n      dup4\n        /* \"#utility.yul\":8985:9003   */\n      add\n        /* \"#utility.yul\":8976:8982   */\n      dup7\n        /* \"#utility.yul\":8932:9004   */\n      tag_265\n      jump\t// in\n    tag_411:\n        /* \"#utility.yul\":9014:9087   */\n      tag_412\n        /* \"#utility.yul\":9082:9085   */\n      0x80\n        /* \"#utility.yul\":9071:9080   */\n      dup4\n        /* \"#utility.yul\":9067:9086   */\n      add\n        /* \"#utility.yul\":9058:9064   */\n      dup6\n        /* \"#utility.yul\":9014:9087   */\n      tag_265\n      jump\t// in\n    tag_412:\n        /* \"#utility.yul\":9097:9170   */\n      tag_413\n        /* \"#utility.yul\":9165:9168   */\n      0xa0\n        /* \"#utility.yul\":9154:9163   */\n      dup4\n        /* \"#utility.yul\":9150:9169   */\n      add\n        /* \"#utility.yul\":9141:9147   */\n      dup5\n        /* \"#utility.yul\":9097:9170   */\n      tag_265\n      jump\t// in\n    tag_413:\n        /* \"#utility.yul\":8311:9177   */\n      swap8\n      swap7\n      pop\n      pop\n      pop\n      pop\n      pop\n      pop\n      pop\n      jump\t// out\n        /* \"#utility.yul\":9183:9657   */\n    tag_110:\n        /* \"#utility.yul\":9251:9257   */\n      0x00\n        /* \"#utility.yul\":9259:9265   */\n      dup1\n        /* \"#utility.yul\":9308:9310   */\n      0x40\n        /* \"#utility.yul\":9296:9305   */\n      dup4\n        /* \"#utility.yul\":9287:9294   */\n      dup6\n        /* \"#utility.yul\":9283:9306   */\n      sub\n        /* \"#utility.yul\":9279:9311   */\n      slt\n        /* \"#utility.yul\":9276:9395   */\n      iszero\n      tag_415\n      jumpi\n        /* \"#utility.yul\":9314:9393   */\n      tag_416\n      tag_245\n      jump\t// in\n    tag_416:\n        /* \"#utility.yul\":9276:9395   */\n    tag_415:\n        /* \"#utility.yul\":9434:9435   */\n      0x00\n        /* \"#utility.yul\":9459:9512   */\n      tag_417\n        /* \"#utility.yul\":9504:9511   */\n      dup6\n        /* \"#utility.yul\":9495:9501   */\n      dup3\n        /* \"#utility.yul\":9484:9493   */\n      dup7\n        /* \"#utility.yul\":9480:9502   */\n      add\n        /* \"#utility.yul\":9459:9512   */\n      tag_262\n      jump\t// in\n    tag_417:\n        /* \"#utility.yul\":9449:9512   */\n      swap3\n      pop\n        /* \"#utility.yul\":9405:9522   */\n      pop\n        /* \"#utility.yul\":9561:9563   */\n      0x20\n        /* \"#utility.yul\":9587:9640   */\n      tag_418\n        /* \"#utility.yul\":9632:9639   */\n      dup6\n        /* \"#utility.yul\":9623:9629   */\n      dup3\n        /* \"#utility.yul\":9612:9621   */\n      dup7\n        /* \"#utility.yul\":9608:9630   */\n      add\n        /* \"#utility.yul\":9587:9640   */\n      tag_262\n      jump\t// in\n    tag_418:\n        /* \"#utility.yul\":9577:9640   */\n      swap2\n      pop\n        /* \"#utility.yul\":9532:9650   */\n      pop\n        /* \"#utility.yul\":9183:9657   */\n      swap3\n      pop\n      swap3\n      swap1\n      pop\n      jump\t// out\n        /* \"#utility.yul\":9663:9843   */\n    tag_269:\n        /* \"#utility.yul\":9711:9788   */\n      0x4e487b7100000000000000000000000000000000000000000000000000000000\n        /* \"#utility.yul\":9708:9709   */\n      0x00\n        /* \"#utility.yul\":9701:9789   */\n      mstore\n        /* \"#utility.yul\":9808:9812   */\n      0x22\n        /* \"#utility.yul\":9805:9806   */\n      0x04\n        /* \"#utility.yul\":9798:9813   */\n      mstore\n        /* \"#utility.yul\":9832:9836   */\n      0x24\n        /* \"#utility.yul\":9829:9830   */\n      0x00\n        /* \"#utility.yul\":9822:9837   */\n      revert\n        /* \"#utility.yul\":9849:10169   */\n    tag_119:\n        /* \"#utility.yul\":9893:9899   */\n      0x00\n        /* \"#utility.yul\":9930:9931   */\n      0x02\n        /* \"#utility.yul\":9924:9928   */\n      dup3\n        /* \"#utility.yul\":9920:9932   */\n      div\n        /* \"#utility.yul\":9910:9932   */\n      swap1\n      pop\n        /* \"#utility.yul\":9977:9978   */\n      0x01\n        /* \"#utility.yul\":9971:9975   */\n      dup3\n        /* \"#utility.yul\":9967:9979   */\n      and\n        /* \"#utility.yul\":9998:10016   */\n      dup1\n        /* \"#utility.yul\":9988:10069   */\n      tag_421\n      jumpi\n        /* \"#utility.yul\":10054:10058   */\n      0x7f\n        /* \"#utility.yul\":10046:10052   */\n      dup3\n        /* \"#utility.yul\":10042:10059   */\n      and\n        /* \"#utility.yul\":10032:10059   */\n      swap2\n      pop\n        /* \"#utility.yul\":9988:10069   */\n    tag_421:\n        /* \"#utility.yul\":10116:10118   */\n      0x20\n        /* \"#utility.yul\":10108:10114   */\n      dup3\n        /* \"#utility.yul\":10105:10119   */\n      lt\n        /* \"#utility.yul\":10085:10103   */\n      dup2\n        /* \"#utility.yul\":10082:10120   */\n      sub\n        /* \"#utility.yul\":10079:10163   */\n      tag_422\n      jumpi\n        /* \"#utility.yul\":10135:10153   */\n      tag_423\n      tag_269\n      jump\t// in\n    tag_423:\n        /* \"#utility.yul\":10079:10163   */\n    tag_422:\n        /* \"#utility.yul\":9900:10169   */\n      pop\n        /* \"#utility.yul\":9849:10169   */\n      swap2\n      swap1\n      pop\n      jump\t// out\n        /* \"#utility.yul\":10175:10346   */\n    tag_270:\n        /* \"#utility.yul\":10315:10338   */\n      0x596f752061726520756e64657220746865206167650000000000000000000000\n        /* \"#utility.yul\":10311:10312   */\n      0x00\n        /* \"#utility.yul\":10303:10309   */\n      dup3\n        /* \"#utility.yul\":10299:10313   */\n      add\n        /* \"#utility.yul\":10292:10339   */\n      mstore\n        /* \"#utility.yul\":10175:10346   */\n      pop\n      jump\t// out\n        /* \"#utility.yul\":10352:10718   */\n    tag_271:\n        /* \"#utility.yul\":10494:10497   */\n      0x00\n        /* \"#utility.yul\":10515:10582   */\n      tag_426\n        /* \"#utility.yul\":10579:10581   */\n      0x15\n        /* \"#utility.yul\":10574:10577   */\n      dup4\n        /* \"#utility.yul\":10515:10582   */\n      tag_240\n      jump\t// in\n    tag_426:\n        /* \"#utility.yul\":10508:10582   */\n      swap2\n      pop\n        /* \"#utility.yul\":10591:10684   */\n      tag_427\n        /* \"#utility.yul\":10680:10683   */\n      dup3\n        /* \"#utility.yul\":10591:10684   */\n      tag_270\n      jump\t// in\n    tag_427:\n        /* \"#utility.yul\":10709:10711   */\n      0x20\n        /* \"#utility.yul\":10704:10707   */\n      dup3\n        /* \"#utility.yul\":10700:10712   */\n      add\n        /* \"#utility.yul\":10693:10712   */\n      swap1\n      pop\n        /* \"#utility.yul\":10352:10718   */\n      swap2\n      swap1\n      pop\n      jump\t// out\n        /* \"#utility.yul\":10724:11143   */\n    tag_127:\n        /* \"#utility.yul\":10890:10894   */\n      0x00\n        /* \"#utility.yul\":10928:10930   */\n      0x20\n        /* \"#utility.yul\":10917:10926   */\n      dup3\n        /* \"#utility.yul\":10913:10931   */\n      add\n        /* \"#utility.yul\":10905:10931   */\n      swap1\n      pop\n        /* \"#utility.yul\":10977:10986   */\n      dup2\n        /* \"#utility.yul\":10971:10975   */\n      dup2\n        /* \"#utility.yul\":10967:10987   */\n      sub\n        /* \"#utility.yul\":10963:10964   */\n      0x00\n        /* \"#utility.yul\":10952:10961   */\n      dup4\n        /* \"#utility.yul\":10948:10965   */\n      add\n        /* \"#utility.yul\":10941:10988   */\n      mstore\n        /* \"#utility.yul\":11005:11136   */\n      tag_429\n        /* \"#utility.yul\":11131:11135   */\n      dup2\n        /* \"#utility.yul\":11005:11136   */\n      tag_271\n      jump\t// in\n    tag_429:\n        /* \"#utility.yul\":10997:11136   */\n      swap1\n      pop\n        /* \"#utility.yul\":10724:11143   */\n      swap2\n      swap1\n      pop\n      jump\t// out\n        /* \"#utility.yul\":11149:11328   */\n    tag_272:\n        /* \"#utility.yul\":11289:11320   */\n      0x596f7520646f6e277420686176652062616c616e636520656e6f756768000000\n        /* \"#utility.yul\":11285:11286   */\n      0x00\n        /* \"#utility.yul\":11277:11283   */\n      dup3\n        /* \"#utility.yul\":11273:11287   */\n      add\n        /* \"#utility.yul\":11266:11321   */\n      mstore\n        /* \"#utility.yul\":11149:11328   */\n      pop\n      jump\t// out\n        /* \"#utility.yul\":11334:11700   */\n    tag_273:\n        /* \"#utility.yul\":11476:11479   */\n      0x00\n        /* \"#utility.yul\":11497:11564   */\n      tag_432\n        /* \"#utility.yul\":11561:11563   */\n      0x1d\n        /* \"#utility.yul\":11556:11559   */\n      dup4\n        /* \"#utility.yul\":11497:11564   */\n      tag_240\n      jump\t// in\n    tag_432:\n        /* \"#utility.yul\":11490:11564   */\n      swap2\n      pop\n        /* \"#utility.yul\":11573:11666   */\n      tag_433\n        /* \"#utility.yul\":11662:11665   */\n      dup3\n        /* \"#utility.yul\":11573:11666   */\n      tag_272\n      jump\t// in\n    tag_433:\n        /* \"#utility.yul\":11691:11693   */\n      0x20\n        /* \"#utility.yul\":11686:11689   */\n      dup3\n        /* \"#utility.yul\":11682:11694   */\n      add\n        /* \"#utility.yul\":11675:11694   */\n      swap1\n      pop\n        /* \"#utility.yul\":11334:11700   */\n      swap2\n      swap1\n      pop\n      jump\t// out\n        /* \"#utility.yul\":11706:12125   */\n    tag_131:\n        /* \"#utility.yul\":11872:11876   */\n      0x00\n        /* \"#utility.yul\":11910:11912   */\n      0x20\n        /* \"#utility.yul\":11899:11908   */\n      dup3\n        /* \"#utility.yul\":11895:11913   */\n      add\n        /* \"#utility.yul\":11887:11913   */\n      swap1\n      pop\n        /* \"#utility.yul\":11959:11968   */\n      dup2\n        /* \"#utility.yul\":11953:11957   */\n      dup2\n        /* \"#utility.yul\":11949:11969   */\n      sub\n        /* \"#utility.yul\":11945:11946   */\n      0x00\n        /* \"#utility.yul\":11934:11943   */\n      dup4\n        /* \"#utility.yul\":11930:11947   */\n      add\n        /* \"#utility.yul\":11923:11970   */\n      mstore\n        /* \"#utility.yul\":11987:12118   */\n      tag_435\n        /* \"#utility.yul\":12113:12117   */\n      dup2\n        /* \"#utility.yul\":11987:12118   */\n      tag_273\n      jump\t// in\n    tag_435:\n        /* \"#utility.yul\":11979:12118   */\n      swap1\n      pop\n        /* \"#utility.yul\":11706:12125   */\n      swap2\n      swap1\n      pop\n      jump\t// out\n        /* \"#utility.yul\":12131:12306   */\n    tag_274:\n        /* \"#utility.yul\":12271:12298   */\n      0x596f757220496e737572616e6365206973206578706972656400000000000000\n        /* \"#utility.yul\":12267:12268   */\n      0x00\n        /* \"#utility.yul\":12259:12265   */\n      dup3\n        /* \"#utility.yul\":12255:12269   */\n      add\n        /* \"#utility.yul\":12248:12299   */\n      mstore\n        /* \"#utility.yul\":12131:12306   */\n      pop\n      jump\t// out\n        /* \"#utility.yul\":12312:12678   */\n    tag_275:\n        /* \"#utility.yul\":12454:12457   */\n      0x00\n        /* \"#utility.yul\":12475:12542   */\n      tag_438\n        /* \"#utility.yul\":12539:12541   */\n      0x19\n        /* \"#utility.yul\":12534:12537   */\n      dup4\n        /* \"#utility.yul\":12475:12542   */\n      tag_240\n      jump\t// in\n    tag_438:\n        /* \"#utility.yul\":12468:12542   */\n      swap2\n      pop\n        /* \"#utility.yul\":12551:12644   */\n      tag_439\n        /* \"#utility.yul\":12640:12643   */\n      dup3\n        /* \"#utility.yul\":12551:12644   */\n      tag_274\n      jump\t// in\n    tag_439:\n        /* \"#utility.yul\":12669:12671   */\n      0x20\n        /* \"#utility.yul\":12664:12667   */\n      dup3\n        /* \"#utility.yul\":12660:12672   */\n      add\n        /* \"#utility.yul\":12653:12672   */\n      swap1\n      pop\n        /* \"#utility.yul\":12312:12678   */\n      swap2\n      swap1\n      pop\n      jump\t// out\n        /* \"#utility.yul\":12684:13103   */\n    tag_134:\n        /* \"#utility.yul\":12850:12854   */\n      0x00\n        /* \"#utility.yul\":12888:12890   */\n      0x20\n        /* \"#utility.yul\":12877:12886   */\n      dup3\n        /* \"#utility.yul\":12873:12891   */\n      add\n        /* \"#utility.yul\":12865:12891   */\n      swap1\n      pop\n        /* \"#utility.yul\":12937:12946   */\n      dup2\n        /* \"#utility.yul\":12931:12935   */\n      dup2\n        /* \"#utility.yul\":12927:12947   */\n      sub\n        /* \"#utility.yul\":12923:12924   */\n      0x00\n        /* \"#utility.yul\":12912:12921   */\n      dup4\n        /* \"#utility.yul\":12908:12925   */\n      add\n        /* \"#utility.yul\":12901:12948   */\n      mstore\n        /* \"#utility.yul\":12965:13096   */\n      tag_441\n        /* \"#utility.yul\":13091:13095   */\n      dup2\n        /* \"#utility.yul\":12965:13096   */\n      tag_275\n      jump\t// in\n    tag_441:\n        /* \"#utility.yul\":12957:13096   */\n      swap1\n      pop\n        /* \"#utility.yul\":12684:13103   */\n      swap2\n      swap1\n      pop\n      jump\t// out\n        /* \"#utility.yul\":13109:13289   */\n    tag_276:\n        /* \"#utility.yul\":13157:13234   */\n      0x4e487b7100000000000000000000000000000000000000000000000000000000\n        /* \"#utility.yul\":13154:13155   */\n      0x00\n        /* \"#utility.yul\":13147:13235   */\n      mstore\n        /* \"#utility.yul\":13254:13258   */\n      0x11\n        /* \"#utility.yul\":13251:13252   */\n      0x04\n        /* \"#utility.yul\":13244:13259   */\n      mstore\n        /* \"#utility.yul\":13278:13282   */\n      0x24\n        /* \"#utility.yul\":13275:13276   */\n      0x00\n        /* \"#utility.yul\":13268:13283   */\n      revert\n        /* \"#utility.yul\":13295:13486   */\n    tag_138:\n        /* \"#utility.yul\":13335:13338   */\n      0x00\n        /* \"#utility.yul\":13354:13374   */\n      tag_444\n        /* \"#utility.yul\":13372:13373   */\n      dup3\n        /* \"#utility.yul\":13354:13374   */\n      tag_256\n      jump\t// in\n    tag_444:\n        /* \"#utility.yul\":13349:13374   */\n      swap2\n      pop\n        /* \"#utility.yul\":13388:13408   */\n      tag_445\n        /* \"#utility.yul\":13406:13407   */\n      dup4\n        /* \"#utility.yul\":13388:13408   */\n      tag_256\n      jump\t// in\n    tag_445:\n        /* \"#utility.yul\":13383:13408   */\n      swap3\n      pop\n        /* \"#utility.yul\":13431:13432   */\n      dup3\n        /* \"#utility.yul\":13428:13429   */\n      dup3\n        /* \"#utility.yul\":13424:13433   */\n      add\n        /* \"#utility.yul\":13417:13433   */\n      swap1\n      pop\n        /* \"#utility.yul\":13452:13455   */\n      dup1\n        /* \"#utility.yul\":13449:13450   */\n      dup3\n        /* \"#utility.yul\":13446:13456   */\n      gt\n        /* \"#utility.yul\":13443:13479   */\n      iszero\n      tag_446\n      jumpi\n        /* \"#utility.yul\":13459:13477   */\n      tag_447\n      tag_276\n      jump\t// in\n    tag_447:\n        /* \"#utility.yul\":13443:13479   */\n    tag_446:\n        /* \"#utility.yul\":13295:13486   */\n      swap3\n      swap2\n      pop\n      pop\n      jump\t// out\n        /* \"#utility.yul\":13492:13633   */\n    tag_277:\n        /* \"#utility.yul\":13541:13545   */\n      0x00\n        /* \"#utility.yul\":13564:13567   */\n      dup2\n        /* \"#utility.yul\":13556:13567   */\n      swap1\n      pop\n        /* \"#utility.yul\":13587:13590   */\n      dup2\n        /* \"#utility.yul\":13584:13585   */\n      0x00\n        /* \"#utility.yul\":13577:13591   */\n      mstore\n        /* \"#utility.yul\":13621:13625   */\n      0x20\n        /* \"#utility.yul\":13618:13619   */\n      0x00\n        /* \"#utility.yul\":13608:13626   */\n      keccak256\n        /* \"#utility.yul\":13600:13626   */\n      swap1\n      pop\n        /* \"#utility.yul\":13492:13633   */\n      swap2\n      swap1\n      pop\n      jump\t// out\n        /* \"#utility.yul\":13639:13732   */\n    tag_278:\n        /* \"#utility.yul\":13676:13682   */\n      0x00\n        /* \"#utility.yul\":13723:13725   */\n      0x20\n        /* \"#utility.yul\":13718:13720   */\n      0x1f\n        /* \"#utility.yul\":13711:13716   */\n      dup4\n        /* \"#utility.yul\":13707:13721   */\n      add\n        /* \"#utility.yul\":13703:13726   */\n      div\n        /* \"#utility.yul\":13693:13726   */\n      swap1\n      pop\n        /* \"#utility.yul\":13639:13732   */\n      swap2\n      swap1\n      pop\n      jump\t// out\n        /* \"#utility.yul\":13738:13845   */\n    tag_279:\n        /* \"#utility.yul\":13782:13790   */\n      0x00\n        /* \"#utility.yul\":13832:13837   */\n      dup3\n        /* \"#utility.yul\":13826:13830   */\n      dup3\n        /* \"#utility.yul\":13822:13838   */\n      shl\n        /* \"#utility.yul\":13801:13838   */\n      swap1\n      pop\n        /* \"#utility.yul\":13738:13845   */\n      swap3\n      swap2\n      pop\n      pop\n      jump\t// out\n        /* \"#utility.yul\":13851:14244   */\n    tag_280:\n        /* \"#utility.yul\":13920:13926   */\n      0x00\n        /* \"#utility.yul\":13970:13971   */\n      0x08\n        /* \"#utility.yul\":13958:13968   */\n      dup4\n        /* \"#utility.yul\":13954:13972   */\n      mul\n        /* \"#utility.yul\":13993:14090   */\n      tag_452\n        /* \"#utility.yul\":14023:14089   */\n      0xffffffffffffffffffffffffffffffffffffffffffffffffffffffffffffffff\n        /* \"#utility.yul\":14012:14021   */\n      dup3\n        /* \"#utility.yul\":13993:14090   */\n      tag_279\n      jump\t// in\n    tag_452:\n        /* \"#utility.yul\":14111:14150   */\n      tag_453\n        /* \"#utility.yul\":14141:14149   */\n      dup7\n        /* \"#utility.yul\":14130:14139   */\n      dup4\n        /* \"#utility.yul\":14111:14150   */\n      tag_279\n      jump\t// in\n    tag_453:\n        /* \"#utility.yul\":14099:14150   */\n      swap6\n      pop\n        /* \"#utility.yul\":14183:14187   */\n      dup1\n        /* \"#utility.yul\":14179:14188   */\n      not\n        /* \"#utility.yul\":14172:14177   */\n      dup5\n        /* \"#utility.yul\":14168:14189   */\n      and\n        /* \"#utility.yul\":14159:14189   */\n      swap4\n      pop\n        /* \"#utility.yul\":14232:14236   */\n      dup1\n        /* \"#utility.yul\":14222:14230   */\n      dup7\n        /* \"#utility.yul\":14218:14237   */\n      and\n        /* \"#utility.yul\":14211:14216   */\n      dup5\n        /* \"#utility.yul\":14208:14238   */\n      or\n        /* \"#utility.yul\":14198:14238   */\n      swap3\n      pop\n        /* \"#utility.yul\":13927:14244   */\n      pop\n      pop\n        /* \"#utility.yul\":13851:14244   */\n      swap4\n      swap3\n      pop\n      pop\n      pop\n      jump\t// out\n        /* \"#utility.yul\":14250:14310   */\n    tag_281:\n        /* \"#utility.yul\":14278:14281   */\n      0x00\n        /* \"#utility.yul\":14299:14304   */\n      dup2\n        /* \"#utility.yul\":14292:14304   */\n      swap1\n      pop\n        /* \"#utility.yul\":14250:14310   */\n      swap2\n      swap1\n      pop\n      jump\t// out\n        /* \"#utility.yul\":14316:14458   */\n    tag_282:\n        /* \"#utility.yul\":14366:14375   */\n      0x00\n        /* \"#utility.yul\":14399:14452   */\n      tag_456\n        /* \"#utility.yul\":14417:14451   */\n      tag_457\n        /* \"#utility.yul\":14426:14450   */\n      tag_458\n        /* \"#utility.yul\":14444:14449   */\n      dup5\n        /* \"#utility.yul\":14426:14450   */\n      tag_256\n      jump\t// in\n    tag_458:\n        /* \"#utility.yul\":14417:14451   */\n      tag_281\n      jump\t// in\n    tag_457:\n        /* \"#utility.yul\":14399:14452   */\n      tag_256\n      jump\t// in\n    tag_456:\n        /* \"#utility.yul\":14386:14452   */\n      swap1\n      pop\n        /* \"#utility.yul\":14316:14458   */\n      swap2\n      swap1\n      pop\n      jump\t// out\n        /* \"#utility.yul\":14464:14539   */\n    tag_283:\n        /* \"#utility.yul\":14507:14510   */\n      0x00\n        /* \"#utility.yul\":14528:14533   */\n      dup2\n        /* \"#utility.yul\":14521:14533   */\n      swap1\n      pop\n        /* \"#utility.yul\":14464:14539   */\n      swap2\n      swap1\n      pop\n      jump\t// out\n        /* \"#utility.yul\":14545:14814   */\n    tag_284:\n        /* \"#utility.yul\":14655:14694   */\n      tag_461\n        /* \"#utility.yul\":14686:14693   */\n      dup4\n        /* \"#utility.yul\":14655:14694   */\n      tag_282\n      jump\t// in\n    tag_461:\n        /* \"#utility.yul\":14716:14807   */\n      tag_462\n        /* \"#utility.yul\":14765:14806   */\n      tag_463\n        /* \"#utility.yul\":14789:14805   */\n      dup3\n        /* \"#utility.yul\":14765:14806   */\n      tag_283\n      jump\t// in\n    tag_463:\n        /* \"#utility.yul\":14757:14763   */\n      dup5\n        /* \"#utility.yul\":14750:14754   */\n      dup5\n        /* \"#utility.yul\":14744:14755   */\n      sload\n        /* \"#utility.yul\":14716:14807   */\n      tag_280\n      jump\t// in\n    tag_462:\n        /* \"#utility.yul\":14710:14714   */\n      dup3\n        /* \"#utility.yul\":14703:14808   */\n      sstore\n        /* \"#utility.yul\":14621:14814   */\n      pop\n        /* \"#utility.yul\":14545:14814   */\n      pop\n      pop\n      pop\n      jump\t// out\n        /* \"#utility.yul\":14820:14893   */\n    tag_285:\n        /* \"#utility.yul\":14865:14868   */\n      0x00\n        /* \"#utility.yul\":14820:14893   */\n      swap1\n      jump\t// out\n        /* \"#utility.yul\":14899:15088   */\n    tag_286:\n        /* \"#utility.yul\":14976:15008   */\n      tag_466\n      tag_285\n      jump\t// in\n    tag_466:\n        /* \"#utility.yul\":15017:15082   */\n      tag_467\n        /* \"#utility.yul\":15075:15081   */\n      dup2\n        /* \"#utility.yul\":15067:15073   */\n      dup5\n        /* \"#utility.yul\":15061:15065   */\n      dup5\n        /* \"#utility.yul\":15017:15082   */\n      tag_284\n      jump\t// in\n    tag_467:\n        /* \"#utility.yul\":14952:15088   */\n      pop\n        /* \"#utility.yul\":14899:15088   */\n      pop\n      pop\n      jump\t// out\n        /* \"#utility.yul\":15094:15280   */\n    tag_287:\n        /* \"#utility.yul\":15154:15274   */\n    tag_469:\n        /* \"#utility.yul\":15171:15174   */\n      dup2\n        /* \"#utility.yul\":15164:15169   */\n      dup2\n        /* \"#utility.yul\":15161:15175   */\n      lt\n        /* \"#utility.yul\":15154:15274   */\n      iszero\n      tag_471\n      jumpi\n        /* \"#utility.yul\":15225:15264   */\n      tag_472\n        /* \"#utility.yul\":15262:15263   */\n      0x00\n        /* \"#utility.yul\":15255:15260   */\n      dup3\n        /* \"#utility.yul\":15225:15264   */\n      tag_286\n      jump\t// in\n    tag_472:\n        /* \"#utility.yul\":15198:15199   */\n      0x01\n        /* \"#utility.yul\":15191:15196   */\n      dup2\n        /* \"#utility.yul\":15187:15200   */\n      add\n        /* \"#utility.yul\":15178:15200   */\n      swap1\n      pop\n        /* \"#utility.yul\":15154:15274   */\n      jump(tag_469)\n    tag_471:\n        /* \"#utility.yul\":15094:15280   */\n      pop\n      pop\n      jump\t// out\n        /* \"#utility.yul\":15286:15829   */\n    tag_288:\n        /* \"#utility.yul\":15387:15389   */\n      0x1f\n        /* \"#utility.yul\":15382:15385   */\n      dup3\n        /* \"#utility.yul\":15379:15390   */\n      gt\n        /* \"#utility.yul\":15376:15822   */\n      iszero\n      tag_474\n      jumpi\n        /* \"#utility.yul\":15421:15459   */\n      tag_475\n        /* \"#utility.yul\":15453:15458   */\n      dup2\n        /* \"#utility.yul\":15421:15459   */\n      tag_277\n      jump\t// in\n    tag_475:\n        /* \"#utility.yul\":15505:15534   */\n      tag_476\n        /* \"#utility.yul\":15523:15533   */\n      dup5\n        /* \"#utility.yul\":15505:15534   */\n      tag_278\n      jump\t// in\n    tag_476:\n        /* \"#utility.yul\":15495:15503   */\n      dup2\n        /* \"#utility.yul\":15491:15535   */\n      add\n        /* \"#utility.yul\":15688:15690   */\n      0x20\n        /* \"#utility.yul\":15676:15686   */\n      dup6\n        /* \"#utility.yul\":15673:15691   */\n      lt\n        /* \"#utility.yul\":15670:15719   */\n      iszero\n      tag_477\n      jumpi\n        /* \"#utility.yul\":15709:15717   */\n      dup2\n        /* \"#utility.yul\":15694:15717   */\n      swap1\n      pop\n        /* \"#utility.yul\":15670:15719   */\n    tag_477:\n        /* \"#utility.yul\":15732:15812   */\n      tag_478\n        /* \"#utility.yul\":15788:15810   */\n      tag_479\n        /* \"#utility.yul\":15806:15809   */\n      dup6\n        /* \"#utility.yul\":15788:15810   */\n      tag_278\n      jump\t// in\n    tag_479:\n        /* \"#utility.yul\":15778:15786   */\n      dup4\n        /* \"#utility.yul\":15774:15811   */\n      add\n        /* \"#utility.yul\":15761:15772   */\n      dup3\n        /* \"#utility.yul\":15732:15812   */\n      tag_287\n      jump\t// in\n    tag_478:\n        /* \"#utility.yul\":15391:15822   */\n      pop\n      pop\n        /* \"#utility.yul\":15376:15822   */\n    tag_474:\n        /* \"#utility.yul\":15286:15829   */\n      pop\n      pop\n      pop\n      jump\t// out\n        /* \"#utility.yul\":15835:15952   */\n    tag_289:\n        /* \"#utility.yul\":15889:15897   */\n      0x00\n        /* \"#utility.yul\":15939:15944   */\n      dup3\n        /* \"#utility.yul\":15933:15937   */\n      dup3\n        /* \"#utility.yul\":15929:15945   */\n      shr\n        /* \"#utility.yul\":15908:15945   */\n      swap1\n      pop\n        /* \"#utility.yul\":15835:15952   */\n      swap3\n      swap2\n      pop\n      pop\n      jump\t// out\n        /* \"#utility.yul\":15958:16127   */\n    tag_290:\n        /* \"#utility.yul\":16002:16008   */\n      0x00\n        /* \"#utility.yul\":16035:16086   */\n      tag_482\n        /* \"#utility.yul\":16083:16084   */\n      0x00\n        /* \"#utility.yul\":16079:16085   */\n      not\n        /* \"#utility.yul\":16071:16076   */\n      dup5\n        /* \"#utility.yul\":16068:16069   */\n      0x08\n        /* \"#utility.yul\":16064:16077   */\n      mul\n        /* \"#utility.yul\":16035:16086   */\n      tag_289\n      jump\t// in\n    tag_482:\n        /* \"#utility.yul\":16031:16087   */\n      not\n        /* \"#utility.yul\":16116:16120   */\n      dup1\n        /* \"#utility.yul\":16110:16114   */\n      dup4\n        /* \"#utility.yul\":16106:16121   */\n      and\n        /* \"#utility.yul\":16096:16121   */\n      swap2\n      pop\n        /* \"#utility.yul\":16009:16127   */\n      pop\n        /* \"#utility.yul\":15958:16127   */\n      swap3\n      swap2\n      pop\n      pop\n      jump\t// out\n        /* \"#utility.yul\":16132:16427   */\n    tag_291:\n        /* \"#utility.yul\":16208:16212   */\n      0x00\n        /* \"#utility.yul\":16354:16383   */\n      tag_484\n        /* \"#utility.yul\":16379:16382   */\n      dup4\n        /* \"#utility.yul\":16373:16377   */\n      dup4\n        /* \"#utility.yul\":16354:16383   */\n      tag_290\n      jump\t// in\n    tag_484:\n        /* \"#utility.yul\":16346:16383   */\n      swap2\n      pop\n        /* \"#utility.yul\":16416:16419   */\n      dup3\n        /* \"#utility.yul\":16413:16414   */\n      0x02\n        /* \"#utility.yul\":16409:16420   */\n      mul\n        /* \"#utility.yul\":16403:16407   */\n      dup3\n        /* \"#utility.yul\":16400:16421   */\n      or\n        /* \"#utility.yul\":16392:16421   */\n      swap1\n      pop\n        /* \"#utility.yul\":16132:16427   */\n      swap3\n      swap2\n      pop\n      pop\n      jump\t// out\n        /* \"#utility.yul\":16432:17827   */\n    tag_140:\n        /* \"#utility.yul\":16549:16586   */\n      tag_486\n        /* \"#utility.yul\":16582:16585   */\n      dup3\n        /* \"#utility.yul\":16549:16586   */\n      tag_239\n      jump\t// in\n    tag_486:\n        /* \"#utility.yul\":16651:16669   */\n      0xffffffffffffffff\n        /* \"#utility.yul\":16643:16649   */\n      dup2\n        /* \"#utility.yul\":16640:16670   */\n      gt\n        /* \"#utility.yul\":16637:16693   */\n      iszero\n      tag_487\n      jumpi\n        /* \"#utility.yul\":16673:16691   */\n      tag_488\n      tag_249\n      jump\t// in\n    tag_488:\n        /* \"#utility.yul\":16637:16693   */\n    tag_487:\n        /* \"#utility.yul\":16717:16755   */\n      tag_489\n        /* \"#utility.yul\":16749:16753   */\n      dup3\n        /* \"#utility.yul\":16743:16754   */\n      sload\n        /* \"#utility.yul\":16717:16755   */\n      tag_119\n      jump\t// in\n    tag_489:\n        /* \"#utility.yul\":16802:16869   */\n      tag_490\n        /* \"#utility.yul\":16862:16868   */\n      dup3\n        /* \"#utility.yul\":16854:16860   */\n      dup3\n        /* \"#utility.yul\":16848:16852   */\n      dup6\n        /* \"#utility.yul\":16802:16869   */\n      tag_288\n      jump\t// in\n    tag_490:\n        /* \"#utility.yul\":16896:16897   */\n      0x00\n        /* \"#utility.yul\":16920:16924   */\n      0x20\n        /* \"#utility.yul\":16907:16924   */\n      swap1\n      pop\n        /* \"#utility.yul\":16952:16954   */\n      0x1f\n        /* \"#utility.yul\":16944:16950   */\n      dup4\n        /* \"#utility.yul\":16941:16955   */\n      gt\n        /* \"#utility.yul\":16969:16970   */\n      0x01\n        /* \"#utility.yul\":16964:17582   */\n      dup2\n      eq\n      tag_492\n      jumpi\n        /* \"#utility.yul\":17626:17627   */\n      0x00\n        /* \"#utility.yul\":17643:17649   */\n      dup5\n        /* \"#utility.yul\":17640:17717   */\n      iszero\n      tag_493\n      jumpi\n        /* \"#utility.yul\":17692:17701   */\n      dup3\n        /* \"#utility.yul\":17687:17690   */\n      dup8\n        /* \"#utility.yul\":17683:17702   */\n      add\n        /* \"#utility.yul\":17677:17703   */\n      mload\n        /* \"#utility.yul\":17668:17703   */\n      swap1\n      pop\n        /* \"#utility.yul\":17640:17717   */\n    tag_493:\n        /* \"#utility.yul\":17743:17810   */\n      tag_494\n        /* \"#utility.yul\":17803:17809   */\n      dup6\n        /* \"#utility.yul\":17796:17801   */\n      dup3\n        /* \"#utility.yul\":17743:17810   */\n      tag_291\n      jump\t// in\n    tag_494:\n        /* \"#utility.yul\":17737:17741   */\n      dup7\n        /* \"#utility.yul\":17730:17811   */\n      sstore\n        /* \"#utility.yul\":17599:17821   */\n      pop\n        /* \"#utility.yul\":16934:17821   */\n      jump(tag_491)\n        /* \"#utility.yul\":16964:17582   */\n    tag_492:\n        /* \"#utility.yul\":17016:17020   */\n      0x1f\n        /* \"#utility.yul\":17012:17021   */\n      not\n        /* \"#utility.yul\":17004:17010   */\n      dup5\n        /* \"#utility.yul\":17000:17022   */\n      and\n        /* \"#utility.yul\":17050:17087   */\n      tag_495\n        /* \"#utility.yul\":17082:17086   */\n      dup7\n        /* \"#utility.yul\":17050:17087   */\n      tag_277\n      jump\t// in\n    tag_495:\n        /* \"#utility.yul\":17109:17110   */\n      0x00\n        /* \"#utility.yul\":17123:17331   */\n    tag_496:\n        /* \"#utility.yul\":17137:17144   */\n      dup3\n        /* \"#utility.yul\":17134:17135   */\n      dup2\n        /* \"#utility.yul\":17131:17145   */\n      lt\n        /* \"#utility.yul\":17123:17331   */\n      iszero\n      tag_498\n      jumpi\n        /* \"#utility.yul\":17216:17225   */\n      dup5\n        /* \"#utility.yul\":17211:17214   */\n      dup10\n        /* \"#utility.yul\":17207:17226   */\n      add\n        /* \"#utility.yul\":17201:17227   */\n      mload\n        /* \"#utility.yul\":17193:17199   */\n      dup3\n        /* \"#utility.yul\":17186:17228   */\n      sstore\n        /* \"#utility.yul\":17267:17268   */\n      0x01\n        /* \"#utility.yul\":17259:17265   */\n      dup3\n        /* \"#utility.yul\":17255:17269   */\n      add\n        /* \"#utility.yul\":17245:17269   */\n      swap2\n      pop\n        /* \"#utility.yul\":17314:17316   */\n      0x20\n        /* \"#utility.yul\":17303:17312   */\n      dup6\n        /* \"#utility.yul\":17299:17317   */\n      add\n        /* \"#utility.yul\":17286:17317   */\n      swap5\n      pop\n        /* \"#utility.yul\":17160:17164   */\n      0x20\n        /* \"#utility.yul\":17157:17158   */\n      dup2\n        /* \"#utility.yul\":17153:17165   */\n      add\n        /* \"#utility.yul\":17148:17165   */\n      swap1\n      pop\n        /* \"#utility.yul\":17123:17331   */\n      jump(tag_496)\n    tag_498:\n        /* \"#utility.yul\":17359:17365   */\n      dup7\n        /* \"#utility.yul\":17350:17357   */\n      dup4\n        /* \"#utility.yul\":17347:17366   */\n      lt\n        /* \"#utility.yul\":17344:17523   */\n      iszero\n      tag_499\n      jumpi\n        /* \"#utility.yul\":17417:17426   */\n      dup5\n        /* \"#utility.yul\":17412:17415   */\n      dup10\n        /* \"#utility.yul\":17408:17427   */\n      add\n        /* \"#utility.yul\":17402:17428   */\n      mload\n        /* \"#utility.yul\":17460:17508   */\n      tag_500\n        /* \"#utility.yul\":17502:17506   */\n      0x1f\n        /* \"#utility.yul\":17494:17500   */\n      dup10\n        /* \"#utility.yul\":17490:17507   */\n      and\n        /* \"#utility.yul\":17479:17488   */\n      dup3\n        /* \"#utility.yul\":17460:17508   */\n      tag_290\n      jump\t// in\n    tag_500:\n        /* \"#utility.yul\":17452:17458   */\n      dup4\n        /* \"#utility.yul\":17445:17509   */\n      sstore\n        /* \"#utility.yul\":17367:17523   */\n      pop\n        /* \"#utility.yul\":17344:17523   */\n    tag_499:\n        /* \"#utility.yul\":17569:17570   */\n      0x01\n        /* \"#utility.yul\":17565:17566   */\n      0x02\n        /* \"#utility.yul\":17557:17563   */\n      dup9\n        /* \"#utility.yul\":17553:17567   */\n      mul\n        /* \"#utility.yul\":17549:17571   */\n      add\n        /* \"#utility.yul\":17543:17547   */\n      dup9\n        /* \"#utility.yul\":17536:17572   */\n      sstore\n        /* \"#utility.yul\":16971:17582   */\n      pop\n      pop\n      pop\n        /* \"#utility.yul\":16934:17821   */\n    tag_491:\n      pop\n        /* \"#utility.yul\":16524:17827   */\n      pop\n      pop\n      pop\n        /* \"#utility.yul\":16432:17827   */\n      pop\n      pop\n      jump\t// out\n        /* \"#utility.yul\":17833:18066   */\n    tag_142:\n        /* \"#utility.yul\":17872:17875   */\n      0x00\n        /* \"#utility.yul\":17895:17919   */\n      tag_502\n        /* \"#utility.yul\":17913:17918   */\n      dup3\n        /* \"#utility.yul\":17895:17919   */\n      tag_256\n      jump\t// in\n    tag_502:\n        /* \"#utility.yul\":17886:17919   */\n      swap2\n      pop\n        /* \"#utility.yul\":17941:18007   */\n      0xffffffffffffffffffffffffffffffffffffffffffffffffffffffffffffffff\n        /* \"#utility.yul\":17934:17939   */\n      dup3\n        /* \"#utility.yul\":17931:18008   */\n      sub\n        /* \"#utility.yul\":17928:18031   */\n      tag_503\n      jumpi\n        /* \"#utility.yul\":18011:18029   */\n      tag_504\n      tag_276\n      jump\t// in\n    tag_504:\n        /* \"#utility.yul\":17928:18031   */\n    tag_503:\n        /* \"#utility.yul\":18058:18059   */\n      0x01\n        /* \"#utility.yul\":18051:18056   */\n      dup3\n        /* \"#utility.yul\":18047:18060   */\n      add\n        /* \"#utility.yul\":18040:18060   */\n      swap1\n      pop\n        /* \"#utility.yul\":17833:18066   */\n      swap2\n      swap1\n      pop\n      jump\t// out\n        /* \"#utility.yul\":18072:18296   */\n    tag_292:\n        /* \"#utility.yul\":18212:18246   */\n      0x45524332303a2064656372656173656420616c6c6f77616e63652062656c6f77\n        /* \"#utility.yul\":18208:18209   */\n      0x00\n        /* \"#utility.yul\":18200:18206   */\n      dup3\n        /* \"#utility.yul\":18196:18210   */\n      add\n        /* \"#utility.yul\":18189:18247   */\n      mstore\n        /* \"#utility.yul\":18281:18288   */\n      0x207a65726f000000000000000000000000000000000000000000000000000000\n        /* \"#utility.yul\":18276:18278   */\n      0x20\n        /* \"#utility.yul\":18268:18274   */\n      dup3\n        /* \"#utility.yul\":18264:18279   */\n      add\n        /* \"#utility.yul\":18257:18289   */\n      mstore\n        /* \"#utility.yul\":18072:18296   */\n      pop\n      jump\t// out\n        /* \"#utility.yul\":18302:18668   */\n    tag_293:\n        /* \"#utility.yul\":18444:18447   */\n      0x00\n        /* \"#utility.yul\":18465:18532   */\n      tag_507\n        /* \"#utility.yul\":18529:18531   */\n      0x25\n        /* \"#utility.yul\":18524:18527   */\n      dup4\n        /* \"#utility.yul\":18465:18532   */\n      tag_240\n      jump\t// in\n    tag_507:\n        /* \"#utility.yul\":18458:18532   */\n      swap2\n      pop\n        /* \"#utility.yul\":18541:18634   */\n      tag_508\n        /* \"#utility.yul\":18630:18633   */\n      dup3\n        /* \"#utility.yul\":18541:18634   */\n      tag_292\n      jump\t// in\n    tag_508:\n        /* \"#utility.yul\":18659:18661   */\n      0x40\n        /* \"#utility.yul\":18654:18657   */\n      dup3\n        /* \"#utility.yul\":18650:18662   */\n      add\n        /* \"#utility.yul\":18643:18662   */\n      swap1\n      pop\n        /* \"#utility.yul\":18302:18668   */\n      swap2\n      swap1\n      pop\n      jump\t// out\n        /* \"#utility.yul\":18674:19093   */\n    tag_181:\n        /* \"#utility.yul\":18840:18844   */\n      0x00\n        /* \"#utility.yul\":18878:18880   */\n      0x20\n        /* \"#utility.yul\":18867:18876   */\n      dup3\n        /* \"#utility.yul\":18863:18881   */\n      add\n        /* \"#utility.yul\":18855:18881   */\n      swap1\n      pop\n        /* \"#utility.yul\":18927:18936   */\n      dup2\n        /* \"#utility.yul\":18921:18925   */\n      dup2\n        /* \"#utility.yul\":18917:18937   */\n      sub\n        /* \"#utility.yul\":18913:18914   */\n      0x00\n        /* \"#utility.yul\":18902:18911   */\n      dup4\n        /* \"#utility.yul\":18898:18915   */\n      add\n        /* \"#utility.yul\":18891:18938   */\n      mstore\n        /* \"#utility.yul\":18955:19086   */\n      tag_510\n        /* \"#utility.yul\":19081:19085   */\n      dup2\n        /* \"#utility.yul\":18955:19086   */\n      tag_293\n      jump\t// in\n    tag_510:\n        /* \"#utility.yul\":18947:19086   */\n      swap1\n      pop\n        /* \"#utility.yul\":18674:19093   */\n      swap2\n      swap1\n      pop\n      jump\t// out\n        /* \"#utility.yul\":19099:19324   */\n    tag_294:\n        /* \"#utility.yul\":19239:19273   */\n      0x4f776e61626c653a206e6577206f776e657220697320746865207a65726f2061\n        /* \"#utility.yul\":19235:19236   */\n      0x00\n        /* \"#utility.yul\":19227:19233   */\n      dup3\n        /* \"#utility.yul\":19223:19237   */\n      add\n        /* \"#utility.yul\":19216:19274   */\n      mstore\n        /* \"#utility.yul\":19308:19316   */\n      0x6464726573730000000000000000000000000000000000000000000000000000\n        /* \"#utility.yul\":19303:19305   */\n      0x20\n        /* \"#utility.yul\":19295:19301   */\n      dup3\n        /* \"#utility.yul\":19291:19306   */\n      add\n        /* \"#utility.yul\":19284:19317   */\n      mstore\n        /* \"#utility.yul\":19099:19324   */\n      pop\n      jump\t// out\n        /* \"#utility.yul\":19330:19696   */\n    tag_295:\n        /* \"#utility.yul\":19472:19475   */\n      0x00\n        /* \"#utility.yul\":19493:19560   */\n      tag_513\n        /* \"#utility.yul\":19557:19559   */\n      0x26\n        /* \"#utility.yul\":19552:19555   */\n      dup4\n        /* \"#utility.yul\":19493:19560   */\n      tag_240\n      jump\t// in\n    tag_513:\n        /* \"#utility.yul\":19486:19560   */\n      swap2\n      pop\n        /* \"#utility.yul\":19569:19662   */\n      tag_514\n        /* \"#utility.yul\":19658:19661   */\n      dup3\n        /* \"#utility.yul\":19569:19662   */\n      tag_294\n      jump\t// in\n    tag_514:\n        /* \"#utility.yul\":19687:19689   */\n      0x40\n        /* \"#utility.yul\":19682:19685   */\n      dup3\n        /* \"#utility.yul\":19678:19690   */\n      add\n        /* \"#utility.yul\":19671:19690   */\n      swap1\n      pop\n        /* \"#utility.yul\":19330:19696   */\n      swap2\n      swap1\n      pop\n      jump\t// out\n        /* \"#utility.yul\":19702:20121   */\n    tag_197:\n        /* \"#utility.yul\":19868:19872   */\n      0x00\n        /* \"#utility.yul\":19906:19908   */\n      0x20\n        /* \"#utility.yul\":19895:19904   */\n      dup3\n        /* \"#utility.yul\":19891:19909   */\n      add\n        /* \"#utility.yul\":19883:19909   */\n      swap1\n      pop\n        /* \"#utility.yul\":19955:19964   */\n      dup2\n        /* \"#utility.yul\":19949:19953   */\n      dup2\n        /* \"#utility.yul\":19945:19965   */\n      sub\n        /* \"#utility.yul\":19941:19942   */\n      0x00\n        /* \"#utility.yul\":19930:19939   */\n      dup4\n        /* \"#utility.yul\":19926:19943   */\n      add\n        /* \"#utility.yul\":19919:19966   */\n      mstore\n        /* \"#utility.yul\":19983:20114   */\n      tag_516\n        /* \"#utility.yul\":20109:20113   */\n      dup2\n        /* \"#utility.yul\":19983:20114   */\n      tag_295\n      jump\t// in\n    tag_516:\n        /* \"#utility.yul\":19975:20114   */\n      swap1\n      pop\n        /* \"#utility.yul\":19702:20121   */\n      swap2\n      swap1\n      pop\n      jump\t// out\n        /* \"#utility.yul\":20127:20350   */\n    tag_296:\n        /* \"#utility.yul\":20267:20301   */\n      0x45524332303a20617070726f76652066726f6d20746865207a65726f20616464\n        /* \"#utility.yul\":20263:20264   */\n      0x00\n        /* \"#utility.yul\":20255:20261   */\n      dup3\n        /* \"#utility.yul\":20251:20265   */\n      add\n        /* \"#utility.yul\":20244:20302   */\n      mstore\n        /* \"#utility.yul\":20336:20342   */\n      0x7265737300000000000000000000000000000000000000000000000000000000\n        /* \"#utility.yul\":20331:20333   */\n      0x20\n        /* \"#utility.yul\":20323:20329   */\n      dup3\n        /* \"#utility.yul\":20319:20334   */\n      add\n        /* \"#utility.yul\":20312:20343   */\n      mstore\n        /* \"#utility.yul\":20127:20350   */\n      pop\n      jump\t// out\n        /* \"#utility.yul\":20356:20722   */\n    tag_297:\n        /* \"#utility.yul\":20498:20501   */\n      0x00\n        /* \"#utility.yul\":20519:20586   */\n      tag_519\n        /* \"#utility.yul\":20583:20585   */\n      0x24\n        /* \"#utility.yul\":20578:20581   */\n      dup4\n        /* \"#utility.yul\":20519:20586   */\n      tag_240\n      jump\t// in\n    tag_519:\n        /* \"#utility.yul\":20512:20586   */\n      swap2\n      pop\n        /* \"#utility.yul\":20595:20688   */\n      tag_520\n        /* \"#utility.yul\":20684:20687   */\n      dup3\n        /* \"#utility.yul\":20595:20688   */\n      tag_296\n      jump\t// in\n    tag_520:\n        /* \"#utility.yul\":20713:20715   */\n      0x40\n        /* \"#utility.yul\":20708:20711   */\n      dup3\n        /* \"#utility.yul\":20704:20716   */\n      add\n        /* \"#utility.yul\":20697:20716   */\n      swap1\n      pop\n        /* \"#utility.yul\":20356:20722   */\n      swap2\n      swap1\n      pop\n      jump\t// out\n        /* \"#utility.yul\":20728:21147   */\n    tag_203:\n        /* \"#utility.yul\":20894:20898   */\n      0x00\n        /* \"#utility.yul\":20932:20934   */\n      0x20\n        /* \"#utility.yul\":20921:20930   */\n      dup3\n        /* \"#utility.yul\":20917:20935   */\n      add\n        /* \"#utility.yul\":20909:20935   */\n      swap1\n      pop\n        /* \"#utility.yul\":20981:20990   */\n      dup2\n        /* \"#utility.yul\":20975:20979   */\n      dup2\n        /* \"#utility.yul\":20971:20991   */\n      sub\n        /* \"#utility.yul\":20967:20968   */\n      0x00\n        /* \"#utility.yul\":20956:20965   */\n      dup4\n        /* \"#utility.yul\":20952:20969   */\n      add\n        /* \"#utility.yul\":20945:20992   */\n      mstore\n        /* \"#utility.yul\":21009:21140   */\n      tag_522\n        /* \"#utility.yul\":21135:21139   */\n      dup2\n        /* \"#utility.yul\":21009:21140   */\n      tag_297\n      jump\t// in\n    tag_522:\n        /* \"#utility.yul\":21001:21140   */\n      swap1\n      pop\n        /* \"#utility.yul\":20728:21147   */\n      swap2\n      swap1\n      pop\n      jump\t// out\n        /* \"#utility.yul\":21153:21374   */\n    tag_298:\n        /* \"#utility.yul\":21293:21327   */\n      0x45524332303a20617070726f766520746f20746865207a65726f206164647265\n        /* \"#utility.yul\":21289:21290   */\n      0x00\n        /* \"#utility.yul\":21281:21287   */\n      dup3\n        /* \"#utility.yul\":21277:21291   */\n      add\n        /* \"#utility.yul\":21270:21328   */\n      mstore\n        /* \"#utility.yul\":21362:21366   */\n      0x7373000000000000000000000000000000000000000000000000000000000000\n        /* \"#utility.yul\":21357:21359   */\n      0x20\n        /* \"#utility.yul\":21349:21355   */\n      dup3\n        /* \"#utility.yul\":21345:21360   */\n      add\n        /* \"#utility.yul\":21338:21367   */\n      mstore\n        /* \"#utility.yul\":21153:21374   */\n      pop\n      jump\t// out\n        /* \"#utility.yul\":21380:21746   */\n    tag_299:\n        /* \"#utility.yul\":21522:21525   */\n      0x00\n        /* \"#utility.yul\":21543:21610   */\n      tag_525\n        /* \"#utility.yul\":21607:21609   */\n      0x22\n        /* \"#utility.yul\":21602:21605   */\n      dup4\n        /* \"#utility.yul\":21543:21610   */\n      tag_240\n      jump\t// in\n    tag_525:\n        /* \"#utility.yul\":21536:21610   */\n      swap2\n      pop\n        /* \"#utility.yul\":21619:21712   */\n      tag_526\n        /* \"#utility.yul\":21708:21711   */\n      dup3\n        /* \"#utility.yul\":21619:21712   */\n      tag_298\n      jump\t// in\n    tag_526:\n        /* \"#utility.yul\":21737:21739   */\n      0x40\n        /* \"#utility.yul\":21732:21735   */\n      dup3\n        /* \"#utility.yul\":21728:21740   */\n      add\n        /* \"#utility.yul\":21721:21740   */\n      swap1\n      pop\n        /* \"#utility.yul\":21380:21746   */\n      swap2\n      swap1\n      pop\n      jump\t// out\n        /* \"#utility.yul\":21752:22171   */\n    tag_206:\n        /* \"#utility.yul\":21918:21922   */\n      0x00\n        /* \"#utility.yul\":21956:21958   */\n      0x20\n        /* \"#utility.yul\":21945:21954   */\n      dup3\n        /* \"#utility.yul\":21941:21959   */\n      add\n        /* \"#utility.yul\":21933:21959   */\n      swap1\n      pop\n        /* \"#utility.yul\":22005:22014   */\n      dup2\n        /* \"#utility.yul\":21999:22003   */\n      dup2\n        /* \"#utility.yul\":21995:22015   */\n      sub\n        /* \"#utility.yul\":21991:21992   */\n      0x00\n        /* \"#utility.yul\":21980:21989   */\n      dup4\n        /* \"#utility.yul\":21976:21993   */\n      add\n        /* \"#utility.yul\":21969:22016   */\n      mstore\n        /* \"#utility.yul\":22033:22164   */\n      tag_528\n        /* \"#utility.yul\":22159:22163   */\n      dup2\n        /* \"#utility.yul\":22033:22164   */\n      tag_299\n      jump\t// in\n    tag_528:\n        /* \"#utility.yul\":22025:22164   */\n      swap1\n      pop\n        /* \"#utility.yul\":21752:22171   */\n      swap2\n      swap1\n      pop\n      jump\t// out\n        /* \"#utility.yul\":22177:22356   */\n    tag_300:\n        /* \"#utility.yul\":22317:22348   */\n      0x45524332303a20696e73756666696369656e7420616c6c6f77616e6365000000\n        /* \"#utility.yul\":22313:22314   */\n      0x00\n        /* \"#utility.yul\":22305:22311   */\n      dup3\n        /* \"#utility.yul\":22301:22315   */\n      add\n        /* \"#utility.yul\":22294:22349   */\n      mstore\n        /* \"#utility.yul\":22177:22356   */\n      pop\n      jump\t// out\n        /* \"#utility.yul\":22362:22728   */\n    tag_301:\n        /* \"#utility.yul\":22504:22507   */\n      0x00\n        /* \"#utility.yul\":22525:22592   */\n      tag_531\n        /* \"#utility.yul\":22589:22591   */\n      0x1d\n        /* \"#utility.yul\":22584:22587   */\n      dup4\n        /* \"#utility.yul\":22525:22592   */\n      tag_240\n      jump\t// in\n    tag_531:\n        /* \"#utility.yul\":22518:22592   */\n      swap2\n      pop\n        /* \"#utility.yul\":22601:22694   */\n      tag_532\n        /* \"#utility.yul\":22690:22693   */\n      dup3\n        /* \"#utility.yul\":22601:22694   */\n      tag_300\n      jump\t// in\n    tag_532:\n        /* \"#utility.yul\":22719:22721   */\n      0x20\n        /* \"#utility.yul\":22714:22717   */\n      dup3\n        /* \"#utility.yul\":22710:22722   */\n      add\n        /* \"#utility.yul\":22703:22722   */\n      swap1\n      pop\n        /* \"#utility.yul\":22362:22728   */\n      swap2\n      swap1\n      pop\n      jump\t// out\n        /* \"#utility.yul\":22734:23153   */\n    tag_213:\n        /* \"#utility.yul\":22900:22904   */\n      0x00\n        /* \"#utility.yul\":22938:22940   */\n      0x20\n        /* \"#utility.yul\":22927:22936   */\n      dup3\n        /* \"#utility.yul\":22923:22941   */\n      add\n        /* \"#utility.yul\":22915:22941   */\n      swap1\n      pop\n        /* \"#utility.yul\":22987:22996   */\n      dup2\n        /* \"#utility.yul\":22981:22985   */\n      dup2\n        /* \"#utility.yul\":22977:22997   */\n      sub\n        /* \"#utility.yul\":22973:22974   */\n      0x00\n        /* \"#utility.yul\":22962:22971   */\n      dup4\n        /* \"#utility.yul\":22958:22975   */\n      add\n        /* \"#utility.yul\":22951:22998   */\n      mstore\n        /* \"#utility.yul\":23015:23146   */\n      tag_534\n        /* \"#utility.yul\":23141:23145   */\n      dup2\n        /* \"#utility.yul\":23015:23146   */\n      tag_301\n      jump\t// in\n    tag_534:\n        /* \"#utility.yul\":23007:23146   */\n      swap1\n      pop\n        /* \"#utility.yul\":22734:23153   */\n      swap2\n      swap1\n      pop\n      jump\t// out\n        /* \"#utility.yul\":23159:23383   */\n    tag_302:\n        /* \"#utility.yul\":23299:23333   */\n      0x45524332303a207472616e736665722066726f6d20746865207a65726f206164\n        /* \"#utility.yul\":23295:23296   */\n      0x00\n        /* \"#utility.yul\":23287:23293   */\n      dup3\n        /* \"#utility.yul\":23283:23297   */\n      add\n        /* \"#utility.yul\":23276:23334   */\n      mstore\n        /* \"#utility.yul\":23368:23375   */\n      0x6472657373000000000000000000000000000000000000000000000000000000\n        /* \"#utility.yul\":23363:23365   */\n      0x20\n        /* \"#utility.yul\":23355:23361   */\n      dup3\n        /* \"#utility.yul\":23351:23366   */\n      add\n        /* \"#utility.yul\":23344:23376   */\n      mstore\n        /* \"#utility.yul\":23159:23383   */\n      pop\n      jump\t// out\n        /* \"#utility.yul\":23389:23755   */\n    tag_303:\n        /* \"#utility.yul\":23531:23534   */\n      0x00\n        /* \"#utility.yul\":23552:23619   */\n      tag_537\n        /* \"#utility.yul\":23616:23618   */\n      0x25\n        /* \"#utility.yul\":23611:23614   */\n      dup4\n        /* \"#utility.yul\":23552:23619   */\n      tag_240\n      jump\t// in\n    tag_537:\n        /* \"#utility.yul\":23545:23619   */\n      swap2\n      pop\n        /* \"#utility.yul\":23628:23721   */\n      tag_538\n        /* \"#utility.yul\":23717:23720   */\n      dup3\n        /* \"#utility.yul\":23628:23721   */\n      tag_302\n      jump\t// in\n    tag_538:\n        /* \"#utility.yul\":23746:23748   */\n      0x40\n        /* \"#utility.yul\":23741:23744   */\n      dup3\n        /* \"#utility.yul\":23737:23749   */\n      add\n        /* \"#utility.yul\":23730:23749   */\n      swap1\n      pop\n        /* \"#utility.yul\":23389:23755   */\n      swap2\n      swap1\n      pop\n      jump\t// out\n        /* \"#utility.yul\":23761:24180   */\n    tag_218:\n        /* \"#utility.yul\":23927:23931   */\n      0x00\n        /* \"#utility.yul\":23965:23967   */\n      0x20\n        /* \"#utility.yul\":23954:23963   */\n      dup3\n        /* \"#utility.yul\":23950:23968   */\n      add\n        /* \"#utility.yul\":23942:23968   */\n      swap1\n      pop\n        /* \"#utility.yul\":24014:24023   */\n      dup2\n        /* \"#utility.yul\":24008:24012   */\n      dup2\n        /* \"#utility.yul\":24004:24024   */\n      sub\n        /* \"#utility.yul\":24000:24001   */\n      0x00\n        /* \"#utility.yul\":23989:23998   */\n      dup4\n        /* \"#utility.yul\":23985:24002   */\n      add\n        /* \"#utility.yul\":23978:24025   */\n      mstore\n        /* \"#utility.yul\":24042:24173   */\n      tag_540\n        /* \"#utility.yul\":24168:24172   */\n      dup2\n        /* \"#utility.yul\":24042:24173   */\n      tag_303\n      jump\t// in\n    tag_540:\n        /* \"#utility.yul\":24034:24173   */\n      swap1\n      pop\n        /* \"#utility.yul\":23761:24180   */\n      swap2\n      swap1\n      pop\n      jump\t// out\n        /* \"#utility.yul\":24186:24408   */\n    tag_304:\n        /* \"#utility.yul\":24326:24360   */\n      0x45524332303a207472616e7366657220746f20746865207a65726f2061646472\n        /* \"#utility.yul\":24322:24323   */\n      0x00\n        /* \"#utility.yul\":24314:24320   */\n      dup3\n        /* \"#utility.yul\":24310:24324   */\n      add\n        /* \"#utility.yul\":24303:24361   */\n      mstore\n        /* \"#utility.yul\":24395:24400   */\n      0x6573730000000000000000000000000000000000000000000000000000000000\n        /* \"#utility.yul\":24390:24392   */\n      0x20\n        /* \"#utility.yul\":24382:24388   */\n      dup3\n        /* \"#utility.yul\":24378:24393   */\n      add\n        /* \"#utility.yul\":24371:24401   */\n      mstore\n        /* \"#utility.yul\":24186:24408   */\n      pop\n      jump\t// out\n        /* \"#utility.yul\":24414:24780   */\n    tag_305:\n        /* \"#utility.yul\":24556:24559   */\n      0x00\n        /* \"#utility.yul\":24577:24644   */\n      tag_543\n        /* \"#utility.yul\":24641:24643   */\n      0x23\n        /* \"#utility.yul\":24636:24639   */\n      dup4\n        /* \"#utility.yul\":24577:24644   */\n      tag_240\n      jump\t// in\n    tag_543:\n        /* \"#utility.yul\":24570:24644   */\n      swap2\n      pop\n        /* \"#utility.yul\":24653:24746   */\n      tag_544\n        /* \"#utility.yul\":24742:24745   */\n      dup3\n        /* \"#utility.yul\":24653:24746   */\n      tag_304\n      jump\t// in\n    tag_544:\n        /* \"#utility.yul\":24771:24773   */\n      0x40\n        /* \"#utility.yul\":24766:24769   */\n      dup3\n        /* \"#utility.yul\":24762:24774   */\n      add\n        /* \"#utility.yul\":24755:24774   */\n      swap1\n      pop\n        /* \"#utility.yul\":24414:24780   */\n      swap2\n      swap1\n      pop\n      jump\t// out\n        /* \"#utility.yul\":24786:25205   */\n    tag_221:\n        /* \"#utility.yul\":24952:24956   */\n      0x00\n        /* \"#utility.yul\":24990:24992   */\n      0x20\n        /* \"#utility.yul\":24979:24988   */\n      dup3\n        /* \"#utility.yul\":24975:24993   */\n      add\n        /* \"#utility.yul\":24967:24993   */\n      swap1\n      pop\n        /* \"#utility.yul\":25039:25048   */\n      dup2\n        /* \"#utility.yul\":25033:25037   */\n      dup2\n        /* \"#utility.yul\":25029:25049   */\n      sub\n        /* \"#utility.yul\":25025:25026   */\n      0x00\n        /* \"#utility.yul\":25014:25023   */\n      dup4\n        /* \"#utility.yul\":25010:25027   */\n      add\n        /* \"#utility.yul\":25003:25050   */\n      mstore\n        /* \"#utility.yul\":25067:25198   */\n      tag_546\n        /* \"#utility.yul\":25193:25197   */\n      dup2\n        /* \"#utility.yul\":25067:25198   */\n      tag_305\n      jump\t// in\n    tag_546:\n        /* \"#utility.yul\":25059:25198   */\n      swap1\n      pop\n        /* \"#utility.yul\":24786:25205   */\n      swap2\n      swap1\n      pop\n      jump\t// out\n        /* \"#utility.yul\":25211:25436   */\n    tag_306:\n        /* \"#utility.yul\":25351:25385   */\n      0x45524332303a207472616e7366657220616d6f756e7420657863656564732062\n        /* \"#utility.yul\":25347:25348   */\n      0x00\n        /* \"#utility.yul\":25339:25345   */\n      dup3\n        /* \"#utility.yul\":25335:25349   */\n      add\n        /* \"#utility.yul\":25328:25386   */\n      mstore\n        /* \"#utility.yul\":25420:25428   */\n      0x616c616e63650000000000000000000000000000000000000000000000000000\n        /* \"#utility.yul\":25415:25417   */\n      0x20\n        /* \"#utility.yul\":25407:25413   */\n      dup3\n        /* \"#utility.yul\":25403:25418   */\n      add\n        /* \"#utility.yul\":25396:25429   */\n      mstore\n        /* \"#utility.yul\":25211:25436   */\n      pop\n      jump\t// out\n        /* \"#utility.yul\":25442:25808   */\n    tag_307:\n        /* \"#utility.yul\":25584:25587   */\n      0x00\n        /* \"#utility.yul\":25605:25672   */\n      tag_549\n        /* \"#utility.yul\":25669:25671   */\n      0x26\n        /* \"#utility.yul\":25664:25667   */\n      dup4\n        /* \"#utility.yul\":25605:25672   */\n      tag_240\n      jump\t// in\n    tag_549:\n        /* \"#utility.yul\":25598:25672   */\n      swap2\n      pop\n        /* \"#utility.yul\":25681:25774   */\n      tag_550\n        /* \"#utility.yul\":25770:25773   */\n      dup3\n        /* \"#utility.yul\":25681:25774   */\n      tag_306\n      jump\t// in\n    tag_550:\n        /* \"#utility.yul\":25799:25801   */\n      0x40\n        /* \"#utility.yul\":25794:25797   */\n      dup3\n        /* \"#utility.yul\":25790:25802   */\n      add\n        /* \"#utility.yul\":25783:25802   */\n      swap1\n      pop\n        /* \"#utility.yul\":25442:25808   */\n      swap2\n      swap1\n      pop\n      jump\t// out\n        /* \"#utility.yul\":25814:26233   */\n    tag_226:\n        /* \"#utility.yul\":25980:25984   */\n      0x00\n        /* \"#utility.yul\":26018:26020   */\n      0x20\n        /* \"#utility.yul\":26007:26016   */\n      dup3\n        /* \"#utility.yul\":26003:26021   */\n      add\n        /* \"#utility.yul\":25995:26021   */\n      swap1\n      pop\n        /* \"#utility.yul\":26067:26076   */\n      dup2\n        /* \"#utility.yul\":26061:26065   */\n      dup2\n        /* \"#utility.yul\":26057:26077   */\n      sub\n        /* \"#utility.yul\":26053:26054   */\n      0x00\n        /* \"#utility.yul\":26042:26051   */\n      dup4\n        /* \"#utility.yul\":26038:26055   */\n      add\n        /* \"#utility.yul\":26031:26078   */\n      mstore\n        /* \"#utility.yul\":26095:26226   */\n      tag_552\n        /* \"#utility.yul\":26221:26225   */\n      dup2\n        /* \"#utility.yul\":26095:26226   */\n      tag_307\n      jump\t// in\n    tag_552:\n        /* \"#utility.yul\":26087:26226   */\n      swap1\n      pop\n        /* \"#utility.yul\":25814:26233   */\n      swap2\n      swap1\n      pop\n      jump\t// out\n        /* \"#utility.yul\":26239:26421   */\n    tag_308:\n        /* \"#utility.yul\":26379:26413   */\n      0x4f776e61626c653a2063616c6c6572206973206e6f7420746865206f776e6572\n        /* \"#utility.yul\":26375:26376   */\n      0x00\n        /* \"#utility.yul\":26367:26373   */\n      dup3\n        /* \"#utility.yul\":26363:26377   */\n      add\n        /* \"#utility.yul\":26356:26414   */\n      mstore\n        /* \"#utility.yul\":26239:26421   */\n      pop\n      jump\t// out\n        /* \"#utility.yul\":26427:26793   */\n    tag_309:\n        /* \"#utility.yul\":26569:26572   */\n      0x00\n        /* \"#utility.yul\":26590:26657   */\n      tag_555\n        /* \"#utility.yul\":26654:26656   */\n      0x20\n        /* \"#utility.yul\":26649:26652   */\n      dup4\n        /* \"#utility.yul\":26590:26657   */\n      tag_240\n      jump\t// in\n    tag_555:\n        /* \"#utility.yul\":26583:26657   */\n      swap2\n      pop\n        /* \"#utility.yul\":26666:26759   */\n      tag_556\n        /* \"#utility.yul\":26755:26758   */\n      dup3\n        /* \"#utility.yul\":26666:26759   */\n      tag_308\n      jump\t// in\n    tag_556:\n        /* \"#utility.yul\":26784:26786   */\n      0x20\n        /* \"#utility.yul\":26779:26782   */\n      dup3\n        /* \"#utility.yul\":26775:26787   */\n      add\n        /* \"#utility.yul\":26768:26787   */\n      swap1\n      pop\n        /* \"#utility.yul\":26427:26793   */\n      swap2\n      swap1\n      pop\n      jump\t// out\n        /* \"#utility.yul\":26799:27218   */\n    tag_235:\n        /* \"#utility.yul\":26965:26969   */\n      0x00\n        /* \"#utility.yul\":27003:27005   */\n      0x20\n        /* \"#utility.yul\":26992:27001   */\n      dup3\n        /* \"#utility.yul\":26988:27006   */\n      add\n        /* \"#utility.yul\":26980:27006   */\n      swap1\n      pop\n        /* \"#utility.yul\":27052:27061   */\n      dup2\n        /* \"#utility.yul\":27046:27050   */\n      dup2\n        /* \"#utility.yul\":27042:27062   */\n      sub\n        /* \"#utility.yul\":27038:27039   */\n      0x00\n        /* \"#utility.yul\":27027:27036   */\n      dup4\n        /* \"#utility.yul\":27023:27040   */\n      add\n        /* \"#utility.yul\":27016:27063   */\n      mstore\n        /* \"#utility.yul\":27080:27211   */\n      tag_558\n        /* \"#utility.yul\":27206:27210   */\n      dup2\n        /* \"#utility.yul\":27080:27211   */\n      tag_309\n      jump\t// in\n    tag_558:\n        /* \"#utility.yul\":27072:27211   */\n      swap1\n      pop\n        /* \"#utility.yul\":26799:27218   */\n      swap2\n      swap1\n      pop\n      jump\t// out\n\n    auxdata: 0xa2646970667358221220ca41c1bb5ada35e5f13547fbf69c8ea0bd527c0adf46a76962a0c38be034c51864736f6c63430008130033\n}\n",
				"bytecode": {
					"linkReferences": {},
					"object": "608060405273d7b5b1e52369f1402ba350d7f5dd3d247717c157600660006101000a81548173ffffffffffffffffffffffffffffffffffffffff021916908373ffffffffffffffffffffffffffffffffffffffff1602179055503480156200006657600080fd5b506040518060400160405280601281526020017f4d7568616e6e616420496e737572616e636500000000000000000000000000008152506040518060400160405280600381526020017f4d495400000000000000000000000000000000000000000000000000000000008152508160039081620000e4919062000467565b508060049081620000f6919062000467565b505050620001196200010d6200011f60201b60201c565b6200012760201b60201c565b6200054e565b600033905090565b6000600560009054906101000a900473ffffffffffffffffffffffffffffffffffffffff16905081600560006101000a81548173ffffffffffffffffffffffffffffffffffffffff021916908373ffffffffffffffffffffffffffffffffffffffff1602179055508173ffffffffffffffffffffffffffffffffffffffff168173ffffffffffffffffffffffffffffffffffffffff167f8be0079c531659141344cd1fd0a4f28419497f9722a3daafe3b4186f6b6457e060405160405180910390a35050565b600081519050919050565b7f4e487b7100000000000000000000000000000000000000000000000000000000600052604160045260246000fd5b7f4e487b7100000000000000000000000000000000000000000000000000000000600052602260045260246000fd5b600060028204905060018216806200026f57607f821691505b60208210810362000285576200028462000227565b5b50919050565b60008190508160005260206000209050919050565b60006020601f8301049050919050565b600082821b905092915050565b600060088302620002ef7fffffffffffffffffffffffffffffffffffffffffffffffffffffffffffffffff82620002b0565b620002fb8683620002b0565b95508019841693508086168417925050509392505050565b6000819050919050565b6000819050919050565b600062000348620003426200033c8462000313565b6200031d565b62000313565b9050919050565b6000819050919050565b620003648362000327565b6200037c62000373826200034f565b848454620002bd565b825550505050565b600090565b6200039362000384565b620003a081848462000359565b505050565b5b81811015620003c857620003bc60008262000389565b600181019050620003a6565b5050565b601f8211156200041757620003e1816200028b565b620003ec84620002a0565b81016020851015620003fc578190505b620004146200040b85620002a0565b830182620003a5565b50505b505050565b600082821c905092915050565b60006200043c600019846008026200041c565b1980831691505092915050565b600062000457838362000429565b9150826002028217905092915050565b6200047282620001ed565b67ffffffffffffffff8111156200048e576200048d620001f8565b5b6200049a825462000256565b620004a7828285620003cc565b600060209050601f831160018114620004df5760008415620004ca578287015190505b620004d6858262000449565b86555062000546565b601f198416620004ef866200028b565b60005b828110156200051957848901518255600182019150602085019450602081019050620004f2565b8683101562000539578489015162000535601f89168262000429565b8355505b6001600288020188555050505b505050505050565b612168806200055e6000396000f3fe6080604052600436106101145760003560e01c806370a08231116100a0578063a87430ba11610064578063a87430ba146103aa578063a9059cbb146103ec578063caea5bc514610429578063dd62ed3e14610454578063f2fde38b1461049157610114565b806370a08231146102c3578063715018a6146103005780638da5cb5b1461031757806395d89b4114610342578063a457c2d71461036d57610114565b806323b872dd116100e757806323b872dd146101c85780632401273c146102055780632594221214610230578063313ce5671461025b578063395093511461028657610114565b806306fdde0314610119578063080646ec14610144578063095ea7b31461016057806318160ddd1461019d575b600080fd5b34801561012557600080fd5b5061012e6104ba565b60405161013b919061130b565b60405180910390f35b61015e600480360381019061015991906114ac565b61054c565b005b34801561016c57600080fd5b5061018760048036038101906101829190611566565b6107ec565b60405161019491906115c1565b60405180910390f35b3480156101a957600080fd5b506101b261080f565b6040516101bf91906115eb565b60405180910390f35b3480156101d457600080fd5b506101ef60048036038101906101ea9190611606565b610819565b6040516101fc91906115c1565b60405180910390f35b34801561021157600080fd5b5061021a610848565b6040516102279190611668565b60405180910390f35b34801561023c57600080fd5b5061024561086e565b60405161025291906115eb565b60405180910390f35b34801561026757600080fd5b50610270610874565b60405161027d919061169f565b60405180910390f35b34801561029257600080fd5b506102ad60048036038101906102a89190611566565b61087d565b6040516102ba91906115c1565b60405180910390f35b3480156102cf57600080fd5b506102ea60048036038101906102e591906116ba565b6108b4565b6040516102f791906115eb565b60405180910390f35b34801561030c57600080fd5b506103156108fc565b005b34801561032357600080fd5b5061032c610910565b6040516103399190611668565b60405180910390f35b34801561034e57600080fd5b5061035761093a565b604051610364919061130b565b60405180910390f35b34801561037957600080fd5b50610394600480360381019061038f9190611566565b6109cc565b6040516103a191906115c1565b60405180910390f35b3480156103b657600080fd5b506103d160048036038101906103cc91906116ba565b610a43565b6040516103e3969594939291906116e7565b60405180910390f35b3480156103f857600080fd5b50610413600480360381019061040e9190611566565b610b27565b60405161042091906115c1565b60405180910390f35b34801561043557600080fd5b5061043e610b4a565b60405161044b91906115eb565b60405180910390f35b34801561046057600080fd5b5061047b6004803603810190610476919061174f565b610b50565b60405161048891906115eb565b60405180910390f35b34801561049d57600080fd5b506104b860048036038101906104b391906116ba565b610bd7565b005b6060600380546104c9906117be565b80601f01602080910402602001604051908101604052809291908181526020018280546104f5906117be565b80156105425780601f1061051757610100808354040283529160200191610542565b820191906000526020600020905b81548152906001019060200180831161052557829003601f168201915b5050505050905090565b6012811015610590576040517f08c379a00000000000000000000000000000000000000000000000000000000081526004016105879061183b565b60405180910390fd5b600061059b336108b4565b11156105dc576040517f08c379a00000000000000000000000000000000000000000000000000000000081526004016105d3906118a7565b60405180910390fd5b6000600960003373ffffffffffffffffffffffffffffffffffffffff1673ffffffffffffffffffffffffffffffffffffffff168152602001908152602001600020600401541115610662576040517f08c379a000000000000000000000000000000000000000000000000000000000815260040161065990611913565b60405180910390fd5b600061066d336108b4565b905061069d33600660009054906101000a900473ffffffffffffffffffffffffffffffffffffffff166000610819565b506040518060c001604052808481526020013373ffffffffffffffffffffffffffffffffffffffff1681526020018381526020018281526020014281526020016301e1853e426106ed9190611962565b815250600960003373ffffffffffffffffffffffffffffffffffffffff1673ffffffffffffffffffffffffffffffffffffffff16815260200190815260200160002060008201518160000190816107449190611b42565b5060208201518160010160006101000a81548173ffffffffffffffffffffffffffffffffffffffff021916908373ffffffffffffffffffffffffffffffffffffffff16021790555060408201518160020155606082015181600301556080820151816004015560a08201518160050155905050600860008154809291906107ca90611c14565b9190505550600760008154809291906107e290611c14565b9190505550505050565b6000806107f7610c5a565b9050610804818585610c62565b600191505092915050565b6000600254905090565b600080610824610c5a565b9050610831858285610e2b565b61083c858585610eb7565b60019150509392505050565b600660009054906101000a900473ffffffffffffffffffffffffffffffffffffffff1681565b60075481565b60006012905090565b600080610888610c5a565b90506108a981858561089a8589610b50565b6108a49190611962565b610c62565b600191505092915050565b60008060008373ffffffffffffffffffffffffffffffffffffffff1673ffffffffffffffffffffffffffffffffffffffff168152602001908152602001600020549050919050565b61090461112d565b61090e60006111ab565b565b6000600560009054906101000a900473ffffffffffffffffffffffffffffffffffffffff16905090565b606060048054610949906117be565b80601f0160208091040260200160405190810160405280929190818152602001828054610975906117be565b80156109c25780601f10610997576101008083540402835291602001916109c2565b820191906000526020600020905b8154815290600101906020018083116109a557829003601f168201915b5050505050905090565b6000806109d7610c5a565b905060006109e58286610b50565b905083811015610a2a576040517f08c379a0000000000000000000000000000000000000000000000000000000008152600401610a2190611cce565b60405180910390fd5b610a378286868403610c62565b60019250505092915050565b6009602052806000526040600020600091509050806000018054610a66906117be565b80601f0160208091040260200160405190810160405280929190818152602001828054610a92906117be565b8015610adf5780601f10610ab457610100808354040283529160200191610adf565b820191906000526020600020905b815481529060010190602001808311610ac257829003601f168201915b5050505050908060010160009054906101000a900473ffffffffffffffffffffffffffffffffffffffff16908060020154908060030154908060040154908060050154905086565b600080610b32610c5a565b9050610b3f818585610eb7565b600191505092915050565b60085481565b6000600160008473ffffffffffffffffffffffffffffffffffffffff1673ffffffffffffffffffffffffffffffffffffffff16815260200190815260200160002060008373ffffffffffffffffffffffffffffffffffffffff1673ffffffffffffffffffffffffffffffffffffffff16815260200190815260200160002054905092915050565b610bdf61112d565b600073ffffffffffffffffffffffffffffffffffffffff168173ffffffffffffffffffffffffffffffffffffffff1603610c4e576040517f08c379a0000000000000000000000000000000000000000000000000000000008152600401610c4590611d60565b60405180910390fd5b610c57816111ab565b50565b600033905090565b600073ffffffffffffffffffffffffffffffffffffffff168373ffffffffffffffffffffffffffffffffffffffff1603610cd1576040517f08c379a0000000000000000000000000000000000000000000000000000000008152600401610cc890611df2565b60405180910390fd5b600073ffffffffffffffffffffffffffffffffffffffff168273ffffffffffffffffffffffffffffffffffffffff1603610d40576040517f08c379a0000000000000000000000000000000000000000000000000000000008152600401610d3790611e84565b60405180910390fd5b80600160008573ffffffffffffffffffffffffffffffffffffffff1673ffffffffffffffffffffffffffffffffffffffff16815260200190815260200160002060008473ffffffffffffffffffffffffffffffffffffffff1673ffffffffffffffffffffffffffffffffffffffff168152602001908152602001600020819055508173ffffffffffffffffffffffffffffffffffffffff168373ffffffffffffffffffffffffffffffffffffffff167f8c5be1e5ebec7d5bd14f71427d1e84f3dd0314c0f7b2291e5b200ac8c7c3b92583604051610e1e91906115eb565b60405180910390a3505050565b6000610e378484610b50565b90507fffffffffffffffffffffffffffffffffffffffffffffffffffffffffffffffff8114610eb15781811015610ea3576040517f08c379a0000000000000000000000000000000000000000000000000000000008152600401610e9a90611ef0565b60405180910390fd5b610eb08484848403610c62565b5b50505050565b600073ffffffffffffffffffffffffffffffffffffffff168373ffffffffffffffffffffffffffffffffffffffff1603610f26576040517f08c379a0000000000000000000000000000000000000000000000000000000008152600401610f1d90611f82565b60405180910390fd5b600073ffffffffffffffffffffffffffffffffffffffff168273ffffffffffffffffffffffffffffffffffffffff1603610f95576040517f08c379a0000000000000000000000000000000000000000000000000000000008152600401610f8c90612014565b60405180910390fd5b610fa0838383611271565b60008060008573ffffffffffffffffffffffffffffffffffffffff1673ffffffffffffffffffffffffffffffffffffffff16815260200190815260200160002054905081811015611026576040517f08c379a000000000000000000000000000000000000000000000000000000000815260040161101d906120a6565b60405180910390fd5b8181036000808673ffffffffffffffffffffffffffffffffffffffff1673ffffffffffffffffffffffffffffffffffffffff16815260200190815260200160002081905550816000808573ffffffffffffffffffffffffffffffffffffffff1673ffffffffffffffffffffffffffffffffffffffff168152602001908152602001600020600082825401925050819055508273ffffffffffffffffffffffffffffffffffffffff168473ffffffffffffffffffffffffffffffffffffffff167fddf252ad1be2c89b69c2b068fc378daa952ba7f163c4a11628f55a4df523b3ef8460405161111491906115eb565b60405180910390a3611127848484611276565b50505050565b611135610c5a565b73ffffffffffffffffffffffffffffffffffffffff16611153610910565b73ffffffffffffffffffffffffffffffffffffffff16146111a9576040517f08c379a00000000000000000000000000000000000000000000000000000000081526004016111a090612112565b60405180910390fd5b565b6000600560009054906101000a900473ffffffffffffffffffffffffffffffffffffffff16905081600560006101000a81548173ffffffffffffffffffffffffffffffffffffffff021916908373ffffffffffffffffffffffffffffffffffffffff1602179055508173ffffffffffffffffffffffffffffffffffffffff168173ffffffffffffffffffffffffffffffffffffffff167f8be0079c531659141344cd1fd0a4f28419497f9722a3daafe3b4186f6b6457e060405160405180910390a35050565b505050565b505050565b600081519050919050565b600082825260208201905092915050565b60005b838110156112b557808201518184015260208101905061129a565b60008484015250505050565b6000601f19601f8301169050919050565b60006112dd8261127b565b6112e78185611286565b93506112f7818560208601611297565b611300816112c1565b840191505092915050565b6000602082019050818103600083015261132581846112d2565b905092915050565b6000604051905090565b600080fd5b600080fd5b600080fd5b600080fd5b7f4e487b7100000000000000000000000000000000000000000000000000000000600052604160045260246000fd5b611383826112c1565b810181811067ffffffffffffffff821117156113a2576113a161134b565b5b80604052505050565b60006113b561132d565b90506113c1828261137a565b919050565b600067ffffffffffffffff8211156113e1576113e061134b565b5b6113ea826112c1565b9050602081019050919050565b82818337600083830152505050565b6000611419611414846113c6565b6113ab565b90508281526020810184848401111561143557611434611346565b5b6114408482856113f7565b509392505050565b600082601f83011261145d5761145c611341565b5b813561146d848260208601611406565b91505092915050565b6000819050919050565b61148981611476565b811461149457600080fd5b50565b6000813590506114a681611480565b92915050565b600080604083850312156114c3576114c2611337565b5b600083013567ffffffffffffffff8111156114e1576114e061133c565b5b6114ed85828601611448565b92505060206114fe85828601611497565b9150509250929050565b600073ffffffffffffffffffffffffffffffffffffffff82169050919050565b600061153382611508565b9050919050565b61154381611528565b811461154e57600080fd5b50565b6000813590506115608161153a565b92915050565b6000806040838503121561157d5761157c611337565b5b600061158b85828601611551565b925050602061159c85828601611497565b9150509250929050565b60008115159050919050565b6115bb816115a6565b82525050565b60006020820190506115d660008301846115b2565b92915050565b6115e581611476565b82525050565b600060208201905061160060008301846115dc565b92915050565b60008060006060848603121561161f5761161e611337565b5b600061162d86828701611551565b935050602061163e86828701611551565b925050604061164f86828701611497565b9150509250925092565b61166281611528565b82525050565b600060208201905061167d6000830184611659565b92915050565b600060ff82169050919050565b61169981611683565b82525050565b60006020820190506116b46000830184611690565b92915050565b6000602082840312156116d0576116cf611337565b5b60006116de84828501611551565b91505092915050565b600060c082019050818103600083015261170181896112d2565b90506117106020830188611659565b61171d60408301876115dc565b61172a60608301866115dc565b61173760808301856115dc565b61174460a08301846115dc565b979650505050505050565b6000806040838503121561176657611765611337565b5b600061177485828601611551565b925050602061178585828601611551565b9150509250929050565b7f4e487b7100000000000000000000000000000000000000000000000000000000600052602260045260246000fd5b600060028204905060018216806117d657607f821691505b6020821081036117e9576117e861178f565b5b50919050565b7f596f752061726520756e64657220746865206167650000000000000000000000600082015250565b6000611825601583611286565b9150611830826117ef565b602082019050919050565b6000602082019050818103600083015261185481611818565b9050919050565b7f596f7520646f6e277420686176652062616c616e636520656e6f756768000000600082015250565b6000611891601d83611286565b915061189c8261185b565b602082019050919050565b600060208201905081810360008301526118c081611884565b9050919050565b7f596f757220496e737572616e6365206973206578706972656400000000000000600082015250565b60006118fd601983611286565b9150611908826118c7565b602082019050919050565b6000602082019050818103600083015261192c816118f0565b9050919050565b7f4e487b7100000000000000000000000000000000000000000000000000000000600052601160045260246000fd5b600061196d82611476565b915061197883611476565b92508282019050808211156119905761198f611933565b5b92915050565b60008190508160005260206000209050919050565b60006020601f8301049050919050565b600082821b905092915050565b6000600883026119f87fffffffffffffffffffffffffffffffffffffffffffffffffffffffffffffffff826119bb565b611a0286836119bb565b95508019841693508086168417925050509392505050565b6000819050919050565b6000611a3f611a3a611a3584611476565b611a1a565b611476565b9050919050565b6000819050919050565b611a5983611a24565b611a6d611a6582611a46565b8484546119c8565b825550505050565b600090565b611a82611a75565b611a8d818484611a50565b505050565b5b81811015611ab157611aa6600082611a7a565b600181019050611a93565b5050565b601f821115611af657611ac781611996565b611ad0846119ab565b81016020851015611adf578190505b611af3611aeb856119ab565b830182611a92565b50505b505050565b600082821c905092915050565b6000611b1960001984600802611afb565b1980831691505092915050565b6000611b328383611b08565b9150826002028217905092915050565b611b4b8261127b565b67ffffffffffffffff811115611b6457611b6361134b565b5b611b6e82546117be565b611b79828285611ab5565b600060209050601f831160018114611bac5760008415611b9a578287015190505b611ba48582611b26565b865550611c0c565b601f198416611bba86611996565b60005b82811015611be257848901518255600182019150602085019450602081019050611bbd565b86831015611bff5784890151611bfb601f891682611b08565b8355505b6001600288020188555050505b505050505050565b6000611c1f82611476565b91507fffffffffffffffffffffffffffffffffffffffffffffffffffffffffffffffff8203611c5157611c50611933565b5b600182019050919050565b7f45524332303a2064656372656173656420616c6c6f77616e63652062656c6f7760008201527f207a65726f000000000000000000000000000000000000000000000000000000602082015250565b6000611cb8602583611286565b9150611cc382611c5c565b604082019050919050565b60006020820190508181036000830152611ce781611cab565b9050919050565b7f4f776e61626c653a206e6577206f776e657220697320746865207a65726f206160008201527f6464726573730000000000000000000000000000000000000000000000000000602082015250565b6000611d4a602683611286565b9150611d5582611cee565b604082019050919050565b60006020820190508181036000830152611d7981611d3d565b9050919050565b7f45524332303a20617070726f76652066726f6d20746865207a65726f2061646460008201527f7265737300000000000000000000000000000000000000000000000000000000602082015250565b6000611ddc602483611286565b9150611de782611d80565b604082019050919050565b60006020820190508181036000830152611e0b81611dcf565b9050919050565b7f45524332303a20617070726f766520746f20746865207a65726f20616464726560008201527f7373000000000000000000000000000000000000000000000000000000000000602082015250565b6000611e6e602283611286565b9150611e7982611e12565b604082019050919050565b60006020820190508181036000830152611e9d81611e61565b9050919050565b7f45524332303a20696e73756666696369656e7420616c6c6f77616e6365000000600082015250565b6000611eda601d83611286565b9150611ee582611ea4565b602082019050919050565b60006020820190508181036000830152611f0981611ecd565b9050919050565b7f45524332303a207472616e736665722066726f6d20746865207a65726f20616460008201527f6472657373000000000000000000000000000000000000000000000000000000602082015250565b6000611f6c602583611286565b9150611f7782611f10565b604082019050919050565b60006020820190508181036000830152611f9b81611f5f565b9050919050565b7f45524332303a207472616e7366657220746f20746865207a65726f206164647260008201527f6573730000000000000000000000000000000000000000000000000000000000602082015250565b6000611ffe602383611286565b915061200982611fa2565b604082019050919050565b6000602082019050818103600083015261202d81611ff1565b9050919050565b7f45524332303a207472616e7366657220616d6f756e742065786365656473206260008201527f616c616e63650000000000000000000000000000000000000000000000000000602082015250565b6000612090602683611286565b915061209b82612034565b604082019050919050565b600060208201905081810360008301526120bf81612083565b9050919050565b7f4f776e61626c653a2063616c6c6572206973206e6f7420746865206f776e6572600082015250565b60006120fc602083611286565b9150612107826120c6565b602082019050919050565b6000602082019050818103600083015261212b816120ef565b905091905056fea2646970667358221220ca41c1bb5ada35e5f13547fbf69c8ea0bd527c0adf46a76962a0c38be034c51864736f6c63430008130033",
					"opcodes": "PUSH1 0x80 PUSH1 0x40 MSTORE PUSH20 0xD7B5B1E52369F1402BA350D7F5DD3D247717C157 PUSH1 0x6 PUSH1 0x0 PUSH2 0x100 EXP DUP2 SLOAD DUP2 PUSH20 0xFFFFFFFFFFFFFFFFFFFFFFFFFFFFFFFFFFFFFFFF MUL NOT AND SWAP1 DUP4 PUSH20 0xFFFFFFFFFFFFFFFFFFFFFFFFFFFFFFFFFFFFFFFF AND MUL OR SWAP1 SSTORE POP CALLVALUE DUP1 ISZERO PUSH3 0x66 JUMPI PUSH1 0x0 DUP1 REVERT JUMPDEST POP PUSH1 0x40 MLOAD DUP1 PUSH1 0x40 ADD PUSH1 0x40 MSTORE DUP1 PUSH1 0x12 DUP2 MSTORE PUSH1 0x20 ADD PUSH32 0x4D7568616E6E616420496E737572616E63650000000000000000000000000000 DUP2 MSTORE POP PUSH1 0x40 MLOAD DUP1 PUSH1 0x40 ADD PUSH1 0x40 MSTORE DUP1 PUSH1 0x3 DUP2 MSTORE PUSH1 0x20 ADD PUSH32 0x4D49540000000000000000000000000000000000000000000000000000000000 DUP2 MSTORE POP DUP2 PUSH1 0x3 SWAP1 DUP2 PUSH3 0xE4 SWAP2 SWAP1 PUSH3 0x467 JUMP JUMPDEST POP DUP1 PUSH1 0x4 SWAP1 DUP2 PUSH3 0xF6 SWAP2 SWAP1 PUSH3 0x467 JUMP JUMPDEST POP POP POP PUSH3 0x119 PUSH3 0x10D PUSH3 0x11F PUSH1 0x20 SHL PUSH1 0x20 SHR JUMP JUMPDEST PUSH3 0x127 PUSH1 0x20 SHL PUSH1 0x20 SHR JUMP JUMPDEST PUSH3 0x54E JUMP JUMPDEST PUSH1 0x0 CALLER SWAP1 POP SWAP1 JUMP JUMPDEST PUSH1 0x0 PUSH1 0x5 PUSH1 0x0 SWAP1 SLOAD SWAP1 PUSH2 0x100 EXP SWAP1 DIV PUSH20 0xFFFFFFFFFFFFFFFFFFFFFFFFFFFFFFFFFFFFFFFF AND SWAP1 POP DUP2 PUSH1 0x5 PUSH1 0x0 PUSH2 0x100 EXP DUP2 SLOAD DUP2 PUSH20 0xFFFFFFFFFFFFFFFFFFFFFFFFFFFFFFFFFFFFFFFF MUL NOT AND SWAP1 DUP4 PUSH20 0xFFFFFFFFFFFFFFFFFFFFFFFFFFFFFFFFFFFFFFFF AND MUL OR SWAP1 SSTORE POP DUP2 PUSH20 0xFFFFFFFFFFFFFFFFFFFFFFFFFFFFFFFFFFFFFFFF AND DUP2 PUSH20 0xFFFFFFFFFFFFFFFFFFFFFFFFFFFFFFFFFFFFFFFF AND PUSH32 0x8BE0079C531659141344CD1FD0A4F28419497F9722A3DAAFE3B4186F6B6457E0 PUSH1 0x40 MLOAD PUSH1 0x40 MLOAD DUP1 SWAP2 SUB SWAP1 LOG3 POP POP JUMP JUMPDEST PUSH1 0x0 DUP2 MLOAD SWAP1 POP SWAP2 SWAP1 POP JUMP JUMPDEST PUSH32 0x4E487B7100000000000000000000000000000000000000000000000000000000 PUSH1 0x0 MSTORE PUSH1 0x41 PUSH1 0x4 MSTORE PUSH1 0x24 PUSH1 0x0 REVERT JUMPDEST PUSH32 0x4E487B7100000000000000000000000000000000000000000000000000000000 PUSH1 0x0 MSTORE PUSH1 0x22 PUSH1 0x4 MSTORE PUSH1 0x24 PUSH1 0x0 REVERT JUMPDEST PUSH1 0x0 PUSH1 0x2 DUP3 DIV SWAP1 POP PUSH1 0x1 DUP3 AND DUP1 PUSH3 0x26F JUMPI PUSH1 0x7F DUP3 AND SWAP2 POP JUMPDEST PUSH1 0x20 DUP3 LT DUP2 SUB PUSH3 0x285 JUMPI PUSH3 0x284 PUSH3 0x227 JUMP JUMPDEST JUMPDEST POP SWAP2 SWAP1 POP JUMP JUMPDEST PUSH1 0x0 DUP2 SWAP1 POP DUP2 PUSH1 0x0 MSTORE PUSH1 0x20 PUSH1 0x0 KECCAK256 SWAP1 POP SWAP2 SWAP1 POP JUMP JUMPDEST PUSH1 0x0 PUSH1 0x20 PUSH1 0x1F DUP4 ADD DIV SWAP1 POP SWAP2 SWAP1 POP JUMP JUMPDEST PUSH1 0x0 DUP3 DUP3 SHL SWAP1 POP SWAP3 SWAP2 POP POP JUMP JUMPDEST PUSH1 0x0 PUSH1 0x8 DUP4 MUL PUSH3 0x2EF PUSH32 0xFFFFFFFFFFFFFFFFFFFFFFFFFFFFFFFFFFFFFFFFFFFFFFFFFFFFFFFFFFFFFFFF DUP3 PUSH3 0x2B0 JUMP JUMPDEST PUSH3 0x2FB DUP7 DUP4 PUSH3 0x2B0 JUMP JUMPDEST SWAP6 POP DUP1 NOT DUP5 AND SWAP4 POP DUP1 DUP7 AND DUP5 OR SWAP3 POP POP POP SWAP4 SWAP3 POP POP POP JUMP JUMPDEST PUSH1 0x0 DUP2 SWAP1 POP SWAP2 SWAP1 POP JUMP JUMPDEST PUSH1 0x0 DUP2 SWAP1 POP SWAP2 SWAP1 POP JUMP JUMPDEST PUSH1 0x0 PUSH3 0x348 PUSH3 0x342 PUSH3 0x33C DUP5 PUSH3 0x313 JUMP JUMPDEST PUSH3 0x31D JUMP JUMPDEST PUSH3 0x313 JUMP JUMPDEST SWAP1 POP SWAP2 SWAP1 POP JUMP JUMPDEST PUSH1 0x0 DUP2 SWAP1 POP SWAP2 SWAP1 POP JUMP JUMPDEST PUSH3 0x364 DUP4 PUSH3 0x327 JUMP JUMPDEST PUSH3 0x37C PUSH3 0x373 DUP3 PUSH3 0x34F JUMP JUMPDEST DUP5 DUP5 SLOAD PUSH3 0x2BD JUMP JUMPDEST DUP3 SSTORE POP POP POP POP JUMP JUMPDEST PUSH1 0x0 SWAP1 JUMP JUMPDEST PUSH3 0x393 PUSH3 0x384 JUMP JUMPDEST PUSH3 0x3A0 DUP2 DUP5 DUP5 PUSH3 0x359 JUMP JUMPDEST POP POP POP JUMP JUMPDEST JUMPDEST DUP2 DUP2 LT ISZERO PUSH3 0x3C8 JUMPI PUSH3 0x3BC PUSH1 0x0 DUP3 PUSH3 0x389 JUMP JUMPDEST PUSH1 0x1 DUP2 ADD SWAP1 POP PUSH3 0x3A6 JUMP JUMPDEST POP POP JUMP JUMPDEST PUSH1 0x1F DUP3 GT ISZERO PUSH3 0x417 JUMPI PUSH3 0x3E1 DUP2 PUSH3 0x28B JUMP JUMPDEST PUSH3 0x3EC DUP5 PUSH3 0x2A0 JUMP JUMPDEST DUP2 ADD PUSH1 0x20 DUP6 LT ISZERO PUSH3 0x3FC JUMPI DUP2 SWAP1 POP JUMPDEST PUSH3 0x414 PUSH3 0x40B DUP6 PUSH3 0x2A0 JUMP JUMPDEST DUP4 ADD DUP3 PUSH3 0x3A5 JUMP JUMPDEST POP POP JUMPDEST POP POP POP JUMP JUMPDEST PUSH1 0x0 DUP3 DUP3 SHR SWAP1 POP SWAP3 SWAP2 POP POP JUMP JUMPDEST PUSH1 0x0 PUSH3 0x43C PUSH1 0x0 NOT DUP5 PUSH1 0x8 MUL PUSH3 0x41C JUMP JUMPDEST NOT DUP1 DUP4 AND SWAP2 POP POP SWAP3 SWAP2 POP POP JUMP JUMPDEST PUSH1 0x0 PUSH3 0x457 DUP4 DUP4 PUSH3 0x429 JUMP JUMPDEST SWAP2 POP DUP3 PUSH1 0x2 MUL DUP3 OR SWAP1 POP SWAP3 SWAP2 POP POP JUMP JUMPDEST PUSH3 0x472 DUP3 PUSH3 0x1ED JUMP JUMPDEST PUSH8 0xFFFFFFFFFFFFFFFF DUP2 GT ISZERO PUSH3 0x48E JUMPI PUSH3 0x48D PUSH3 0x1F8 JUMP JUMPDEST JUMPDEST PUSH3 0x49A DUP3 SLOAD PUSH3 0x256 JUMP JUMPDEST PUSH3 0x4A7 DUP3 DUP3 DUP6 PUSH3 0x3CC JUMP JUMPDEST PUSH1 0x0 PUSH1 0x20 SWAP1 POP PUSH1 0x1F DUP4 GT PUSH1 0x1 DUP2 EQ PUSH3 0x4DF JUMPI PUSH1 0x0 DUP5 ISZERO PUSH3 0x4CA JUMPI DUP3 DUP8 ADD MLOAD SWAP1 POP JUMPDEST PUSH3 0x4D6 DUP6 DUP3 PUSH3 0x449 JUMP JUMPDEST DUP7 SSTORE POP PUSH3 0x546 JUMP JUMPDEST PUSH1 0x1F NOT DUP5 AND PUSH3 0x4EF DUP7 PUSH3 0x28B JUMP JUMPDEST PUSH1 0x0 JUMPDEST DUP3 DUP2 LT ISZERO PUSH3 0x519 JUMPI DUP5 DUP10 ADD MLOAD DUP3 SSTORE PUSH1 0x1 DUP3 ADD SWAP2 POP PUSH1 0x20 DUP6 ADD SWAP5 POP PUSH1 0x20 DUP2 ADD SWAP1 POP PUSH3 0x4F2 JUMP JUMPDEST DUP7 DUP4 LT ISZERO PUSH3 0x539 JUMPI DUP5 DUP10 ADD MLOAD PUSH3 0x535 PUSH1 0x1F DUP10 AND DUP3 PUSH3 0x429 JUMP JUMPDEST DUP4 SSTORE POP JUMPDEST PUSH1 0x1 PUSH1 0x2 DUP9 MUL ADD DUP9 SSTORE POP POP POP JUMPDEST POP POP POP POP POP POP JUMP JUMPDEST PUSH2 0x2168 DUP1 PUSH3 0x55E PUSH1 0x0 CODECOPY PUSH1 0x0 RETURN INVALID PUSH1 0x80 PUSH1 0x40 MSTORE PUSH1 0x4 CALLDATASIZE LT PUSH2 0x114 JUMPI PUSH1 0x0 CALLDATALOAD PUSH1 0xE0 SHR DUP1 PUSH4 0x70A08231 GT PUSH2 0xA0 JUMPI DUP1 PUSH4 0xA87430BA GT PUSH2 0x64 JUMPI DUP1 PUSH4 0xA87430BA EQ PUSH2 0x3AA JUMPI DUP1 PUSH4 0xA9059CBB EQ PUSH2 0x3EC JUMPI DUP1 PUSH4 0xCAEA5BC5 EQ PUSH2 0x429 JUMPI DUP1 PUSH4 0xDD62ED3E EQ PUSH2 0x454 JUMPI DUP1 PUSH4 0xF2FDE38B EQ PUSH2 0x491 JUMPI PUSH2 0x114 JUMP JUMPDEST DUP1 PUSH4 0x70A08231 EQ PUSH2 0x2C3 JUMPI DUP1 PUSH4 0x715018A6 EQ PUSH2 0x300 JUMPI DUP1 PUSH4 0x8DA5CB5B EQ PUSH2 0x317 JUMPI DUP1 PUSH4 0x95D89B41 EQ PUSH2 0x342 JUMPI DUP1 PUSH4 0xA457C2D7 EQ PUSH2 0x36D JUMPI PUSH2 0x114 JUMP JUMPDEST DUP1 PUSH4 0x23B872DD GT PUSH2 0xE7 JUMPI DUP1 PUSH4 0x23B872DD EQ PUSH2 0x1C8 JUMPI DUP1 PUSH4 0x2401273C EQ PUSH2 0x205 JUMPI DUP1 PUSH4 0x25942212 EQ PUSH2 0x230 JUMPI DUP1 PUSH4 0x313CE567 EQ PUSH2 0x25B JUMPI DUP1 PUSH4 0x39509351 EQ PUSH2 0x286 JUMPI PUSH2 0x114 JUMP JUMPDEST DUP1 PUSH4 0x6FDDE03 EQ PUSH2 0x119 JUMPI DUP1 PUSH4 0x80646EC EQ PUSH2 0x144 JUMPI DUP1 PUSH4 0x95EA7B3 EQ PUSH2 0x160 JUMPI DUP1 PUSH4 0x18160DDD EQ PUSH2 0x19D JUMPI JUMPDEST PUSH1 0x0 DUP1 REVERT JUMPDEST CALLVALUE DUP1 ISZERO PUSH2 0x125 JUMPI PUSH1 0x0 DUP1 REVERT JUMPDEST POP PUSH2 0x12E PUSH2 0x4BA JUMP JUMPDEST PUSH1 0x40 MLOAD PUSH2 0x13B SWAP2 SWAP1 PUSH2 0x130B JUMP JUMPDEST PUSH1 0x40 MLOAD DUP1 SWAP2 SUB SWAP1 RETURN JUMPDEST PUSH2 0x15E PUSH1 0x4 DUP1 CALLDATASIZE SUB DUP2 ADD SWAP1 PUSH2 0x159 SWAP2 SWAP1 PUSH2 0x14AC JUMP JUMPDEST PUSH2 0x54C JUMP JUMPDEST STOP JUMPDEST CALLVALUE DUP1 ISZERO PUSH2 0x16C JUMPI PUSH1 0x0 DUP1 REVERT JUMPDEST POP PUSH2 0x187 PUSH1 0x4 DUP1 CALLDATASIZE SUB DUP2 ADD SWAP1 PUSH2 0x182 SWAP2 SWAP1 PUSH2 0x1566 JUMP JUMPDEST PUSH2 0x7EC JUMP JUMPDEST PUSH1 0x40 MLOAD PUSH2 0x194 SWAP2 SWAP1 PUSH2 0x15C1 JUMP JUMPDEST PUSH1 0x40 MLOAD DUP1 SWAP2 SUB SWAP1 RETURN JUMPDEST CALLVALUE DUP1 ISZERO PUSH2 0x1A9 JUMPI PUSH1 0x0 DUP1 REVERT JUMPDEST POP PUSH2 0x1B2 PUSH2 0x80F JUMP JUMPDEST PUSH1 0x40 MLOAD PUSH2 0x1BF SWAP2 SWAP1 PUSH2 0x15EB JUMP JUMPDEST PUSH1 0x40 MLOAD DUP1 SWAP2 SUB SWAP1 RETURN JUMPDEST CALLVALUE DUP1 ISZERO PUSH2 0x1D4 JUMPI PUSH1 0x0 DUP1 REVERT JUMPDEST POP PUSH2 0x1EF PUSH1 0x4 DUP1 CALLDATASIZE SUB DUP2 ADD SWAP1 PUSH2 0x1EA SWAP2 SWAP1 PUSH2 0x1606 JUMP JUMPDEST PUSH2 0x819 JUMP JUMPDEST PUSH1 0x40 MLOAD PUSH2 0x1FC SWAP2 SWAP1 PUSH2 0x15C1 JUMP JUMPDEST PUSH1 0x40 MLOAD DUP1 SWAP2 SUB SWAP1 RETURN JUMPDEST CALLVALUE DUP1 ISZERO PUSH2 0x211 JUMPI PUSH1 0x0 DUP1 REVERT JUMPDEST POP PUSH2 0x21A PUSH2 0x848 JUMP JUMPDEST PUSH1 0x40 MLOAD PUSH2 0x227 SWAP2 SWAP1 PUSH2 0x1668 JUMP JUMPDEST PUSH1 0x40 MLOAD DUP1 SWAP2 SUB SWAP1 RETURN JUMPDEST CALLVALUE DUP1 ISZERO PUSH2 0x23C JUMPI PUSH1 0x0 DUP1 REVERT JUMPDEST POP PUSH2 0x245 PUSH2 0x86E JUMP JUMPDEST PUSH1 0x40 MLOAD PUSH2 0x252 SWAP2 SWAP1 PUSH2 0x15EB JUMP JUMPDEST PUSH1 0x40 MLOAD DUP1 SWAP2 SUB SWAP1 RETURN JUMPDEST CALLVALUE DUP1 ISZERO PUSH2 0x267 JUMPI PUSH1 0x0 DUP1 REVERT JUMPDEST POP PUSH2 0x270 PUSH2 0x874 JUMP JUMPDEST PUSH1 0x40 MLOAD PUSH2 0x27D SWAP2 SWAP1 PUSH2 0x169F JUMP JUMPDEST PUSH1 0x40 MLOAD DUP1 SWAP2 SUB SWAP1 RETURN JUMPDEST CALLVALUE DUP1 ISZERO PUSH2 0x292 JUMPI PUSH1 0x0 DUP1 REVERT JUMPDEST POP PUSH2 0x2AD PUSH1 0x4 DUP1 CALLDATASIZE SUB DUP2 ADD SWAP1 PUSH2 0x2A8 SWAP2 SWAP1 PUSH2 0x1566 JUMP JUMPDEST PUSH2 0x87D JUMP JUMPDEST PUSH1 0x40 MLOAD PUSH2 0x2BA SWAP2 SWAP1 PUSH2 0x15C1 JUMP JUMPDEST PUSH1 0x40 MLOAD DUP1 SWAP2 SUB SWAP1 RETURN JUMPDEST CALLVALUE DUP1 ISZERO PUSH2 0x2CF JUMPI PUSH1 0x0 DUP1 REVERT JUMPDEST POP PUSH2 0x2EA PUSH1 0x4 DUP1 CALLDATASIZE SUB DUP2 ADD SWAP1 PUSH2 0x2E5 SWAP2 SWAP1 PUSH2 0x16BA JUMP JUMPDEST PUSH2 0x8B4 JUMP JUMPDEST PUSH1 0x40 MLOAD PUSH2 0x2F7 SWAP2 SWAP1 PUSH2 0x15EB JUMP JUMPDEST PUSH1 0x40 MLOAD DUP1 SWAP2 SUB SWAP1 RETURN JUMPDEST CALLVALUE DUP1 ISZERO PUSH2 0x30C JUMPI PUSH1 0x0 DUP1 REVERT JUMPDEST POP PUSH2 0x315 PUSH2 0x8FC JUMP JUMPDEST STOP JUMPDEST CALLVALUE DUP1 ISZERO PUSH2 0x323 JUMPI PUSH1 0x0 DUP1 REVERT JUMPDEST POP PUSH2 0x32C PUSH2 0x910 JUMP JUMPDEST PUSH1 0x40 MLOAD PUSH2 0x339 SWAP2 SWAP1 PUSH2 0x1668 JUMP JUMPDEST PUSH1 0x40 MLOAD DUP1 SWAP2 SUB SWAP1 RETURN JUMPDEST CALLVALUE DUP1 ISZERO PUSH2 0x34E JUMPI PUSH1 0x0 DUP1 REVERT JUMPDEST POP PUSH2 0x357 PUSH2 0x93A JUMP JUMPDEST PUSH1 0x40 MLOAD PUSH2 0x364 SWAP2 SWAP1 PUSH2 0x130B JUMP JUMPDEST PUSH1 0x40 MLOAD DUP1 SWAP2 SUB SWAP1 RETURN JUMPDEST CALLVALUE DUP1 ISZERO PUSH2 0x379 JUMPI PUSH1 0x0 DUP1 REVERT JUMPDEST POP PUSH2 0x394 PUSH1 0x4 DUP1 CALLDATASIZE SUB DUP2 ADD SWAP1 PUSH2 0x38F SWAP2 SWAP1 PUSH2 0x1566 JUMP JUMPDEST PUSH2 0x9CC JUMP JUMPDEST PUSH1 0x40 MLOAD PUSH2 0x3A1 SWAP2 SWAP1 PUSH2 0x15C1 JUMP JUMPDEST PUSH1 0x40 MLOAD DUP1 SWAP2 SUB SWAP1 RETURN JUMPDEST CALLVALUE DUP1 ISZERO PUSH2 0x3B6 JUMPI PUSH1 0x0 DUP1 REVERT JUMPDEST POP PUSH2 0x3D1 PUSH1 0x4 DUP1 CALLDATASIZE SUB DUP2 ADD SWAP1 PUSH2 0x3CC SWAP2 SWAP1 PUSH2 0x16BA JUMP JUMPDEST PUSH2 0xA43 JUMP JUMPDEST PUSH1 0x40 MLOAD PUSH2 0x3E3 SWAP7 SWAP6 SWAP5 SWAP4 SWAP3 SWAP2 SWAP1 PUSH2 0x16E7 JUMP JUMPDEST PUSH1 0x40 MLOAD DUP1 SWAP2 SUB SWAP1 RETURN JUMPDEST CALLVALUE DUP1 ISZERO PUSH2 0x3F8 JUMPI PUSH1 0x0 DUP1 REVERT JUMPDEST POP PUSH2 0x413 PUSH1 0x4 DUP1 CALLDATASIZE SUB DUP2 ADD SWAP1 PUSH2 0x40E SWAP2 SWAP1 PUSH2 0x1566 JUMP JUMPDEST PUSH2 0xB27 JUMP JUMPDEST PUSH1 0x40 MLOAD PUSH2 0x420 SWAP2 SWAP1 PUSH2 0x15C1 JUMP JUMPDEST PUSH1 0x40 MLOAD DUP1 SWAP2 SUB SWAP1 RETURN JUMPDEST CALLVALUE DUP1 ISZERO PUSH2 0x435 JUMPI PUSH1 0x0 DUP1 REVERT JUMPDEST POP PUSH2 0x43E PUSH2 0xB4A JUMP JUMPDEST PUSH1 0x40 MLOAD PUSH2 0x44B SWAP2 SWAP1 PUSH2 0x15EB JUMP JUMPDEST PUSH1 0x40 MLOAD DUP1 SWAP2 SUB SWAP1 RETURN JUMPDEST CALLVALUE DUP1 ISZERO PUSH2 0x460 JUMPI PUSH1 0x0 DUP1 REVERT JUMPDEST POP PUSH2 0x47B PUSH1 0x4 DUP1 CALLDATASIZE SUB DUP2 ADD SWAP1 PUSH2 0x476 SWAP2 SWAP1 PUSH2 0x174F JUMP JUMPDEST PUSH2 0xB50 JUMP JUMPDEST PUSH1 0x40 MLOAD PUSH2 0x488 SWAP2 SWAP1 PUSH2 0x15EB JUMP JUMPDEST PUSH1 0x40 MLOAD DUP1 SWAP2 SUB SWAP1 RETURN JUMPDEST CALLVALUE DUP1 ISZERO PUSH2 0x49D JUMPI PUSH1 0x0 DUP1 REVERT JUMPDEST POP PUSH2 0x4B8 PUSH1 0x4 DUP1 CALLDATASIZE SUB DUP2 ADD SWAP1 PUSH2 0x4B3 SWAP2 SWAP1 PUSH2 0x16BA JUMP JUMPDEST PUSH2 0xBD7 JUMP JUMPDEST STOP JUMPDEST PUSH1 0x60 PUSH1 0x3 DUP1 SLOAD PUSH2 0x4C9 SWAP1 PUSH2 0x17BE JUMP JUMPDEST DUP1 PUSH1 0x1F ADD PUSH1 0x20 DUP1 SWAP2 DIV MUL PUSH1 0x20 ADD PUSH1 0x40 MLOAD SWAP1 DUP2 ADD PUSH1 0x40 MSTORE DUP1 SWAP3 SWAP2 SWAP1 DUP2 DUP2 MSTORE PUSH1 0x20 ADD DUP3 DUP1 SLOAD PUSH2 0x4F5 SWAP1 PUSH2 0x17BE JUMP JUMPDEST DUP1 ISZERO PUSH2 0x542 JUMPI DUP1 PUSH1 0x1F LT PUSH2 0x517 JUMPI PUSH2 0x100 DUP1 DUP4 SLOAD DIV MUL DUP4 MSTORE SWAP2 PUSH1 0x20 ADD SWAP2 PUSH2 0x542 JUMP JUMPDEST DUP3 ADD SWAP2 SWAP1 PUSH1 0x0 MSTORE PUSH1 0x20 PUSH1 0x0 KECCAK256 SWAP1 JUMPDEST DUP2 SLOAD DUP2 MSTORE SWAP1 PUSH1 0x1 ADD SWAP1 PUSH1 0x20 ADD DUP1 DUP4 GT PUSH2 0x525 JUMPI DUP3 SWAP1 SUB PUSH1 0x1F AND DUP3 ADD SWAP2 JUMPDEST POP POP POP POP POP SWAP1 POP SWAP1 JUMP JUMPDEST PUSH1 0x12 DUP2 LT ISZERO PUSH2 0x590 JUMPI PUSH1 0x40 MLOAD PUSH32 0x8C379A000000000000000000000000000000000000000000000000000000000 DUP2 MSTORE PUSH1 0x4 ADD PUSH2 0x587 SWAP1 PUSH2 0x183B JUMP JUMPDEST PUSH1 0x40 MLOAD DUP1 SWAP2 SUB SWAP1 REVERT JUMPDEST PUSH1 0x0 PUSH2 0x59B CALLER PUSH2 0x8B4 JUMP JUMPDEST GT ISZERO PUSH2 0x5DC JUMPI PUSH1 0x40 MLOAD PUSH32 0x8C379A000000000000000000000000000000000000000000000000000000000 DUP2 MSTORE PUSH1 0x4 ADD PUSH2 0x5D3 SWAP1 PUSH2 0x18A7 JUMP JUMPDEST PUSH1 0x40 MLOAD DUP1 SWAP2 SUB SWAP1 REVERT JUMPDEST PUSH1 0x0 PUSH1 0x9 PUSH1 0x0 CALLER PUSH20 0xFFFFFFFFFFFFFFFFFFFFFFFFFFFFFFFFFFFFFFFF AND PUSH20 0xFFFFFFFFFFFFFFFFFFFFFFFFFFFFFFFFFFFFFFFF AND DUP2 MSTORE PUSH1 0x20 ADD SWAP1 DUP2 MSTORE PUSH1 0x20 ADD PUSH1 0x0 KECCAK256 PUSH1 0x4 ADD SLOAD GT ISZERO PUSH2 0x662 JUMPI PUSH1 0x40 MLOAD PUSH32 0x8C379A000000000000000000000000000000000000000000000000000000000 DUP2 MSTORE PUSH1 0x4 ADD PUSH2 0x659 SWAP1 PUSH2 0x1913 JUMP JUMPDEST PUSH1 0x40 MLOAD DUP1 SWAP2 SUB SWAP1 REVERT JUMPDEST PUSH1 0x0 PUSH2 0x66D CALLER PUSH2 0x8B4 JUMP JUMPDEST SWAP1 POP PUSH2 0x69D CALLER PUSH1 0x6 PUSH1 0x0 SWAP1 SLOAD SWAP1 PUSH2 0x100 EXP SWAP1 DIV PUSH20 0xFFFFFFFFFFFFFFFFFFFFFFFFFFFFFFFFFFFFFFFF AND PUSH1 0x0 PUSH2 0x819 JUMP JUMPDEST POP PUSH1 0x40 MLOAD DUP1 PUSH1 0xC0 ADD PUSH1 0x40 MSTORE DUP1 DUP5 DUP2 MSTORE PUSH1 0x20 ADD CALLER PUSH20 0xFFFFFFFFFFFFFFFFFFFFFFFFFFFFFFFFFFFFFFFF AND DUP2 MSTORE PUSH1 0x20 ADD DUP4 DUP2 MSTORE PUSH1 0x20 ADD DUP3 DUP2 MSTORE PUSH1 0x20 ADD TIMESTAMP DUP2 MSTORE PUSH1 0x20 ADD PUSH4 0x1E1853E TIMESTAMP PUSH2 0x6ED SWAP2 SWAP1 PUSH2 0x1962 JUMP JUMPDEST DUP2 MSTORE POP PUSH1 0x9 PUSH1 0x0 CALLER PUSH20 0xFFFFFFFFFFFFFFFFFFFFFFFFFFFFFFFFFFFFFFFF AND PUSH20 0xFFFFFFFFFFFFFFFFFFFFFFFFFFFFFFFFFFFFFFFF AND DUP2 MSTORE PUSH1 0x20 ADD SWAP1 DUP2 MSTORE PUSH1 0x20 ADD PUSH1 0x0 KECCAK256 PUSH1 0x0 DUP3 ADD MLOAD DUP2 PUSH1 0x0 ADD SWAP1 DUP2 PUSH2 0x744 SWAP2 SWAP1 PUSH2 0x1B42 JUMP JUMPDEST POP PUSH1 0x20 DUP3 ADD MLOAD DUP2 PUSH1 0x1 ADD PUSH1 0x0 PUSH2 0x100 EXP DUP2 SLOAD DUP2 PUSH20 0xFFFFFFFFFFFFFFFFFFFFFFFFFFFFFFFFFFFFFFFF MUL NOT AND SWAP1 DUP4 PUSH20 0xFFFFFFFFFFFFFFFFFFFFFFFFFFFFFFFFFFFFFFFF AND MUL OR SWAP1 SSTORE POP PUSH1 0x40 DUP3 ADD MLOAD DUP2 PUSH1 0x2 ADD SSTORE PUSH1 0x60 DUP3 ADD MLOAD DUP2 PUSH1 0x3 ADD SSTORE PUSH1 0x80 DUP3 ADD MLOAD DUP2 PUSH1 0x4 ADD SSTORE PUSH1 0xA0 DUP3 ADD MLOAD DUP2 PUSH1 0x5 ADD SSTORE SWAP1 POP POP PUSH1 0x8 PUSH1 0x0 DUP2 SLOAD DUP1 SWAP3 SWAP2 SWAP1 PUSH2 0x7CA SWAP1 PUSH2 0x1C14 JUMP JUMPDEST SWAP2 SWAP1 POP SSTORE POP PUSH1 0x7 PUSH1 0x0 DUP2 SLOAD DUP1 SWAP3 SWAP2 SWAP1 PUSH2 0x7E2 SWAP1 PUSH2 0x1C14 JUMP JUMPDEST SWAP2 SWAP1 POP SSTORE POP POP POP POP JUMP JUMPDEST PUSH1 0x0 DUP1 PUSH2 0x7F7 PUSH2 0xC5A JUMP JUMPDEST SWAP1 POP PUSH2 0x804 DUP2 DUP6 DUP6 PUSH2 0xC62 JUMP JUMPDEST PUSH1 0x1 SWAP2 POP POP SWAP3 SWAP2 POP POP JUMP JUMPDEST PUSH1 0x0 PUSH1 0x2 SLOAD SWAP1 POP SWAP1 JUMP JUMPDEST PUSH1 0x0 DUP1 PUSH2 0x824 PUSH2 0xC5A JUMP JUMPDEST SWAP1 POP PUSH2 0x831 DUP6 DUP3 DUP6 PUSH2 0xE2B JUMP JUMPDEST PUSH2 0x83C DUP6 DUP6 DUP6 PUSH2 0xEB7 JUMP JUMPDEST PUSH1 0x1 SWAP2 POP POP SWAP4 SWAP3 POP POP POP JUMP JUMPDEST PUSH1 0x6 PUSH1 0x0 SWAP1 SLOAD SWAP1 PUSH2 0x100 EXP SWAP1 DIV PUSH20 0xFFFFFFFFFFFFFFFFFFFFFFFFFFFFFFFFFFFFFFFF AND DUP2 JUMP JUMPDEST PUSH1 0x7 SLOAD DUP2 JUMP JUMPDEST PUSH1 0x0 PUSH1 0x12 SWAP1 POP SWAP1 JUMP JUMPDEST PUSH1 0x0 DUP1 PUSH2 0x888 PUSH2 0xC5A JUMP JUMPDEST SWAP1 POP PUSH2 0x8A9 DUP2 DUP6 DUP6 PUSH2 0x89A DUP6 DUP10 PUSH2 0xB50 JUMP JUMPDEST PUSH2 0x8A4 SWAP2 SWAP1 PUSH2 0x1962 JUMP JUMPDEST PUSH2 0xC62 JUMP JUMPDEST PUSH1 0x1 SWAP2 POP POP SWAP3 SWAP2 POP POP JUMP JUMPDEST PUSH1 0x0 DUP1 PUSH1 0x0 DUP4 PUSH20 0xFFFFFFFFFFFFFFFFFFFFFFFFFFFFFFFFFFFFFFFF AND PUSH20 0xFFFFFFFFFFFFFFFFFFFFFFFFFFFFFFFFFFFFFFFF AND DUP2 MSTORE PUSH1 0x20 ADD SWAP1 DUP2 MSTORE PUSH1 0x20 ADD PUSH1 0x0 KECCAK256 SLOAD SWAP1 POP SWAP2 SWAP1 POP JUMP JUMPDEST PUSH2 0x904 PUSH2 0x112D JUMP JUMPDEST PUSH2 0x90E PUSH1 0x0 PUSH2 0x11AB JUMP JUMPDEST JUMP JUMPDEST PUSH1 0x0 PUSH1 0x5 PUSH1 0x0 SWAP1 SLOAD SWAP1 PUSH2 0x100 EXP SWAP1 DIV PUSH20 0xFFFFFFFFFFFFFFFFFFFFFFFFFFFFFFFFFFFFFFFF AND SWAP1 POP SWAP1 JUMP JUMPDEST PUSH1 0x60 PUSH1 0x4 DUP1 SLOAD PUSH2 0x949 SWAP1 PUSH2 0x17BE JUMP JUMPDEST DUP1 PUSH1 0x1F ADD PUSH1 0x20 DUP1 SWAP2 DIV MUL PUSH1 0x20 ADD PUSH1 0x40 MLOAD SWAP1 DUP2 ADD PUSH1 0x40 MSTORE DUP1 SWAP3 SWAP2 SWAP1 DUP2 DUP2 MSTORE PUSH1 0x20 ADD DUP3 DUP1 SLOAD PUSH2 0x975 SWAP1 PUSH2 0x17BE JUMP JUMPDEST DUP1 ISZERO PUSH2 0x9C2 JUMPI DUP1 PUSH1 0x1F LT PUSH2 0x997 JUMPI PUSH2 0x100 DUP1 DUP4 SLOAD DIV MUL DUP4 MSTORE SWAP2 PUSH1 0x20 ADD SWAP2 PUSH2 0x9C2 JUMP JUMPDEST DUP3 ADD SWAP2 SWAP1 PUSH1 0x0 MSTORE PUSH1 0x20 PUSH1 0x0 KECCAK256 SWAP1 JUMPDEST DUP2 SLOAD DUP2 MSTORE SWAP1 PUSH1 0x1 ADD SWAP1 PUSH1 0x20 ADD DUP1 DUP4 GT PUSH2 0x9A5 JUMPI DUP3 SWAP1 SUB PUSH1 0x1F AND DUP3 ADD SWAP2 JUMPDEST POP POP POP POP POP SWAP1 POP SWAP1 JUMP JUMPDEST PUSH1 0x0 DUP1 PUSH2 0x9D7 PUSH2 0xC5A JUMP JUMPDEST SWAP1 POP PUSH1 0x0 PUSH2 0x9E5 DUP3 DUP7 PUSH2 0xB50 JUMP JUMPDEST SWAP1 POP DUP4 DUP2 LT ISZERO PUSH2 0xA2A JUMPI PUSH1 0x40 MLOAD PUSH32 0x8C379A000000000000000000000000000000000000000000000000000000000 DUP2 MSTORE PUSH1 0x4 ADD PUSH2 0xA21 SWAP1 PUSH2 0x1CCE JUMP JUMPDEST PUSH1 0x40 MLOAD DUP1 SWAP2 SUB SWAP1 REVERT JUMPDEST PUSH2 0xA37 DUP3 DUP7 DUP7 DUP5 SUB PUSH2 0xC62 JUMP JUMPDEST PUSH1 0x1 SWAP3 POP POP POP SWAP3 SWAP2 POP POP JUMP JUMPDEST PUSH1 0x9 PUSH1 0x20 MSTORE DUP1 PUSH1 0x0 MSTORE PUSH1 0x40 PUSH1 0x0 KECCAK256 PUSH1 0x0 SWAP2 POP SWAP1 POP DUP1 PUSH1 0x0 ADD DUP1 SLOAD PUSH2 0xA66 SWAP1 PUSH2 0x17BE JUMP JUMPDEST DUP1 PUSH1 0x1F ADD PUSH1 0x20 DUP1 SWAP2 DIV MUL PUSH1 0x20 ADD PUSH1 0x40 MLOAD SWAP1 DUP2 ADD PUSH1 0x40 MSTORE DUP1 SWAP3 SWAP2 SWAP1 DUP2 DUP2 MSTORE PUSH1 0x20 ADD DUP3 DUP1 SLOAD PUSH2 0xA92 SWAP1 PUSH2 0x17BE JUMP JUMPDEST DUP1 ISZERO PUSH2 0xADF JUMPI DUP1 PUSH1 0x1F LT PUSH2 0xAB4 JUMPI PUSH2 0x100 DUP1 DUP4 SLOAD DIV MUL DUP4 MSTORE SWAP2 PUSH1 0x20 ADD SWAP2 PUSH2 0xADF JUMP JUMPDEST DUP3 ADD SWAP2 SWAP1 PUSH1 0x0 MSTORE PUSH1 0x20 PUSH1 0x0 KECCAK256 SWAP1 JUMPDEST DUP2 SLOAD DUP2 MSTORE SWAP1 PUSH1 0x1 ADD SWAP1 PUSH1 0x20 ADD DUP1 DUP4 GT PUSH2 0xAC2 JUMPI DUP3 SWAP1 SUB PUSH1 0x1F AND DUP3 ADD SWAP2 JUMPDEST POP POP POP POP POP SWAP1 DUP1 PUSH1 0x1 ADD PUSH1 0x0 SWAP1 SLOAD SWAP1 PUSH2 0x100 EXP SWAP1 DIV PUSH20 0xFFFFFFFFFFFFFFFFFFFFFFFFFFFFFFFFFFFFFFFF AND SWAP1 DUP1 PUSH1 0x2 ADD SLOAD SWAP1 DUP1 PUSH1 0x3 ADD SLOAD SWAP1 DUP1 PUSH1 0x4 ADD SLOAD SWAP1 DUP1 PUSH1 0x5 ADD SLOAD SWAP1 POP DUP7 JUMP JUMPDEST PUSH1 0x0 DUP1 PUSH2 0xB32 PUSH2 0xC5A JUMP JUMPDEST SWAP1 POP PUSH2 0xB3F DUP2 DUP6 DUP6 PUSH2 0xEB7 JUMP JUMPDEST PUSH1 0x1 SWAP2 POP POP SWAP3 SWAP2 POP POP JUMP JUMPDEST PUSH1 0x8 SLOAD DUP2 JUMP JUMPDEST PUSH1 0x0 PUSH1 0x1 PUSH1 0x0 DUP5 PUSH20 0xFFFFFFFFFFFFFFFFFFFFFFFFFFFFFFFFFFFFFFFF AND PUSH20 0xFFFFFFFFFFFFFFFFFFFFFFFFFFFFFFFFFFFFFFFF AND DUP2 MSTORE PUSH1 0x20 ADD SWAP1 DUP2 MSTORE PUSH1 0x20 ADD PUSH1 0x0 KECCAK256 PUSH1 0x0 DUP4 PUSH20 0xFFFFFFFFFFFFFFFFFFFFFFFFFFFFFFFFFFFFFFFF AND PUSH20 0xFFFFFFFFFFFFFFFFFFFFFFFFFFFFFFFFFFFFFFFF AND DUP2 MSTORE PUSH1 0x20 ADD SWAP1 DUP2 MSTORE PUSH1 0x20 ADD PUSH1 0x0 KECCAK256 SLOAD SWAP1 POP SWAP3 SWAP2 POP POP JUMP JUMPDEST PUSH2 0xBDF PUSH2 0x112D JUMP JUMPDEST PUSH1 0x0 PUSH20 0xFFFFFFFFFFFFFFFFFFFFFFFFFFFFFFFFFFFFFFFF AND DUP2 PUSH20 0xFFFFFFFFFFFFFFFFFFFFFFFFFFFFFFFFFFFFFFFF AND SUB PUSH2 0xC4E JUMPI PUSH1 0x40 MLOAD PUSH32 0x8C379A000000000000000000000000000000000000000000000000000000000 DUP2 MSTORE PUSH1 0x4 ADD PUSH2 0xC45 SWAP1 PUSH2 0x1D60 JUMP JUMPDEST PUSH1 0x40 MLOAD DUP1 SWAP2 SUB SWAP1 REVERT JUMPDEST PUSH2 0xC57 DUP2 PUSH2 0x11AB JUMP JUMPDEST POP JUMP JUMPDEST PUSH1 0x0 CALLER SWAP1 POP SWAP1 JUMP JUMPDEST PUSH1 0x0 PUSH20 0xFFFFFFFFFFFFFFFFFFFFFFFFFFFFFFFFFFFFFFFF AND DUP4 PUSH20 0xFFFFFFFFFFFFFFFFFFFFFFFFFFFFFFFFFFFFFFFF AND SUB PUSH2 0xCD1 JUMPI PUSH1 0x40 MLOAD PUSH32 0x8C379A000000000000000000000000000000000000000000000000000000000 DUP2 MSTORE PUSH1 0x4 ADD PUSH2 0xCC8 SWAP1 PUSH2 0x1DF2 JUMP JUMPDEST PUSH1 0x40 MLOAD DUP1 SWAP2 SUB SWAP1 REVERT JUMPDEST PUSH1 0x0 PUSH20 0xFFFFFFFFFFFFFFFFFFFFFFFFFFFFFFFFFFFFFFFF AND DUP3 PUSH20 0xFFFFFFFFFFFFFFFFFFFFFFFFFFFFFFFFFFFFFFFF AND SUB PUSH2 0xD40 JUMPI PUSH1 0x40 MLOAD PUSH32 0x8C379A000000000000000000000000000000000000000000000000000000000 DUP2 MSTORE PUSH1 0x4 ADD PUSH2 0xD37 SWAP1 PUSH2 0x1E84 JUMP JUMPDEST PUSH1 0x40 MLOAD DUP1 SWAP2 SUB SWAP1 REVERT JUMPDEST DUP1 PUSH1 0x1 PUSH1 0x0 DUP6 PUSH20 0xFFFFFFFFFFFFFFFFFFFFFFFFFFFFFFFFFFFFFFFF AND PUSH20 0xFFFFFFFFFFFFFFFFFFFFFFFFFFFFFFFFFFFFFFFF AND DUP2 MSTORE PUSH1 0x20 ADD SWAP1 DUP2 MSTORE PUSH1 0x20 ADD PUSH1 0x0 KECCAK256 PUSH1 0x0 DUP5 PUSH20 0xFFFFFFFFFFFFFFFFFFFFFFFFFFFFFFFFFFFFFFFF AND PUSH20 0xFFFFFFFFFFFFFFFFFFFFFFFFFFFFFFFFFFFFFFFF AND DUP2 MSTORE PUSH1 0x20 ADD SWAP1 DUP2 MSTORE PUSH1 0x20 ADD PUSH1 0x0 KECCAK256 DUP2 SWAP1 SSTORE POP DUP2 PUSH20 0xFFFFFFFFFFFFFFFFFFFFFFFFFFFFFFFFFFFFFFFF AND DUP4 PUSH20 0xFFFFFFFFFFFFFFFFFFFFFFFFFFFFFFFFFFFFFFFF AND PUSH32 0x8C5BE1E5EBEC7D5BD14F71427D1E84F3DD0314C0F7B2291E5B200AC8C7C3B925 DUP4 PUSH1 0x40 MLOAD PUSH2 0xE1E SWAP2 SWAP1 PUSH2 0x15EB JUMP JUMPDEST PUSH1 0x40 MLOAD DUP1 SWAP2 SUB SWAP1 LOG3 POP POP POP JUMP JUMPDEST PUSH1 0x0 PUSH2 0xE37 DUP5 DUP5 PUSH2 0xB50 JUMP JUMPDEST SWAP1 POP PUSH32 0xFFFFFFFFFFFFFFFFFFFFFFFFFFFFFFFFFFFFFFFFFFFFFFFFFFFFFFFFFFFFFFFF DUP2 EQ PUSH2 0xEB1 JUMPI DUP2 DUP2 LT ISZERO PUSH2 0xEA3 JUMPI PUSH1 0x40 MLOAD PUSH32 0x8C379A000000000000000000000000000000000000000000000000000000000 DUP2 MSTORE PUSH1 0x4 ADD PUSH2 0xE9A SWAP1 PUSH2 0x1EF0 JUMP JUMPDEST PUSH1 0x40 MLOAD DUP1 SWAP2 SUB SWAP1 REVERT JUMPDEST PUSH2 0xEB0 DUP5 DUP5 DUP5 DUP5 SUB PUSH2 0xC62 JUMP JUMPDEST JUMPDEST POP POP POP POP JUMP JUMPDEST PUSH1 0x0 PUSH20 0xFFFFFFFFFFFFFFFFFFFFFFFFFFFFFFFFFFFFFFFF AND DUP4 PUSH20 0xFFFFFFFFFFFFFFFFFFFFFFFFFFFFFFFFFFFFFFFF AND SUB PUSH2 0xF26 JUMPI PUSH1 0x40 MLOAD PUSH32 0x8C379A000000000000000000000000000000000000000000000000000000000 DUP2 MSTORE PUSH1 0x4 ADD PUSH2 0xF1D SWAP1 PUSH2 0x1F82 JUMP JUMPDEST PUSH1 0x40 MLOAD DUP1 SWAP2 SUB SWAP1 REVERT JUMPDEST PUSH1 0x0 PUSH20 0xFFFFFFFFFFFFFFFFFFFFFFFFFFFFFFFFFFFFFFFF AND DUP3 PUSH20 0xFFFFFFFFFFFFFFFFFFFFFFFFFFFFFFFFFFFFFFFF AND SUB PUSH2 0xF95 JUMPI PUSH1 0x40 MLOAD PUSH32 0x8C379A000000000000000000000000000000000000000000000000000000000 DUP2 MSTORE PUSH1 0x4 ADD PUSH2 0xF8C SWAP1 PUSH2 0x2014 JUMP JUMPDEST PUSH1 0x40 MLOAD DUP1 SWAP2 SUB SWAP1 REVERT JUMPDEST PUSH2 0xFA0 DUP4 DUP4 DUP4 PUSH2 0x1271 JUMP JUMPDEST PUSH1 0x0 DUP1 PUSH1 0x0 DUP6 PUSH20 0xFFFFFFFFFFFFFFFFFFFFFFFFFFFFFFFFFFFFFFFF AND PUSH20 0xFFFFFFFFFFFFFFFFFFFFFFFFFFFFFFFFFFFFFFFF AND DUP2 MSTORE PUSH1 0x20 ADD SWAP1 DUP2 MSTORE PUSH1 0x20 ADD PUSH1 0x0 KECCAK256 SLOAD SWAP1 POP DUP2 DUP2 LT ISZERO PUSH2 0x1026 JUMPI PUSH1 0x40 MLOAD PUSH32 0x8C379A000000000000000000000000000000000000000000000000000000000 DUP2 MSTORE PUSH1 0x4 ADD PUSH2 0x101D SWAP1 PUSH2 0x20A6 JUMP JUMPDEST PUSH1 0x40 MLOAD DUP1 SWAP2 SUB SWAP1 REVERT JUMPDEST DUP2 DUP2 SUB PUSH1 0x0 DUP1 DUP7 PUSH20 0xFFFFFFFFFFFFFFFFFFFFFFFFFFFFFFFFFFFFFFFF AND PUSH20 0xFFFFFFFFFFFFFFFFFFFFFFFFFFFFFFFFFFFFFFFF AND DUP2 MSTORE PUSH1 0x20 ADD SWAP1 DUP2 MSTORE PUSH1 0x20 ADD PUSH1 0x0 KECCAK256 DUP2 SWAP1 SSTORE POP DUP2 PUSH1 0x0 DUP1 DUP6 PUSH20 0xFFFFFFFFFFFFFFFFFFFFFFFFFFFFFFFFFFFFFFFF AND PUSH20 0xFFFFFFFFFFFFFFFFFFFFFFFFFFFFFFFFFFFFFFFF AND DUP2 MSTORE PUSH1 0x20 ADD SWAP1 DUP2 MSTORE PUSH1 0x20 ADD PUSH1 0x0 KECCAK256 PUSH1 0x0 DUP3 DUP3 SLOAD ADD SWAP3 POP POP DUP2 SWAP1 SSTORE POP DUP3 PUSH20 0xFFFFFFFFFFFFFFFFFFFFFFFFFFFFFFFFFFFFFFFF AND DUP5 PUSH20 0xFFFFFFFFFFFFFFFFFFFFFFFFFFFFFFFFFFFFFFFF AND PUSH32 0xDDF252AD1BE2C89B69C2B068FC378DAA952BA7F163C4A11628F55A4DF523B3EF DUP5 PUSH1 0x40 MLOAD PUSH2 0x1114 SWAP2 SWAP1 PUSH2 0x15EB JUMP JUMPDEST PUSH1 0x40 MLOAD DUP1 SWAP2 SUB SWAP1 LOG3 PUSH2 0x1127 DUP5 DUP5 DUP5 PUSH2 0x1276 JUMP JUMPDEST POP POP POP POP JUMP JUMPDEST PUSH2 0x1135 PUSH2 0xC5A JUMP JUMPDEST PUSH20 0xFFFFFFFFFFFFFFFFFFFFFFFFFFFFFFFFFFFFFFFF AND PUSH2 0x1153 PUSH2 0x910 JUMP JUMPDEST PUSH20 0xFFFFFFFFFFFFFFFFFFFFFFFFFFFFFFFFFFFFFFFF AND EQ PUSH2 0x11A9 JUMPI PUSH1 0x40 MLOAD PUSH32 0x8C379A000000000000000000000000000000000000000000000000000000000 DUP2 MSTORE PUSH1 0x4 ADD PUSH2 0x11A0 SWAP1 PUSH2 0x2112 JUMP JUMPDEST PUSH1 0x40 MLOAD DUP1 SWAP2 SUB SWAP1 REVERT JUMPDEST JUMP JUMPDEST PUSH1 0x0 PUSH1 0x5 PUSH1 0x0 SWAP1 SLOAD SWAP1 PUSH2 0x100 EXP SWAP1 DIV PUSH20 0xFFFFFFFFFFFFFFFFFFFFFFFFFFFFFFFFFFFFFFFF AND SWAP1 POP DUP2 PUSH1 0x5 PUSH1 0x0 PUSH2 0x100 EXP DUP2 SLOAD DUP2 PUSH20 0xFFFFFFFFFFFFFFFFFFFFFFFFFFFFFFFFFFFFFFFF MUL NOT AND SWAP1 DUP4 PUSH20 0xFFFFFFFFFFFFFFFFFFFFFFFFFFFFFFFFFFFFFFFF AND MUL OR SWAP1 SSTORE POP DUP2 PUSH20 0xFFFFFFFFFFFFFFFFFFFFFFFFFFFFFFFFFFFFFFFF AND DUP2 PUSH20 0xFFFFFFFFFFFFFFFFFFFFFFFFFFFFFFFFFFFFFFFF AND PUSH32 0x8BE0079C531659141344CD1FD0A4F28419497F9722A3DAAFE3B4186F6B6457E0 PUSH1 0x40 MLOAD PUSH1 0x40 MLOAD DUP1 SWAP2 SUB SWAP1 LOG3 POP POP JUMP JUMPDEST POP POP POP JUMP JUMPDEST POP POP POP JUMP JUMPDEST PUSH1 0x0 DUP2 MLOAD SWAP1 POP SWAP2 SWAP1 POP JUMP JUMPDEST PUSH1 0x0 DUP3 DUP3 MSTORE PUSH1 0x20 DUP3 ADD SWAP1 POP SWAP3 SWAP2 POP POP JUMP JUMPDEST PUSH1 0x0 JUMPDEST DUP4 DUP2 LT ISZERO PUSH2 0x12B5 JUMPI DUP1 DUP3 ADD MLOAD DUP2 DUP5 ADD MSTORE PUSH1 0x20 DUP2 ADD SWAP1 POP PUSH2 0x129A JUMP JUMPDEST PUSH1 0x0 DUP5 DUP5 ADD MSTORE POP POP POP POP JUMP JUMPDEST PUSH1 0x0 PUSH1 0x1F NOT PUSH1 0x1F DUP4 ADD AND SWAP1 POP SWAP2 SWAP1 POP JUMP JUMPDEST PUSH1 0x0 PUSH2 0x12DD DUP3 PUSH2 0x127B JUMP JUMPDEST PUSH2 0x12E7 DUP2 DUP6 PUSH2 0x1286 JUMP JUMPDEST SWAP4 POP PUSH2 0x12F7 DUP2 DUP6 PUSH1 0x20 DUP7 ADD PUSH2 0x1297 JUMP JUMPDEST PUSH2 0x1300 DUP2 PUSH2 0x12C1 JUMP JUMPDEST DUP5 ADD SWAP2 POP POP SWAP3 SWAP2 POP POP JUMP JUMPDEST PUSH1 0x0 PUSH1 0x20 DUP3 ADD SWAP1 POP DUP2 DUP2 SUB PUSH1 0x0 DUP4 ADD MSTORE PUSH2 0x1325 DUP2 DUP5 PUSH2 0x12D2 JUMP JUMPDEST SWAP1 POP SWAP3 SWAP2 POP POP JUMP JUMPDEST PUSH1 0x0 PUSH1 0x40 MLOAD SWAP1 POP SWAP1 JUMP JUMPDEST PUSH1 0x0 DUP1 REVERT JUMPDEST PUSH1 0x0 DUP1 REVERT JUMPDEST PUSH1 0x0 DUP1 REVERT JUMPDEST PUSH1 0x0 DUP1 REVERT JUMPDEST PUSH32 0x4E487B7100000000000000000000000000000000000000000000000000000000 PUSH1 0x0 MSTORE PUSH1 0x41 PUSH1 0x4 MSTORE PUSH1 0x24 PUSH1 0x0 REVERT JUMPDEST PUSH2 0x1383 DUP3 PUSH2 0x12C1 JUMP JUMPDEST DUP2 ADD DUP2 DUP2 LT PUSH8 0xFFFFFFFFFFFFFFFF DUP3 GT OR ISZERO PUSH2 0x13A2 JUMPI PUSH2 0x13A1 PUSH2 0x134B JUMP JUMPDEST JUMPDEST DUP1 PUSH1 0x40 MSTORE POP POP POP JUMP JUMPDEST PUSH1 0x0 PUSH2 0x13B5 PUSH2 0x132D JUMP JUMPDEST SWAP1 POP PUSH2 0x13C1 DUP3 DUP3 PUSH2 0x137A JUMP JUMPDEST SWAP2 SWAP1 POP JUMP JUMPDEST PUSH1 0x0 PUSH8 0xFFFFFFFFFFFFFFFF DUP3 GT ISZERO PUSH2 0x13E1 JUMPI PUSH2 0x13E0 PUSH2 0x134B JUMP JUMPDEST JUMPDEST PUSH2 0x13EA DUP3 PUSH2 0x12C1 JUMP JUMPDEST SWAP1 POP PUSH1 0x20 DUP2 ADD SWAP1 POP SWAP2 SWAP1 POP JUMP JUMPDEST DUP3 DUP2 DUP4 CALLDATACOPY PUSH1 0x0 DUP4 DUP4 ADD MSTORE POP POP POP JUMP JUMPDEST PUSH1 0x0 PUSH2 0x1419 PUSH2 0x1414 DUP5 PUSH2 0x13C6 JUMP JUMPDEST PUSH2 0x13AB JUMP JUMPDEST SWAP1 POP DUP3 DUP2 MSTORE PUSH1 0x20 DUP2 ADD DUP5 DUP5 DUP5 ADD GT ISZERO PUSH2 0x1435 JUMPI PUSH2 0x1434 PUSH2 0x1346 JUMP JUMPDEST JUMPDEST PUSH2 0x1440 DUP5 DUP3 DUP6 PUSH2 0x13F7 JUMP JUMPDEST POP SWAP4 SWAP3 POP POP POP JUMP JUMPDEST PUSH1 0x0 DUP3 PUSH1 0x1F DUP4 ADD SLT PUSH2 0x145D JUMPI PUSH2 0x145C PUSH2 0x1341 JUMP JUMPDEST JUMPDEST DUP2 CALLDATALOAD PUSH2 0x146D DUP5 DUP3 PUSH1 0x20 DUP7 ADD PUSH2 0x1406 JUMP JUMPDEST SWAP2 POP POP SWAP3 SWAP2 POP POP JUMP JUMPDEST PUSH1 0x0 DUP2 SWAP1 POP SWAP2 SWAP1 POP JUMP JUMPDEST PUSH2 0x1489 DUP2 PUSH2 0x1476 JUMP JUMPDEST DUP2 EQ PUSH2 0x1494 JUMPI PUSH1 0x0 DUP1 REVERT JUMPDEST POP JUMP JUMPDEST PUSH1 0x0 DUP2 CALLDATALOAD SWAP1 POP PUSH2 0x14A6 DUP2 PUSH2 0x1480 JUMP JUMPDEST SWAP3 SWAP2 POP POP JUMP JUMPDEST PUSH1 0x0 DUP1 PUSH1 0x40 DUP4 DUP6 SUB SLT ISZERO PUSH2 0x14C3 JUMPI PUSH2 0x14C2 PUSH2 0x1337 JUMP JUMPDEST JUMPDEST PUSH1 0x0 DUP4 ADD CALLDATALOAD PUSH8 0xFFFFFFFFFFFFFFFF DUP2 GT ISZERO PUSH2 0x14E1 JUMPI PUSH2 0x14E0 PUSH2 0x133C JUMP JUMPDEST JUMPDEST PUSH2 0x14ED DUP6 DUP3 DUP7 ADD PUSH2 0x1448 JUMP JUMPDEST SWAP3 POP POP PUSH1 0x20 PUSH2 0x14FE DUP6 DUP3 DUP7 ADD PUSH2 0x1497 JUMP JUMPDEST SWAP2 POP POP SWAP3 POP SWAP3 SWAP1 POP JUMP JUMPDEST PUSH1 0x0 PUSH20 0xFFFFFFFFFFFFFFFFFFFFFFFFFFFFFFFFFFFFFFFF DUP3 AND SWAP1 POP SWAP2 SWAP1 POP JUMP JUMPDEST PUSH1 0x0 PUSH2 0x1533 DUP3 PUSH2 0x1508 JUMP JUMPDEST SWAP1 POP SWAP2 SWAP1 POP JUMP JUMPDEST PUSH2 0x1543 DUP2 PUSH2 0x1528 JUMP JUMPDEST DUP2 EQ PUSH2 0x154E JUMPI PUSH1 0x0 DUP1 REVERT JUMPDEST POP JUMP JUMPDEST PUSH1 0x0 DUP2 CALLDATALOAD SWAP1 POP PUSH2 0x1560 DUP2 PUSH2 0x153A JUMP JUMPDEST SWAP3 SWAP2 POP POP JUMP JUMPDEST PUSH1 0x0 DUP1 PUSH1 0x40 DUP4 DUP6 SUB SLT ISZERO PUSH2 0x157D JUMPI PUSH2 0x157C PUSH2 0x1337 JUMP JUMPDEST JUMPDEST PUSH1 0x0 PUSH2 0x158B DUP6 DUP3 DUP7 ADD PUSH2 0x1551 JUMP JUMPDEST SWAP3 POP POP PUSH1 0x20 PUSH2 0x159C DUP6 DUP3 DUP7 ADD PUSH2 0x1497 JUMP JUMPDEST SWAP2 POP POP SWAP3 POP SWAP3 SWAP1 POP JUMP JUMPDEST PUSH1 0x0 DUP2 ISZERO ISZERO SWAP1 POP SWAP2 SWAP1 POP JUMP JUMPDEST PUSH2 0x15BB DUP2 PUSH2 0x15A6 JUMP JUMPDEST DUP3 MSTORE POP POP JUMP JUMPDEST PUSH1 0x0 PUSH1 0x20 DUP3 ADD SWAP1 POP PUSH2 0x15D6 PUSH1 0x0 DUP4 ADD DUP5 PUSH2 0x15B2 JUMP JUMPDEST SWAP3 SWAP2 POP POP JUMP JUMPDEST PUSH2 0x15E5 DUP2 PUSH2 0x1476 JUMP JUMPDEST DUP3 MSTORE POP POP JUMP JUMPDEST PUSH1 0x0 PUSH1 0x20 DUP3 ADD SWAP1 POP PUSH2 0x1600 PUSH1 0x0 DUP4 ADD DUP5 PUSH2 0x15DC JUMP JUMPDEST SWAP3 SWAP2 POP POP JUMP JUMPDEST PUSH1 0x0 DUP1 PUSH1 0x0 PUSH1 0x60 DUP5 DUP7 SUB SLT ISZERO PUSH2 0x161F JUMPI PUSH2 0x161E PUSH2 0x1337 JUMP JUMPDEST JUMPDEST PUSH1 0x0 PUSH2 0x162D DUP7 DUP3 DUP8 ADD PUSH2 0x1551 JUMP JUMPDEST SWAP4 POP POP PUSH1 0x20 PUSH2 0x163E DUP7 DUP3 DUP8 ADD PUSH2 0x1551 JUMP JUMPDEST SWAP3 POP POP PUSH1 0x40 PUSH2 0x164F DUP7 DUP3 DUP8 ADD PUSH2 0x1497 JUMP JUMPDEST SWAP2 POP POP SWAP3 POP SWAP3 POP SWAP3 JUMP JUMPDEST PUSH2 0x1662 DUP2 PUSH2 0x1528 JUMP JUMPDEST DUP3 MSTORE POP POP JUMP JUMPDEST PUSH1 0x0 PUSH1 0x20 DUP3 ADD SWAP1 POP PUSH2 0x167D PUSH1 0x0 DUP4 ADD DUP5 PUSH2 0x1659 JUMP JUMPDEST SWAP3 SWAP2 POP POP JUMP JUMPDEST PUSH1 0x0 PUSH1 0xFF DUP3 AND SWAP1 POP SWAP2 SWAP1 POP JUMP JUMPDEST PUSH2 0x1699 DUP2 PUSH2 0x1683 JUMP JUMPDEST DUP3 MSTORE POP POP JUMP JUMPDEST PUSH1 0x0 PUSH1 0x20 DUP3 ADD SWAP1 POP PUSH2 0x16B4 PUSH1 0x0 DUP4 ADD DUP5 PUSH2 0x1690 JUMP JUMPDEST SWAP3 SWAP2 POP POP JUMP JUMPDEST PUSH1 0x0 PUSH1 0x20 DUP3 DUP5 SUB SLT ISZERO PUSH2 0x16D0 JUMPI PUSH2 0x16CF PUSH2 0x1337 JUMP JUMPDEST JUMPDEST PUSH1 0x0 PUSH2 0x16DE DUP5 DUP3 DUP6 ADD PUSH2 0x1551 JUMP JUMPDEST SWAP2 POP POP SWAP3 SWAP2 POP POP JUMP JUMPDEST PUSH1 0x0 PUSH1 0xC0 DUP3 ADD SWAP1 POP DUP2 DUP2 SUB PUSH1 0x0 DUP4 ADD MSTORE PUSH2 0x1701 DUP2 DUP10 PUSH2 0x12D2 JUMP JUMPDEST SWAP1 POP PUSH2 0x1710 PUSH1 0x20 DUP4 ADD DUP9 PUSH2 0x1659 JUMP JUMPDEST PUSH2 0x171D PUSH1 0x40 DUP4 ADD DUP8 PUSH2 0x15DC JUMP JUMPDEST PUSH2 0x172A PUSH1 0x60 DUP4 ADD DUP7 PUSH2 0x15DC JUMP JUMPDEST PUSH2 0x1737 PUSH1 0x80 DUP4 ADD DUP6 PUSH2 0x15DC JUMP JUMPDEST PUSH2 0x1744 PUSH1 0xA0 DUP4 ADD DUP5 PUSH2 0x15DC JUMP JUMPDEST SWAP8 SWAP7 POP POP POP POP POP POP POP JUMP JUMPDEST PUSH1 0x0 DUP1 PUSH1 0x40 DUP4 DUP6 SUB SLT ISZERO PUSH2 0x1766 JUMPI PUSH2 0x1765 PUSH2 0x1337 JUMP JUMPDEST JUMPDEST PUSH1 0x0 PUSH2 0x1774 DUP6 DUP3 DUP7 ADD PUSH2 0x1551 JUMP JUMPDEST SWAP3 POP POP PUSH1 0x20 PUSH2 0x1785 DUP6 DUP3 DUP7 ADD PUSH2 0x1551 JUMP JUMPDEST SWAP2 POP POP SWAP3 POP SWAP3 SWAP1 POP JUMP JUMPDEST PUSH32 0x4E487B7100000000000000000000000000000000000000000000000000000000 PUSH1 0x0 MSTORE PUSH1 0x22 PUSH1 0x4 MSTORE PUSH1 0x24 PUSH1 0x0 REVERT JUMPDEST PUSH1 0x0 PUSH1 0x2 DUP3 DIV SWAP1 POP PUSH1 0x1 DUP3 AND DUP1 PUSH2 0x17D6 JUMPI PUSH1 0x7F DUP3 AND SWAP2 POP JUMPDEST PUSH1 0x20 DUP3 LT DUP2 SUB PUSH2 0x17E9 JUMPI PUSH2 0x17E8 PUSH2 0x178F JUMP JUMPDEST JUMPDEST POP SWAP2 SWAP1 POP JUMP JUMPDEST PUSH32 0x596F752061726520756E64657220746865206167650000000000000000000000 PUSH1 0x0 DUP3 ADD MSTORE POP JUMP JUMPDEST PUSH1 0x0 PUSH2 0x1825 PUSH1 0x15 DUP4 PUSH2 0x1286 JUMP JUMPDEST SWAP2 POP PUSH2 0x1830 DUP3 PUSH2 0x17EF JUMP JUMPDEST PUSH1 0x20 DUP3 ADD SWAP1 POP SWAP2 SWAP1 POP JUMP JUMPDEST PUSH1 0x0 PUSH1 0x20 DUP3 ADD SWAP1 POP DUP2 DUP2 SUB PUSH1 0x0 DUP4 ADD MSTORE PUSH2 0x1854 DUP2 PUSH2 0x1818 JUMP JUMPDEST SWAP1 POP SWAP2 SWAP1 POP JUMP JUMPDEST PUSH32 0x596F7520646F6E277420686176652062616C616E636520656E6F756768000000 PUSH1 0x0 DUP3 ADD MSTORE POP JUMP JUMPDEST PUSH1 0x0 PUSH2 0x1891 PUSH1 0x1D DUP4 PUSH2 0x1286 JUMP JUMPDEST SWAP2 POP PUSH2 0x189C DUP3 PUSH2 0x185B JUMP JUMPDEST PUSH1 0x20 DUP3 ADD SWAP1 POP SWAP2 SWAP1 POP JUMP JUMPDEST PUSH1 0x0 PUSH1 0x20 DUP3 ADD SWAP1 POP DUP2 DUP2 SUB PUSH1 0x0 DUP4 ADD MSTORE PUSH2 0x18C0 DUP2 PUSH2 0x1884 JUMP JUMPDEST SWAP1 POP SWAP2 SWAP1 POP JUMP JUMPDEST PUSH32 0x596F757220496E737572616E6365206973206578706972656400000000000000 PUSH1 0x0 DUP3 ADD MSTORE POP JUMP JUMPDEST PUSH1 0x0 PUSH2 0x18FD PUSH1 0x19 DUP4 PUSH2 0x1286 JUMP JUMPDEST SWAP2 POP PUSH2 0x1908 DUP3 PUSH2 0x18C7 JUMP JUMPDEST PUSH1 0x20 DUP3 ADD SWAP1 POP SWAP2 SWAP1 POP JUMP JUMPDEST PUSH1 0x0 PUSH1 0x20 DUP3 ADD SWAP1 POP DUP2 DUP2 SUB PUSH1 0x0 DUP4 ADD MSTORE PUSH2 0x192C DUP2 PUSH2 0x18F0 JUMP JUMPDEST SWAP1 POP SWAP2 SWAP1 POP JUMP JUMPDEST PUSH32 0x4E487B7100000000000000000000000000000000000000000000000000000000 PUSH1 0x0 MSTORE PUSH1 0x11 PUSH1 0x4 MSTORE PUSH1 0x24 PUSH1 0x0 REVERT JUMPDEST PUSH1 0x0 PUSH2 0x196D DUP3 PUSH2 0x1476 JUMP JUMPDEST SWAP2 POP PUSH2 0x1978 DUP4 PUSH2 0x1476 JUMP JUMPDEST SWAP3 POP DUP3 DUP3 ADD SWAP1 POP DUP1 DUP3 GT ISZERO PUSH2 0x1990 JUMPI PUSH2 0x198F PUSH2 0x1933 JUMP JUMPDEST JUMPDEST SWAP3 SWAP2 POP POP JUMP JUMPDEST PUSH1 0x0 DUP2 SWAP1 POP DUP2 PUSH1 0x0 MSTORE PUSH1 0x20 PUSH1 0x0 KECCAK256 SWAP1 POP SWAP2 SWAP1 POP JUMP JUMPDEST PUSH1 0x0 PUSH1 0x20 PUSH1 0x1F DUP4 ADD DIV SWAP1 POP SWAP2 SWAP1 POP JUMP JUMPDEST PUSH1 0x0 DUP3 DUP3 SHL SWAP1 POP SWAP3 SWAP2 POP POP JUMP JUMPDEST PUSH1 0x0 PUSH1 0x8 DUP4 MUL PUSH2 0x19F8 PUSH32 0xFFFFFFFFFFFFFFFFFFFFFFFFFFFFFFFFFFFFFFFFFFFFFFFFFFFFFFFFFFFFFFFF DUP3 PUSH2 0x19BB JUMP JUMPDEST PUSH2 0x1A02 DUP7 DUP4 PUSH2 0x19BB JUMP JUMPDEST SWAP6 POP DUP1 NOT DUP5 AND SWAP4 POP DUP1 DUP7 AND DUP5 OR SWAP3 POP POP POP SWAP4 SWAP3 POP POP POP JUMP JUMPDEST PUSH1 0x0 DUP2 SWAP1 POP SWAP2 SWAP1 POP JUMP JUMPDEST PUSH1 0x0 PUSH2 0x1A3F PUSH2 0x1A3A PUSH2 0x1A35 DUP5 PUSH2 0x1476 JUMP JUMPDEST PUSH2 0x1A1A JUMP JUMPDEST PUSH2 0x1476 JUMP JUMPDEST SWAP1 POP SWAP2 SWAP1 POP JUMP JUMPDEST PUSH1 0x0 DUP2 SWAP1 POP SWAP2 SWAP1 POP JUMP JUMPDEST PUSH2 0x1A59 DUP4 PUSH2 0x1A24 JUMP JUMPDEST PUSH2 0x1A6D PUSH2 0x1A65 DUP3 PUSH2 0x1A46 JUMP JUMPDEST DUP5 DUP5 SLOAD PUSH2 0x19C8 JUMP JUMPDEST DUP3 SSTORE POP POP POP POP JUMP JUMPDEST PUSH1 0x0 SWAP1 JUMP JUMPDEST PUSH2 0x1A82 PUSH2 0x1A75 JUMP JUMPDEST PUSH2 0x1A8D DUP2 DUP5 DUP5 PUSH2 0x1A50 JUMP JUMPDEST POP POP POP JUMP JUMPDEST JUMPDEST DUP2 DUP2 LT ISZERO PUSH2 0x1AB1 JUMPI PUSH2 0x1AA6 PUSH1 0x0 DUP3 PUSH2 0x1A7A JUMP JUMPDEST PUSH1 0x1 DUP2 ADD SWAP1 POP PUSH2 0x1A93 JUMP JUMPDEST POP POP JUMP JUMPDEST PUSH1 0x1F DUP3 GT ISZERO PUSH2 0x1AF6 JUMPI PUSH2 0x1AC7 DUP2 PUSH2 0x1996 JUMP JUMPDEST PUSH2 0x1AD0 DUP5 PUSH2 0x19AB JUMP JUMPDEST DUP2 ADD PUSH1 0x20 DUP6 LT ISZERO PUSH2 0x1ADF JUMPI DUP2 SWAP1 POP JUMPDEST PUSH2 0x1AF3 PUSH2 0x1AEB DUP6 PUSH2 0x19AB JUMP JUMPDEST DUP4 ADD DUP3 PUSH2 0x1A92 JUMP JUMPDEST POP POP JUMPDEST POP POP POP JUMP JUMPDEST PUSH1 0x0 DUP3 DUP3 SHR SWAP1 POP SWAP3 SWAP2 POP POP JUMP JUMPDEST PUSH1 0x0 PUSH2 0x1B19 PUSH1 0x0 NOT DUP5 PUSH1 0x8 MUL PUSH2 0x1AFB JUMP JUMPDEST NOT DUP1 DUP4 AND SWAP2 POP POP SWAP3 SWAP2 POP POP JUMP JUMPDEST PUSH1 0x0 PUSH2 0x1B32 DUP4 DUP4 PUSH2 0x1B08 JUMP JUMPDEST SWAP2 POP DUP3 PUSH1 0x2 MUL DUP3 OR SWAP1 POP SWAP3 SWAP2 POP POP JUMP JUMPDEST PUSH2 0x1B4B DUP3 PUSH2 0x127B JUMP JUMPDEST PUSH8 0xFFFFFFFFFFFFFFFF DUP2 GT ISZERO PUSH2 0x1B64 JUMPI PUSH2 0x1B63 PUSH2 0x134B JUMP JUMPDEST JUMPDEST PUSH2 0x1B6E DUP3 SLOAD PUSH2 0x17BE JUMP JUMPDEST PUSH2 0x1B79 DUP3 DUP3 DUP6 PUSH2 0x1AB5 JUMP JUMPDEST PUSH1 0x0 PUSH1 0x20 SWAP1 POP PUSH1 0x1F DUP4 GT PUSH1 0x1 DUP2 EQ PUSH2 0x1BAC JUMPI PUSH1 0x0 DUP5 ISZERO PUSH2 0x1B9A JUMPI DUP3 DUP8 ADD MLOAD SWAP1 POP JUMPDEST PUSH2 0x1BA4 DUP6 DUP3 PUSH2 0x1B26 JUMP JUMPDEST DUP7 SSTORE POP PUSH2 0x1C0C JUMP JUMPDEST PUSH1 0x1F NOT DUP5 AND PUSH2 0x1BBA DUP7 PUSH2 0x1996 JUMP JUMPDEST PUSH1 0x0 JUMPDEST DUP3 DUP2 LT ISZERO PUSH2 0x1BE2 JUMPI DUP5 DUP10 ADD MLOAD DUP3 SSTORE PUSH1 0x1 DUP3 ADD SWAP2 POP PUSH1 0x20 DUP6 ADD SWAP5 POP PUSH1 0x20 DUP2 ADD SWAP1 POP PUSH2 0x1BBD JUMP JUMPDEST DUP7 DUP4 LT ISZERO PUSH2 0x1BFF JUMPI DUP5 DUP10 ADD MLOAD PUSH2 0x1BFB PUSH1 0x1F DUP10 AND DUP3 PUSH2 0x1B08 JUMP JUMPDEST DUP4 SSTORE POP JUMPDEST PUSH1 0x1 PUSH1 0x2 DUP9 MUL ADD DUP9 SSTORE POP POP POP JUMPDEST POP POP POP POP POP POP JUMP JUMPDEST PUSH1 0x0 PUSH2 0x1C1F DUP3 PUSH2 0x1476 JUMP JUMPDEST SWAP2 POP PUSH32 0xFFFFFFFFFFFFFFFFFFFFFFFFFFFFFFFFFFFFFFFFFFFFFFFFFFFFFFFFFFFFFFFF DUP3 SUB PUSH2 0x1C51 JUMPI PUSH2 0x1C50 PUSH2 0x1933 JUMP JUMPDEST JUMPDEST PUSH1 0x1 DUP3 ADD SWAP1 POP SWAP2 SWAP1 POP JUMP JUMPDEST PUSH32 0x45524332303A2064656372656173656420616C6C6F77616E63652062656C6F77 PUSH1 0x0 DUP3 ADD MSTORE PUSH32 0x207A65726F000000000000000000000000000000000000000000000000000000 PUSH1 0x20 DUP3 ADD MSTORE POP JUMP JUMPDEST PUSH1 0x0 PUSH2 0x1CB8 PUSH1 0x25 DUP4 PUSH2 0x1286 JUMP JUMPDEST SWAP2 POP PUSH2 0x1CC3 DUP3 PUSH2 0x1C5C JUMP JUMPDEST PUSH1 0x40 DUP3 ADD SWAP1 POP SWAP2 SWAP1 POP JUMP JUMPDEST PUSH1 0x0 PUSH1 0x20 DUP3 ADD SWAP1 POP DUP2 DUP2 SUB PUSH1 0x0 DUP4 ADD MSTORE PUSH2 0x1CE7 DUP2 PUSH2 0x1CAB JUMP JUMPDEST SWAP1 POP SWAP2 SWAP1 POP JUMP JUMPDEST PUSH32 0x4F776E61626C653A206E6577206F776E657220697320746865207A65726F2061 PUSH1 0x0 DUP3 ADD MSTORE PUSH32 0x6464726573730000000000000000000000000000000000000000000000000000 PUSH1 0x20 DUP3 ADD MSTORE POP JUMP JUMPDEST PUSH1 0x0 PUSH2 0x1D4A PUSH1 0x26 DUP4 PUSH2 0x1286 JUMP JUMPDEST SWAP2 POP PUSH2 0x1D55 DUP3 PUSH2 0x1CEE JUMP JUMPDEST PUSH1 0x40 DUP3 ADD SWAP1 POP SWAP2 SWAP1 POP JUMP JUMPDEST PUSH1 0x0 PUSH1 0x20 DUP3 ADD SWAP1 POP DUP2 DUP2 SUB PUSH1 0x0 DUP4 ADD MSTORE PUSH2 0x1D79 DUP2 PUSH2 0x1D3D JUMP JUMPDEST SWAP1 POP SWAP2 SWAP1 POP JUMP JUMPDEST PUSH32 0x45524332303A20617070726F76652066726F6D20746865207A65726F20616464 PUSH1 0x0 DUP3 ADD MSTORE PUSH32 0x7265737300000000000000000000000000000000000000000000000000000000 PUSH1 0x20 DUP3 ADD MSTORE POP JUMP JUMPDEST PUSH1 0x0 PUSH2 0x1DDC PUSH1 0x24 DUP4 PUSH2 0x1286 JUMP JUMPDEST SWAP2 POP PUSH2 0x1DE7 DUP3 PUSH2 0x1D80 JUMP JUMPDEST PUSH1 0x40 DUP3 ADD SWAP1 POP SWAP2 SWAP1 POP JUMP JUMPDEST PUSH1 0x0 PUSH1 0x20 DUP3 ADD SWAP1 POP DUP2 DUP2 SUB PUSH1 0x0 DUP4 ADD MSTORE PUSH2 0x1E0B DUP2 PUSH2 0x1DCF JUMP JUMPDEST SWAP1 POP SWAP2 SWAP1 POP JUMP JUMPDEST PUSH32 0x45524332303A20617070726F766520746F20746865207A65726F206164647265 PUSH1 0x0 DUP3 ADD MSTORE PUSH32 0x7373000000000000000000000000000000000000000000000000000000000000 PUSH1 0x20 DUP3 ADD MSTORE POP JUMP JUMPDEST PUSH1 0x0 PUSH2 0x1E6E PUSH1 0x22 DUP4 PUSH2 0x1286 JUMP JUMPDEST SWAP2 POP PUSH2 0x1E79 DUP3 PUSH2 0x1E12 JUMP JUMPDEST PUSH1 0x40 DUP3 ADD SWAP1 POP SWAP2 SWAP1 POP JUMP JUMPDEST PUSH1 0x0 PUSH1 0x20 DUP3 ADD SWAP1 POP DUP2 DUP2 SUB PUSH1 0x0 DUP4 ADD MSTORE PUSH2 0x1E9D DUP2 PUSH2 0x1E61 JUMP JUMPDEST SWAP1 POP SWAP2 SWAP1 POP JUMP JUMPDEST PUSH32 0x45524332303A20696E73756666696369656E7420616C6C6F77616E6365000000 PUSH1 0x0 DUP3 ADD MSTORE POP JUMP JUMPDEST PUSH1 0x0 PUSH2 0x1EDA PUSH1 0x1D DUP4 PUSH2 0x1286 JUMP JUMPDEST SWAP2 POP PUSH2 0x1EE5 DUP3 PUSH2 0x1EA4 JUMP JUMPDEST PUSH1 0x20 DUP3 ADD SWAP1 POP SWAP2 SWAP1 POP JUMP JUMPDEST PUSH1 0x0 PUSH1 0x20 DUP3 ADD SWAP1 POP DUP2 DUP2 SUB PUSH1 0x0 DUP4 ADD MSTORE PUSH2 0x1F09 DUP2 PUSH2 0x1ECD JUMP JUMPDEST SWAP1 POP SWAP2 SWAP1 POP JUMP JUMPDEST PUSH32 0x45524332303A207472616E736665722066726F6D20746865207A65726F206164 PUSH1 0x0 DUP3 ADD MSTORE PUSH32 0x6472657373000000000000000000000000000000000000000000000000000000 PUSH1 0x20 DUP3 ADD MSTORE POP JUMP JUMPDEST PUSH1 0x0 PUSH2 0x1F6C PUSH1 0x25 DUP4 PUSH2 0x1286 JUMP JUMPDEST SWAP2 POP PUSH2 0x1F77 DUP3 PUSH2 0x1F10 JUMP JUMPDEST PUSH1 0x40 DUP3 ADD SWAP1 POP SWAP2 SWAP1 POP JUMP JUMPDEST PUSH1 0x0 PUSH1 0x20 DUP3 ADD SWAP1 POP DUP2 DUP2 SUB PUSH1 0x0 DUP4 ADD MSTORE PUSH2 0x1F9B DUP2 PUSH2 0x1F5F JUMP JUMPDEST SWAP1 POP SWAP2 SWAP1 POP JUMP JUMPDEST PUSH32 0x45524332303A207472616E7366657220746F20746865207A65726F2061646472 PUSH1 0x0 DUP3 ADD MSTORE PUSH32 0x6573730000000000000000000000000000000000000000000000000000000000 PUSH1 0x20 DUP3 ADD MSTORE POP JUMP JUMPDEST PUSH1 0x0 PUSH2 0x1FFE PUSH1 0x23 DUP4 PUSH2 0x1286 JUMP JUMPDEST SWAP2 POP PUSH2 0x2009 DUP3 PUSH2 0x1FA2 JUMP JUMPDEST PUSH1 0x40 DUP3 ADD SWAP1 POP SWAP2 SWAP1 POP JUMP JUMPDEST PUSH1 0x0 PUSH1 0x20 DUP3 ADD SWAP1 POP DUP2 DUP2 SUB PUSH1 0x0 DUP4 ADD MSTORE PUSH2 0x202D DUP2 PUSH2 0x1FF1 JUMP JUMPDEST SWAP1 POP SWAP2 SWAP1 POP JUMP JUMPDEST PUSH32 0x45524332303A207472616E7366657220616D6F756E7420657863656564732062 PUSH1 0x0 DUP3 ADD MSTORE PUSH32 0x616C616E63650000000000000000000000000000000000000000000000000000 PUSH1 0x20 DUP3 ADD MSTORE POP JUMP JUMPDEST PUSH1 0x0 PUSH2 0x2090 PUSH1 0x26 DUP4 PUSH2 0x1286 JUMP JUMPDEST SWAP2 POP PUSH2 0x209B DUP3 PUSH2 0x2034 JUMP JUMPDEST PUSH1 0x40 DUP3 ADD SWAP1 POP SWAP2 SWAP1 POP JUMP JUMPDEST PUSH1 0x0 PUSH1 0x20 DUP3 ADD SWAP1 POP DUP2 DUP2 SUB PUSH1 0x0 DUP4 ADD MSTORE PUSH2 0x20BF DUP2 PUSH2 0x2083 JUMP JUMPDEST SWAP1 POP SWAP2 SWAP1 POP JUMP JUMPDEST PUSH32 0x4F776E61626C653A2063616C6C6572206973206E6F7420746865206F776E6572 PUSH1 0x0 DUP3 ADD MSTORE POP JUMP JUMPDEST PUSH1 0x0 PUSH2 0x20FC PUSH1 0x20 DUP4 PUSH2 0x1286 JUMP JUMPDEST SWAP2 POP PUSH2 0x2107 DUP3 PUSH2 0x20C6 JUMP JUMPDEST PUSH1 0x20 DUP3 ADD SWAP1 POP SWAP2 SWAP1 POP JUMP JUMPDEST PUSH1 0x0 PUSH1 0x20 DUP3 ADD SWAP1 POP DUP2 DUP2 SUB PUSH1 0x0 DUP4 ADD MSTORE PUSH2 0x212B DUP2 PUSH2 0x20EF JUMP JUMPDEST SWAP1 POP SWAP2 SWAP1 POP JUMP INVALID LOG2 PUSH5 0x6970667358 0x22 SLT KECCAK256 0xCA COINBASE 0xC1 0xBB GAS 0xDA CALLDATALOAD 0xE5 CALL CALLDATALOAD SELFBALANCE 0xFB 0xF6 SWAP13 DUP15 LOG0 0xBD MSTORE PUSH29 0xADF46A76962A0C38BE034C51864736F6C634300081300330000000000 "
				},
				"gasEstimates": {
					"creation": {
						"codeDepositCost": "1710400",
						"executionCost": "infinite",
						"totalCost": "infinite"
					},
					"external": {
						"allowance(address,address)": "infinite",
						"approve(address,uint256)": "infinite",
						"balanceOf(address)": "2864",
						"decimals()": "432",
						"decreaseAllowance(address,uint256)": "infinite",
						"increaseAllowance(address,uint256)": "infinite",
						"insuranceAddress()": "2559",
						"name()": "infinite",
						"owner()": "2589",
						"registeCustomer(string,uint256)": "infinite",
						"registeredCustomer()": "2495",
						"registeredInsurance()": "2496",
						"renounceOwnership()": "30443",
						"symbol()": "infinite",
						"totalSupply()": "2527",
						"transfer(address,uint256)": "infinite",
						"transferFrom(address,address,uint256)": "infinite",
						"transferOwnership(address)": "30854",
						"users(address)": "infinite"
					}
				},
				"methodIdentifiers": {
					"allowance(address,address)": "dd62ed3e",
					"approve(address,uint256)": "095ea7b3",
					"balanceOf(address)": "70a08231",
					"decimals()": "313ce567",
					"decreaseAllowance(address,uint256)": "a457c2d7",
					"increaseAllowance(address,uint256)": "39509351",
					"insuranceAddress()": "2401273c",
					"name()": "06fdde03",
					"owner()": "8da5cb5b",
					"registeCustomer(string,uint256)": "080646ec",
					"registeredCustomer()": "caea5bc5",
					"registeredInsurance()": "25942212",
					"renounceOwnership()": "715018a6",
					"symbol()": "95d89b41",
					"totalSupply()": "18160ddd",
					"transfer(address,uint256)": "a9059cbb",
					"transferFrom(address,address,uint256)": "23b872dd",
					"transferOwnership(address)": "f2fde38b",
					"users(address)": "a87430ba"
				}
			},
			"storageLayout": {
				"storage": [
					{
						"astId": 128,
						"contract": "contracts/InsuranceContract.sol:InsuranceContract",
						"label": "_balances",
						"offset": 0,
						"slot": "0",
						"type": "t_mapping(t_address,t_uint256)"
					},
					{
						"astId": 134,
						"contract": "contracts/InsuranceContract.sol:InsuranceContract",
						"label": "_allowances",
						"offset": 0,
						"slot": "1",
						"type": "t_mapping(t_address,t_mapping(t_address,t_uint256))"
					},
					{
						"astId": 136,
						"contract": "contracts/InsuranceContract.sol:InsuranceContract",
						"label": "_totalSupply",
						"offset": 0,
						"slot": "2",
						"type": "t_uint256"
					},
					{
						"astId": 138,
						"contract": "contracts/InsuranceContract.sol:InsuranceContract",
						"label": "_name",
						"offset": 0,
						"slot": "3",
						"type": "t_string_storage"
					},
					{
						"astId": 140,
						"contract": "contracts/InsuranceContract.sol:InsuranceContract",
						"label": "_symbol",
						"offset": 0,
						"slot": "4",
						"type": "t_string_storage"
					},
					{
						"astId": 7,
						"contract": "contracts/InsuranceContract.sol:InsuranceContract",
						"label": "_owner",
						"offset": 0,
						"slot": "5",
						"type": "t_address"
					},
					{
						"astId": 835,
						"contract": "contracts/InsuranceContract.sol:InsuranceContract",
						"label": "insuranceAddress",
						"offset": 0,
						"slot": "6",
						"type": "t_address"
					},
					{
						"astId": 837,
						"contract": "contracts/InsuranceContract.sol:InsuranceContract",
						"label": "registeredInsurance",
						"offset": 0,
						"slot": "7",
						"type": "t_uint256"
					},
					{
						"astId": 839,
						"contract": "contracts/InsuranceContract.sol:InsuranceContract",
						"label": "registeredCustomer",
						"offset": 0,
						"slot": "8",
						"type": "t_uint256"
					},
					{
						"astId": 852,
						"contract": "contracts/InsuranceContract.sol:InsuranceContract",
						"label": "users",
						"offset": 0,
						"slot": "9",
						"type": "t_mapping(t_address,t_struct(User)865_storage)"
					}
				],
				"types": {
					"t_address": {
						"encoding": "inplace",
						"label": "address",
						"numberOfBytes": "20"
					},
					"t_mapping(t_address,t_mapping(t_address,t_uint256))": {
						"encoding": "mapping",
						"key": "t_address",
						"label": "mapping(address => mapping(address => uint256))",
						"numberOfBytes": "32",
						"value": "t_mapping(t_address,t_uint256)"
					},
					"t_mapping(t_address,t_struct(User)865_storage)": {
						"encoding": "mapping",
						"key": "t_address",
						"label": "mapping(address => struct InsuranceContract.User)",
						"numberOfBytes": "32",
						"value": "t_struct(User)865_storage"
					},
					"t_mapping(t_address,t_uint256)": {
						"encoding": "mapping",
						"key": "t_address",
						"label": "mapping(address => uint256)",
						"numberOfBytes": "32",
						"value": "t_uint256"
					},
					"t_string_storage": {
						"encoding": "bytes",
						"label": "string",
						"numberOfBytes": "32"
					},
					"t_struct(User)865_storage": {
						"encoding": "inplace",
						"label": "struct InsuranceContract.User",
						"members": [
							{
								"astId": 854,
								"contract": "contracts/InsuranceContract.sol:InsuranceContract",
								"label": "userName",
								"offset": 0,
								"slot": "0",
								"type": "t_string_storage"
							},
							{
								"astId": 856,
								"contract": "contracts/InsuranceContract.sol:InsuranceContract",
								"label": "userAddress",
								"offset": 0,
								"slot": "1",
								"type": "t_address"
							},
							{
								"astId": 858,
								"contract": "contracts/InsuranceContract.sol:InsuranceContract",
								"label": "userAge",
								"offset": 0,
								"slot": "2",
								"type": "t_uint256"
							},
							{
								"astId": 860,
								"contract": "contracts/InsuranceContract.sol:InsuranceContract",
								"label": "userBalance",
								"offset": 0,
								"slot": "3",
								"type": "t_uint256"
							},
							{
								"astId": 862,
								"contract": "contracts/InsuranceContract.sol:InsuranceContract",
								"label": "startInsurance",
								"offset": 0,
								"slot": "4",
								"type": "t_uint256"
							},
							{
								"astId": 864,
								"contract": "contracts/InsuranceContract.sol:InsuranceContract",
								"label": "endInsurance",
								"offset": 0,
								"slot": "5",
								"type": "t_uint256"
							}
						],
						"numberOfBytes": "192"
					},
					"t_uint256": {
						"encoding": "inplace",
						"label": "uint256",
						"numberOfBytes": "32"
					}
				}
			},
			"userdoc": {
				"kind": "user",
				"methods": {},
				"version": 1
			}
		}
	}
}